:020000040800F2
:100000000000022025510008CD490008D34900080E
:10001000D9490008DF490008E54900080000000050
:10002000000000000000000000000000EB49000894
:10003000F949000800000000074A0008154A0008B6
:10004000755100087551000875510008214A0008D3
:100050007551000875510008755100087551000868
:100060007551000875510008755100087551000858
:100070007551000875510008755100087551000848
:100080007551000875510008755100087551000838
:100090007551000875510008755100087551000828
:1000A0007551000875510008755100087551000818
:1000B0007551000875510008755100087551000808
:1000C00075510008755100087551000875510008F8
:1000D00075510008755100087551000875510008E8
:1000E00075510008755100087551000875510008D8
:1000F00075510008755100087551000875510008C8
:1001000075510008354A00087551000875510008FE
:100110007551000875510008494A000875510008DA
:100120007551000875510008755100085D4A0008B6
:100130007551000875510008755100087551000887
:100140007551000875510008755100087551000877
:1001500075510008714A0008755100087551000872
:100160007551000875510008755100087551000857
:100170007551000875510008755100080000000015
:080180007551000875510008DB
:1001900010B5054C237833B9044B13B10448AFF3C1
:1001A00000800123237010BD3802002000000000F1
:1001B0000C17060808B5034B1BB103490348AFF3FE
:1001C000008008BD000000003C0200200C1706085B
:1001D00001F0FF01102A2BDB10F0070F08D010F8F8
:1001E000013B013A8B422DD010F0070F42B3F6D1FC
:1001F000F0B441EA012141EA014122F007047FF015
:1002000000070023F0E80256083C85EA010586EA6B
:10021000010685FA47F5A3FA87F586FA47F6A5FAA7
:1002200087F68EB9EED1F0BC01F0FF0102F00702B3
:1002300032B110F8013B013A83EA010313B1F8D15E
:100240000020704701387047002D06BF354603383F
:10025000073815F0010F07D1013015F4807F02BF78
:10026000013015F4C03F0130F0BC0138704700BFC9
:10027000034613F8012B002AFBD1181A01387047E6
:1002800081F0004102E000BF83F0004330B54FEA47
:1002900041044FEA430594EA050F08BF90EA020FB4
:1002A0001FBF54EA000C55EA020C7FEA645C7FEA47
:1002B000655C00F0E2804FEA5454D4EB5555B8BF6A
:1002C0006D420CDD2C4480EA020281EA030382EADB
:1002D000000083EA010180EA020281EA0303362D6D
:1002E00088BF30BD11F0004F4FEA01314FF4801C40
:1002F0004CEA113102D0404261EB410113F0004F52
:100300004FEA03334CEA133302D0524263EB430308
:1003100094EA050F00F0A780A4F10104D5F1200EA6
:100320000DDB02FA0EFC22FA05F2801841F1000101
:1003300003FA0EF2801843FA05F359410EE0A5F1D5
:1003400020050EF1200E012A03FA0EFC28BF4CF006
:10035000020C43FA05F3C01851EBE37101F00045BC
:1003600007D54FF0000EDCF1000C7EEB00006EEBC9
:100370000101B1F5801F1BD3B1F5001F0CD3490853
:100380005FEA30004FEA3C0C04F101044FEA4452AA
:1003900012F5800F80F09A80BCF1004F08BF5FEA31
:1003A000500C50F1000041EB045141EA050130BD11
:1003B0005FEA4C0C404141EB0101013C28BFB1F523
:1003C000801FE9D291F0000F04BF01460020B1FA6E
:1003D00081F308BF2033A3F10B03B3F120020CDA41
:1003E0000C3208DD02F1140CC2F10C0201FA0CF01F
:1003F00021FA02F10CE002F11402D8BFC2F1200C84
:1004000001FA02F120FA0CFCDCBF41EA0C01904039
:10041000E41AA2BF01EB0451294330BD6FEA040482
:100420001F3C1CDA0C340EDC04F11404C4F120026D
:1004300020FA04F001FA02F340EA030021FA04F37F
:1004400045EA030130BDC4F10C04C4F1200220FAD6
:1004500002F001FA04F340EA0300294630BD21FA14
:1004600004F0294630BD94F0000F83F4801306BFDA
:1004700081F480110134013D4EE77FEA645C18BFCE
:100480007FEA655C29D094EA050F08BF90EA020F65
:1004900005D054EA000C04BF1946104630BD91EA5D
:1004A000030F1EBF0021002030BD5FEA545C05D160
:1004B0004000494128BF41F0004130BD14F580049F
:1004C0003CBF01F5801130BD01F0004545F0FE4113
:1004D00041F470014FF0000030BD7FEA645C1ABF48
:1004E000194610467FEA655C1CBF0B46024650EA7F
:1004F000013406BF52EA033591EA030F41F40021AB
:1005000030BD00BF90F0000F04BF0021704730B530
:100510004FF4806404F132044FF000054FF0000105
:1005200050E700BF90F0000F04BF0021704730B5C6
:100530004FF4806404F1320410F0004548BF40429B
:100540004FF000013EE700BF42004FEAE2014FEAF0
:1005500031014FEA02701FBF12F07F4393F07F4FCB
:1005600081F06051704732F07F4208BF704793F0CE
:100570007F4F04BF41F40021704730B54FF46074E1
:1005800001F0004521F000411CE700BF50EA0102E4
:1005900008BF704730B54FF000050AE050EA01028D
:1005A00008BF704730B511F0004502D5404261EBFD
:1005B00041014FF4806404F132045FEA915C3FF43E
:1005C000D8AE4FF003025FEADC0C18BF03325FEADB
:1005D000DC0C18BF033202EBDC02C2F1200300FA8C
:1005E00003FC20FA02F001FA03FE40EA0E0021FAB1
:1005F00002F11444BDE600BF70B54FF0FF0C4CF49F
:10060000E06C1CEA11541DBF1CEA135594EA0C0F50
:1006100095EA0C0F00F0DEF82C4481EA030621EA8B
:100620004C5123EA4C5350EA013518BF52EA0335C6
:1006300041F4801143F4801338D0A0FB02CE4FF078
:100640000005E1FB02E506F00042E0FB03E54FF0A8
:100650000006E1FB03569CF0000F18BF4EF0010EA0
:10066000A4F1FF04B6F5007F64F5407404D25FEA9C
:100670004E0E6D4146EB060642EAC62141EA55514F
:100680004FEAC52040EA5E504FEACE2EB4F1FD0C91
:1006900088BFBCF5E06F1ED8BEF1004F08BF5FEA0F
:1006A000500E50F1000041EB045170BD06F00046C1
:1006B00046EA010140EA020081EA0301B4EB5C046E
:1006C000C2BFD4EB0C0541EA045170BD41F4801166
:1006D0004FF0000E013C00F3AB8014F1360FDEBF8B
:1006E000002001F0004170BDC4F10004203C35DA67
:1006F0000C341BDC04F11404C4F1200500FA05F3EA
:1007000020FA04F001FA05F240EA020001F000428A
:1007100021F0004110EBD37021FA04F642EB060100
:100720005EEA430E08BF20EAD37070BDC4F10C042A
:10073000C4F1200500FA04F320FA05F001FA04F2EE
:1007400040EA020001F0004110EBD37041F10001DA
:100750005EEA430E08BF20EAD37070BDC4F12005E5
:1007600000FA05F24EEA020E20FA04F301FA05F24D
:1007700043EA020321FA04F001F0004121FA04F2F5
:1007800020EA020000EBD3705EEA430E08BF20EAC5
:10079000D37070BD94F0000F0FD101F000464000FF
:1007A00041EB010111F4801F08BF013CF7D041EA81
:1007B000060195F0000F18BF704703F00046520085
:1007C00043EB030313F4801F08BF013DF7D043EA56
:1007D0000603704794EA0C0F0CEA135518BF95EA0C
:1007E0000C0F0CD050EA410618BF52EA4306D1D193
:1007F00081EA030101F000414FF0000070BD50EAB2
:10080000410606BF1046194652EA430619D094EA3B
:100810000C0F02D150EA013613D195EA0C0F05D125
:1008200052EA03361CBF104619460AD181EA030179
:1008300001F0004141F0FE4141F470014FF0000031
:1008400070BD41F0FE4141F4780170BD70B54FF0CC
:10085000FF0C4CF4E06C1CEA11541DBF1CEA13554C
:1008600094EA0C0F95EA0C0F00F0A7F8A4EB05042E
:1008700081EA030E52EA03354FEA013100F0888025
:100880004FEA03334FF0805545EA131343EA1263EE
:100890004FEA022245EA111545EA10654FEA0026A3
:1008A0000EF000419D4208BF964244F1FD0404F55C
:1008B000407402D25B084FEA3202B61A65EB0305B8
:1008C0005B084FEA32024FF480104FF4002CB6EB75
:1008D000020E75EB030E22BFB61A754640EA0C00F5
:1008E0005B084FEA3202B6EB020E75EB030E22BF35
:1008F000B61A754640EA5C005B084FEA3202B6EB76
:10090000020E75EB030E22BFB61A754640EA9C0034
:100910005B084FEA3202B6EB020E75EB030E22BF04
:10092000B61A754640EADC0055EA060E18D04FEAC2
:10093000051545EA16754FEA06164FEAC30343EA62
:1009400052734FEAC2025FEA1C1CC0D111F4801F2F
:100950000BD141EA00014FF000004FF0004CB6E728
:1009600011F4801F04BF01430020B4F1FD0C88BFC7
:10097000BCF5E06F3FF6AFAEB5EB030C04BFB6EBD2
:10098000020C5FEA500C50F1000041EB045170BDC5
:100990000EF0004E4EEA113114EB5C04C2BFD4EBF2
:1009A0000C0541EA045170BD41F480114FF0000E76
:1009B000013C90E645EA060E8DE60CEA135594EAF2
:1009C0000C0F08BF95EA0C0F3FF43BAF94EA0C0FF5
:1009D0000AD150EA01347FF434AF95EA0C0F7FF46A
:1009E00025AF104619462CE795EA0C0F06D152EABE
:1009F00003353FF4FDAE1046194622E750EA4106A2
:100A000018BF52EA43067FF4C5AE50EA41047FF4B2
:100A10000DAF52EA43057FF4EBAE12E74FF0FF3C17
:100A200006E000BF4FF0010C02E000BF4FF0010CE8
:100A30004DF804CD4FEA410C7FEA6C5C4FEA430C61
:100A400018BF7FEA6C5C1BD001B050EA410C0CBFB0
:100A500052EA430C91EA030F02BF90EA020F002012
:100A6000704710F1000F91EA030F58BF994208BF79
:100A700090422CBFD8176FEAE37040F00100704736
:100A80004FEA410C7FEA6C5C02D150EA013C07D18D
:100A90004FEA430C7FEA6C5CD6D152EA033CD3D0D8
:100AA0005DF8040B704700BF8446104662468C46D2
:100AB0001946634600E000BF01B5FFF7B7FF002805
:100AC00048BF10F1000F01BD4DF808EDFFF7F4FF2E
:100AD0000CBF012000205DF808FB00BF4DF808EDB9
:100AE000FFF7EAFF34BF012000205DF808FB00BFDC
:100AF0004DF808EDFFF7E0FF94BF012000205DF8FE
:100B000008FB00BF4DF808EDFFF7CEFF94BF0120B2
:100B100000205DF808FB00BF4DF808EDFFF7C4FFAB
:100B200034BF012000205DF808FB00BF4FEA410CF4
:100B30007FEA6C5C02D150EA013C0AD14FEA430CD7
:100B40007FEA6C5C02D152EA033C02D14FF0000014
:100B500070474FF0010070474FEA410212F5001252
:100B600015D211D56FF47873B3EB625212D94FEAF4
:100B7000C12343F0004343EA505311F0004F23FADE
:100B800002F018BF404270474FF00000704750EA33
:100B9000013005D111F0004008BF6FF000407047F0
:100BA0004FF00000704700BF7BB972B90029BEBF8B
:100BB00000204FF0004106E008BF00281CBF6FF086
:100BC00000414FF0FF3000F0BBB9ADF1080C6DE90A
:100BD00004CE002909DB002B1ADB00F04DF8DDF80C
:100BE00004E0DDE9022304B07047404261EB4101BB
:100BF000002B1BDB00F040F8DDF804E0DDE9022308
:100C000004B0404261EB4101524263EB4303704741
:100C1000524263EB430300F02FF8DDF804E0DDE916
:100C2000022304B0404261EB41017047524263EB42
:100C3000430300F021F8DDF804E0DDE9022304B00D
:100C4000524263EB4303704753B94AB9002908BFC6
:100C500000281CBF4FF0FF314FF0FF3000F070B99B
:100C6000ADF1080C6DE904CE00F006F8DDF804E003
:100C7000DDE9022304B070472DE9F047089E0D46D8
:100C800004460F46002B4AD18A42944665D9B2FAEF
:100C900082F343B102FA03FCC3F120029F4020FA21
:100CA00002F217439C404FEA1C4E1FFA8CF5B7FB2B
:100CB000FEF1220C0EFB117742EA074201FB05F020
:100CC00090420AD91CEB020201F1FF3780F01C812F
:100CD000904240F2198102396244121AA4B2B2FB66
:100CE000FEF00EFB102244EA024400FB05F5A5428B
:100CF0000AD91CEB040400F1FF3280F00781A54201
:100D000040F204816444023840EA0140641B00213F
:100D10001EB1DC400023C6E90043BDE8F0878B42EA
:100D200008D9002E00F0ED800021C6E90005084634
:100D3000BDE8F087B3FA83F1002949D1AB4202D371
:100D4000824200F2F880841A65EB03020120174604
:100D5000002EE2D0C6E90047DFE702B9FFDEB2FAB3
:100D600082F3002B40F090808A1A4FEA1C471FFA4A
:100D70008CFE0121B2FBF7F507FB1520220C42EA9D
:100D800000420EFB05F0904208D91CEB020205F16F
:100D9000FF3802D2904200F2CB804546121AA4B22C
:100DA000B2FBF7F007FB102244EA02440EFB00FE00
:100DB000A64508D91CEB040400F1FF3202D2A64577
:100DC00000F2BB801046A4EB0E0440EA05409FE70A
:100DD000C1F120078B4022FA07FC4CEA030C05FA0C
:100DE00001F420FA07F3FD404FEA1C492343B5FB09
:100DF000F9F81FFA8CFE09FB18551C0C44EA05444F
:100E000008FB0EF5A54202FA01F200FA01F00BD937
:100E10001CEB040408F1FF3A80F08880A54240F200
:100E20008580A8F102086444641B9DB2B4FBF9F309
:100E300009FB134445EA044403FB0EFEA64508D90A
:100E40001CEB040403F1FF356CD2A6456AD9023BC2
:100E5000644443EA0843A3FB0295A4EB0E04AC42AE
:100E6000C846AE4656D353D056B1B0EB080264EB39
:100E70000E0404FA07F7CA40CC401743C6E90074D1
:100E800018460021BDE8F087C3F1200102FA03FCF7
:100E900020FA01F225FA01F19D402A434FEA1C474E
:100EA0001FFA8CFEB1FBF7F007FB1015110C41EA9D
:100EB000054100FB0EF58D4204FA03F408D91CEB42
:100EC000010100F1FF382FD28D422DD90238614443
:100ED000491B92B2B1FBF7F507FB151142EA01423B
:100EE00005FB0EF1914208D91CEB020205F1FF3817
:100EF00016D2914214D9023D6244521A45EA004189
:100F000038E73146304608E73946E6E61046FBE664
:100F10004845A9D2B9EB020865EB0C0E013BA3E7EB
:100F20004546EAE72B4694E74046D1E7D0467BE7C3
:100F3000023D624432E708460AE76444023842E769
:100F4000704700BF012801D0014870470148704731
:100F500018FB06080CFB0608024680B1037813B99B
:100F600000207047013213783BB1A3F13001092909
:100F7000F8D92E2BF6D000207047012070470020B2
:100F80007047000010F0030F09D10D4A82FB0032B8
:100F9000C317C3EB6213642202FB130363B9084A4D
:100FA00082FB0032C317C3EBE2134FF4C87202FB9B
:100FB00013031BB9012070470120704700207047C0
:100FC0001F85EB5110B54A1E054B33F8124002291C
:100FD00003DDFFF7D7FF00B10134204610BD00BF8D
:100FE000C40307082DE9F8430646877907F5FA6731
:100FF00090F8059090F8048040F2B274002503E068
:1010000040F26D131D440134BC4207DA2046FFF75D
:10101000B9FF0028F4D04FF4B773F3E749463846D8
:10102000FFF7D0FF054408EB0503013B0021DA1868
:101030004941D31841F10002100140EA137019012F
:10104000C91A60EB0200020142EA11720B015B1A3D
:1010500062EB0002D20142EA5362DB01B478E100A4
:10106000091B60EB0000400140EAD1604901091909
:1010700040F10000000140EA117009015B1842EBE9
:10108000000270780101091A60EB0000800040EA5C
:10109000917089005B1842EB000231785B1842F1D5
:1010A0000002500140EAD3605901C91A60EB020006
:1010B000800040EA91708900C91842EB0002D2001A
:1010C000C80042EA5171BDE8F883000000286BD0E7
:1010D0008446002968D02DE9F04188B0002400251D
:1010E000D01848D22844314EA6FB005727F00305FC
:1010F00005EB9705401B101A63F100074FF0CC3544
:1011000000FB05F506FB0755A0FB06063544400825
:1011100040EAC57000EB8000A2EB4000303025466D
:1011200020356D44013405F8200C15469E460026F6
:10113000D01822D230441D4EA6FB007828F00307B9
:1011400007EB9807C01B121A63F100004FF0CC3375
:1011500002FB03F306FB0033A2FB062633445208CE
:1011600042EAC3725B080A2D7EF1000E1AD31F2CCF
:10117000B5D900230CE00125B4E70126DAE7013CEC
:1011800004F12000684410F8200C0CF8030013460A
:1011900014B15A1C8A42F2D300220CF8032008B082
:1011A000BDE8F0810023F3E7704700BFCDCCCCCC85
:1011B00008B50121034804F005FF08B9012008BD66
:1011C0000020FCE70004024030B583B00446012152
:1011D000084804F0F7FE0546FFF7EAFFFFF7B2FE06
:1011E00000902B4622460449044800F0E3FE03B079
:1011F00030BD00BF0004024028FB0608980900200B
:1012000000B583B000238DF807300DF107011720DA
:101210000FF032FE9DF80700003818BF012003B020
:101220005DF804FB10B50F4B1B785BB90E490F48F6
:1012300000F0C0FE4FF4FA520D490A4803F0D2FD07
:10124000044628B1FFF7DCFF044630B1204610BD4C
:101250000849064800F030FFF8E70749034800F066
:101260002BFFF3E75402002048FB060898090020F2
:101270004839002058FB06086CFB060878B138B5E1
:101280000C46054669B10846FEF7F2FF02462146C4
:1012900028465DF0B8FCB0FA80F0400938BD002067
:1012A00070470020FAE7000000285CD070B50D46BA
:1012B0000446C222002128465DF090FC5023A5F888
:1012C000C03007222C4920465DF09DFC00284CD1FF
:1012D000E11D0C4600E0013423781BB12F2B01D017
:1012E0003A2BF8D1661A731E3E2B01D900203DE03F
:1012F000324628465DF041FE0023AB5523783A2B59
:101300000BD023780BB32F2B33D12046FEF7B0FF41
:10131000431E7E2B1FD9002028E00134002306E065
:1013200003EB830302EB4302A2F130030134227882
:10133000A2F13001C9B20929F2D9591E4FF6FE7245
:10134000914214D8A5F8C030DBE70C4B1B88A5F8F8
:10135000403001200AE0421C214605F140005DF0CA
:101360000CFE012002E000207047002070BD00202C
:10137000FCE70020FAE700BF7CFB060884FB0608B8
:10138000F0B58FB004460E46FFF7E6FD074600288D
:101390002FD00023039304930593069306AB019388
:1013A00005AB009304AB03AA204920465DF0ACFADC
:1013B000042812D1039BFF2B13D8049AFF2A12D8BA
:1013C000059AFF2A11D8069AFF2A10D83370049B79
:1013D0007370059BB370F27000E0002738460FB0C1
:1013E000F0BD0027FAE70027F8E70027F6E7002717
:1013F000F4E70025089509950A950B950C95CDF80D
:10140000335008A810F042F90949012012F066F99A
:10141000079507AA21460DF1320012F07BF9012849
:10142000DCD1079B33600127D8E700BF88FB0608A3
:10143000980400202DE9F041ADF54E7D06460C469E
:1014400090461F46D49DC22268499DA85DF095FD37
:101450009DA93046FFF728FF002800F0C080002338
:101460009C939CA99DA8FFF78BFF002800F0BA80F1
:1014700000234CF25032012118460EF0E7FA40BB2F
:10148000BDF834239CA900200EF082FC012826D14F
:101490000CB123784BBB01979DAB0093ADAB544A85
:1014A0004FF4167106A85DF0FBF90646013840F2CC
:1014B0005623984225D80024A64228D9321B92B23E
:1014C00006AB191900200EF0EBFD00282FDD0444B7
:1014D000F2E700200EF0EEFB6FF013007BE000203F
:1014E0000EF0E8FB6FF0140075E0029701949DABDD
:1014F0000093ADAB3F4A4FF4167106A85DF0D0F9EA
:10150000D3E700200EF0D6FB6FF0150063E0002457
:1015100084B90026B74215D9BA1B92B208EB06016E
:1015200000200EF0BDFD00280ADD0644F2E74FF072
:10153000FF34EDE700200EF0BDFB6FF016004AE02F
:101540004FF0FF341CB903F07DFE06460EE000208C
:101550000EF0B0FB6FF017003DE0274927485DF023
:1015600077FB03461CE0022003F078FE03F06AFEDE
:10157000801BA84227D2C4F53F72033292B21F49A2
:10158000214400200EF0E0FE0028ECDD04441B485E
:10159000002303551A495DF05BFB03460028DCD0AD
:1015A000002BE3D00022059205AA164918465DF0EB
:1015B000ABF90128DAD100200EF0F0FC00200EF08B
:1015C00079FB059807E000200EF0E8FC00200EF003
:1015D00071FB6FF01D000DF54E7DBDE8F0816FF0E1
:1015E0000900F8E76FF00A00F5E700BF28170608C2
:1015F00018FC060898FB06088CFC060898060020D4
:1016000080FC060898FC06082DE9F04106463249A0
:1016100000F077FD351D4FF48053304A304928469D
:1016200001F0CBFD04232F4A2F4906F1100002F0F0
:1016300047FC06F5077740F26442002138465DF02A
:10164000CDFA002486F81C424FF40C78424621461D
:1016500006F508705DF0C2FA4246214606F58A603A
:101660005DF0BCFA3246294606F5D06002F0B2FBC6
:1016700006F28C654FF44172214628465DF0AEFAC1
:10168000214600E0013101EB410305EB8303002219
:101690001A6000221A715A719A710120D871187259
:1016A000587218209872DA723F29EBD1002485F81D
:1016B00000433A460D4906F5196001F089FE86F8A7
:1016C0009C494FF40052214606F69D105DF086FAC3
:1016D0003046BDE8F08100BF7036002000040240B3
:1016E000BC3700200008024074370020C4360020B8
:1016F00008B50121034804F065FC012800D0002052
:1017000008BD00BF0008024008B5012202210248BE
:1017100004F070FC08BD00BF0008024008B50022BC
:101720000221024804F066FC08BD00BF0008024028
:10173000F8B506460F46154600240DE03046FFF783
:10174000E3FF284603F08AFD3046FFF7E7FF28460F
:1017500003F084FD0134E4B2BC42EFD3F8BD0000D5
:1017600038B50446254B264A2649274800F022FC76
:10177000204600F039FD201D01F052FD04F50775EB
:10178000284601F0EBFE284601F046FF04F1100068
:1017900002F068FC2046FFF7ABFF84F89C090128A3
:1017A0001BD01A4A1A49184800F004FC1948FFF7E0
:1017B0000BFD94F89C39012B11D0134D1649284686
:1017C00000F0F8FB05221549284600F0F3FBC8227B
:1017D00003212046FFF7ACFF38BD114AE2E70A4D6E
:1017E0001049284600F0E6FB05220C49284600F087
:1017F000E1FB2046FFF788FFEEE700BFB4FC0608D8
:10180000C0FC0608CCFC060898090020ACFC0608C1
:10181000E4FC0608F0FC06082CFD060814FD06088A
:10182000A4FC0608F8FC06082DE9F04184B0074640
:10183000FFF7BEFC804642E052B10122039B0093B9
:10184000029B5649564800F037FC04B0BDE8F081D1
:101850000022F3E75349304600F02EFCF5E720461E
:10186000FEF706FD44F62063009383B222464E49FC
:101870004E4800F0A9FE044602464D49484800F093
:1018800099FB14E04B49464800F016FCDDE7204682
:10189000FEF7EEFC83B22246444907F1100002F045
:1018A0007FFD0246044644493D4800F083FBC82CB6
:1018B00069D10399284602F051F800285ED007F557
:1018C0000775284601F090FE002861D0002302939E
:1018D000039307F69D1403AB019302AB00934FF4FF
:1018E000E1634FF400522146284601F089FF024689
:1018F0000028A1D0029B002B9ED0039B002B9BD0E5
:101900002046FEF7B5FC0246254E2C49304600F035
:10191000E2FB22462A49304600F0DDFB2046FEF776
:10192000A7FC0090039B029A2649304600F042FB38
:10193000B8F1010FABD1FFF775FC00288AD022491E
:101940001A48FFF79BFC002889D120491748FFF768
:1019500095FC002896D02046FEF78AFC43F6982393
:10196000009383B2224610491048FFF763FD0446F6
:10197000024617490A4800F01DFB98E71549084838
:1019800000F09AFB61E71449054800F095FB5CE71D
:101990001249034800F00EFB57E700BF8CFE060813
:1019A0009809002014FF06088015070824FE060881
:1019B00060FF060880FF0608A8FF0608BCFE0608B0
:1019C000D0FE0608E0FE060854FF06087CFB060869
:1019D00070FF0608B8FF0608D4FF0608F4FF0608E3
:1019E00038B50546FFF7E4FB044601281DD01C4A24
:1019F0001C491D4800F0DEFA012C18D005F1100436
:101A0000204602F013FB204602F0D8FBF8B9284626
:101A1000FFF70AFF204602F0D1FD204602F022FB2C
:101A20001249114800F0C6FA38BD114AE0E7FFF745
:101A3000F9FB20B90F490C4800F03EFBF4E72846BB
:101A4000FFF7F2FE0949084800F0B4FAECE70A494A
:101A5000054800F031FB204602F004FBE4E700BF3C
:101A60002C0007083000070898090020900007089C
:101A70002800070868000708D000070880B5ADF502
:101A80001A7D044601254FF000083EE0B44803F0FB
:101A900043FA3EE0DFF8309346E0B24EB24D3146B5
:101AA000284600F087FA4A46B049284600F082FAF4
:101AB0004846FFF789FB3146284600F07BFA36E0BE
:101AC000AB49A94800F0F8FAB8F1000F40F0A9803E
:101AD0002046FFF785FF94F89C39002B40F0788171
:101AE000A14D0522A349284600F064FA2046FFF7DD
:101AF00015FE052104F5196001F072FC9E49284687
:101B000000F058FA4FF001080025954B1B78002B88
:101B1000BCD12046FFF7ECFD84F89C0905B1A8462E
:101B2000002DB7D0DFF8A492B8F1000FB5D1934BD8
:101B300093E803000A90ADF82C10090C8DF82E10D4
:101B40000AA904F5D06002F065F910EE106A0AA83F
:101B5000FFF748FA02460B4618210CA8FFF7B6FA21
:101B600012AD0023129313931493159316931793A6
:101B7000189319939DF82D309DF82C209DF82A106C
:101B80009DF829009DF82870049703900291019216
:101B900000939DF82E307A4A202128465CF080FE82
:101BA0003046FEF7D1FC06460F46009502460B462E
:101BB00074496D4800F08FFA322201212046FFF768
:101BC000B7FD9DF82E309DF82D209DF82C109DF826
:101BD0002A009DF829509DF828C0CDF824C008950A
:101BE0000790069105920493CDE90267664B009336
:101BF0000CAB664A4FF480711AA85CF051FE0246A5
:101C0000431EFE2B3FF65CAF1AA904F5077001F0E6
:101C100027FD00287FF458AF5D49534800F04CFA87
:101C200052E7FFF7C5FA05469DF82E309DF82D20A6
:101C30009DF82C109DF82A009DF829C09DF828E0F9
:101C4000CDF824E0CDF820C00790069105920493CA
:101C5000CDE902674C4B00930CAB4E4A4FF48071B8
:101C60005AA85CF01DFE431EFE2B73D8012D1FD019
:101C700004F11005284602F0D9F9284602F09EFA30
:101C8000002861D15AA8FEF7F3FA83B25AAA424952
:101C9000284602F085FB03464A464049324800F098
:101CA00089F9284602F08AFC284602F0DBF90FE7A2
:101CB000FFF7B8FA18B33A493748FFF7DFFA20BB05
:101CC00038493548FFF7DAFA002837D0264D5AAAA6
:101CD0003549284600F0FFF95AA8FEF7C9FA43F63D
:101CE0009823009383B25AAA30492B48FFF7A2FBEE
:101CF00003464A462E49284600F05CF9E8E64A4683
:101D00002C49194800F0D8F9E2E6174D5AAA26499D
:101D1000284600F0E0F95AA8FEF7AAFA44F6206334
:101D2000009383B25AAA21491B4800F04DFC034698
:101D30004A462149284600F03DF9C9E64A461F496E
:101D4000094800F0B9F9C3E64A461D49064800F0C3
:101D5000B3F9A9E74A461B49034800F0ADF9B7E6D5
:101D600054020020180107089809002064010708A0
:101D700050020708740307088C030708EC170608CD
:101D800098010708C0010708FCFD0608D0010708F4
:101D90003802070890FD060824FE06081C03070801
:101DA00054FF06087CFB0608A402070880150708F4
:101DB000DC0207087C020708C0020708F8020708CF
:101DC000340307085803070810010708080107082B
:101DD00005220549054800F0EDF841F2883003F08E
:101DE0003DFA4FF000088FE6A80307089809002085
:101DF00010B5044640F8041B4FF4967200215CF0C5
:101E0000EDFE012384F83031204610BD012800D0BA
:101E1000704708B54FF6FF73994200D008BD0249DC
:101E20000248FFF7E5FFF9E72C370020980900206A
:101E3000006800B102B9704708B5C82308F032FD48
:101E400008BD38B590F8303153B105460C4639B16C
:101E50000846FEF70DFA82B221462846FFF7E8FF52
:101E600038BD000008B50249FFF7EBFF08BD00BF11
:101E7000DC0307082DE9F04383B01E4690F83031AB
:101E800013B903B0BDE8F08307460C46914600F154
:101E9000040803F0D7F9034601960094154A4FF45D
:101EA000967140465CF0FCFC054600240BE019F8F6
:101EB0000430114AC5F5967108EB05005CF0F0FCA2
:101EC00005440134A4B2B44202D2B5F5927FEEDBF0
:101ED0006B1C7A190D211171AA1C3B440A2119713E
:101EE000BB180021197192B241463846FFF7A0FF96
:101EF000C7E700BF2804070848040708032809D8D3
:101F0000DFE800F0020A04060448704704487047FE
:101F10000448704704487047044870475004070855
:101F200060040708680407087004070858040708D5
:101F30002DE9F04383B090F8305115B903B0BDE8F6
:101F4000F0830446894690461F46061D03F07AF941
:101F500005464846FFF7D2FF00902B46144A4FF43F
:101F6000967130465CF09CFC051EE7DB3B46424622
:101F7000C5F5947170195CF063FD021E16DB2A44EE
:101F8000B2F5947F01DD4FF49472531CA1180D201B
:101F90000871023223440A211971A3180021197112
:101FA00092B231462046FFF743FFC7E70022E6E73B
:101FB000780407080EB400B582B003AB53F8042BC5
:101FC00001930021FFF7B4FF02B05DF804EB03B00A
:101FD0007047000038B50446642003F03FF92046FE
:101FE000FFF740FF26492046FFF72BFF25492046F3
:101FF000FFF727FF24492046FFF723FF2349204608
:10200000FFF71FFF22492046FFF71BFF214920460B
:10201000FFF717FF20492046FFF7CCFF05F026FB0E
:102020001E4DA5FB0032920C1D492046FFF7C2FF52
:1020300005F022FCA5FB0032920C1A492046FFF75E
:10204000B9FF05F025FCA5FB0032920C164920468D
:10205000FFF7B0FF05F030FCA5FB0052920C1349CE
:102060002046FFF7A7FF12492046FFF7A3FF1149BB
:102070002046FFF79FFF2046FFF7F4FE38BD00BF64
:1020800088040708BC040708FC0407084005070883
:102090008005070814FC0608C005070883DE1B43FB
:1020A000E0050708F4050708080607081C060708E6
:1020B000300607085C0607080EB400B582B003AB13
:1020C00053F8042B01930221FFF732FF02B05DF8B1
:1020D00004EB03B070470EB400B582B003AB53F805
:1020E000042B01930321FFF723FF02B05DF804EBFB
:1020F00003B0704708B54FF6FF710120FFF786FE69
:1021000008BD01607047030903EB830300F00F0073
:1021100000EB4300C0B2704710B586B00C460068B3
:10212000642302930723019304AB0093012300224D
:10213000D02104F0D7F888BB9DF8100000F07F0094
:10214000FFF7E1FF20709DF8110000F07F00FFF71E
:10215000DAFF60709DF8120000F03F00FFF7D3FF38
:10216000A0709DF8130000F00700FFF7CCFFE070AF
:102170009DF8140000F03F00FFF7C5FF20719DF8A7
:10218000150000F01F00FFF7BEFF60719DF81600FC
:10219000FFF7B9FFA071012006B010BD0020FBE7DA
:1021A00000B587B00068642302930223019305AB56
:1021B000009301231122D02104F094F89DF91430EA
:1021C00000EE103AB8EEC00A9DF815309B0907EEF4
:1021D000903AF8EEE77AB5EE007A67EE877A30EE5D
:1021E000270A07B05DF804FB10B586B004466423E7
:1021F0000322D021006804F0A7FA30B11C491D4821
:10220000FFF75AFF002006B010BD1B4B93E80300F8
:102210000490ADF81410090C8DF8161004A920468E
:10222000FFF77AFF70B92046FFF7BAFF10EE100AE9
:10223000FEF78AF902460B4610490E48FFF7BAFE30
:102240000120E0E79DF814309DF812209DF8111050
:102250009DF8100003900291019200939DF81530B3
:102260009DF8162006490348FFF7A4FEDBE700BFF0
:10227000DC06070898090020F4170608B4060708CA
:102280007C060708024680B1037813B90020704726
:10229000013213783BB1A3F130010929F8D92E2B73
:1022A000F6D00020704701207047002070470000E2
:1022B00010B584B002464B788878CC7802940190AF
:1022C00000930B7802490348FFF774FE04B010BD79
:1022D00004070708980900200AB90020704770B564
:1022E00004460D46164600780DF065FA024648B1E0
:1022F000B04200D3B2B2294620780EF025F800286B
:1023000009DB70BD02F09EFF6368984201D9034863
:10231000F7E70348F5E70348F3E700BF0098FFFF3E
:102320000097FFFF0094FFFF0AB90020704770B5C7
:1023300004460D46164600780DF0F2F9024650B1FB
:10234000B04200D3B2B2294620780DF0A9FE002891
:1023500003DB20B170BD0348FCE70348FAE70148FE
:10236000F8E700BF8097FFFF0094FFFF2DE9F041E1
:102370008EB004460F46FFF785FF064668B300237C
:10238000039304930593069306AB019305AB009367
:1023900004AB03AA2E4920465CF0B6FA042812D1F9
:1023A000039BFF2B11D8049AFF2A10D8059AFF2A05
:1023B0000FD8069AFF2A0ED83B70049B7B70059BB2
:1023C000BB70FA7038E0002636E0002634E00026C4
:1023D00032E0002630E000262EE01E49012011F0F8
:1023E0007DF90025089509950A950B950C95CDF872
:1023F000335008A80FF04AF99DF834309DF8352085
:10240000DFF86080019200939DF833309DF8322010
:1024100011494046FFF7CEFD079507AA21460DF169
:10242000320011F077F90546034622460B49404633
:10243000FFF7C0FD012D03D030460EB0BDE8F0819E
:10244000079B3B6039460648FFF732FF0126F3E75A
:1024500088FB0608D00A0020140707082C07070885
:10246000440707089809002070B582B00D46840023
:102470000134E40004F540700CF0F8FF064604F562
:1024800000700CF0F3FF00F01F00009033462A4666
:1024900002490348FFF78EFD02B070BD54070708DC
:1024A0009809002070B5A2B005460C468026324639
:1024B000002102A85CF092FB324602A9204629F0D6
:1024C0007FFE9DF808304BB102AB009323462A46AD
:1024D00003490448FFF7F0FD22B070BD024BF4E75A
:1024E0007C070708980900207407070800285ED0B9
:1024F00070B50D460446C222002128465CF06EFBF2
:1025000040F2BB13A5F8C03008222D4920465CF0EC
:102510007AFB00284DD104F108010C4600E001349B
:1025200023781BB12F2B01D03A2BF8D1661A731EDA
:102530003E2B01D900203DE0324628465CF01DFDCF
:102540000023AB5523783A2B0BD023780BB32F2BDA
:1025500033D12046FDF78CFE431E7E2B1FD9002071
:1025600028E00134002306E003EB830302EB43027F
:10257000A2F1300301342278A2F13001C9B2092955
:10258000F2D9591E4FF6FE72914214D8A5F8C03008
:10259000DBE70C4B1B88A5F8403001200AE0421C09
:1025A000214605F140005CF0E8FC012002E000203B
:1025B0007047002070BD0020FCE70020FAE700BF54
:1025C00054FF060884FB06082DE9F043ADF6EC4DF8
:1025D0000446884616461D46DDF8087DC2220021C5
:1025E0000DF624405CF0FAFA0DF624412046FFF780
:1025F0007DFF002800F033820023CDF8203C0DF54C
:1026000042610DF62440FFF7B1FE002800F09C80E7
:10261000BDF8E43C0DF62442B449B548FFF7CAFCC6
:102620000DF54261B348FFF743FE00234CF25132EF
:10263000012118460DF00AFA002840F08E80AE49BC
:102640000020FFF711FFBDF8E42C0DF542610020DA
:102650000DF09EFB012840F08A80A8490020FFF77A
:1026600003FF0DF6C82048F065FB0DF51F6049F02B
:102670007BFB0DF64C0028F0B3F80DF20C701EF049
:10268000C3F90B2300939E4B0DF64C029D490DF2AE
:102690000C701EF0C0FD0146002877D10DF5AF602B
:1026A0005BF020FA984B1C6854B12046FDF7E0FD22
:1026B000421C21460DF5AF6059F0A2FD00286EDBEB
:1026C00000231A4619460DF51F6049F09BFB014691
:1026D00000286ED10DF20C728C490DF51F6048F088
:1026E00061FD894B1B68002B6CD002210DF51F602A
:1026F00048F049FD00220DF5AF610DF51F6048F06F
:1027000093FD0DF51F610DF6C82048F077FB0146DB
:1027100000285DD10DF624410DF6C82048F0B8FE22
:102720000024CDF87045CDF8744502F08BFD384497
:10273000CDF874050094764B764A0DF5AE610DF632
:10274000C82048F041FD55E00DF624427249684822
:10275000FFF7B2FC6FF00A0472E170496448FFF7BA
:10276000ABFC00200DF0A6FA6FF0130468E10246FE
:102770006B495F48FFF7A0FC6A490020FFF774FE31
:1027800000200DF097FA6FF0140459E16648FFF746
:1027900089FE00200DF08EFA6FF01D0450E1014615
:1027A0006248FFF77FFE00200DF084FA6FF01E04F0
:1027B00046E15F48FFF776FE00200DF07BFA6FF0F0
:1027C0001F043DE100210DF51F6048F0DCFC98E797
:1027D0005848FFF767FE00200DF06CFA6FF02004F8
:1027E0002EE102F02FFDDDF8743598422DD801203E
:1027F00002F034FD0DF6C82049F02AF8044648B12D
:1028000010F5D24FEDD010F5D14FEAD001464A482D
:10281000FFF748FEECB9B8F1000F37D00295CDF8BC
:1028200004800DF6244300930DF66443434A4FF4AD
:102830001671C6A85CF034F88146421E40F2562359
:102840009A4226D84FF000082FE03D493D48FFF757
:1028500029FE0DF6C82049F0F5F90DF51F6049F085
:10286000ABFC0DF5AF605BF04BF90DF20C701EF098
:10287000E6F80DF64C0027F0D7FF00200DF08EFB98
:1028800000200DF017FA6FF02704D9E0DFF8C080C0
:10289000C4E72D491648FFF70FFC6FF03104CFE075
:1028A000804402E0012002F0D9FCC14516D9A9EB11
:1028B0000802C6AB03EB08010DF6C82047F080FA0A
:1028C0000028EDDC10F5D24FECD010F5D14FE9D057
:1028D00001461E48FFF7E6FD4FF0FF34002C40F0A4
:1028E000C1804FF0000838E0804436E0AC070708AC
:1028F00098090020C4070708E80707082C080708FC
:102900004008070803AB0208CC0A0020EF130208B6
:10291000D9220008292300088C070708D0070708D8
:10292000FC070708180807084C080708600807088C
:10293000740807088C080708B408070898FB0608FD
:102940000098FFFF9C080708C4080708E00807086C
:1029500080150708012002F081FC454515D9A5EB3B
:10296000080206EB08010DF6C82047F029FA0028F6
:10297000BADC10F5D24FEDD010F5D14FEAD00146B8
:102980003B48FFF78FFD4FF0FF34002C6DD102F074
:1029900059FC054602F056FC431BBB4259D2C4F514
:1029A0003F72033206AB19190DF6C82046F0FAFF44
:1029B000011E1BDD0C4406A8002303552D495CF0C5
:1029C00047F9034660B1002BE4D00022059205AA26
:1029D000294918465BF098FF0128DBD1059C11E0DE
:1029E000264906A85CF034F90346ECE7A1B311F5DB
:1029F000D24F2AD011F5D14F27D02148FFF752FDF1
:102A00004FF0FF340DF6C82047F042FA0DF6C8200B
:102A100049F018F90DF51F6049F0CEFB0DF5AF60D8
:102A20005BF06EF80DF20C701EF009F80DF64C001C
:102A300027F0FAFE00200DF0B1FA00200DF03AF96F
:102A400020460DF6EC4DBDE8F083022002F006FCB6
:102A5000A0E74FF0FF34D5E74FF0FF34D2E76FF037
:102A60000904EDE76FF03204EAE76FF03304E7E7BB
:102A7000E008070880FC060898FC06088CFC06089D
:102A8000EC0807082DE9F0418AB00024059406946B
:102A90000794089409940094484B1A6B42F0010281
:102AA0001A631A6B02F001020092009A01941A6BE9
:102AB00042F002021A631A6B02F002020192019ABA
:102AC00002941A6B42F004021A631A6B02F00402B9
:102AD0000292029A03941A6B42F008021A631A6B6C
:102AE00002F008020392039A04941A6B42F08002E7
:102AF0001A631B6B03F080030493049B304E224641
:102B00000621304603F076FA2E4F22464FF48051CC
:102B1000384603F06FFADFF8B08001224FF480717D
:102B2000404603F067FA01220821304603F062FABA
:102B300006230593012506950794089405A93046B8
:102B400003F0A4F84FF480530593069507940223ED
:102B5000089305A9384603F099F80595069407955A
:102B6000089405A9304603F091F805950694079559
:102B7000089405A9384603F089F84FF4807305934B
:102B8000069507940327089705A9404603F07EF8A9
:102B90000823059306950794089705A9304603F086
:102BA00075F81023059306940794089405A93046F8
:102BB00003F06CF80AB0BDE8F08100BF00380240B5
:102BC000000802400004024000000240012800D03A
:102BD000704708B54FF6FF73994200D008BD024810
:102BE000FEF712FDFAE700BFD00C002000B58DB053
:102BF00072B60DF1040C114C0FCCACE80F000FCCE9
:102C0000ACE80F0094E80700ACE80300ACF8002043
:102C10004FF4FA73292201A9094807F043FE022163
:102C2000084803F000FA00230093009A064B9A42EA
:102C3000F5D800BF009B01330093F6E7F8080708BA
:102C40002C37002000080240DF93040008B50A4832
:102C50000A4B03604FF4E133436000238360C36099
:102C600003610C2242618361C36107F0CBFD00B9AF
:102C700008BDFFF7BBFF00BF2C370020001001404C
:102C800008B50A480A4B03600A4B4360002383607F
:102C9000C3604FF48042026143618361C361036298
:102CA00003F0DCF900B908BDFFF7A0FF7036002083
:102CB00000540040A086010008B50A480A4B036092
:102CC0004FF41653436000238360C36003610C22FA
:102CD00042618361C36107F095FD00B908BDFFF74C
:102CE00085FF00BF743700200044004008B50A4843
:102CF0000A4B03604FF41653436000238360C360A4
:102D000003610C2242618361C36107F07BFD00B95E
:102D100008BDFFF76BFF00BFBC3700200048004034
:102D200008B50D480D4B0360002343607F2282608D
:102D3000FF22C26003614361836104F0D1FD40B9A9
:102D400000220221032002F0CCFB032002F0E5FB6D
:102D500008BDFFF74BFF00BFC4360020002800402D
:102D600008B50C480C4B0360532343600023836079
:102D700040F2E732C260836107F012FB40B90022E3
:102D80000321362002F0ADFB362002F0C6FB08BD61
:102D9000FFF72CFFE43600200010004000B595B08E
:102DA0003022002108A85BF019FF0023039304934D
:102DB0000593069307930193214A116C41F08051CA
:102DC0001164126C02F080520192019A02931D4B21
:102DD0001A6842F480421A601B6803F4804302932D
:102DE000029B052308934FF48033099301230A9330
:102DF00002230E934FF480020F9204221092A82215
:102E0000119212930723139308A804F0D1F898B9EC
:102E10000F23039302230493002305934FF4A0533D
:102E200006934FF480530793052103A804F038FB61
:102E300020B915B05DF804FBFFF7D8FEFFF7D6FE0A
:102E4000003802400070004008B502F095F9FFF725
:102E5000A5FFFFF717FEFFF7F9FE224C2046FFF70C
:102E6000B9F821492046FFF7A5F8FFF709FF1F49E8
:102E70002046FFF79FF8FFF71FFF1D492046FFF789
:102E800099F8FFF733FF1B492046FFF793F801F04D
:102E9000B7FB00F061FE18492046FFF78BF808F0F9
:102EA000C7FE16492046FFF785F8FFF739FF14499A
:102EB0002046FFF77FF8FFF753FF12492046FFF740
:102EC00079F82046FEF7CEFF0F492046FFF772F84B
:102ED0002046FEF7C7FF0D4C2046FEF741FC20467A
:102EE000FEF7CCFD980900202409070844090708CB
:102EF0006409070884090708A4090708C409070822
:102F0000E4090708040A0708240A0708D00C00206F
:102F100008B54FF6FF710120FFF758FE08BD80B4D9
:102F200083B000AF78607B685B037A6853407B6056
:102F30007B685B0C7A6853407B607B685B017A68D6
:102F400053407B607B6818460C37BD465DF8047BB8
:102F50007047000080B483B000AF786039607B6850
:102F60009A013B681A447B689B081A44054B13443A
:102F70007A6853407B607B6818460C37BD465DF825
:102F8000047B7047B979379E80B400AF0F4BDB6884
:102F900003F08073002B05D10C4BDB680B4A43F028
:102FA0008073D3600A4B1B6803F00103002B08D128
:102FB000074B00225A60064B1B68054A43F0010389
:102FC000136000BFBD465DF8047B7047F0ED00E084
:102FD000001000E080B400AF034B5B681846BD46AC
:102FE0005DF8047B704700BF001000E080B582B040
:102FF00000AF00237B6002F075F90346194678683C
:10300000FFF7A8FF786002F079F90346194678685F
:10301000FFF7A0FF786002F07DF903461946786853
:10302000FFF798FF786002F00DF9034619467868BB
:10303000FFF790FF78601D4B9B6819467868FFF793
:1030400089FF7860FFF7A0FFFFF7C4FF034619462A
:103050007868FFF77FFF786000233B601DE0134B2B
:103060009B6819467868FFF775FF786002F0EAF808
:10307000034619467868FFF76DFF7860FFF7AAFFEF
:10308000034619467868FFF765FF78607868FFF7B0
:1030900046FF78603B6801333B603B683F2BDED9DD
:1030A0007B6818460837BD4680BD00BF10E000E0D1
:1030B00090B589B000AFF860B9607A603B60BB68DA
:1030C000002B02D03B68002B02D16FF03B0360E085
:1030D0003B6800221A607B68002B01D1002358E076
:1030E00000237B617B6907F1140211461846FFF744
:1030F00031FF03467B617B69BA6811461846FFF7CA
:1031000029FF03467B610023FB6112E07C69FFF726
:103110006DFF034619462046FFF71CFF03467B61FF
:103120007B691846FFF7FBFE03467B61FB690133B1
:10313000FB61FB69072BE9DD0023BB6121E07B69B3
:103140001846FFF7ECFE03467B617969BA68BB69F4
:103150001344CAB21A707B69104A92681146184625
:10316000FFF7F8FE03467B617C69FFF733FF0346F8
:1031700019462046FFF7EEFE03467B61BB6901332B
:10318000BB61BA697B689A42D9D33B687A681A6096
:10319000002318462437BD4690BD00BF10E000E074
:1031A000B0B500AF02F04EF8034600221C461546AB
:1031B00022462B4610461946B0BD0160426003818D
:1031C000704708B501220189406802F013FF08BD6D
:1031D00008B500220189406802F00CFF08BD00B567
:1031E00086464FF0000C4FF6FF7010E040080133A8
:1031F000DBB2072B07D810F0010FF7D04AF201021B
:1032000082EA5000F3E70CF1010C1FFA8CFC8C45AC
:1032100004D21EF80C3058400023EAE75DF804FBA6
:1032200008B5FFF7D5FF02490248FEF7C3FE08BD07
:10323000880A0708980900202DE9F04792B0044653
:103240000F469046BDF868601B9D8DF840108DF8C4
:1032500041201A0A8DF842208DF84330330A8DF848
:1032600044308DF84560062110A8FFF7B8FF8DF8AF
:103270004600C0F30F208DF84700082310AA4D49DF
:103280004D48FEF7F7FD2046FFF79BFF012001F0B8
:10329000E5FF6423082210A9206807F003FB022041
:1032A00001F0DCFF2046FFF793FF4FEA460A1FFAC2
:1032B0008AFA0AF105091FFA89F9402200216846B5
:1032C0005BF08CFC1C9B4A466946206807F075FB46
:1032D000032830D00446A8BB4B466A4637493648D7
:1032E000FEF7C8FD9DF80030BB4257D19DF8012084
:1032F0009DF90130002B56DB424556D19DF8023036
:10330000B3EB460F53D10AF1030189B26846FFF7C8
:1033100066FF09F146036B4413F8483C09F1470284
:103320000DEB020919F8482C43EA0223984210D108
:103330004FF0000C29E03A4621491F48FEF7BCFE39
:1033400001242CE002461F491B48FEF7B5FE042469
:1033500025E002461C491848FEF7AEFE02241EE096
:103360004FEA4C034B336B4413F8482C0CF1020327
:1033700012A901EB430313F8483C43EA022325F862
:103380001C300CF1010C1FFA8CFCB445E8D33B4611
:1033900032460E490848FEF70DFE00E004242046A0
:1033A00012B0BDE8F0870324F9E70424F7E704240A
:1033B000F5E700BFC80A070898090020140B0708A2
:1033C000D00A0708F80A07081C0B0708440B07086F
:1033D0004FF0000C80F800C0416082607047000030
:1033E00038B504460D46806800F0E2F8606804F0E5
:1033F0003FFC606805B1013D0422294604F076FBDC
:10340000D0B9322001F02AFF01F04CFF0E4A1368B8
:1034100043F0040313600121084603F099FDFFF710
:10342000BDFC01F04FFF606804F022FCA06800F0D2
:1034300095F80023237038BD04490548FEF73CFE8B
:10344000FFF7D4FBDDE700BF007000406C0B0708FE
:1034500098090020132831D8DFE800F00A320C0E5A
:1034600010121416181A1C1E20222426282A2C2E6C
:103470001448704714487047144870471448704700
:1034800014487047144870471448704714487047F0
:1034900014487047144870471448704714487047E0
:1034A00014487047144870471448704714487047D0
:1034B00014487047144870471448704714487047C0
:1034C00014487047880B07089C0B0708A80B0708CF
:1034D000B80B0708C40B0708D00B0708E00B070858
:1034E000EC0B0708F80B07080C0C0708200C070862
:1034F000340C0708440C0708580C0708680C070828
:10350000740C0708800C0708940C0708AC0C07081B
:10351000C40C0708900B0708022A08D9044B1B7833
:1035200003B930230B703A234B7000238B70704724
:10353000BC39002070B584B00C4615461E460322E7
:1035400003A9FFF7E9FF009603AB034A294620468B
:103550005BF0A6F904B070BDCC0C070830B585B09F
:103560000546032203A9FFF7D7FF012203A9281D5F
:103570000AF09CFD48B901242C7003AA09490A48A5
:10358000FEF718FD204605B030BD0446FFF762FF88
:103590000090234603AA05490348FEF78DFD00204D
:1035A0002870F0E7F80C070898090020D40C0708E9
:1035B000037803B9704710B582B00446032201A90D
:1035C000FFF7AAFF002201A910460AF06FFD0023B1
:1035D000237001AA02490348FEF7ECFC02B010BDBB
:1035E000100D0708980900208446007800B970473C
:1035F00000B597B0074B402206A96046FFF79AFF37
:10360000694606A80BF0BBFCB0FA80F0400917B081
:103610005DF804FB280D070830B593B0047814B9A1
:10362000204613B030BD0B4B402202A9FFF782FFAA
:1036300002A80BF0DDFC05460028F1D0FFF70AFFD9
:1036400000902B4602AA04490448FEF735FD0024E9
:10365000E6E700BF280D0708340D07089809002089
:10366000F0B5ADF5257D07780FB306460C46002969
:1036700000F0B0800846FCF7FBFD0546431EEF2B2B
:1036800009D80023AB4216D2E25C0D2A0AD00A2ADE
:1036900008D00133F6E702464F495048FEF70CFDCB
:1036A000002704E04E494D48FEF706FD0027384646
:1036B0000DF5257DF0BD4B4B402294A93046FFF718
:1036C00039FF4FF40C72002108A85BF087FA122230
:1036D00094A908A80AF030FD064620BB0B9908A85B
:1036E0000BF044FA064648BB0023079307AB2A4673
:1036F000214608A80BF01DF8044610B9079BAB4201
:103700002AD02046FFF7A6FE0295079B0193009062
:10371000234694AA34493148FEF7CEFC08A80BF0A2
:10372000FBF90027C3E7FFF795FE0090334694AA04
:103730002E492A48FEF7C0FC0027B8E7FFF78AFEAB
:103740000090334694AA2A492448FEF7B5FC08A8FD
:103750000BF0E2F90027AAE7264B1B68ADF81830FA
:103760001B0C8DF81A300023059305AB022206A925
:1037700008A80AF0DEFF044610B9059B022B12D000
:103780002046FFF767FE02230293059B01930090FA
:10379000234694AA18491148FEF78EFC08A80BF09E
:1037A000BBF9002783E708A80BF038F9044618B9DD
:1037B00008A80BF0B1F97AE7FFF74CFE009023461A
:1037C00094AA0E490548FEF777FC08A80BF0A4F967
:1037D00000276CE700276AE7580D070898090020C2
:1037E000780D0708280D0708EC0D0708980D070845
:1037F000C40D070814FC06081C0E07084C0E070829
:103800002DE9F04FADF55D7D90469946E69F00238A
:103810003B60E79A136090F800A0BAF1000F00F047
:103820008F800E46002900F08680B8F1030F40F229
:103830008580C84501D808F1FF39B9F1030F02D8D6
:103840004FF0000A7CE0414B4022CCA9FFF772FE0A
:103850004FF40C72002140A85BF0C0F90122CCA902
:1038600040A80AF069FC044618B95B2333700125AF
:1038700036E0FFF7EFFD00902346CCAA34493548E7
:10388000FEF71AFC4FF0000A5AE003AA0021D154B7
:103890001C4654B1631E03AAD25C0D2AF5D00A2A35
:1038A000F3D0202AF1D0092AEFD034B33A6842B3DA
:1038B0000123234402332B444B4524D8434522D8CB
:1038C00012B12C2373550135224603A970195BF000
:1038D00054FB25443B6801333B60E79BC3F800B0D1
:1038E00040AAF42103A80BF027FD60B1DDF818B160
:1038F00003A8FCF7BDFC0446CBE7E79BC3F800B088
:10390000EEE71346D5E76B1C5D2272550022F25498
:1039100040A80BF001F93A6812B1E79B1B687BB92C
:10392000CCAB0093E79B1B680B490A48FEF7C4FB2E
:103930004FF0000A04E04FF0000A01E04FF0000AE7
:1039400050460DF55D7DBDE8F08F00BF280D0708DE
:10395000700E0708980900209C0E070870B5ADF599
:10396000DE6D067816B104460D4619B930460DF5E0
:10397000DE6D70BD6E4B40220DF5D661FFF7DAFDAE
:103980006C4B40220DF5CE612046FFF7D3FD4FF47E
:103990000C7200210DF588605BF020F901220DF515
:1039A000D6610DF588600AF0C7FB0446D0B9DDF892
:1039B0004C349D4222D30DF588600BF0ADF80DF527
:1039C000D6600BF015FB04460028CFD0FFF742FD70
:1039D000009023460DF5D66257495848FEF76CFB18
:1039E0000026C3E7FFF736FD009023460DF5D662AB
:1039F00053495248FEF760FB0026B7E74FF40C72BC
:103A0000002184A85BF0EAF80A220DF5CE6184A8B3
:103A10000AF092FB0446002855D129460DF588602E
:103A20000BF0A4F8044600285DD100230393029311
:103A300003AB4FF4007204A90DF588600AF03AFD5B
:103A40000446002865D1039AC2B102AB04A984A838
:103A50000AF06FFE044618B9029A039B9A42E7D017
:103A60002046FFF7F7FC0346039A0192029A009260
:103A7000224634493148FEF71FFB01240DF58860CA
:103A80000BF04AF884A80BF047F8002C4AD10DF54A
:103A9000D6600BF0ADFA0DF5D6610DF5CE600BF0EA
:103AA00052FB044600283FF461AFFFF7D3FC034606
:103AB000224625492148FEF7FFFA0DF5CE600BF0AE
:103AC00097FA002652E7FFF7C5FC009023460DF554
:103AD000CE621E491948FEF7EFFA0DF588600BF02B
:103AE0001BF8002642E7FFF7B5FC009023462A4664
:103AF00017491248FEF7E0FA0DF588600BF00CF854
:103B000084A80BF009F80DF5CE600BF071FA0026D1
:103B10002CE7FFF79FFC034622460E490748FEF7B5
:103B2000CBFAABE70DF5CE600BF062FA00261DE78D
:103B3000280D0708D00E07080C0F07089809002069
:103B4000DC0E0708BC0F0708E80F0708380F070846
:103B5000680F0708980F070880B500AF114B124A8D
:103B60001A60104B00225A600E4B00229A600D4BD7
:103B70000022DA600B4B00221A610A4B00225A61C4
:103B8000084B02229A61074804F0F8F80346002B1C
:103B900001D0FFF72BF84FF40061024805F046FA18
:103BA00000BF80BD04380020002C014080B58CB0DF
:103BB00000AF786007F11C0300221A605A609A6017
:103BC000DA601A617B681B687A4A934240F0EE80A3
:103BD0000023BB61784B5B6C774A43F4006353640A
:103BE000754B5B6C03F40063BB61BB6900237B61B5
:103BF000714B1B6B704A43F4800313636E4B1B6B5A
:103C000003F480037B617B6900233B616A4B1B6B80
:103C1000694A43F004031363674B1B6B03F004030F
:103C20003B613B690023FB60634B1B6B624A43F0C3
:103C300008031363604B1B6B03F00803FB60FB6816
:103C40004FF47063FB6102233B6201237B62032319
:103C5000BB620C23FB6207F11C031946574802F0B4
:103C600015F84FF48053FB6100237B6207F11C03BE
:103C70001946524802F00AF80423FB6101237B62D3
:103C800007F11C0319464E4802F000F84D4B4E4A0E
:103C90001A604C4B4FF000625A604A4B00229A6007
:103CA000484B0022DA60474B4FF480621A61454B63
:103CB0004FF480525A61434B4FF480429A61414B1A
:103CC0002022DA613F4B4FF440321A623D4B04220E
:103CD0005A623C4B03229A623A4B4FF40002DA627A
:103CE000384B4FF400121A63364801F031FC03469A
:103CF000002B01D0FEF77AFF7B68324A1A64314A02
:103D00007B689363314B324A1A60304B4FF000624C
:103D10005A602E4B40229A602C4B0022DA602B4BCB
:103D20004FF480621A61294B4FF480525A61274B3D
:103D30004FF480429A61254B2022DA61234B4FF4E5
:103D400040321A62214B04225A62204B03229A62AB
:103D50001E4B4FF40002DA621C4B4FF400121A6340
:103D60001A4801F0F5FB0346002B01D0FEF73EFF99
:103D70007B68164ADA63154A7B6893630022052143
:103D80003B2001F0AEFB3B2001F0C7FB00220521E8
:103D9000452001F0A6FB452001F0BFFB00220521D4
:103DA000312001F09EFB312001F0B7FB00BF30371E
:103DB000BD4680BD002C0140003802400008024092
:103DC000000C02408838002058640240E838002087
:103DD000A064024001604260014A8260704700BFF7
:103DE000003C1CC601EB004107EE901AF8EE677A22
:103DF000B2EE047AC7EE876A9FED047AC6EE877A40
:103E00009FED030A30EE670A704700BF00007A4456
:103E10000000000070B586B004460D46224B83605A
:103E20000023ADF81430ADF816304068FEF774F991
:103E300040B34FF47A73029305AB019302230093CE
:103E40000023042201212068FFF7F6F9024628BB6F
:103E5000BDF81450BDF8166031462846FFF7C2FF82
:103E600010EE100A84ED020AFCF76EFBCDE90001AA
:103E700033462A460D490E48FEF79CF894ED020A97
:103E800006B070BD0B490A48FEF716F90A4B1868D0
:103E900028609A889B79AA80AB71CAE707490448D1
:103EA000FEF70AF9EAE700BF003C1CC6401007080D
:103EB000980900200C100708FC1706086010070876
:103EC00010B504460160426003814FF40072002186
:103ED0000A305AF083FE204610BD006808B101B1D7
:103EE00002B9704708B54FF47A7306F0DBFC08BDE1
:103EF0002DE9F04782B0002944D0074615461E46FA
:103F00008846012A40D901F09DF981462A460021C0
:103F100040465AF063FE002408E05446002308F8A7
:103F20000430204602B0BDE8F087544601F08AF91B
:103F3000A0EB0900B042F1D26B1E9BB2A342EDD9B7
:103F40000A2301220DF10701386806F036FD00282A
:103F5000ECD19DF8073004F1010A1FFA8AFA08F83B
:103F60000430BAF1030FE0D9084940465AF070FE18
:103F70000028D2D1064940465AF06AFE0028CCD12A
:103F80005446D3E70024CCE70024CAE7781007089A
:103F9000600407082DE9F04F83B0DDF830A0002958
:103FA0003CD00746154698460E46CBB3012A39D970
:103FB00001F048F981462A46002130465AF00EFEAB
:103FC000002401F03FF9A0EB090CD44520D26B1E70
:103FD0009BB2A3421CD90A2301220DF107013868C4
:103FE00006F0EBFC0028ECD19DF8073004F1010B42
:103FF0001FFA8BFB3355414630465AF029FE30B943
:10400000094930465AF024FE08B95C46D9E75C46B7
:1040100000233355204603B0BDE8F08F0024F9E7B4
:104020000024F7E70024F5E76004070838B50446E4
:10403000094D0A492846FDF7BDFF01222189606824
:1040400001F0D8FF4FF47A6001F008F904492846DE
:10405000FDF7B0FF38BD00BF9809002080100708A9
:10406000AC10070810B5044606490748FDF7A2FF43
:1040700000222189606801F0BDFF4FF4FA7001F061
:10408000EDF810BDD410070898090020002A37D099
:10409000F0B5C1B005461C4616469BB339B30B4676
:1040A0001A4A4FF4807168465AF0FAFB184F6A4674
:1040B00018493846FEF70FF86846FCF7D9F882B27F
:1040C00069462846FFF709FF469B224631462846A7
:1040D000FFF70EFF324610493846FDF7FCFF0F4947
:1040E00030465AF0B5FD20B1002041B0F0BD0C497A
:1040F000D5E70C4930465AF0ABFD28B90120F4E76A
:10410000012070470120F0E70520EEE700110708C5
:104110009809002008110708141107082011070842
:10412000801507086004070800B595B04FF4FA63DE
:104130000093402304AA0B49FFF7A8FF0A4904A8EB
:104140005AF086FD60B100228DF80F200DF10F02AC
:1041500006495AF0D9FB9DF80F0015B05DF804FB35
:104160006320FAE7241107082C1107083411070807
:1041700010B5A2B004464FF4FA630093802302AA5C
:104180000A49FFF783FF58B94FF4FA63009380237D
:1041900002AA07492046FFF779FF012022B010BD8F
:1041A00004490548FDF788FF0020F7E7401107089C
:1041B0005C110708481107089809002070B5E2B0A3
:1041C000054661496148FDF7F5FE0024092C12D827
:1041D0004FF4FA6300934FF4807322AA5C49284697
:1041E000FFF754FF002844D04FF4FA7001F036F87E
:1041F0000134E4B2EAE70026002E3CD04FF4FA6323
:1042000000934FF4807322AA52492846FFF73EFFDD
:1042100041F2883300934FF4807322AA4E49284616
:10422000FFF734FF4D4922A85AF012FD48B34C491C
:104230004648FDF7BFFE00241D2C28D84FF4FA6332
:1042400000934FF4807322AA46492846FFF71EFFC9
:10425000454922A85AF0FCFCD0B9444922A85AF09A
:10426000F7FCA8B94FF47A7000F0F8FF0134E4B21B
:10427000E2E70126C0E73E493448FDF71DFF01246F
:1042800052E03C493148FDF717FF02244CE000267C
:10429000002E4CD02846FFF747FF024636492B48F0
:1042A000FDF788FE2846FFF763FF41F2883400944B
:1042B0004FF4807322AA31492846FFF7E7FE4FF4F6
:1042C000FA7000F0CBFF00944FF4807322AA2C49BF
:1042D0002846FFF7DBFE2B4B2B4A802102A85AF021
:1042E000DFFA00944FF4807322AA02A92846FFF750
:1042F000CDFE43F6982300934FF4807322AA2349FE
:104300002846FFF7C3FE0446B8B941F2883300934C
:104310004FF4807322AA1E492846FFF7B7FE22AA4F
:104320001C490A48FDF746FE204662B070BD1A4996
:104330000648FDF7C1FE0324F6E718490348FDF7D8
:10434000BBFE0424F0E700BF6011070898090020B5
:1043500080150708A4110708A8110708B01107085D
:10436000C8110708D411070828120708DC1107082C
:1043700088110708B8110708041207082012070857
:104380002C12070848120708541207086C12070875
:104390008812070894120708E01107087812070826
:1043A0002DE9F041ADF5467D002900F0DD800546A0
:1043B00016461C460F46002A00F0D88023B9204636
:1043C0000DF5467DBDE8F0814FF4FA6300934FF49C
:1043D000007346AA6649FFF759FE4FF4967000F045
:1043E0003DFF41F2883300934FF4007346AA6149C0
:1043F0002846FFF74BFE002840F09B8040F6B83877
:10440000CDF800804FF4007346AA5B492846FFF7B9
:104410003DFE3B46594A4FF4807106A85AF040FAD7
:10442000CDF800804FF4007346AA06A92846FFF78E
:104430002DFECDF800804FF4007346AA504928465F
:10444000FFF724FE4F4B504A4FF4807106A85AF0F4
:1044500027FACDF800804FF4007346AA06A9284633
:10446000FFF714FE2346494A4FF4807106A85AF01C
:1044700017FA06A8FBF7FCFE82B206A92846FFF74A
:104480002CFD434F41F2883300933B464FF40072BA
:1044900046A92846FFF77EFD394646A85AF0D8FBC4
:1044A00000284CD022463B493B48FDF783FD22467D
:1044B00031462846FFF711FD42F210730093374B47
:1044C0004FF4007246A92846FFF764FD11223449D3
:1044D0002846FFF702FD334C47F230530093234642
:1044E0004FF4007246A92846FFF754FD214646A81E
:1044F0005AF0AEFB002831D000230393049305AE9D
:104500000593009604AB03AA27495AF0FDF9049AD3
:1045100094B2059B25492048FDF74CFD40F6B83381
:1045200000934FF4007346AA11492846FFF7AEFDE9
:1045300045E71F491848FDF7BFFD00243FE71D4927
:104540001548FDF7B9FDCDF800804FF4007346AA79
:1045500007492846FFF79AFD002430E716490E4820
:10456000FDF7AAFD0024D9E7002428E7002426E768
:10457000AC120708B8120708D8120708EC1207088F
:1045800004130708801507082C1307085C13070895
:1045900074130708981307089809002020110708CA
:1045A000C0130708D4130708E4130708FC1307080F
:1045B000C4120708801307082414070810B592B026
:1045C00004464FF4FA630093402302AA0849FFF718
:1045D0005DFD41F288330093402302AA054920463D
:1045E000FFF754FD04490548FDF7E4FC12B010BD87
:1045F000AC12070820120708441407089809002085
:1046000080B500AF174B184A1A60164B4FF48272F0
:104610005A60144B00229A60124B0022DA60114B50
:1046200000221A610F4B00225A610E4B4FF40072A8
:104630009A610C4B2822DA610A4B00221A62094B5C
:1046400000225A62074B00229A62064B0A22DA6263
:10465000044805F04DFA0346002B01D0FEF7C6FAD8
:1046600000BF80BD483900200030014080B58AB0CD
:1046700000AF786007F1140300221A605A609A6054
:10468000DA601A617B681B68194A93422BD10023B8
:104690003B61184B5B6C174A43F480535364154BD2
:1046A0005B6C03F480533B613B690023FB60114B5F
:1046B0001B6B104A43F0010313630E4B1B6B03F09B
:1046C0000103FB60FB68E0237B610223BB610023E5
:1046D000FB6103233B6205237B6207F11403194648
:1046E000054801F0D3FA00BF2837BD4680BD00BFA2
:1046F00000300140003802400000024080B582B026
:1047000000AF00237B60104B5B6C0F4A43F4804387
:1047100053640D4B5B6C03F480437B607B68002328
:104720003B60094B1B6C084A43F080531364064BF3
:104730001B6C03F080533B603B68032000F0C6FE17
:1047400000BF0837BD4680BD0038024080B58EB03E
:1047500000AF786007F1240300221A605A609A6063
:10476000DA601A617B681B684C4A93422DD10023A2
:104770003B624B4B5B6C4A4A43F010035364484B1B
:104780005B6C03F010033B623B6A0023FB61444B0C
:104790001B6B434A43F001031363414B1B6B03F054
:1047A0000103FB61FB694FF4C0637B620223BB62C0
:1047B0000123FB6203233B6307237B6307F124038D
:1047C0001946384801F062FA63E07B681B68364A94
:1047D00093422CD10023BB61314B1B6C304A43F414
:1047E000003313642E4B1B6C03F40033BB61BB69B5
:1047F00000237B612A4B1B6B294A43F0010313639F
:10480000274B1B6B03F001037B617B690C237B62ED
:104810000223BB620123FB6203233B6307237B6309
:1048200007F1240319461F4801F030FA31E07B6894
:104830001B681E4A93422CD100233B61184B1B6C12
:10484000174A43F480231364154B1B6C03F4802335
:104850003B613B690023FB60114B1B6B104A43F02B
:10486000020313630E4B1B6B03F00203FB60FB6838
:104870004FF440637B620223BB620123FB6203238C
:104880003B6307237B6307F124031946084801F0C3
:10489000FDF900BF3837BD4680BD00BF00100140A4
:1048A0000038024000000240004400400048004040
:1048B0000004024080B58AB000AF78607B681B6856
:1048C0001D4A934233D100233B611C4B1B6C1B4A96
:1048D00043F400131364194B1B6C03F400133B6186
:1048E0003B690023FB60154B1B6B144A43F002032A
:1048F0001363124B1B6B03F00203FB60FB6807F1B1
:10490000140300221A605A609A60DA601A61C023A8
:104910007B611223BB610123FB6103233B62042300
:104920007B6207F114031946054801F0AFF900BF97
:104930002837BD4680BD00BF00540040003802400B
:104940000004024080B582B000AF78607B681B68CD
:10495000084A93420AD1084B01221A600022012121
:10496000032000F0BEFD032000F0D7FD00BF083794
:10497000BD4680BD002800403C0E474280B584B053
:1049800000AF78607B681B680E4A934215D1002304
:10499000FB600D4B1B6C0C4A43F0100313640A4B75
:1049A0001B6C03F01003FB60FB6800220221362021
:1049B00000F097FD362000F0B0FD00BF1037BD4677
:1049C00080BD00BF001000400038024080B400AF3E
:1049D000FEE780B400AFFEE780B400AFFEE780B42E
:1049E00000AFFEE780B400AFFEE780B400AF00BFC9
:1049F000BD465DF8047B704780B400AF00BFBD4684
:104A00005DF8047B704780B400AF00BFBD465DF821
:104A1000047B704780B500AF00F000FC00BF80BD94
:104A200080B500AF024803F07BF900BF80BD00BF36
:104A3000C436002080B500AF024803F08BFF00BFF2
:104A400080BD00BF0438002080B500AF024805F0EB
:104A5000F6FC00BF80BD00BFE436002080B500AF8B
:104A6000024800F09DFE00BF80BD00BF88380020D6
:104A700080B500AF024800F093FE00BF80BD00BFCC
:104A8000E838002080B586B000AF7860144A154B36
:104A9000D31A7B617B693B61134B1B68002B02D1EE
:104AA000114B124A1A60104B1A687B6813443A691A
:104AB0009A4207D25AF02CFA03460C221A604FF0A1
:104AC000FF3309E0084B1B68FB60074B1A687B68E3
:104AD0001344054A1360FB6818461837BD4680BD6D
:104AE0000000022000040000A0390020A064002083
:104AF00080B400AF164BD3F88830154A43F47003E6
:104B0000C2F88830134B1B68124A43F0010313604C
:104B1000104B00229A600F4B1B680E4A23F08473DF
:104B200023F4803313600B4B0B4A5A60094B1B680C
:104B3000084A23F480231360064B0022DA60044BFA
:104B40004FF000629A6000BFBD465DF8047B70477D
:104B500000ED00E00038024010300024014B01223B
:104B60001A707047A4390020014B01221A70704757
:104B7000A539002038B50024254608E04FF46450DC
:104B80000AF074FC0546022000F068FB0134042C96
:104B9000F4DD2A4608490948FDF70CFA042D05D032
:104BA00007490648FDF788FA002038BD0549034843
:104BB000FDF700FA0120F8E77414070898090020AF
:104BC0008C140708BC14070810B584B08378C27829
:104BD0000179447903940291019200934378027819
:104BE00002490348FDF7E6F904B010BDD4140708E4
:104BF00098090020F0B589B004460E460020464BC7
:104C00001870464B187004F108010EF077F844480C
:104C1000444A01460CF0C0FD00F014FB606000F057
:104C200011FB054611E00DF0A1FEC31EDBB2012B06
:104C30001ED9394B1B7803F0FF07CBB9374B1B78D4
:104C4000002B5AD1012000F009FB00F0FBFA401BB9
:104C5000B04259D200F0F6FA6368C01AB0F57A7F14
:104C6000E1D30EF0F5F8636803F57A736360DAE771
:104C7000002302930393049305930693CDF81B300E
:104C8000294B93E803000290ADF80C100DF10E00D3
:104C90000EF0ECF80DF116000EF008F90DF112000F
:104CA0000EF024F90DF11A000EF040F902238DF8F0
:104CB0001E3002A80CF0AAFC04F50B7402AD0FCD57
:104CC0000FC495E8030044F8040B24F8021B090CF8
:104CD00021709DF810309DF81120019200939DF8ED
:104CE0000F309DF80E2011491148FDF763F90DF0C2
:104CF00057FF0127384609B0F0BD0E490C48FDF7B3
:104D0000DBF90DF04DFFF5E70B490948FDF7D4F944
:104D10000DF046FF0027EDE7A4390020A53900205B
:104D20005D4B0008694B00080418060800150708C9
:104D3000980900201C1507083415070870B588B0BD
:104D40000546002402940394049405940694CDF837
:104D50001B401E4B93E803000290ADF80C101C4B57
:104D60001868CDF80E001B4B1868CDF812001A4BCE
:104D70001868CDF81600CDF81A0001268DF81E60CF
:104D800002A80CF043FC05F50B7E0DF1080CBCE805
:104D90000F00AEE80F009CE803004EF8040B2EF85D
:104DA000021B090C8EF800106C702E709DF81030EC
:104DB0009DF81120019200939DF80F309DF80E2070
:104DC00006490748FDF7F6F808B070BD0418060854
:104DD00070150708781507087C150708541507088B
:104DE00098090020F0B58DB00446154600230370E5
:104DF00043703D4A13703D4A1370084600F0F0F8C6
:104E000000F07AF93A493B480BF0B8FF3A493B4881
:104E10000BF0DAFF3A493B480CF002F83A4B0AAA89
:104E200093E8030082E803000DF1200C8CE80300F6
:104E3000614610460CF05EF9002849D1FFF79AFE52
:104E400000284AD0002702970397049705970697F2
:104E5000CDF81B702D4B93E803000290ADF80C10B9
:104E600002238DF81E3002A80CF0D0FB04F50B7C59
:104E700002AE0FCEACE80F0096E803004CF8040B2E
:104E80002CF8021B090C8CF8001002A8FFF79CFEFE
:104E90008DF8077000F0D6F906460DF107011720CE
:104EA0000BF0EAFF9DF807304BB9322000F0D6F93D
:104EB00000F0C8F9831B40F6B73C6345EDD929469D
:104EC0002046FFF797FE50B101236370237004E082
:104ED0000F491048FDF7F0F800200DB0F0BD204656
:104EE000FFF72CFF2078F8E7A4390020A53900202F
:104EF00019500008015000086150000831500008A6
:104F0000D150000885500008A015070804180608AD
:104F100084150708980900204378012B00D07047BA
:104F200010B588B0044600F08DF96368C01AB0F57A
:104F30007A7F05D20DF01AFD032808D008B010BD05
:104F40000DF086FF636803F57A736360F2E7002370
:104F500002930393049305930693CDF81B301D4BE6
:104F600093E803000290ADF80C100DF10E000DF067
:104F70007DFF0DF116000DF099FF0DF112000DF0FF
:104F8000B5FF0DF11A000DF0D1FF02238DF81E3090
:104F900002A80CF03BFB04F50B740DF1080CBCE807
:104FA0000F000FC49CE8030044F8040B24F8021B14
:104FB000090C21709DF810309DF81120019200938A
:104FC0009DF80F309DF80E2003490448FCF7F2FFCE
:104FD000B4E700BF04180608AC15070898090020BC
:104FE00080B483B000AF7860044A7B68136000BF70
:104FF0000C37BD465DF8047B704700BFA839002020
:1050000080B500AF00224FF48071024800F0F2FF3B
:1050100000BF80BD0000024080B500AF01224FF408
:105020008071024800F0E6FF00BF80BD0000024032
:1050300080B584B002AFFF23FB710023BB71074B27
:105040001868BA1DF91D64230093012304F01CFFA6
:10505000BB7918460837BD4680BD00BFA83900207F
:1050600080B582B000AF0346FB71054B1868F91D8F
:105070006423012204F0C5FD00BF0837BD4680BD92
:10508000A839002080B586B002AF78600B467B80DF
:10509000FF237B730023FB810EE00C4B1868FB8918
:1050A0007A681A4407F10D01C8230093012304F024
:1050B000EBFEFB890133FB81FA897B889A42ECD3B2
:1050C00000BF00BF1037BD4680BD00BFA83900201B
:1050D00080B582B000AF78600B467B80054B1868C6
:1050E0007A88C823796804F08CFD00BF0837BD4674
:1050F00080BD00BFA839002080B500AF0022082184
:10510000074800F077FF022000F0A8F801220821EC
:10511000034800F06FFF962000F0A0F800BF80BDAC
:1051200000080240DFF834D0FFF7E2FC0C480D49DC
:105130000D4A002302E0D458C4500433C4188C42F2
:10514000F9D30A4A0A4C002301E013600432A24258
:10515000FBD359F0E3FEFDF777FE70470000022015
:10516000000000203802002024C407083802002074
:105170009C640020FEE7000080B500AF0E4B1B686A
:105180000D4A43F4007313600B4B1B680A4A43F447
:1051900080631360084B1B68074A43F480731360F5
:1051A000032000F093F90F2000F008F8FFF7A6FAAB
:1051B0000023184680BD00BF003C024080B582B08D
:1051C00000AF7860124B1A68124B1B7819464FF4E7
:1051D0007A73B3FBF1F3B2FBF3F3184600F0ABF9CB
:1051E0000346002B01D001230EE07B680F2B0AD869
:1051F000002279684FF0FF3000F073F9064A7B68AF
:105200001360002300E0012318460837BD4680BD27
:1052100000000020080000200400002080B400AF3F
:10522000064B1B781A46064B1B681344044A13604E
:1052300000BFBD465DF8047B704700BF080000203A
:10524000AC39002080B400AF034B1B681846BD4644
:105250005DF8047B704700BFAC39002080B584B096
:1052600000AF7860FFF7EEFFB8607B68FB60FB681B
:10527000B3F1FF3F05D00A4B1B781A46FB68134475
:10528000FB6000BFFFF7DEFF0246BB68D31AFA6877
:105290009A42F7D800BF00BF1037BD4680BD00BF9F
:1052A0000800002080B400AF054B1B68044A23F0BF
:1052B0000203136000BFBD465DF8047B704700BF6A
:1052C00010E000E080B400AF054B1B68044A43F0D7
:1052D0000203136000BFBD465DF8047B704700BF4A
:1052E00010E000E080B400AF034B1B681846BD46D9
:1052F0005DF8047B704700BF107AFF1F80B400AFD9
:10530000034B1B681846BD465DF8047B704700BF21
:10531000147AFF1F80B400AF034B1B681846BD46CC
:105320005DF8047B704700BF187AFF1F80B485B01A
:1053300000AF78607B6803F00703FB600C4BDB6811
:10534000BB60BA684FF6FF031340BB60FB681A02EC
:10535000BB68134343F0BF6343F40033BB60044AAC
:10536000BB68D36000BF1437BD465DF8047B70474F
:1053700000ED00E080B400AF044BDB681B0A03F0D3
:1053800007031846BD465DF8047B704700ED00E05A
:1053900080B483B000AF0346FB7197F90730002B50
:1053A0000BDBFB7903F01F02074997F907305B0914
:1053B000012000FA02F241F8232000BF0C37BD465D
:1053C0005DF8047B704700BF00E100E080B483B06B
:1053D00000AF03463960FB7197F90730002B0ADBF9
:1053E0003B68DAB20C4997F907301201D2B20B448C
:1053F00083F800230AE03B68DAB20849FB7903F03E
:105400000F03043B1201D2B20B441A7600BF0C37D3
:10541000BD465DF8047B704700E100E000ED00E070
:1054200080B489B000AFF860B9607A60FB6803F0BF
:105430000703FB61FB69C3F10703042B28BF0423A7
:10544000BB61FB690433062B02D9FB69033B00E017
:1054500000237B614FF0FF32BB6902FA03F3DA43AA
:10546000BB681A407B699A404FF0FF317B6901FAB3
:1054700003F3D9437B680B40134318462437BD46DA
:105480005DF8047B7047000080B582B000AF7860A3
:105490007B68013BB3F1807F01D301230FE00A4A0F
:1054A0007B68013B53600F214FF0FF30FFF78EFF09
:1054B000054B00229A60044B07221A60002318460D
:1054C0000837BD4680BD00BF10E000E080B582B067
:1054D00000AF78607868FFF729FF00BF0837BD4646
:1054E00080BD80B586B000AF0346B9607A60FB73BB
:1054F00000237B61FFF73EFF78617A68B9687869BD
:10550000FFF78EFF024697F90F3011461846FFF756
:105510005DFF00BF1837BD4680BD80B582B000AFCB
:105520000346FB7197F907301846FFF731FF00BFBC
:105530000837BD4680BD80B582B000AF786078681E
:10554000FFF7A2FF034618460837BD4680BD00009E
:1055500080B586B000AF786000237B61FFF772FEF4
:1055600038617B68002B01D1012399E07B6802221E
:1055700083F835207B68002283F834207B681B6821
:105580001A687B681B6822F001021A600FE0FFF7BF
:1055900059FE02463B69D31A052B08D97B682022A5
:1055A0005A657B68032283F83520032378E07B6803
:1055B0001B681B6803F00103002BE8D17B681B68A4
:1055C0001B687B617A69384B13407B617B685A6842
:1055D0007B689B681A437B68DB681A437B681B699E
:1055E0001A437B685B691A437B689B691A437B6833
:1055F000DB691A437B681B6A13437A6913437B6137
:105600007B685B6A042B07D17B68DA6A7B681B6B5B
:1056100013437A6913437B617B681B687A691A605C
:105620007B681B685B697B617B6923F007037B6197
:105630007B685B6A7A6913437B617B685B6A042BD6
:1056400017D17B689B6A7A6913437B617B68DB6A4D
:10565000002B0ED0786800F09DFA0346002B08D08E
:105660007B6840225A657B68012283F8352001233C
:1056700016E07B681B687A695A61786800F054FA12
:105680000346FB607B68DB6D3F229A40FB689A60B3
:105690007B6800225A657B68012283F8352000234D
:1056A00018461837BD4680BD3F8010F080B586B0E3
:1056B00000AFF860B9607A603B600023FB75FB685F
:1056C0009B6D3B61FB6893F83430012B01D10223C1
:1056D00040E0FB68012283F83420FB6893F8353002
:1056E000DBB2012B2FD1FB68022283F83520FB6847
:1056F00000225A653B687A68B968F86800F0E6F9F4
:10570000FB68DB6D3F229A403B699A60FB681B682F
:105710001A68FB681B6842F016021A60FB681B6C73
:10572000002B07D0FB681B681A68FB681B6842F0F7
:1057300008021A60FB681B681A68FB681B6842F065
:1057400001021A6005E0FB68002283F8342002237E
:10575000FB75FB7D18461837BD4680BD80B483B00D
:1057600000AF78607B6893F83530DBB2022B04D051
:105770007B6880225A6501230CE07B68052283F850
:1057800035207B681B681A687B681B6822F0010261
:105790001A60002318460C37BD465DF8047B70473D
:1057A00080B586B000AF78600023BB608E4B1B686D
:1057B0008E4AA2FB03239B0A7B617B689B6D3B6146
:1057C0003B691B68FB607B68DB6D08229A40FB68C5
:1057D0001340002B1AD07B681B681B6803F004037E
:1057E000002B13D07B681B681A687B681B6822F04B
:1057F00004021A607B68DB6D08229A403B699A605C
:105800007B685B6D43F001027B685A657B68DB6DEA
:1058100001229A40FB681340002B12D07B681B6862
:105820005B6903F08003002B0BD07B68DB6D0122EA
:105830009A403B699A607B685B6D43F002027B682B
:105840005A657B68DB6D04229A40FB681340002B8D
:1058500012D07B681B681B6803F00203002B0BD07F
:105860007B68DB6D04229A403B699A607B685B6DC4
:1058700043F004027B685A657B68DB6D10229A4016
:10588000FB681340002B43D07B681B681B6803F048
:105890000803002B3CD07B68DB6D10229A403B69EB
:1058A0009A607B681B681B6803F48023002B18D068
:1058B0007B681B681B6803F40023002B08D17B68FE
:1058C0001B6C002B24D07B681B6C786898471FE00A
:1058D0007B689B6C002B1BD07B689B6C786898471F
:1058E00016E07B681B681B6803F48073002B07D1EC
:1058F0007B681B681A687B681B6822F008021A60C4
:105900007B681B6C002B03D07B681B6C7868984706
:105910007B68DB6D20229A40FB681340002B00F06F
:105920008F807B681B681B6803F01003002B00F05E
:1059300087807B68DB6D20229A403B699A607B6898
:1059400093F83530DBB2052B36D17B681B681A68BB
:105950007B681B6822F016021A607B681B685A6914
:105960007B681B6822F080025A617B681B6C002BED
:1059700003D17B689B6C002B07D07B681B681A687F
:105980007B681B6822F008021A607B68DB6D3F228F
:105990009A403B699A607B68012283F835207B68D6
:1059A000002283F834207B681B6D002B7ED07B683F
:1059B0001B6D7868984779E07B681B681B6803F467
:1059C0008023002B1DD07B681B681B6803F4002319
:1059D000002B0DD17B685B6C002B31D07B685B6C3E
:1059E000786898472CE000BF00000020B5814E1B6E
:1059F0007B68DB6B002B23D07B68DB6B7868984778
:105A00001EE07B681B681B6803F48073002B0FD1BA
:105A10007B681B681A687B681B6822F010021A609A
:105A20007B68012283F835207B68002283F83420CC
:105A30007B68DB6B002B03D07B68DB6B7868984757
:105A40007B685B6D002B32D07B685B6D03F00103DC
:105A5000002B22D07B68052283F835207B681B68E9
:105A60001A687B681B6822F001021A60BB68013368
:105A7000BB607A699A4207D37B681B681B6803F096
:105A80000103002BF2D100E000BF7B68012283F804
:105A900035207B68002283F834207B68DB6C002B88
:105AA00005D07B68DB6C7868984700E000BF18374A
:105AB000BD4680BD80B483B000AF78607B685B6D0D
:105AC00018460C37BD465DF8047B704780B485B03E
:105AD00000AFF860B9607A603B60FB681B681A68C9
