:020000040800F2
:1000000000000220CD460008354000083B400008B3
:1000100041400008474000084D4000080000000033
:100020000000000000000000000000005340000835
:1000300061400008000000006F4000087D4000089B
:100040001D4700081D4700081D470008894000089B
:100050001D4700081D4700081D4700081D470008F0
:100060001D4700081D4700081D4700081D470008E0
:100070001D4700081D4700081D4700081D470008D0
:100080001D4700081D4700081D4700081D470008C0
:100090001D4700081D4700081D4700081D470008B0
:1000A0001D4700081D4700081D4700081D470008A0
:1000B0001D4700081D4700081D4700081D47000890
:1000C0001D4700081D4700081D4700081D47000880
:1000D0001D4700081D4700081D4700081D47000870
:1000E0001D4700081D4700081D4700081D47000860
:1000F0001D4700081D4700081D4700081D47000850
:100100001D4700089D4000081D4700081D470008C6
:100110001D4700081D470008B14000081D470008A2
:100120001D4700081D4700081D470008C54000087E
:100130001D4700081D4700081D4700081D4700080F
:100140001D4700081D4700081D4700081D470008FF
:100150001D470008D94000081D4700081D4700083A
:100160001D4700081D4700081D4700081D470008DF
:100170001D4700081D4700081D470008000000003B
:080180001D4700081D4700089F
:1001900010B5054C237833B9044B13B10448AFF3C1
:1001A00000800123237010BD3802002000000000F1
:1001B0003CF6050808B5034B1BB103490348AFF3F0
:1001C000008008BD000000003C0200203CF605084D
:1001D00001F0FF01102A2BDB10F0070F08D010F8F8
:1001E000013B013A8B422DD010F0070F42B3F6D1FC
:1001F000F0B441EA012141EA014122F007047FF015
:1002000000070023F0E80256083C85EA010586EA6B
:10021000010685FA47F5A3FA87F586FA47F6A5FAA7
:1002200087F68EB9EED1F0BC01F0FF0102F00702B3
:1002300032B110F8013B013A83EA010313B1F8D15E
:100240000020704701387047002D06BF354603383F
:10025000073815F0010F07D1013015F4807F02BF78
:10026000013015F4C03F0130F0BC0138704700BFC9
:10027000034613F8012B002AFBD1181A01387047E6
:1002800081F0004102E000BF83F0004330B54FEA47
:1002900041044FEA430594EA050F08BF90EA020FB4
:1002A0001FBF54EA000C55EA020C7FEA645C7FEA47
:1002B000655C00F0E2804FEA5454D4EB5555B8BF6A
:1002C0006D420CDD2C4480EA020281EA030382EADB
:1002D000000083EA010180EA020281EA0303362D6D
:1002E00088BF30BD11F0004F4FEA01314FF4801C40
:1002F0004CEA113102D0404261EB410113F0004F52
:100300004FEA03334CEA133302D0524263EB430308
:1003100094EA050F00F0A780A4F10104D5F1200EA6
:100320000DDB02FA0EFC22FA05F2801841F1000101
:1003300003FA0EF2801843FA05F359410EE0A5F1D5
:1003400020050EF1200E012A03FA0EFC28BF4CF006
:10035000020C43FA05F3C01851EBE37101F00045BC
:1003600007D54FF0000EDCF1000C7EEB00006EEBC9
:100370000101B1F5801F1BD3B1F5001F0CD3490853
:100380005FEA30004FEA3C0C04F101044FEA4452AA
:1003900012F5800F80F09A80BCF1004F08BF5FEA31
:1003A000500C50F1000041EB045141EA050130BD11
:1003B0005FEA4C0C404141EB0101013C28BFB1F523
:1003C000801FE9D291F0000F04BF01460020B1FA6E
:1003D00081F308BF2033A3F10B03B3F120020CDA41
:1003E0000C3208DD02F1140CC2F10C0201FA0CF01F
:1003F00021FA02F10CE002F11402D8BFC2F1200C84
:1004000001FA02F120FA0CFCDCBF41EA0C01904039
:10041000E41AA2BF01EB0451294330BD6FEA040482
:100420001F3C1CDA0C340EDC04F11404C4F120026D
:1004300020FA04F001FA02F340EA030021FA04F37F
:1004400045EA030130BDC4F10C04C4F1200220FAD6
:1004500002F001FA04F340EA0300294630BD21FA14
:1004600004F0294630BD94F0000F83F4801306BFDA
:1004700081F480110134013D4EE77FEA645C18BFCE
:100480007FEA655C29D094EA050F08BF90EA020F65
:1004900005D054EA000C04BF1946104630BD91EA5D
:1004A000030F1EBF0021002030BD5FEA545C05D160
:1004B0004000494128BF41F0004130BD14F580049F
:1004C0003CBF01F5801130BD01F0004545F0FE4113
:1004D00041F470014FF0000030BD7FEA645C1ABF48
:1004E000194610467FEA655C1CBF0B46024650EA7F
:1004F000013406BF52EA033591EA030F41F40021AB
:1005000030BD00BF90F0000F04BF0021704730B530
:100510004FF4806404F132044FF000054FF0000105
:1005200050E700BF90F0000F04BF0021704730B5C6
:100530004FF4806404F1320410F0004548BF40429B
:100540004FF000013EE700BF42004FEAE2014FEAF0
:1005500031014FEA02701FBF12F07F4393F07F4FCB
:1005600081F06051704732F07F4208BF704793F0CE
:100570007F4F04BF41F40021704730B54FF46074E1
:1005800001F0004521F000411CE700BF50EA0102E4
:1005900008BF704730B54FF000050AE050EA01028D
:1005A00008BF704730B511F0004502D5404261EBFD
:1005B00041014FF4806404F132045FEA915C3FF43E
:1005C000D8AE4FF003025FEADC0C18BF03325FEADB
:1005D000DC0C18BF033202EBDC02C2F1200300FA8C
:1005E00003FC20FA02F001FA03FE40EA0E0021FAB1
:1005F00002F11444BDE600BF70B54FF0FF0C4CF49F
:10060000E06C1CEA11541DBF1CEA135594EA0C0F50
:1006100095EA0C0F00F0DEF82C4481EA030621EA8B
:100620004C5123EA4C5350EA013518BF52EA0335C6
:1006300041F4801143F4801338D0A0FB02CE4FF078
:100640000005E1FB02E506F00042E0FB03E54FF0A8
:100650000006E1FB03569CF0000F18BF4EF0010EA0
:10066000A4F1FF04B6F5007F64F5407404D25FEA9C
:100670004E0E6D4146EB060642EAC62141EA55514F
:100680004FEAC52040EA5E504FEACE2EB4F1FD0C91
:1006900088BFBCF5E06F1ED8BEF1004F08BF5FEA0F
:1006A000500E50F1000041EB045170BD06F00046C1
:1006B00046EA010140EA020081EA0301B4EB5C046E
:1006C000C2BFD4EB0C0541EA045170BD41F4801166
:1006D0004FF0000E013C00F3AB8014F1360FDEBF8B
:1006E000002001F0004170BDC4F10004203C35DA67
:1006F0000C341BDC04F11404C4F1200500FA05F3EA
:1007000020FA04F001FA05F240EA020001F000428A
:1007100021F0004110EBD37021FA04F642EB060100
:100720005EEA430E08BF20EAD37070BDC4F10C042A
:10073000C4F1200500FA04F320FA05F001FA04F2EE
:1007400040EA020001F0004110EBD37041F10001DA
:100750005EEA430E08BF20EAD37070BDC4F12005E5
:1007600000FA05F24EEA020E20FA04F301FA05F24D
:1007700043EA020321FA04F001F0004121FA04F2F5
:1007800020EA020000EBD3705EEA430E08BF20EAC5
:10079000D37070BD94F0000F0FD101F000464000FF
:1007A00041EB010111F4801F08BF013CF7D041EA81
:1007B000060195F0000F18BF704703F00046520085
:1007C00043EB030313F4801F08BF013DF7D043EA56
:1007D0000603704794EA0C0F0CEA135518BF95EA0C
:1007E0000C0F0CD050EA410618BF52EA4306D1D193
:1007F00081EA030101F000414FF0000070BD50EAB2
:10080000410606BF1046194652EA430619D094EA3B
:100810000C0F02D150EA013613D195EA0C0F05D125
:1008200052EA03361CBF104619460AD181EA030179
:1008300001F0004141F0FE4141F470014FF0000031
:1008400070BD41F0FE4141F4780170BD70B54FF0CC
:10085000FF0C4CF4E06C1CEA11541DBF1CEA13554C
:1008600094EA0C0F95EA0C0F00F0A7F8A4EB05042E
:1008700081EA030E52EA03354FEA013100F0888025
:100880004FEA03334FF0805545EA131343EA1263EE
:100890004FEA022245EA111545EA10654FEA0026A3
:1008A0000EF000419D4208BF964244F1FD0404F55C
:1008B000407402D25B084FEA3202B61A65EB0305B8
:1008C0005B084FEA32024FF480104FF4002CB6EB75
:1008D000020E75EB030E22BFB61A754640EA0C00F5
:1008E0005B084FEA3202B6EB020E75EB030E22BF35
:1008F000B61A754640EA5C005B084FEA3202B6EB76
:10090000020E75EB030E22BFB61A754640EA9C0034
:100910005B084FEA3202B6EB020E75EB030E22BF04
:10092000B61A754640EADC0055EA060E18D04FEAC2
:10093000051545EA16754FEA06164FEAC30343EA62
:1009400052734FEAC2025FEA1C1CC0D111F4801F2F
:100950000BD141EA00014FF000004FF0004CB6E728
:1009600011F4801F04BF01430020B4F1FD0C88BFC7
:10097000BCF5E06F3FF6AFAEB5EB030C04BFB6EBD2
:10098000020C5FEA500C50F1000041EB045170BDC5
:100990000EF0004E4EEA113114EB5C04C2BFD4EBF2
:1009A0000C0541EA045170BD41F480114FF0000E76
:1009B000013C90E645EA060E8DE60CEA135594EAF2
:1009C0000C0F08BF95EA0C0F3FF43BAF94EA0C0FF5
:1009D0000AD150EA01347FF434AF95EA0C0F7FF46A
:1009E00025AF104619462CE795EA0C0F06D152EABE
:1009F00003353FF4FDAE1046194622E750EA4106A2
:100A000018BF52EA43067FF4C5AE50EA41047FF4B2
:100A10000DAF52EA43057FF4EBAE12E74FF0FF3C17
:100A200006E000BF4FF0010C02E000BF4FF0010CE8
:100A30004DF804CD4FEA410C7FEA6C5C4FEA430C61
:100A400018BF7FEA6C5C1BD001B050EA410C0CBFB0
:100A500052EA430C91EA030F02BF90EA020F002012
:100A6000704710F1000F91EA030F58BF994208BF79
:100A700090422CBFD8176FEAE37040F00100704736
:100A80004FEA410C7FEA6C5C02D150EA013C07D18D
:100A90004FEA430C7FEA6C5CD6D152EA033CD3D0D8
:100AA0005DF8040B704700BF8446104662468C46D2
:100AB0001946634600E000BF01B5FFF7B7FF002805
:100AC00048BF10F1000F01BD4DF808EDFFF7F4FF2E
:100AD0000CBF012000205DF808FB00BF4DF808EDB9
:100AE000FFF7EAFF34BF012000205DF808FB00BFDC
:100AF0004DF808EDFFF7E0FF94BF012000205DF8FE
:100B000008FB00BF4DF808EDFFF7CEFF94BF0120B2
:100B100000205DF808FB00BF4DF808EDFFF7C4FFAB
:100B200034BF012000205DF808FB00BF4FEA410CF4
:100B30007FEA6C5C02D150EA013C0AD14FEA430CD7
:100B40007FEA6C5C02D152EA033C02D14FF0000014
:100B500070474FF0010070474FEA410212F5001252
:100B600015D211D56FF47873B3EB625212D94FEAF4
:100B7000C12343F0004343EA505311F0004F23FADE
:100B800002F018BF404270474FF00000704750EA33
:100B9000013005D111F0004008BF6FF000407047F0
:100BA0004FF00000704700BF7BB972B90029BEBF8B
:100BB00000204FF0004106E008BF00281CBF6FF086
:100BC00000414FF0FF3000F0BBB9ADF1080C6DE90A
:100BD00004CE002909DB002B1ADB00F04DF8DDF80C
:100BE00004E0DDE9022304B07047404261EB4101BB
:100BF000002B1BDB00F040F8DDF804E0DDE9022308
:100C000004B0404261EB4101524263EB4303704741
:100C1000524263EB430300F02FF8DDF804E0DDE916
:100C2000022304B0404261EB41017047524263EB42
:100C3000430300F021F8DDF804E0DDE9022304B00D
:100C4000524263EB4303704753B94AB9002908BFC6
:100C500000281CBF4FF0FF314FF0FF3000F070B99B
:100C6000ADF1080C6DE904CE00F006F8DDF804E003
:100C7000DDE9022304B070472DE9F047089E0D46D8
:100C800004460F46002B4AD18A42944665D9B2FAEF
:100C900082F343B102FA03FCC3F120029F4020FA21
:100CA00002F217439C404FEA1C4E1FFA8CF5B7FB2B
:100CB000FEF1220C0EFB117742EA074201FB05F020
:100CC00090420AD91CEB020201F1FF3780F01C812F
:100CD000904240F2198102396244121AA4B2B2FB66
:100CE000FEF00EFB102244EA024400FB05F5A5428B
:100CF0000AD91CEB040400F1FF3280F00781A54201
:100D000040F204816444023840EA0140641B00213F
:100D10001EB1DC400023C6E90043BDE8F0878B42EA
:100D200008D9002E00F0ED800021C6E90005084634
:100D3000BDE8F087B3FA83F1002949D1AB4202D371
:100D4000824200F2F880841A65EB03020120174604
:100D5000002EE2D0C6E90047DFE702B9FFDEB2FAB3
:100D600082F3002B40F090808A1A4FEA1C471FFA4A
:100D70008CFE0121B2FBF7F507FB1520220C42EA9D
:100D800000420EFB05F0904208D91CEB020205F16F
:100D9000FF3802D2904200F2CB804546121AA4B22C
:100DA000B2FBF7F007FB102244EA02440EFB00FE00
:100DB000A64508D91CEB040400F1FF3202D2A64577
:100DC00000F2BB801046A4EB0E0440EA05409FE70A
:100DD000C1F120078B4022FA07FC4CEA030C05FA0C
:100DE00001F420FA07F3FD404FEA1C492343B5FB09
:100DF000F9F81FFA8CFE09FB18551C0C44EA05444F
:100E000008FB0EF5A54202FA01F200FA01F00BD937
:100E10001CEB040408F1FF3A80F08880A54240F200
:100E20008580A8F102086444641B9DB2B4FBF9F309
:100E300009FB134445EA044403FB0EFEA64508D90A
:100E40001CEB040403F1FF356CD2A6456AD9023BC2
:100E5000644443EA0843A3FB0295A4EB0E04AC42AE
:100E6000C846AE4656D353D056B1B0EB080264EB39
:100E70000E0404FA07F7CA40CC401743C6E90074D1
:100E800018460021BDE8F087C3F1200102FA03FCF7
:100E900020FA01F225FA01F19D402A434FEA1C474E
:100EA0001FFA8CFEB1FBF7F007FB1015110C41EA9D
:100EB000054100FB0EF58D4204FA03F408D91CEB42
:100EC000010100F1FF382FD28D422DD90238614443
:100ED000491B92B2B1FBF7F507FB151142EA01423B
:100EE00005FB0EF1914208D91CEB020205F1FF3817
:100EF00016D2914214D9023D6244521A45EA004189
:100F000038E73146304608E73946E6E61046FBE664
:100F10004845A9D2B9EB020865EB0C0E013BA3E7EB
:100F20004546EAE72B4694E74046D1E7D0467BE7C3
:100F3000023D624432E708460AE76444023842E769
:100F4000704700BF012801D0014870470148704731
:100F50007CA8060870A80608024680B1037813B979
:100F600000207047013213783BB1A3F13001092909
:100F7000F8D92E2BF6D000207047012070470020B2
:100F80007047000008B50121034804F0CBFA08B906
:100F9000012008BD0020FCE70004024030B583B00A
:100FA00004460121084804F0BDFA0546FFF7EAFFB0
:100FB000FFF7C8FF00902B4622460449044800F082
:100FC000A1FE03B030BD00BF000402408CA806089B
:100FD0009809002000B583B000238DF807300DF18B
:100FE000070117200FF0F8F99DF80700003818BF27
:100FF000012003B05DF804FB10B50F4B1B785BB903
:101000000E490F4800F07EFE4FF4FA520D490A488F
:1010100003F0DAF9044628B1FFF7DCFF044630B1EB
:10102000204610BD0849064800F0EEFEF8E70749E3
:10103000034800F0E9FEF3E754020020ACA80608DC
:101040009809002048390020BCA80608D0A8060846
:1010500078B138B50C46054669B10846FFF708F97E
:101060000246214628465BF066FDB0FA80F0400952
:1010700038BD002070470020FAE7000000285CD04F
:1010800070B50D460446C222002128465BF03EFDA5
:101090005023A5F8C03007222C4920465BF04BFDB9
:1010A00000284CD1E11D0C4600E0013423781BB12F
:1010B0002F2B01D03A2BF8D1661A731E3E2B01D983
:1010C00000203DE0324628465BF0EFFE0023AB55A2
:1010D00023783A2B0BD023780BB32F2B33D1204618
:1010E000FFF7C6F8431E7E2B1FD9002028E00134ED
:1010F000002306E003EB830302EB4302A2F130037B
:1011000001342278A2F13001C9B20929F2D9591E5D
:101110004FF6FE72914214D8A5F8C030DBE70C4BB5
:101120001B88A5F8403001200AE0421C214605F149
:1011300040005BF0BAFE012002E000207047002072
:1011400070BD0020FCE70020FAE700BFE0A8060819
:10115000E8A80608F0B58FB004460E46FFF7FCFE7F
:10116000074600282FD0002303930493059306938A
:1011700006AB019305AB009304AB03AA20492046BC
:101180005BF05AFB042812D1039BFF2B13D8049A5F
:10119000FF2A12D8059AFF2A11D8069AFF2A10D8DA
:1011A0003370049B7370059BB370F27000E00027EE
:1011B00038460FB0F0BD0027FAE70027F8E7002710
:1011C000F6E70027F4E70025089509950A950B95A1
:1011D0000C95CDF8335008A80FF008FD09490120FF
:1011E00011F01CFD079507AA21460DF1320011F000
:1011F00031FD0128DCD1079B33600127D8E700BF10
:10120000ECA80608980400202DE9F041ADF54E7DCC
:1012100006460C4690461F46D49DC22268499DA8AA
:101220005BF043FE9DA93046FFF728FF002800F041
:10123000C08000239C939CA99DA8FFF78BFF0028EA
:1012400000F0BA8000234CF25032012118460DF014
:10125000ADFE40BBBDF834239CA900200EF048F839
:10126000012826D10CB123784BBB01979DAB00938D
:10127000ADAB544A4FF4167106A85BF0A9FA0646C6
:10128000013840F25623984225D80024A64228D996
:10129000321B92B206AB191900200EF0B1F90028EA
:1012A0002FDD0444F2E700200DF0B4FF6FF01300CF
:1012B0007BE000200DF0AEFF6FF0140075E00297A8
:1012C00001949DAB0093ADAB3F4A4FF4167106A855
:1012D0005BF07EFAD3E700200DF09CFF6FF0150065
:1012E00063E0002484B90026B74215D9BA1B92B234
:1012F00008EB060100200EF083F900280ADD064401
:10130000F2E74FF0FF34EDE700200DF083FF6FF0C0
:1013100016004AE04FF0FF341CB903F067FA0646A6
:101320000EE000200DF076FF6FF017003DE027493A
:1013300027485BF025FC03461CE0022003F062FA1C
:1013400003F054FA801BA84227D2C4F53F7203323F
:1013500092B21F49214400200EF0A6FA0028ECDDCD
:1013600004441B48002303551A495BF009FC03465B
:101370000028DCD0002BE3D00022059205AA1649F4
:1013800018465BF059FA0128DAD100200EF0B6F8C1
:1013900000200DF03FFF059807E000200EF0AEF8AA
:1013A00000200DF037FF6FF01D000DF54E7DBDE8FC
:1013B000F0816FF00900F8E76FF00A00F5E700BF71
:1013C00058F605087CA90608FCA80608F0A9060836
:1013D00098060020E4A90608FCA906082DE9F041BA
:1013E0000646324900F035FD351D4FF48053304A32
:1013F0003049284601F068FB04232F4A2F4906F1A3
:10140000100002F091F806F5077740F264420021DF
:1014100038465BF07BFB002486F81C424FF40C78C6
:101420004246214606F508705BF070FB42462146B5
:1014300006F58A605BF06AFB3246294606F5D06005
:1014400001F0FCFF06F28C654FF4417221462846FC
:101450005BF05CFB214600E0013101EB410305EB51
:10146000830300221A6000221A715A719A710120B6
:10147000D8711872587218209872DA723F29EBD11D
:10148000002485F800433A460D4906F5196001F03D
:1014900027FC86F89C494FF40052214606F69D1021
:1014A0005BF034FB3046BDE8F08100BF70360020B1
:1014B00000040240BC3700200008024074370020BE
:1014C000C436002008B50121034804F02BF8012898
:1014D00000D0002008BD00BF0008024008B501226E
:1014E0000221024804F036F808BD00BF000802409F
:1014F00008B500220221024804F02CF808BD00BF04
:1015000000080240F8B506460F46154600240DE0D7
:101510003046FFF7E3FF284603F074F93046FFF743
:10152000E7FF284603F06EF90134E4B2BC42EFD382
:10153000F8BD000038B50446234B244A2449254809
:1015400000F0E0FB204600F0F7FC201D01F0F0FA6F
:1015500004F5077001F028FC04F1100002F0B6F861
:101560002046FFF7AFFF84F89C0901281BD01A4AD8
:101570001A49184800F0C6FB1948FFF70FFD94F808
:101580009C39012B11D0134D1649284600F0BAFBA7
:1015900005221549284600F0B5FBC8220321204644
:1015A000FFF7B0FF38BD114AE2E70A4D104928465F
:1015B00000F0A8FB05220C49284600F0A3FB2046BA
:1015C000FFF78CFFEEE700BF18AA060824AA06085A
:1015D00030AA06089809002010AA060848AA06089A
:1015E00054AA060890AA060878AA060808AA0608B7
:1015F0005CAA06082DE9F04385B00646FFF7C2FC59
:10160000074642E053B10122039B0093029B5049DD
:10161000504800F0F9FB05B0BDE8F0830022F3E785
:101620004D494C4800F0F0FBF5E72046FEF720FE60
:1016300044F62063009383B222464849484800F0AC
:10164000F1FD044602464749424800F05BFB14E0C6
:101650004549404800F0D8FBDDE72046FEF708FE8C
:1016600083B222463E4906F1100002F0CDF902464F
:1016700004463E49374800F045FBC82C5ED103992B
:10168000284601F0FBFC002853D006F507752846D4
:1016900001F0BCFB002856D000230293039306F60A
:1016A0009D1403AB019302AB00934FF4E1634FF43D
:1016B00000522146284601F045FC03460028A1D0EF
:1016C000DDF80880B8F1000F9CD0DDF80C90B9F17E
:1016D000000F97D02046FEF7CBFD00904B464246C8
:1016E00023491C4800F00EFB012FB6D1FFF784FC04
:1016F000002895D01F491A48FFF7AAFC002894D16A
:101700001D491748FFF7A4FC0028A1D02046FEF78A
:10171000AFFD43F69823009383B222460F49104849
:10172000FFF772FD0446024614490A4800F0EAFA3F
:10173000A3E71349074800F067FB6CE71149054828
:1017400000F062FB67E71049024800F0DBFA62E74D
:10175000DCAB06089809002040AC0608A0BB0608D0
:1017600074AB06088CAC0608ACAC0608D4AC060812
:101770000CAC060880AC0608E0A806089CAC06087D
:10178000E4AC060800AD060820AD060838B50546ED
:10179000FFF7F8FB044601281DD01C4A1C491D48D0
:1017A00000F0B0FA012C18D005F11004204601F029
:1017B00071FF204602F036F8F8B92846FFF71AFF05
:1017C000204602F02FFA204601F080FF124911480E
:1017D00000F098FA38BD114AE0E7FFF70DFC20B998
:1017E0000F490C4800F010FBF4E72846FFF702FF12
:1017F0000949084800F086FAECE70A49054800F074
:1018000003FB204601F062FFE4E700BF58AD060885
:101810005CAD060898090020BCAD060854AD06086A
:1018200094AD0608FCAD060880B5ADF5127D044602
:1018300001254FF0000888E0A74802F041FE89E04A
:10184000DFF8F492B8F1000F40F09180A34B93E8D9
:1018500003000890ADF82410090C8DF8261008A993
:1018600004F5D06001F00AFE10EE106A0AAD002304
:101870000A930B930C930D930E930F931093119364
:101880009DF825309DF824209DF822109DF8210018
:101890009DF82070049703900291019200939DF8A7
:1018A00026308F4A202128465AF092FF3046FEF714
:1018B0004BFE06460F46009502460B4689498A486C
:1018C00000F0B1FA322201212046FFF71BFE9DF8FD
:1018D00026309DF825209DF824109DF822009DF8C3
:1018E00021509DF820C0CDF81CC0069505900491AC
:1018F00003920293CDE900677C4B7D4A4FF48071DF
:1019000012A85AF065FF002844DCB8F1000F47D157
:101910002046FFF73BFF94F89C39002B40F0D08025
:10192000714D05227349284600F0ECF92046FFF777
:10193000DFFD052104F5196001F0DAF96E4928464A
:1019400000F0E0F94FF001080025634B1B78002BF5
:101950007FF472AF2046FFF7B5FD84F89C0905B10E
:10196000A846002D3FF46CAFDFF8D0916AE7634ED4
:101970005D4D3146284600F0C5F94A466049284683
:1019800000F0C0F94846FFF709FB3146284600F051
:10199000B9F95BE712A904F5077001F04FFAB4E753
:1019A000FFF7F0FA05469DF826309DF825209DF8B2
:1019B00024109DF822009DF821C09DF820E0CDF86C
:1019C0001CE0CDF818C00590049103920293CDE974
:1019D0000067464B4B4A4FF4807152A85AF0F8FE0C
:1019E000431EFE2B66D8012D1FD004F1100528469A
:1019F00001F050FE284601F015FF002854D152A8EE
:101A0000FEF736FC83B252AA3F49284601F0FCFF9C
:101A100003464A463D49344800F074F9284602F02E
:101A200001F9284601F052FE72E7FFF7E5FAE0B14E
:101A300037493548FFF70CFBE8B936493248FFF71C
:101A400007FB58B352A8FEF713FC43F69823009304
:101A500083B252AA30492C48FFF7D6FB03464A46C8
:101A60002E49214800F04EF952E74A462C491E48BB
:101A700000F0CAF94CE752A8FEF7FAFB44F62063DF
:101A8000009383B252AA24491F4800F0CBFB0346BF
:101A90004A462449144800F035F939E74A462249B4
:101AA000114800F0B1F933E74A4620490E4800F0EA
:101AB000ABF9B6E74A461E490B4800F0A5F927E7FF
:101AC00005221C49084800F01DF941F2883002F057
:101AD00099FE4FF0000837E7540200201CF7050874
:101AE000C4AE0608ECAE060898090020F4AA060861
:101AF000FCAE06082CB0060844B0060844AE060842
:101B000090AE06081CAB060874AB0608D4AF0608F6
:101B100080AC0608E0A80608A0BB060894AF06083B
:101B200050AF060878AF0608B0AF0608ECAF06085D
:101B300010B0060860B006083CAE060834AE0608D1
:101B400010B5044640F8041B4FF4967200215AF079
:101B5000DDFF012384F83031204610BD012800D07C
:101B6000704708B54FF6FF73994200D008BD02498F
:101B70000248FFF7E5FFF9E72C370020980900201D
:101B8000006800B102B9704708B5C82308F03AF9F7
:101B900008BD38B590F8303153B105460C4639B11F
:101BA0000846FEF765FB82B221462846FFF7E8FFAC
:101BB00038BD000008B50249FFF7EBFF08BD00BFC4
:101BC0007CB006082DE9F04383B01E4690F8303112
:101BD00013B903B0BDE8F08307460C46914600F107
:101BE000040802F003FE034601960094154A4FF4E0
:101BF000967140465AF0ECFD054600240BE019F8BA
:101C00000430114AC5F5967108EB05005AF0E0FD65
:101C100005440134A4B2B44202D2B5F5927FEEDBA2
:101C20006B1C7A190D211171AA1C3B440A211971F0
:101C3000BB180021197192B241463846FFF7A0FF48
:101C4000C7E700BFC8B00608E8B00608032809D8EF
:101C5000DFE800F0020A04060448704704487047B1
:101C6000044870470448704704487047F0B00608BD
:101C700000B1060808B1060810B10608F8B0060859
:101C80002DE9F04383B090F8305115B903B0BDE8A9
:101C9000F0830446894690461F46061D02F0A6FDC5
:101CA00005464846FFF7D2FF00902B46144A4FF4F2
:101CB000967130465AF08CFD051EE7DB3B464246E6
:101CC000C5F5947170195AF053FE021E16DB2A44B2
:101CD000B2F5947F01DD4FF49472531CA1180D20CE
:101CE0000871023223440A211971A31800211971C5
:101CF00092B231462046FFF743FFC7E70022E6E7EE
:101D000018B106080EB400B582B003AB53F8042B2B
:101D100001930021FFF7B4FF02B05DF804EB03B0BC
:101D20007047000038B50446642002F06BFD204681
:101D3000FFF740FF26492046FFF72BFF25492046A5
:101D4000FFF727FF24492046FFF723FF23492046BA
:101D5000FFF71FFF22492046FFF71BFF21492046BE
:101D6000FFF717FF20492046FFF7CCFF04F02EFFB6
:101D70001E4DA5FB0032920C1D492046FFF7C2FF05
:101D800005F02AF8A5FB0032920C1A492046FFF70D
:101D9000B9FF05F02DF8A5FB0032920C164920463C
:101DA000FFF7B0FF05F038F8A5FB0052920C13497D
:101DB0002046FFF7A7FF12492046FFF7A3FF11496E
:101DC0002046FFF79FFF2046FFF7F4FE38BD00BF17
:101DD00028B106085CB106089CB10608E0B1060807
:101DE00020B2060878A9060860B2060883DE1B4305
:101DF00080B2060894B20608A8B20608BCB206086B
:101E0000D0B20608FCB206080EB400B582B003AB2F
:101E100053F8042B01930221FFF732FF02B05DF863
:101E200004EB03B070470EB400B582B003AB53F8B7
:101E3000042B01930321FFF723FF02B05DF804EBAD
:101E400003B0704708B54FF6FF710120FFF786FE1B
:101E500008BD01607047030903EB830300F00F0026
:101E600000EB4300C0B2704710B586B00C46006866
:101E7000642302930723019304AB00930123002200
:101E8000D02103F0DFFC88BB9DF8100000F07F003C
:101E9000FFF7E1FF20709DF8110000F07F00FFF7D1
:101EA000DAFF60709DF8120000F03F00FFF7D3FFEB
:101EB000A0709DF8130000F00700FFF7CCFFE07062
:101EC0009DF8140000F03F00FFF7C5FF20719DF85A
:101ED000150000F01F00FFF7BEFF60719DF81600AF
:101EE000FFF7B9FFA071012006B010BD0020FBE78D
:101EF00000B587B00068642302930223019305AB09
:101F0000009301231122D02103F09CFC9DF9143091
:101F100000EE103AB8EEC00A9DF815309B0907EEA6
:101F2000903AF8EEE77AB5EE007A67EE877A30EE0F
:101F3000270A07B05DF804FB10B586B00446642399
:101F40000322D021006803F0AFFE30B11C491D48C8
:101F5000FFF75AFF002006B010BD1B4B93E80300AB
:101F60000490ADF81410090C8DF8161004A9204641
:101F7000FFF77AFF70B92046FFF7BAFF10EE100A9C
:101F8000FEF7E2FA02460B4610490E48FFF7BAFE8A
:101F90000120E0E79DF814309DF812209DF8111003
:101FA0009DF8100003900291019200939DF8153066
:101FB0009DF8162006490348FFF7A4FEDBE700BFA3
:101FC0007CB306089809002024F7050854B30608D6
:101FD0001CB30608024680B1037813B9002070478D
:101FE000013213783BB1A3F130010929F8D92E2B26
:101FF000F6D0002070470120704700207047000095
:102000000AB90020704770B504460D4616460078A0
:102010000CF081FE024648B1B04200D3B2B229466C
:1020200020780DF041FC002809DB70BD02F0DEFBDA
:102030006368984201D90348F7E70348F5E7034886
:10204000F3E700BF0098FFFF0097FFFF0094FFFF3A
:102050000AB90020704770B504460D461646007850
:102060000CF00EFE024650B1B04200D3B2B2294687
:1020700020780DF0C5FA002803DB20B170BD0348BD
:10208000FCE70348FAE70148F8E700BF8097FFFF45
:102090000094FFFFF0B58FB004460E46FFF79AFF9D
:1020A000074600282FD0002303930493059306933B
:1020B00006AB019305AB009304AB03AA204920466D
:1020C0005AF0BAFB042812D1039BFF2B13D8049AB1
:1020D000FF2A12D8059AFF2A11D8069AFF2A10D88B
:1020E0003370049B7370059BB370F27000E000279F
:1020F00038460FB0F0BD0027FAE70027F8E70027C1
:10210000F6E70027F4E70F49012010F087FD0025CE
:10211000089509950A950B950C95CDF8335008A8AC
:102120000EF064FD079507AA21460DF1320010F06C
:1021300091FD0128DCD1079B33600127D8E700BF60
:10214000ECA80608D00A002000285ED070B50D4625
:102150000446C222002128465AF0D8FC40F2BB13A4
:10216000A5F8C03008222D4920465AF0E4FC00288A
:102170004DD104F108010C4600E0013423781BB175
:102180002F2B01D03A2BF8D1661A731E3E2B01D9A2
:1021900000203DE0324628465AF087FE0023AB552A
:1021A00023783A2B0BD023780BB32F2B33D1204637
:1021B000FEF75EF8431E7E2B1FD9002028E0013475
:1021C000002306E003EB830302EB4302A2F130039A
:1021D00001342278A2F13001C9B20929F2D9591E7D
:1021E0004FF6FE72914214D8A5F8C030DBE70C4BD5
:1021F0001B88A5F8403001200AE0421C214605F169
:1022000040005AF052FE012002E0002070470020FA
:1022100070BD0020FCE70020FAE700BF80AC060894
:10222000E8A806082DE9F043ADF6EC4D04468846D3
:1022300016461D46DDF8087DC22200210DF6244019
:102240005AF064FC0DF624412046FFF77DFF00287C
:1022500000F0A8810023CDF8203C0DF542610DF679
:102260002440FFF717FF002800F09F8100234CF265
:102270005132012118460CF099FE002878D1BDF8A2
:10228000E42C0DF5426100200DF032F8012875D1E3
:102290000DF6C82046F0E6FC0DF51F6047F0FCFC8B
:1022A0000DF64C0027F03CFD0DF20C701DF04CFEBD
:1022B0000B230093C34B0DF64C02C3490DF20C7077
:1022C0001EF049FA00285FD10DF5AF6059F0A2FB6E
:1022D000BE4B1C6854B12046FDF7CAFF421C214684
:1022E0000DF5AF6057F024FF002853DB00231A469A
:1022F00019460DF51F6047F01DFD002850D10DF265
:102300000C72B3490DF51F6046F0E4FEAF4B1B683D
:10231000002B4BD002210DF51F6046F0CCFE0022B1
:102320000DF5AF610DF51F6046F016FF0DF51F614D
:102330000DF6C82046F0FAFC00283DD10DF62441E8
:102340000DF6C82047F03CF80024CDF87045CDF8D4
:10235000744502F04BFA3844CDF8740500949D4B57
:102360009D4A0DF5AE610DF6C82046F0C5FE32E07F
:1023700000200CF04FFF6FF0130454E000200CF02D
:1023800049FF6FF014044EE000200CF043FF6FF0A3
:102390001D0448E000200CF03DFF6FF01E0442E0F9
:1023A00000200CF037FF6FF01F043CE000210DF51A
:1023B0001F6046F080FEB9E700200CF02BFF6FF0A5
:1023C000200430E002F012FADDF8743598420ED89D
:1023D000012002F017FA0DF6C82047F0D1F90446A3
:1023E00030B310F5D24FEDD010F5D14FEAD00DF645
:1023F000C82047F0BFFB0DF51F6047F075FE0DF5D7
:10240000AF6059F015FB0DF20C701DF0B8FD0DF624
:102410004C0027F0A9FC00200DF070F800200CF013
:10242000F9FE6FF0270420460DF6EC4DBDE8F08371
:10243000B8F1000F17D00295CDF804800DF62443B3
:1024400000930DF66443654A4FF41671C6A85AF01E
:10245000BFF98146421E40F256239A4200F2A880FC
:102460004FF0000807E0DFF88481E4E7804402E0F1
:10247000012002F0C7F9C14512D9A9EB0802C6AB89
:1024800003EB08010DF6C82045F032FC0028EDDC16
:1024900010F5D24FECD010F5D14FE9D04FF0FF340A
:1024A000002C40F088804FF0000804E0804402E0F7
:1024B000012002F0A7F9454511D9A5EB080206EB6A
:1024C00008010DF6C82045F013FC0028EEDC10F5DD
:1024D000D24FEDD010F5D14FEAD04FF0FF34002CA1
:1024E0006CD102F083F9054602F080F9431BBB4230
:1024F00052D2C4F53F72033206AB19190DF6C8204B
:1025000045F0E8F900281BDD044406A80023035524
:1025100033495AF035FB034660B1002BE4D000226A
:10252000059205AA2F4918465AF086F90128DBD1F1
:10253000059C0EE02C4906A85AF022FB0346ECE766
:1025400068B310F5D24F23D010F5D14F20D04FF003
:10255000FF340DF6C82045F033FC0DF6C82047F0D7
:1025600009FB0DF51F6047F0BFFD0DF5AF6059F099
:102570005FFA0DF20C701DF002FD0DF64C0027F015
:10258000F3FB00200CF0BAFF00200CF043FE4AE7FA
:10259000022002F037F9A7E74FF0FF34D9E74FF0F8
:1025A000FF34D6E76FF009043DE76FF00A043AE71D
:1025B0006FF0310437E76FF0320434E76FF0330423
:1025C00031E700BFA4B3060843A00208CC0A0020EC
:1025D0002F0902080120000851200008FCA8060865
:1025E000E4A90608FCA90608F0A90608A0BB06088D
:1025F0002DE9F0418AB000240594069407940894CC
:1026000009940094484B1A6B42F001021A631A6B4A
:1026100002F001020092009A01941A6B42F0020249
:102620001A631A6B02F002020192019A02941A6B69
:1026300042F004021A631A6B02F004020292029A38
:1026400003941A6B42F008021A631A6B02F0080234
:102650000392039A04941A6B42F080021A631B6B74
:1026600003F080030493049B304E2246062130463B
:1026700002F070FF2E4F22464FF48051384602F090
:1026800069FFDFF8B08001224FF48071404602F00C
:1026900061FF01220821304602F05CFF062305930A
:1026A000012506950794089405A9304602F09EFD81
:1026B0004FF480530593069507940223089305A9C8
:1026C000384602F093FD059506940795089405A9F0
:1026D000304602F08BFD059506940795089405A9F0
:1026E000384602F083FD4FF48073059306950794F6
:1026F0000327089705A9404602F078FD08230593B3
:1027000006950794089705A9304602F06FFD10233F
:10271000059306940794089405A9304602F066FDD7
:102720000AB0BDE8F08100BF003802400008024056
:102730000004024000000240012800D0704708B5A4
:102740004FF6FF73994200D008BD0248FEF746FEDF
:10275000FAE700BFD00C002000B58DB072B60DF1C5
:10276000040C114C0FCCACE80F000FCCACE80F0000
:1027700094E80700ACE80300ACF800204FF4FA73CB
:10278000292201A9094807F03DFB0221084802F06F
:10279000FAFE00230093009A064B9A42F5D800BF38
:1027A000009B01330093F6E7B0B306082C370020F6
:1027B00000080240DF93040008B50A480A4B036092
:1027C0004FF4E133436000238360C36003610C2254
:1027D00042618361C36107F0C5FA00B908BDFFF724
:1027E000BBFF00BF2C3700200010014008B50A488D
:1027F0000A4B03600A4B436000238360C3604FF4BD
:102800008042026143618361C361036202F0D6FECC
:1028100000B908BDFFF7A0FF70360020005400404B
:10282000A086010008B50A480A4B03604FF416530E
:10283000436000238360C36003610C2242618361B3
:10284000C36107F08FFA00B908BDFFF785FF00BF2D
:10285000743700200044004008B50A480A4B036062
:102860004FF41653436000238360C36003610C225E
:1028700042618361C36107F075FA00B908BDFFF7D3
:102880006BFF00BFBC3700200048004008B50D4872
:102890000D4B0360002343607F228260FF22C260F1
:1028A00003614361836104F0CBFA40B90022022145
:1028B000032002F0C6F8032002F0DFF808BDFFF79E
:1028C0004BFF00BFC43600200028004008B50C486C
:1028D0000C4B0360532343600023836040F2E732D4
:1028E000C260836107F00CF840B900220321362052
:1028F00002F0A7F8362002F0C0F808BDFFF72CFF61
:10290000E43600200010004000B595B030220021D0
:1029100008A85AF0FBF80023039304930593069349
:1029200007930193214A116C41F080511164126C9C
:1029300002F080520192019A02931D4B1A6842F4F0
:1029400080421A601B6803F480430293029B0523B4
:1029500008934FF48033099301230A9302230E93C3
:102960004FF480020F9204221092A8221192129327
:102970000723139308A803F0CBFD98B90F23039303
:1029800002230493002305934FF4A05306934FF4BE
:1029900080530793052103A804F032F820B915B03D
:1029A0005DF804FBFFF7D8FEFFF7D6FE00380240C3
:1029B0000070004008B501F0B3FEFFF7A5FFFFF778
:1029C00017FEFFF7F9FE224C2046FFF7ABF921492D
:1029D0002046FFF797F9FFF709FF1F492046FFF749
:1029E00091F9FFF71FFF1D492046FFF78BF9FFF70D
:1029F00033FF1B492046FFF785F901F035F900F058
:102A0000DFFB18492046FFF77DF908F0C1FB1649A6
:102A10002046FFF777F9FFF739FF14492046FFF703
:102A200071F9FFF753FF12492046FFF76BF9204673
:102A3000FFF7C0F80F492046FFF764F92046FFF77B
:102A4000B9F80D4C2046FEF775FD2046FEF7ECFE6A
:102A500098090020DCB30608FCB306081CB406087D
:102A60003CB406085CB406087CB406089CB40608AE
:102A7000BCB40608DCB40608D00C002008B54FF63C
:102A8000FF710120FFF758FE08BD80B485B000AF8C
:102A9000F860B9607A603B603B6800221A606FF0B2
:102AA0003B0318461437BD465DF8047B7047B0B54C
:102AB00000AF01F09BFE034600221C46154622464D
:102AC0002B4610461946B0BD016042600381704735
:102AD00008B501220189406802F03CFD08BD08B537
:102AE00000220189406802F035FD08BD00B5864628
:102AF0004FF0000C4FF6FF7010E040080133DBB2DE
:102B0000072B07D810F0010FF7D04AF2010282EA32
:102B10005000F3E70CF1010C1FFA8CFC8C4504D239
:102B20001EF80C3058400023EAE75DF804FB000073
:102B300008B5FFF7D4FF02490248FFF7E3F808BDE4
:102B400040B50608980900202DE9F04792B00446E8
:102B50000F469046BDF868601B9D8DF840108DF8BB
:102B600041201A0A8DF842208DF84330330A8DF83F
:102B700044308DF84560062110A8FFF7B7FF8DF8A7
:102B80004600C0F30F208DF84700082310AA4D49D6
:102B90004D48FFF717F82046FFF79AFF012001F094
:102BA00031FE6423082210A9206807F02BF90220C7
:102BB00001F028FE2046FFF792FF4FEA460A1FFA6F
:102BC0008AFA0AF105091FFA89F9402200216846AC
:102BD00059F09CFF1C9B4A466946206807F09DF906
:102BE000032830D00446A8BB4B466A4637493648CE
:102BF000FEF7E8FF9DF80030BB4257D19DF8012059
:102C00009DF90130002B56DB424556D19DF802302C
:102C1000B3EB460F53D10AF1030189B26846FFF7BF
:102C200065FF09F146036B4413F8483C09F147027C
:102C30000DEB020919F8482C43EA0223984210D1FF
:102C40004FF0000C29E03A4621491F48FFF7DCF815
:102C500001242CE002461F491B48FFF7D5F8042445
:102C600025E002461C491848FFF7CEF802241EE072
:102C70004FEA4C034B336B4413F8482C0CF102031E
:102C800012A901EB430313F8483C43EA022325F859
:102C90001C300CF1010C1FFA8CFCB445E8D33B4608
:102CA00032460E490848FFF72DF800E0042420467C
:102CB00012B0BDE8F0870324F9E70424F7E7042401
:102CC000F5E700BF80B5060898090020CCB50608D6
:102CD00088B50608B0B50608D4B50608FCB50608E0
:102CE0004FF0000C80F800C0416082607047000027
:102CF00038B504460D46806800F074F8606804F04A
:102D000067FA606805B1013D0422294604F09EF986
:102D1000D0B9322001F076FD01F098FD0E4A13681B
:102D200043F0040313600121084603F0C1FBFFF7E1
:102D3000EBFD01F09BFD606804F04AFAA06800F02A
:102D400033F80023237038BD04490548FFF75CF8C9
:102D5000FFF702FDDDE700BF0070004024B6060863
:102D600098090020022A08D9044B1B7803B93023A4
:102D70000B703A234B7000238B707047BC390020D6
:102D800070B584B00C4615461E46032203A9FFF712
:102D9000E9FF009603AB034A2946204659F018FD87
:102DA00004B070BD40B6060810B582B004460322D8
:102DB00001A9FFF7D7FF012201A9201D0AF026FC77
:102DC00018B90120207002B010BD02460349044822
:102DD000FFF71AF800202070F5E700BF48B6060894
:102DE00098090020037803B9704710B582B00446F3
:102DF000032201A9FFF7B6FF002201A910460AF03D
:102E000005FC0023237002B010BD0000844600784A
:102E100000B9704700B597B0074B402206A960463D
:102E2000FFF7AEFF694606A80BF059FBB0FA80F039
:102E3000400917B05DF804FB60B6060870B5ADF543
:102E4000207D06460078F8B10C4600296ED0084671
:102E5000FDF70EFA0546431EEF2B09D80023AB42BF
:102E600015D2E25C0D2A0AD00A2A08D00133F6E70F
:102E700002462F492F48FEF7C7FF002004E02E49E5
:102E80002C48FEF7C1FF00200DF5207D70BD2B4BB7
:102E9000402290A93046FFF773FF4FF40C720021D7
:102EA00004A859F033FE122290A904A80AF0F4FBFA
:102EB00008B10020E8E7079904A80BF007F980B9EA
:102EC0000023039303AB2A46214604A80AF0E1FE3F
:102ED00010B9039BAB4209D004A80BF0CDF8002039
:102EE000D2E704A80BF0C8F80020CDE7144B1B680C
:102EF000ADF808301B0C8DF80A300023019301ABAC
:102F0000022202A904A80AF0C4FE50B904A80BF0DA
:102F100035F8044604A80BF0AFF8B4FA84F0400981
:102F2000B2E704A80BF0A8F80020ADE70020ABE75B
:102F30006CB60608980900208CB6060860B606082C
:102F400078A906082DE9F04FADF55B7D1746984648
:102F5000DDF890930023C9F80030E59A136090F8EB
:102F600000A0BAF1000F7BD00D46002973D0032FCB
:102F700074D9474501D807F1FF38B8F1030F02D8DB
:102F80004FF0000A6CE03C4B4022CAA9FFF7F8FE64
:102F90004FF40C7200213EA859F0B8FD0122CAA9D5
:102FA0003EA80AF079FB00285FD15B232B70012635
:102FB0002DE001AA0021D1541C4654B1631E01AA80
:102FC000D25C0D2AF5D00A2AF3D0202AF1D0092AA2
:102FD000EFD04CB3D9F8002052B30123234402337D
:102FE0003344434526D8BB4224D812B12C23AB55D9
:102FF0000136224601A9A81959F057FF2644D9F8ED
:1030000000300133C9F80030E59BC3F800B03EAA98
:10301000F42101A80BF040FC60B1DDF810B101A86B
:10302000FDF726F90446C8E7E59BC3F800B0EEE7D4
:103030001346D3E7731C5D22AA550022EA543EA82A
:103040000BF01AF8D9F8003093B1E59B1B683BB937
:103050004FF0000A04E04FF0000A01E04FF0000AD0
:1030600050460DF55B7DBDE8F08F4FF0000AF7E7A5
:103070004FF0000AF4E700BF60B6060870B5ADF582
:10308000DD6D067816B104460D4619B930460DF5CA
:10309000DD6D70BD484B40220DF5D561FFF770FE28
:1030A000464B40220DF5CD612046FFF769FE4FF4F7
:1030B0000C7200210DF5876059F028FD01220DF5F5
:1030C000D5610DF587600AF0E7FA002872D1DDF8C6
:1030D00044349D420BD30DF587600AF0CDFF0DF50A
:1030E000D5600BF035FAB0FA80F67609CEE74FF4EA
:1030F0000C72002182A859F009FD0A220DF5CD615C
:1031000082A80AF0C9FA00BB29460DF587600AF0CB
:10311000DDFF00BB00230193009301AB4FF400726D
:1031200002A90DF587600AF075FC044608BB019AF8
:10313000FAB16B4602A982A80AF0ABFDC0B9009AA9
:10314000019B9A42E9D0012413E00DF587600AF053
:1031500093FF00269AE70DF587600AF08DFF82A89D
:103160000AF08AFF0DF5CD600BF0F2F900268DE72D
:1031700001240DF587600AF07FFF82A80AF07CFF2A
:1031800094B90DF5D5600BF0E3F90DF5D5610DF5AA
:10319000CD600BF088FA00283FF478AF0DF5CD60D4
:1031A0000BF0D6F9002671E70DF5CD600BF0D0F9E4
:1031B00000266BE7002669E760B60608ACB606088D
:1031C00080B500AF114B124A1A60104B00225A60B2
:1031D0000E4B00229A600D4B0022DA600B4B00224E
:1031E0001A610A4B00225A61084B02229A61074871
:1031F00004F074F80346002B01D0FFF7ADFA4FF44A
:103200000061024805F0C2F900BF80BD043800200B
:10321000002C014080B58CB000AF786007F11C0332
:1032200000221A605A609A60DA601A617B681B6833
:103230007A4A934240F0EE800023BB61784B5B6C8E
:10324000774A43F400635364754B5B6C03F400638B
:10325000BB61BB6900237B61714B1B6B704A43F4FC
:10326000800313636E4B1B6B03F480037B617B69EC
:1032700000233B616A4B1B6B694A43F004031363F1
:10328000674B1B6B03F004033B613B690023FB604E
:10329000634B1B6B624A43F008031363604B1B6B69
:1032A00003F00803FB60FB684FF47063FB610223CB
:1032B0003B6201237B620323BB620C23FB6207F1A9
:1032C0001C031946574801F091FF4FF48053FB61EE
:1032D00000237B6207F11C031946524801F086FF68
:1032E0000423FB6101237B6207F11C0319464E484E
:1032F00001F07CFF4D4B4E4A1A604C4B4FF0006280
:103300005A604A4B00229A60484B0022DA60474BD1
:103310004FF480621A61454B4FF480525A61434B1F
:103320004FF480429A61414B2022DA613F4B4FF4C7
:1033300040321A623D4B04225A623C4B03229A628D
:103340003A4B4FF40002DA62384B4FF400121A6322
:10335000364801F0ADFB0346002B01D0FFF7FCF926
:103360007B68324A1A64314A7B689363314B324A34
:103370001A60304B4FF000625A602E4B40229A6028
:103380002C4B0022DA602B4B4FF480621A61294BE0
:103390004FF480525A61274B4FF480429A61254B7B
:1033A0002022DA61234B4FF440321A62214B04226F
:1033B0005A62204B03229A621E4B4FF40002DA62DB
:1033C0001C4B4FF400121A631A4801F071FB0346BC
:1033D000002B01D0FFF7C0F97B68164ADA63154A63
:1033E0007B689363002205213B2001F02AFB3B20F0
:1033F00001F043FB00220521452001F022FB45207E
:1034000001F03BFB00220521312001F01AFB3120A5
:1034100001F033FB00BF3037BD4680BD002C0140BA
:103420000038024000080240000C024088380020AA
:1034300058640240E8380020A06402400160426005
:10344000014A8260704700BF003C1CC601EB00418E
:1034500007EE901AF8EE677AB2EE047AC7EE876A42
:103460009FED047AC6EE877A9FED030A30EE670A75
:10347000704700BF00007A440000000070B586B0BD
:1034800004460D46224B83600023ADF81430ADF89E
:1034900016304068FEF7E8FC40B34FF47A730293AD
:1034A00005AB01930223009300230422012120682D
:1034B000FFF74AFB024628BBBDF81450BDF8166062
:1034C00031462846FFF7C2FF10EE100A84ED020ACB
:1034D000FDF73AF8CDE9000133462A460D490E487A
:1034E000FEF710FC94ED020A06B070BD0B490A48C5
:1034F000FEF78AFC0A4B186828609A889B79AA8094
:10350000AB71CAE707490448FEF77EFCEAE700BF53
:10351000003C1CC6ECB6060898090020B8B60608A0
:103520002CF705080CB7060810B504460160426088
:1035300003814FF4007200210A3059F0E7FA204667
:1035400010BD006808B101B102B9704708B54FF469
:103550007A7306F057FC08BD2DE9F04782B00029C8
:1035600044D0074615461E468846012A40D901F038
:103570003DF981462A460021404659F0C7FA002409
:1035800008E05446002308F80430204602B0BDE8A5
:10359000F087544601F02AF9A0EB0900B042F1D2BD
:1035A0006B1E9BB2A342EDD90A2301220DF1070144
:1035B000386806F0B2FC0028ECD19DF8073004F121
:1035C000010A1FFA8AFA08F80430BAF1030FE0D9A9
:1035D0000849404659F0D4FA0028D2D1064940465D
:1035E00059F0CEFA0028CCD15446D3E70024CCE7DA
:1035F0000024CAE724B7060800B106082DE9F04FF9
:1036000083B0DDF830A000293CD007461546984627
:103610000E46CBB3012A39D901F0E8F881462A4693
:103620000021304659F072FA002401F0DFF8A0EBD7
:10363000090CD44520D26B1E9BB2A3421CD90A238D
:1036400001220DF10701386806F067FC0028ECD173
:103650009DF8073004F1010B1FFA8BFB33554146EF
:10366000304659F08DFA30B90949304659F088FA98
:1036700008B95C46D9E75C4600233355204603B0C1
:10368000BDE8F08F0024F9E70024F7E70024F5E710
:1036900000B1060838B50446094D0A492846FEF728
:1036A00031FB01222189606801F054FF4FF47A60F8
:1036B00001F0A8F804492846FEF724FB38BD00BFF6
:1036C000980900202CB7060858B7060810B504461C
:1036D00006490748FEF716FB00222189606801F0C1
:1036E00039FF4FF4FA7001F08DF810BD80B706086D
:1036F00098090020002A37D0F0B5C1B005461C4615
:1037000016469BB339B30B461A4A4FF4807168468C
:1037100059F05EF8184F6A4618493846FEF783FBA1
:103720006846FCF7A5FD82B269462846FFF709FF07
:10373000469B224631462846FFF70EFF3246104987
:103740003846FEF770FB0F49304659F019FA20B1A0
:10375000002041B0F0BD0C49D5E70C49304659F086
:103760000FFA28B90120F4E7012070470120F0E7A3
:103770000520EEE7ACB7060898090020B4B70608A4
:10378000C0B70608CCB70608A0BB060800B10608FB
:1037900000B595B04FF4FA630093402304AA0B4997
:1037A000FFF7A8FF0A4904A859F0EAF960B100221E
:1037B0008DF80F200DF10F02064959F03DF89DF8E4
:1037C0000F0015B05DF804FB6320FAE7D0B70608D8
:1037D000D8B70608E0B7060810B5A2B004464FF403
:1037E000FA630093802302AA0A49FFF783FF58B9BE
:1037F0004FF4FA630093802302AA07492046FFF79B
:1038000079FF012022B010BD04490548FEF7FCFAFB
:103810000020F7E7ECB7060808B80608F4B7060872
:103820009809002070B5E2B0054661496148FEF78D
:1038300069FA0024092C12D84FF4FA6300934FF46C
:10384000807322AA5C492846FFF754FF002844D021
:103850004FF4FA7000F0D6FF0134E4B2EAE7002634
:10386000002E3CD04FF4FA6300934FF4807322AAE9
:1038700052492846FFF73EFF41F2883300934FF448
:10388000807322AA4E492846FFF734FF4D4922A8EB
:1038900059F076F948B34C494648FEF733FA00240C
:1038A0001D2C28D84FF4FA6300934FF4807322AA9A
:1038B00046492846FFF71EFF454922A859F060F9FE
:1038C000D0B9444922A859F05BF9A8B94FF47A70ED
:1038D00000F098FF0134E4B2E2E70126C0E73E4978
:1038E0003448FEF791FA012452E03C493148FEF792
:1038F0008BFA02244CE00026002E4CD02846FFF71D
:1039000047FF024636492B48FEF7FCF92846FFF7E9
:1039100063FF41F2883400944FF4807322AA314946
:103920002846FFF7E7FE4FF4FA7000F06BFF0094B3
:103930004FF4807322AA2C492846FFF7DBFE2B4B5D
:103940002B4A802102A858F043FF00944FF4807363
:1039500022AA02A92846FFF7CDFE43F6982300933A
:103960004FF4807322AA23492846FFF7C3FE04467A
:10397000B8B941F2883300934FF4807322AA1E49EC
:103980002846FFF7B7FE22AA1C490A48FEF7BAF9F3
:10399000204662B070BD1A490648FEF735FA032486
:1039A000F6E718490348FEF72FFA0424F0E700BFB2
:1039B0000CB8060898090020A0BB060850B80608F5
:1039C00054B806085CB8060874B8060880B806083B
:1039D000D4B8060888B8060834B8060864B80608DB
:1039E000B0B80608CCB80608D8B80608F4B8060877
:1039F00000B9060818B9060834B9060840B906081F
:103A00008CB8060824B906082DE9F041ADF5467DCD
:103A1000002900F0DD80054616461C460F46002AA8
:103A200000F0D88023B920460DF5467DBDE8F08131
:103A30004FF4FA6300934FF4007346AA6649FFF708
:103A400059FE4FF4967000F0DDFE41F2883300938A
:103A50004FF4007346AA61492846FFF74BFE002841
:103A600040F09B8040F6B838CDF800804FF40073EA
:103A700046AA5B492846FFF73DFE3B46594A4FF4AC
:103A8000807106A858F0A4FECDF800804FF40073B2
:103A900046AA06A92846FFF72DFECDF800804FF470
:103AA000007346AA50492846FFF724FE4F4B504A60
:103AB0004FF4807106A858F08BFECDF800804FF4CB
:103AC000007346AA06A92846FFF714FE2346494A72
:103AD0004FF4807106A858F07BFE06A8FCF7C8FBDF
:103AE00082B206A92846FFF72CFD434F41F28833E6
:103AF00000933B464FF4007246A92846FFF77EFD2F
:103B0000394646A859F03CF800284CD022463B499B
:103B10003B48FEF7F7F8224631462846FFF711FDED
:103B200042F210730093374B4FF4007246A92846B7
:103B3000FFF764FD112234492846FFF702FD334C9C
:103B400047F23053009323464FF4007246A92846AB
:103B5000FFF754FD214646A859F012F8002831D04D
:103B600000230393049305AE0593009604AB03AAC8
:103B7000274958F061FE049A94B2059B25492048D4
:103B8000FEF7C0F840F6B83300934FF4007346AA2E
:103B900011492846FFF7AEFD45E71F491848FEF7D3
:103BA00033F900243FE71D491548FEF72DF9CDF8FC
:103BB00000804FF4007346AA07492846FFF79AFD94
:103BC000002430E716490E48FEF71EF90024D9E715
:103BD000002428E7002426E758B9060864B9060837
:103BE00084B9060898B90608B0B90608A0BB06084B
:103BF000D8B9060808BA060820BA060844BA060862
:103C000098090020CCB706086CBA060880BA0608E6
:103C100090BA0608A8BA060870B906082CBA0608B1
:103C2000D0BA060810B592B004464FF4FA63009378
:103C3000402302AA0849FFF75DFD41F28833009353
:103C4000402302AA05492046FFF754FD04490548D0
:103C5000FEF758F812B010BD58B90608CCB80608DF
:103C6000F0BA06089809002080B500AF174B184A33
:103C70001A60164B4FF482725A60144B00229A60FD
:103C8000124B0022DA60114B00221A610F4B002206
:103C90005A610E4B4FF400729A610C4B2822DA6184
:103CA0000A4B00221A62094B00225A62074B00227B
:103CB0009A62064B0A22DA62044805F0C9F9034603
:103CC000002B01D0FEF748FD00BF80BD4839002021
:103CD0000030014080B58AB000AF786007F114036E
:103CE00000221A605A609A60DA601A617B681B6869
:103CF000194A93422BD100233B61184B5B6C174A46
:103D000043F480535364154B5B6C03F480533B6165
:103D10003B690023FB60114B1B6B104A43F001030E
:103D200013630E4B1B6B03F00103FB60FB68E02386
:103D30007B610223BB610023FB6103233B620523FC
:103D40007B6207F114031946054801F04FFA00BFE2
:103D50002837BD4680BD00BF00300140003802401A
:103D60000000024080B582B000AF00237B60104BA2
:103D70005B6C0F4A43F4804353640D4B5B6C03F45C
:103D800080437B607B6800233B60094B1B6C084AC7
:103D900043F080531364064B1B6C03F080533B606D
:103DA0003B68032000F042FE00BF0837BD4680BDDF
:103DB0000038024080B58EB000AF786007F1240370
:103DC00000221A605A609A60DA601A617B681B6888
:103DD0004C4A93422DD100233B624B4B5B6C4A4AC9
:103DE00043F010035364484B5B6C03F010033B62D9
:103DF0003B6A0023FB61444B1B6B434A43F00103C6
:103E00001363414B1B6B03F00103FB61FB694FF430
:103E1000C0637B620223BB620123FB6203233B631B
:103E200007237B6307F124031946384801F0DEF9C4
:103E300063E07B681B68364A93422CD10023BB6148
:103E4000314B1B6C304A43F4003313642E4B1B6C14
:103E500003F40033BB61BB6900237B612A4B1B6BFE
:103E6000294A43F001031363274B1B6B03F0010343
:103E70007B617B690C237B620223BB620123FB62B3
:103E800003233B6307237B6307F1240319461F4881
:103E900001F0ACF931E07B681B681E4A93422CD1DB
:103EA00000233B61184B1B6C174A43F480231364B7
:103EB000154B1B6C03F480233B613B690023FB60C3
:103EC000114B1B6B104A43F0020313630E4B1B6B29
:103ED00003F00203FB60FB684FF440637B62022344
:103EE000BB620123FB6203233B6307237B6307F170
:103EF00024031946084801F079F900BF3837BD4658
:103F000080BD00BF001001400038024000000240A8
:103F100000440040004800400004024080B58AB0E0
:103F200000AF78607B681B681D4A934233D1002341
:103F30003B611C4B1B6C1B4A43F400131364194B6D
:103F40001B6C03F400133B613B690023FB60154BC2
:103F50001B6B144A43F002031363124B1B6B03F0F9
:103F60000203FB60FB6807F1140300221A605A6029
:103F70009A60DA601A61C0237B611223BB6101235E
:103F8000FB6103233B6204237B6207F114031946A0
:103F9000054801F02BF900BF2837BD4680BD00BFA2
:103FA00000540040003802400004024080B582B056
:103FB00000AF78607B681B68084A93420AD1084BBF
:103FC00001221A6000220121032000F03AFD0320A3
:103FD00000F053FD00BF0837BD4680BD00280040FB
:103FE0003C0E474280B584B000AF78607B681B68A8
:103FF0000E4A934215D10023FB600D4B1B6C0C4AFB
:1040000043F0100313640A4B1B6C03F01003FB60B6
:10401000FB6800220221362000F013FD362000F05C
:104020002CFD00BF1037BD4680BD00BF0010004012
:104030000038024080B400AFFEE780B400AFFEE776
:1040400080B400AFFEE780B400AFFEE780B400AFFD
:10405000FEE780B400AF00BFBD465DF8047B70474B
:1040600080B400AF00BFBD465DF8047B704780B4EC
:1040700000AF00BFBD465DF8047B704780B500AF60
:1040800000F0A0FB00BF80BD80B500AF024803F088
:10409000F7F800BF80BD00BFC436002080B500AF78
:1040A000024803F007FF00BF80BD00BF04380020B6
:1040B00080B500AF024805F072FC00BF80BD00BFB4
:1040C000E436002080B500AF024800F019FE00BFC2
:1040D00080BD00BF8838002080B500AF024800F0E6
:1040E0000FFE00BF80BD00BFE838002080B586B05D
:1040F00000AF7860144A154BD31A7B617B693B6132
:10410000134B1B68002B02D1114B124A1A60104B43
:104110001A687B6813443A699A4207D258F090FEB5
:1041200003460C221A604FF0FF3309E0084B1B686E
:10413000FB60074B1A687B681344054A1360FB68F1
:1041400018461837BD4680BD00000220000400005C
:10415000A0390020A064002080B400AF164BD3F833
:104160008830154A43F47003C2F88830134B1B683B
:10417000124A43F001031360104B00229A600F4B68
:104180001B680E4A23F0847323F4803313600B4BB7
:104190000B4A5A60094B1B68084A23F480231360BA
:1041A000064B0022DA60044B4FF000629A6000BFB9
:1041B000BD465DF8047B704700ED00E0003802402A
:1041C00010300024014B01221A707047A4390020DE
:1041D000014B01221A707047A5390020F0B589B053
:1041E00004460E460020434B1870434B187004F1F0
:1041F00008010EF023F84148414A01460CF07CFDCD
:1042000000F0F4FA606000F0F1FA054611E00DF0FC
:104210005DFEC31EDBB2012B1ED9364B1B7803F0AB
:10422000FF07CBB9344B1B78002B58D1012000F08D
:10423000E9FA00F0DBFA401BB04255D200F0D6FAA2
:104240006368C01AB0F57A7FE1D30EF0A1F8636815
:1042500003F57A736360DAE7002302930393049310
:1042600005930693CDF81B30264B93E8030002908C
:10427000ADF80C100DF10E000EF098F80DF11600CF
:104280000EF0B4F80DF112000EF0D0F80DF11A0096
:104290000EF0ECF802238DF81E3002A80CF066FC3C
:1042A00004F50B7402AD0FCD0FC495E8030044F87C
:1042B000040B24F8021B090C21709DF810309DF8A6
:1042C0001120019200939DF80F309DF80E200E49A9
:1042D0000E48FDF717FD0127384609B0F0BD0C491F
:1042E0000A48FDF791FDF7E70A490848FDF78CFDFC
:1042F0000027F1E7A4390020A5390020C5410008B6
:10430000D141000834F7050820BB060898090020B1
:104310003CBB060854BB060870B588B005460024AF
:1043200002940394049405940694CDF81B401F4B0B
:1043300093E803000290ADF80C101D4B1868CDF8FF
:104340000E001C4B1868CDF812001B4B1868CDF8F6
:1043500016001A4B1868CDF81A0001268DF81E6059
:1043600002A80CF003FC05F50B7E0DF1080CBCE86F
:104370000F00AEE80F009CE803004EF8040B2EF887
:10438000021B090C8EF800106C702E709DF8103016
:104390009DF81120019200939DF80F309DF80E209A
:1043A00007490848FDF7AEFC08B070BD34F70508B2
:1043B00090BB060898BB06089CBB0608A4BB060871
:1043C00074BB06089809002070B586B005460C46F7
:1043D00016464FF464500AF0F9FA02462C492D486B
:1043E000FDF790FC00232B706B702B4A13702B4A47
:1043F0001370204600F0C8F800F052F92849294807
:104400000BF06CFF284929480BF08EFF28492948FA
:104410000BF0B6FF284B04AA93E8030082E80300E0
:1044200002AC84E80300214610460CF013F900BBEF
:1044300000238DF8073000F0D9F904460DF107018B
:1044400017200BF0C9FF9DF807304BB9322000F060
:10445000D9F900F0CBF9031B40F6B73C6345EDD921
:1044600031462846FFF7BAFE68B101236B702B7006
:1044700007E012490748FDF7C7FC2846FFF74CFF45
:10448000287806B070BD2846FFF746FF2878F8E781
:10449000ACBB060898090020A4390020A5390020EB
:1044A000C1450008A945000809460008D94500088B
:1044B000794600082D460008E0BB0608C4BB060884
:1044C0004378012B00D0704710B588B0044600F047
:1044D0008DF96368C01AB0F57A7F05D20DF0F6FC4D
:1044E000032808D008B010BD0DF052FF636803F533
:1044F0007A736360F2E700230293039304930593B6
:104500000693CDF81B301D4B93E803000290ADF8E5
:104510000C100DF10E000DF049FF0DF116000DF01D
:1045200065FF0DF112000DF081FF0DF11A000DF085
:104530009DFF02238DF81E3002A80CF017FB04F536
:104540000B740DF1080CBCE80F000FC49CE80300CD
:1045500044F8040B24F8021B090C21709DF810305C
:104560009DF81120019200939DF80F309DF80E20C8
:1045700003490448FDF7C6FBB4E700BF34F705085C
:10458000ECBB06089809002080B483B000AF7860C7
:10459000044A7B68136000BF0C37BD465DF8047B9E
:1045A000704700BFA839002080B500AF00224FF44B
:1045B0008071024800F0CEFF00BF80BD00000240C5
:1045C00080B500AF01224FF48071024800F0C2FFB5
:1045D00000BF80BD0000024080B584B002AFFF2361
:1045E000FB710023BB71074B1868BA1DF91D6423CA
:1045F0000093012304F0F8FEBB7918460837BD4646
:1046000080BD00BFA839002080B582B000AF03464E
:10461000FB71054B1868F91D6423012204F0A1FD0C
:1046200000BF0837BD4680BDA839002080B586B0E0
:1046300002AF78600B467B80FF237B730023FB81F6
:104640000EE00C4B1868FB897A681A4407F10D01DB
:10465000C8230093012304F0C7FEFB890133FB81CB
:10466000FA897B889A42ECD300BF00BF1037BD4661
:1046700080BD00BFA839002080B582B000AF78604F
:104680000B467B80054B18687A88C823796804F04C
:1046900068FD00BF0837BD4680BD00BFA8390020B7
:1046A00080B500AF00220821074800F053FF022028
:1046B00000F0A8F801220821034800F04BFF9620E3
:1046C00000F0A0F800BF80BD00080240DFF834D041
:1046D000FFF742FD0C480D490D4A002302E0D45873
:1046E000C4500433C4188C42F9D30A4A0A4C00233C
:1046F00001E013600432A242FBD358F0A7FBFEF79F
:1047000059F9704700000220000000203802002004
:10471000646A0708380200209C640020FEE700005D
:1047200080B500AF0E4B1B680D4A43F40073136055
:104730000B4B1B680A4A43F480631360084B1B68E9
:10474000074A43F480731360032000F06FF90F20D1
:1047500000F008F8FFF706FB0023184680BD00BFF5
:10476000003C024080B582B000AF7860124B1A68FE
:10477000124B1B7819464FF47A73B3FBF1F3B2FB7B
:10478000F3F3184600F087F90346002B01D001230C
:104790000EE07B680F2B0AD8002279684FF0FF30BB
:1047A00000F04FF9064A7B681360002300E0012304
:1047B00018460837BD4680BD0000002008000020D4
:1047C0000400002080B400AF064B1B781A46064B4D
:1047D0001B681344044A136000BFBD465DF8047BA8
:1047E000704700BF08000020AC39002080B400AF43
:1047F000034B1B681846BD465DF8047B704700BF3D
:10480000AC39002080B584B000AF7860FFF7EEFFD0
:10481000B8607B68FB60FB68B3F1FF3F05D00A4BD3
:104820001B781A46FB681344FB6000BFFFF7DEFFEE
:104830000246BB68D31AFA689A42F7D800BF00BF95
:104840001037BD4680BD00BF0800002080B400AF17
:10485000054B1B68044A23F00203136000BFBD46EA
:104860005DF8047B704700BF10E000E080B400AF4B
:10487000054B1B68044A43F00203136000BFBD46AA
:104880005DF8047B704700BF10E000E080B485B0A5
:1048900000AF78607B6803F00703FB600C4BDB68BC
:1048A000BB60BA684FF6FF031340BB60FB681A0297
:1048B000BB68134343F0BF6343F40033BB60044A57
:1048C000BB68D36000BF1437BD465DF8047B7047FA
:1048D00000ED00E080B400AF044BDB681B0A03F07E
:1048E00007031846BD465DF8047B704700ED00E005
:1048F00080B483B000AF0346FB7197F90730002BFB
:104900000BDBFB7903F01F02074997F907305B09BE
:10491000012000FA02F241F8232000BF0C37BD4607
:104920005DF8047B704700BF00E100E080B483B015
:1049300000AF03463960FB7197F90730002B0ADBA3
:104940003B68DAB20C4997F907301201D2B20B4436
:1049500083F800230AE03B68DAB20849FB7903F0E8
:104960000F03043B1201D2B20B441A7600BF0C377E
:10497000BD465DF8047B704700E100E000ED00E01B
:1049800080B489B000AFF860B9607A60FB6803F06A
:104990000703FB61FB69C3F10703042B28BF042352
:1049A000BB61FB690433062B02D9FB69033B00E0C2
:1049B00000237B614FF0FF32BB6902FA03F3DA4355
:1049C000BB681A407B699A404FF0FF317B6901FA5E
:1049D00003F3D9437B680B40134318462437BD4685
:1049E0005DF8047B7047000080B582B000AF78604E
:1049F0007B68013BB3F1807F01D301230FE00A4ABA
:104A00007B68013B53600F214FF0FF30FFF78EFFB3
:104A1000054B00229A60044B07221A6000231846B7
:104A20000837BD4680BD00BF10E000E080B582B011
:104A300000AF78607868FFF729FF00BF0837BD46F0
:104A400080BD80B586B000AF0346B9607A60FB7365
:104A500000237B61FFF73EFF78617A68B968786967
:104A6000FFF78EFF024697F90F3011461846FFF701
:104A70005DFF00BF1837BD4680BD80B582B000AF76
:104A80000346FB7197F907301846FFF731FF00BF67
:104A90000837BD4680BD80B582B000AF78607868C9
:104AA000FFF7A2FF034618460837BD4680BD000049
:104AB00080B586B000AF786000237B61FFF796FE7B
:104AC00038617B68002B01D1012399E07B680222C9
:104AD00083F835207B68002283F834207B681B68CC
:104AE0001A687B681B6822F001021A600FE0FFF76A
:104AF0007DFE02463B69D31A052B08D97B6820222C
:104B00005A657B68032283F83520032378E07B68AD
:104B10001B681B6803F00103002BE8D17B681B684E
:104B20001B687B617A69384B13407B617B685A68EC
:104B30007B689B681A437B68DB681A437B681B6948
:104B40001A437B685B691A437B689B691A437B68DD
:104B5000DB691A437B681B6A13437A6913437B61E1
:104B60007B685B6A042B07D17B68DA6A7B681B6B06
:104B700013437A6913437B617B681B687A691A6007
:104B80007B681B685B697B617B6923F007037B6142
:104B90007B685B6A7A6913437B617B685B6A042B81
:104BA00017D17B689B6A7A6913437B617B68DB6AF8
:104BB000002B0ED0786800F09DFA0346002B08D039
:104BC0007B6840225A657B68012283F835200123E7
:104BD00016E07B681B687A695A61786800F054FABD
:104BE0000346FB607B68DB6D3F229A40FB689A605E
:104BF0007B6800225A657B68012283F835200023F8
:104C000018461837BD4680BD3F8010F080B586B08D
:104C100000AFF860B9607A603B600023FB75FB6809
:104C20009B6D3B61FB6893F83430012B01D102236B
:104C300040E0FB68012283F83420FB6893F83530AC
:104C4000DBB2012B2FD1FB68022283F83520FB68F1
:104C500000225A653B687A68B968F86800F0E6F99E
:104C6000FB68DB6D3F229A403B699A60FB681B68DA
:104C70001A68FB681B6842F016021A60FB681B6C1E
:104C8000002B07D0FB681B681A68FB681B6842F0A2
:104C900008021A60FB681B681A68FB681B6842F010
:104CA00001021A6005E0FB68002283F83420022329
:104CB000FB75FB7D18461837BD4680BD80B483B0B8
:104CC00000AF78607B6893F83530DBB2022B04D0FC
:104CD0007B6880225A6501230CE07B68052283F8FB
:104CE00035207B681B681A687B681B6822F001020C
:104CF0001A60002318460C37BD465DF8047B7047E8
:104D000080B586B000AF78600023BB608E4B1B6817
:104D10008E4AA2FB03239B0A7B617B689B6D3B61F0
:104D20003B691B68FB607B68DB6D08229A40FB686F
:104D30001340002B1AD07B681B681B6803F0040328
:104D4000002B13D07B681B681A687B681B6822F0F5
:104D500004021A607B68DB6D08229A403B699A6006
:104D60007B685B6D43F001027B685A657B68DB6D95
:104D700001229A40FB681340002B12D07B681B680D
:104D80005B6903F08003002B0BD07B68DB6D012295
:104D90009A403B699A607B685B6D43F002027B68D6
:104DA0005A657B68DB6D04229A40FB681340002B38
:104DB00012D07B681B681B6803F00203002B0BD02A
:104DC0007B68DB6D04229A403B699A607B685B6D6F
:104DD00043F004027B685A657B68DB6D10229A40C1
:104DE000FB681340002B43D07B681B681B6803F0F3
:104DF0000803002B3CD07B68DB6D10229A403B6996
:104E00009A607B681B681B6803F48023002B18D012
:104E10007B681B681B6803F40023002B08D17B68A8
:104E20001B6C002B24D07B681B6C786898471FE0B4
:104E30007B689B6C002B1BD07B689B6C78689847C9
:104E400016E07B681B681B6803F48073002B07D196
:104E50007B681B681A687B681B6822F008021A606E
:104E60007B681B6C002B03D07B681B6C78689847B1
:104E70007B68DB6D20229A40FB681340002B00F01A
:104E80008F807B681B681B6803F01003002B00F009
:104E900087807B68DB6D20229A403B699A607B6843
:104EA00093F83530DBB2052B36D17B681B681A6866
:104EB0007B681B6822F016021A607B681B685A69BF
:104EC0007B681B6822F080025A617B681B6C002B98
:104ED00003D17B689B6C002B07D07B681B681A682A
:104EE0007B681B6822F008021A607B68DB6D3F223A
:104EF0009A403B699A607B68012283F835207B6881
:104F0000002283F834207B681B6D002B7ED07B68E9
:104F10001B6D7868984779E07B681B681B6803F411
:104F20008023002B1DD07B681B681B6803F40023C3
:104F3000002B0DD17B685B6C002B31D07B685B6CE8
:104F4000786898472CE000BF00000020B5814E1B18
:104F50007B68DB6B002B23D07B68DB6B7868984722
:104F60001EE07B681B681B6803F48073002B0FD165
:104F70007B681B681A687B681B6822F010021A6045
:104F80007B68012283F835207B68002283F8342077
:104F90007B68DB6B002B03D07B68DB6B7868984702
:104FA0007B685B6D002B32D07B685B6D03F0010387
:104FB000002B22D07B68052283F835207B681B6894
:104FC0001A687B681B6822F001021A60BB68013313
:104FD000BB607A699A4207D37B681B681B6803F041
:104FE0000103002BF2D100E000BF7B68012283F8AF
:104FF00035207B68002283F834207B68DB6C002B33
:1050000005D07B68DB6C7868984700E000BF1837F4
:10501000BD4680BD80B483B000AF78607B685B6DB7
:1050200018460C37BD465DF8047B704780B485B0E8
:1050300000AFF860B9607A603B60FB681B681A6873
:10504000FB681B6822F480221A60FB681B683A68C0
:105050005A60FB689B68402B08D1FB681B687A6824
:105060009A60FB681B68BA68DA6007E0FB681B6837
:10507000BA689A60FB681B687A68DA6000BF143708
:10508000BD465DF8047B704780B485B000AF7860A2
:105090007B681B68DBB2103B144AA2FB03231B098D
:1050A000FB60134AFB6813441B781A467B68DA6579
:1050B000FB68032B09D97B681B6823F47F7323F0FB
:1050C00003031A1D7B689A6507E07B681B6823F45D
:1050D0007F7323F003037A6893657B689B6D1846A2
:1050E0001437BD465DF8047B704700BFABAAAAAA7F
:1050F0000CBC060880B485B000AF78600023FB7359
:105100007B689B6ABB607B689B69002B1FD1BB6877
:10511000032B56D801A252F823F000BF2D510008EE
:105120003F5100082D510008C35100087B68DB6A1D
:1051300003F08073002B46D00123FB7343E07B68B0
:10514000DB6AB3F1C07F40D10123FB733DE07B6894
:105150009B69B3F5005F21D1BB68032B37D801A24F
:1051600052F823F0755100087B5100087551000872
:105170008D5100080123FB7330E07B68DB6A03F08C
:105180008073002B25D00123FB7322E07B68DB6A50
:10519000B3F1C07F1FD10123FB731CE0BB68022B5E
:1051A00003D9BB68032B03D018E00123FB7315E080
:1051B0007B68DB6A03F08073002B0ED00123FB7346
:1051C0000BE000BF0AE000BF08E000BF06E000BF40
:1051D00004E000BF02E000BF00E000BFFB7B184618
:1051E0001437BD465DF8047B704700BF80B489B0BA
:1051F00000AF7860396000237B6100233B610023AE
:10520000BB610023FB616BE10122FB6902FA03F33E
:105210007B613B681B687A6913403B613A697B6933
:105220009A4240F05A813B685B6803F00303012B0C
:1052300005D03B685B6803F00303022B30D17B6829
:105240009B68BB61FB695B00032202FA03F3DB434B
:10525000BA691340BB613B68DA68FB695B0002FA1C
:1052600003F3BA691343BB617B68BA699A607B68D0
:105270005B68BB610122FB6902FA03F3DB43BA6995
:105280001340BB613B685B681B0903F00102FB69CB
:1052900002FA03F3BA691343BB617B68BA695A60C7
:1052A0003B685B6803F00303032B17D07B68DB6864
:1052B000BB61FB695B00032202FA03F3DB43BA69BB
:1052C0001340BB613B689A68FB695B0002FA03F319
:1052D000BA691343BB617B68BA69DA603B685B6893
:1052E00003F00303022B23D1FB69DA087B68083241
:1052F00053F82230BB61FB6903F007039B000F22C8
:1053000002FA03F3DB43BA691340BB613B681A69D5
:10531000FB6903F007039B0002FA03F3BA69134326
:10532000BB61FB69DA087B680832B96943F822106F
:105330007B681B68BB61FB695B00032202FA03F315
:10534000DB43BA691340BB613B685B6803F003024F
:10535000FB695B0002FA03F3BA691343BB617B6824
:10536000BA691A603B685B6803F44033002B00F0B5
:10537000B4800023FB60604B5B6C5F4A43F4804366
:1053800053645D4B5B6C03F48043FB60FB685B4ADA
:10539000FB699B08023352F82330BB61FB6903F0C1
:1053A00003039B000F2202FA03F3DB43BA691340A5
:1053B000BB617B68524A93422BD07B68514A93422F
:1053C00025D07B68504A93421FD07B684F4A934256
:1053D00019D07B684E4A934213D07B684D4A934262
:1053E0000DD07B684C4A934207D07B684B4A93426E
:1053F00001D107230EE008230CE006230AE0052371
:1054000008E0042306E0032304E0022302E0012372
:1054100000E00023FA6902F0030292009340BA69A7
:105420001343BB613549FB699B080233BA6941F8F4
:1054300023203B4B9B68BB613B69DB43BA6913404C
:10544000BB613B685B6803F48013002B03D0BA692F
:105450003B691343BB61324ABB699360304BDB68E5
:10546000BB613B69DB43BA691340BB613B685B6866
:1054700003F40013002B03D0BA693B691343BB61EB
:10548000274ABB69D360264B5B68BB613B69DB4342
:10549000BA691340BB613B685B6803F40033002BBF
:1054A00003D0BA693B691343BB611D4ABB695360B2
:1054B0001B4B1B68BB613B69DB43BA691340BB6193
:1054C0003B685B6803F48033002B03D0BA693B6907
:1054D0001343BB61124ABB691360FB690133FB6173
:1054E000FB690F2B7FF690AE00BF00BF2437BD468F
:1054F0005DF8047B704700BF00380240003801406F
:10550000000002400004024000080240000C02407B
:10551000001002400014024000180240001C02402B
:10552000003C014080B485B000AF78600B467B80C2
:105530007B681A697B881340002B02D00123FB7320
:1055400001E00023FB73FB7B18461437BD465DF872
:10555000047B704780B483B000AF78600B467B80DB
:1055600013467B707B78002B03D07A887B689A6126
:1055700003E07B881A047B689A6100BF0C37BD4644
:105580005DF8047B704780B485B000AF78600B464F
:105590007B807B685B69FB607A88FB6813401A0438
:1055A000FB68D9437B880B401A437B689A6100BF34
:1055B0001437BD465DF8047B7047000080B584B0A9
:1055C00000AF78607B68002B01D101232BE17B6861
:1055D00093F83D30DBB2002B06D17B68002283F8C4
:1055E0003C207868FEF79AFC7B68242283F83D20F3
:1055F0007B681B681A687B681B6822F001021A60CE
:105600007B681B681A687B681B6842F400421A605A
:105610007B681B681A687B681B6822F400421A606A
:1056200001F0E6FBF8607B685B68814A934207D82B
:10563000FB68804A934294BF01230023DBB206E05B
:10564000FB687D4A934294BF01230023DBB2002B09
:1056500001D00123E7E0FB68784AA2FB03239B0CFF
:10566000BB607B681B685B6823F03F017B681B683D
:10567000BA680A435A607B681B681B6A23F03F01C3
:105680007B685B686A4A934202D8BB68013309E0D1
:10569000BB684FF4967202FB03F3694AA2FB032333
:1056A0009B0901337A6812680B4313627B681B689D
:1056B000DB6923F44F4222F0FF027B685B685C49A0
:1056C0008B4219D8FB68591E7B685B685B00B1FB95
:1056D000F3F3591C40F6FC730B40002B0AD0FB6817
:1056E000591E7B685B685B00B1FBF3F30133C3F3C6
:1056F0000B0351E004234FE07B689B68002B11D122
:10570000FB68581E7B6859680B465B000B44B0FB76
:10571000F3F30133C3F30B03002B0CBF012300236E
:10572000DBB212E0FB68581E7B6859680B469B0091
:105730000B4499000B44B0FBF3F30133C3F30B03A9
:10574000002B0CBF01230023DBB2002B01D001236F
:1057500022E07B689B68002B0ED1FB68581E7B689B
:1057600059680B465B000B44B0FBF3F30133C3F302
:105770000B0343F400430FE0FB68581E7B68596835
:105780000B469B000B4499000B44B0FBF3F3013331
:10579000C3F30B0343F44043796809681343CB61B7
:1057A0007B681B681B6823F0C0017B68DA697B6833
:1057B0001B6A1A437B681B680A431A607B681B6874
:1057C0009B6823F4034323F0FF037A6811697A6826
:1057D000D26811437A6812680B4393607B681B6838
:1057E000DB6823F0FF017B685A697B689B691A4379
:1057F0007B681B680A43DA607B681B681A687B68F1
:105800001B6842F001021A607B6800221A647B6800
:10581000202283F83D207B6800221A637B680022E7
:1058200083F83E20002318461037BD4680BD00BFD8
:10583000A08601007F841E00FF083D0083DE1B431D
:10584000D34D621080B58CB002AFF86008461146A7
:105850001A4603467B810B463B811346FB80FEF7CD
:10586000C5FF7862FB6893F83D30DBB2202B40F037
:1058700014827B6A0093192301227B49F86800F0A7
:1058800029FC0346002B01D0022307E2FB6893F8B2
:105890003C30012B01D1022300E2FB68012283F896
:1058A0003C20FB681B681B6803F00103012B07D039
:1058B000FB681B681A68FB681B6842F001021A60EB
:1058C000FB681B681A68FB681B6822F400621A6098
:1058D000FB68222283F83D20FB68402283F83E20AB
:1058E000FB6800221A64FB683A6B5A62FB68BA8E46
:1058F0005A85FB685B8D9AB2FB681A85FB685B4A28
:10590000DA62F8883A8979897B6A0193BB6B0093E4
:105910000346F86800F0F6FA0346002B01D0012395
:10592000BCE1FB681B8D002B13D100233B62FB689D
:105930001B685B693B62FB681B689B693B623B6A57
:10594000FB681B681A68FB681B6842F400721A60E7
:1059500090E1FB681B8D012B1BD1FB681B681A684B
:10596000FB681B6822F480621A600023FB61FB68FD
:105970001B685B69FB61FB681B689B69FB61FB69DA
:10598000FB681B681A68FB681B6842F400721A60A7
:1059900070E1FB681B8D022B1BD1FB681B681A682A
:1059A000FB681B6822F480621A60FB681B681A6837
:1059B000FB681B6842F400621A600023BB61FB684D
:1059C0001B685B69BB61FB681B689B69BB61BB694A
:1059D00050E100237B61FB681B685B697B61FB68AE
:1059E0001B689B697B617B6944E1FB681B8D032B12
:1059F00000F2F180FB681B8D012B23D17A6AB96B11
:105A0000F86800F0C9FC0346002B01D0012345E1F2
:105A1000FB681B681A69FB685B6AD2B21A70FB6884
:105A20005B6A5A1CFB685A62FB681B8D013B9AB289
:105A3000FB681A85FB685B8D9BB2013B9AB2FB68E1
:105A40005A8517E1FB681B8D022B4ED17B6A0093B0
:105A5000BB6B00220649F86800F03CFB0346002BB4
:105A600008D001231AE100BF020010000000FFFF70
:105A700004000100FB681B681A68FB681B6842F49D
:105A800000721A60FB681B681A69FB685B6AD2B215
:105A90001A70FB685B6A5A1CFB685A62FB681B8DB4
:105AA000013B9AB2FB681A85FB685B8D9BB2013B98
:105AB0009AB2FB685A85FB681B681A69FB685B6AC7
:105AC000D2B21A70FB685B6A5A1CFB685A62FB68A8
:105AD0001B8D013B9AB2FB681A85FB685B8D9BB2FC
