:020000040800F2
:100000000000022029620008B15A0008B75A00080F
:10001000BD5A0008C35A0008C95A00080000000071
:10002000000000000000000000000000CF5A00089F
:10003000DD5A000800000000EB5A0008F95A0008D9
:10004000796200087962000879620008055B00089F
:100050007962000879620008796200087962000814
:100060007962000879620008796200087962000804
:1000700079620008796200087962000879620008F4
:1000800079620008796200087962000879620008E4
:1000900079620008796200087962000879620008D4
:1000A00079620008796200087962000879620008C4
:1000B00079620008796200087962000879620008B4
:1000C00079620008796200087962000879620008A4
:1000D0007962000879620008796200087962000894
:1000E0007962000879620008796200087962000884
:1000F0007962000879620008796200087962000874
:1001000079620008195B00087962000879620008CA
:1001100079620008796200082D5B000879620008A6
:10012000796200087962000879620008415B000882
:100130007962000879620008796200087962000833
:100140007962000879620008796200087962000823
:1001500079620008555B000879620008796200083E
:100160007962000879620008796200087962000803
:1001700079620008796200087962000800000000D6
:080180007962000879620008B1
:1001900010B5054C237833B9044B13B10448AFF3C1
:1001A00000800123237010BDD00400200000000057
:1001B0005C42060808B5034B1BB103490348AFF383
:1001C000008008BD00000000D40400205C42060846
:1001D00010F8012B11F8013B012A28BF9A42F7D0F1
:1001E000D01A70470000000000000000000000006E
:1001F00001F0FF01102A2BDB10F0070F08D010F8D8
:10020000013B013A8B422DD010F0070F42B3F6D1DB
:10021000F0B441EA012141EA014122F007047FF0F4
:1002200000070023F0E80256083C85EA010586EA4B
:10023000010685FA47F5A3FA87F586FA47F6A5FA87
:1002400087F68EB9EED1F0BC01F0FF0102F0070293
:1002500032B110F8013B013A83EA010313B1F8D13E
:100260000020704701387047002D06BF354603381F
:10027000073815F0010F07D1013015F4807F02BF58
:10028000013015F4C03F0130F0BC0138704700BFA9
:10029000034613F8012B002AFBD1181A01387047C6
:1002A00081F0004102E000BF83F0004330B54FEA27
:1002B00041044FEA430594EA050F08BF90EA020F94
:1002C0001FBF54EA000C55EA020C7FEA645C7FEA27
:1002D000655C00F0E2804FEA5454D4EB5555B8BF4A
:1002E0006D420CDD2C4480EA020281EA030382EABB
:1002F000000083EA010180EA020281EA0303362D4D
:1003000088BF30BD11F0004F4FEA01314FF4801C1F
:100310004CEA113102D0404261EB410113F0004F31
:100320004FEA03334CEA133302D0524263EB4303E8
:1003300094EA050F00F0A780A4F10104D5F1200E86
:100340000DDB02FA0EFC22FA05F2801841F10001E1
:1003500003FA0EF2801843FA05F359410EE0A5F1B5
:1003600020050EF1200E012A03FA0EFC28BF4CF0E6
:10037000020C43FA05F3C01851EBE37101F000459C
:1003800007D54FF0000EDCF1000C7EEB00006EEBA9
:100390000101B1F5801F1BD3B1F5001F0CD3490833
:1003A0005FEA30004FEA3C0C04F101044FEA44528A
:1003B00012F5800F80F09A80BCF1004F08BF5FEA11
:1003C000500C50F1000041EB045141EA050130BDF1
:1003D0005FEA4C0C404141EB0101013C28BFB1F503
:1003E000801FE9D291F0000F04BF01460020B1FA4E
:1003F00081F308BF2033A3F10B03B3F120020CDA21
:100400000C3208DD02F1140CC2F10C0201FA0CF0FE
:1004100021FA02F10CE002F11402D8BFC2F1200C63
:1004200001FA02F120FA0CFCDCBF41EA0C01904019
:10043000E41AA2BF01EB0451294330BD6FEA040462
:100440001F3C1CDA0C340EDC04F11404C4F120024D
:1004500020FA04F001FA02F340EA030021FA04F35F
:1004600045EA030130BDC4F10C04C4F1200220FAB6
:1004700002F001FA04F340EA0300294630BD21FAF4
:1004800004F0294630BD94F0000F83F4801306BFBA
:1004900081F480110134013D4EE77FEA645C18BFAE
:1004A0007FEA655C29D094EA050F08BF90EA020F45
:1004B00005D054EA000C04BF1946104630BD91EA3D
:1004C000030F1EBF0021002030BD5FEA545C05D140
:1004D0004000494128BF41F0004130BD14F580047F
:1004E0003CBF01F5801130BD01F0004545F0FE41F3
:1004F00041F470014FF0000030BD7FEA645C1ABF28
:10050000194610467FEA655C1CBF0B46024650EA5E
:10051000013406BF52EA033591EA030F41F400218A
:1005200030BD00BF90F0000F04BF0021704730B510
:100530004FF4806404F132044FF000054FF00001E5
:1005400050E700BF90F0000F04BF0021704730B5A6
:100550004FF4806404F1320410F0004548BF40427B
:100560004FF000013EE700BF42004FEAE2014FEAD0
:1005700031014FEA02701FBF12F07F4393F07F4FAB
:1005800081F06051704732F07F4208BF704793F0AE
:100590007F4F04BF41F40021704730B54FF46074C1
:1005A00001F0004521F000411CE700BF50EA0102C4
:1005B00008BF704730B54FF000050AE050EA01026D
:1005C00008BF704730B511F0004502D5404261EBDD
:1005D00041014FF4806404F132045FEA915C3FF41E
:1005E000D8AE4FF003025FEADC0C18BF03325FEABB
:1005F000DC0C18BF033202EBDC02C2F1200300FA6C
:1006000003FC20FA02F001FA03FE40EA0E0021FA90
:1006100002F11444BDE600BF70B54FF0FF0C4CF47E
:10062000E06C1CEA11541DBF1CEA135594EA0C0F30
:1006300095EA0C0F00F0DEF82C4481EA030621EA6B
:100640004C5123EA4C5350EA013518BF52EA0335A6
:1006500041F4801143F4801338D0A0FB02CE4FF058
:100660000005E1FB02E506F00042E0FB03E54FF088
:100670000006E1FB03569CF0000F18BF4EF0010E80
:10068000A4F1FF04B6F5007F64F5407404D25FEA7C
:100690004E0E6D4146EB060642EAC62141EA55512F
:1006A0004FEAC52040EA5E504FEACE2EB4F1FD0C71
:1006B00088BFBCF5E06F1ED8BEF1004F08BF5FEAEF
:1006C000500E50F1000041EB045170BD06F00046A1
:1006D00046EA010140EA020081EA0301B4EB5C044E
:1006E000C2BFD4EB0C0541EA045170BD41F4801146
:1006F0004FF0000E013C00F3AB8014F1360FDEBF6B
:10070000002001F0004170BDC4F10004203C35DA46
:100710000C341BDC04F11404C4F1200500FA05F3C9
:1007200020FA04F001FA05F240EA020001F000426A
:1007300021F0004110EBD37021FA04F642EB0601E0
:100740005EEA430E08BF20EAD37070BDC4F10C040A
:10075000C4F1200500FA04F320FA05F001FA04F2CE
:1007600040EA020001F0004110EBD37041F10001BA
:100770005EEA430E08BF20EAD37070BDC4F12005C5
:1007800000FA05F24EEA020E20FA04F301FA05F22D
:1007900043EA020321FA04F001F0004121FA04F2D5
:1007A00020EA020000EBD3705EEA430E08BF20EAA5
:1007B000D37070BD94F0000F0FD101F000464000DF
:1007C00041EB010111F4801F08BF013CF7D041EA61
:1007D000060195F0000F18BF704703F00046520065
:1007E00043EB030313F4801F08BF013DF7D043EA36
:1007F0000603704794EA0C0F0CEA135518BF95EAEC
:100800000C0F0CD050EA410618BF52EA4306D1D172
:1008100081EA030101F000414FF0000070BD50EA91
:10082000410606BF1046194652EA430619D094EA1B
:100830000C0F02D150EA013613D195EA0C0F05D105
:1008400052EA03361CBF104619460AD181EA030159
:1008500001F0004141F0FE4141F470014FF0000011
:1008600070BD41F0FE4141F4780170BD70B54FF0AC
:10087000FF0C4CF4E06C1CEA11541DBF1CEA13552C
:1008800094EA0C0F95EA0C0F00F0A7F8A4EB05040E
:1008900081EA030E52EA03354FEA013100F0888005
:1008A0004FEA03334FF0805545EA131343EA1263CE
:1008B0004FEA022245EA111545EA10654FEA002683
:1008C0000EF000419D4208BF964244F1FD0404F53C
:1008D000407402D25B084FEA3202B61A65EB030598
:1008E0005B084FEA32024FF480104FF4002CB6EB55
:1008F000020E75EB030E22BFB61A754640EA0C00D5
:100900005B084FEA3202B6EB020E75EB030E22BF14
:10091000B61A754640EA5C005B084FEA3202B6EB55
:10092000020E75EB030E22BFB61A754640EA9C0014
:100930005B084FEA3202B6EB020E75EB030E22BFE4
:10094000B61A754640EADC0055EA060E18D04FEAA2
:10095000051545EA16754FEA06164FEAC30343EA42
:1009600052734FEAC2025FEA1C1CC0D111F4801F0F
:100970000BD141EA00014FF000004FF0004CB6E708
:1009800011F4801F04BF01430020B4F1FD0C88BFA7
:10099000BCF5E06F3FF6AFAEB5EB030C04BFB6EBB2
:1009A000020C5FEA500C50F1000041EB045170BDA5
:1009B0000EF0004E4EEA113114EB5C04C2BFD4EBD2
:1009C0000C0541EA045170BD41F480114FF0000E56
:1009D000013C90E645EA060E8DE60CEA135594EAD2
:1009E0000C0F08BF95EA0C0F3FF43BAF94EA0C0FD5
:1009F0000AD150EA01347FF434AF95EA0C0F7FF44A
:100A000025AF104619462CE795EA0C0F06D152EA9D
:100A100003353FF4FDAE1046194622E750EA410681
:100A200018BF52EA43067FF4C5AE50EA41047FF492
:100A30000DAF52EA43057FF4EBAE12E74FF0FF3CF7
:100A400006E000BF4FF0010C02E000BF4FF0010CC8
:100A50004DF804CD4FEA410C7FEA6C5C4FEA430C41
:100A600018BF7FEA6C5C1BD001B050EA410C0CBF90
:100A700052EA430C91EA030F02BF90EA020F0020F2
:100A8000704710F1000F91EA030F58BF994208BF59
:100A900090422CBFD8176FEAE37040F00100704716
:100AA0004FEA410C7FEA6C5C02D150EA013C07D16D
:100AB0004FEA430C7FEA6C5CD6D152EA033CD3D0B8
:100AC0005DF8040B704700BF8446104662468C46B2
:100AD0001946634600E000BF01B5FFF7B7FF0028E5
:100AE00048BF10F1000F01BD4DF808EDFFF7F4FF0E
:100AF0000CBF012000205DF808FB00BF4DF808ED99
:100B0000FFF7EAFF34BF012000205DF808FB00BFBB
:100B10004DF808EDFFF7E0FF94BF012000205DF8DD
:100B200008FB00BF4DF808EDFFF7CEFF94BF012092
:100B300000205DF808FB00BF4DF808EDFFF7C4FF8B
:100B400034BF012000205DF808FB00BF4FEA410CD4
:100B50007FEA6C5C02D150EA013C0AD14FEA430CB7
:100B60007FEA6C5C02D152EA033C02D14FF00000F4
:100B700070474FF0010070474FEA410212F5001232
:100B800015D211D56FF47873B3EB625212D94FEAD4
:100B9000C12343F0004343EA505311F0004F23FABE
:100BA00002F018BF404270474FF00000704750EA13
:100BB000013005D111F0004008BF6FF000407047D0
:100BC0004FF00000704700BF4A0011D212F500122A
:100BD00011D20DD56FF47873B3EB62520ED44FEA95
:100BE000C12343F0004343EA505323FA02F0704715
:100BF0004FF00000704750EA013002D14FF0FF3053
:100C000070474FF0000070474FEA4102B2F1E043F5
:100C100024BFB3F5001CDCF1FE5C0DD901F0004CE3
:100C20004FEAC0024CEA5070B2F1004F40EB830033
:100C300008BF20F00100704711F0804F21D113F15F
:100C40003872BCBF01F00040704741F480114FEA98
:100C50005252C2F11802C2F1200C10FA0CF320FA21
:100C600002F018BF40F001004FEAC1234FEAD3233E
:100C700003FA0CFC40EA0C0023FA02F34FEA4303A8
:100C8000CCE77FEA625307D150EA01331EBF4FF031
:100C9000FE4040F44000704701F0004040F0FE404C
:100CA00040F40000704700BF7BB972B90029BEBF95
:100CB00000204FF0004106E008BF00281CBF6FF085
:100CC00000414FF0FF3000F0F1B9ADF1080C6DE9D3
:100CD00004CE002909DB002B1ADB00F083F8DDF8D5
:100CE00004E0DDE9022304B07047404261EB4101BA
:100CF000002B1BDB00F076F8DDF804E0DDE90223D1
:100D000004B0404261EB4101524263EB4303704740
:100D1000524263EB430300F065F8DDF804E0DDE9DF
:100D2000022304B0404261EB41017047524263EB41
:100D3000430300F057F8DDF804E0DDE9022304B0D6
:100D4000524263EB4303704753B94AB9002908BFC5
:100D500000281CBF4FF0FF314FF0FF3000F0A6B964
:100D6000ADF1080C6DE904CE00F03CF8DDF804E0CC
:100D7000DDE9022304B0704738B5002200230446A1
:100D80000D46FFF7BBFE28B920462946BDE838408E
:100D900000F00AB8204605F1004100F005F8404295
:100DA00061EB410138BD00BFD0B50C4B00220646B7
:100DB0000F46FFF731FCFFF707FF0446FFF7B2FBD2
:100DC000074B0022FFF728FC02460B463046394607
:100DD000FFF76AFAFFF7F8FE2146D0BD0000F03DAC
:100DE0000000F0412DE9F047089E0D4604460F46ED
:100DF000002B4AD18A42944665D9B2FA82F343B1B4
:100E000002FA03FCC3F120029F4020FA02F21743CA
:100E10009C404FEA1C4E1FFA8CF5B7FBFEF1220CEA
:100E20000EFB117742EA074201FB05F090420AD916
:100E30001CEB020201F1FF3780F01C81904240F26E
:100E4000198102396244121AA4B2B2FBFEF00EFB01
:100E5000102244EA024400FB05F5A5420AD91CEB26
:100E6000040400F1FF3280F00781A54240F20481C2
:100E70006444023840EA0140641B00211EB1DC409A
:100E80000023C6E90043BDE8F0878B4208D9002E55
:100E900000F0ED800021C6E900050846BDE8F087B6
:100EA000B3FA83F1002949D1AB4202D3824200F266
:100EB000F880841A65EB030201201746002EE2D069
:100EC000C6E90047DFE702B9FFDEB2FA82F3002B82
:100ED00040F090808A1A4FEA1C471FFA8CFE0121CD
:100EE000B2FBF7F507FB1520220C42EA00420EFB8D
:100EF00005F0904208D91CEB020205F1FF3802D23E
:100F0000904200F2CB804546121AA4B2B2FBF7F031
:100F100007FB102244EA02440EFB00FEA64508D956
:100F20001CEB040400F1FF3202D2A64500F2BB80A4
:100F30001046A4EB0E0440EA05409FE7C1F12007EC
:100F40008B4022FA07FC4CEA030C05FA01F420FA64
:100F500007F3FD404FEA1C492343B5FBF9F81FFA9C
:100F60008CFE09FB18551C0C44EA054408FB0EF5E1
:100F7000A54202FA01F200FA01F00BD91CEB0404BD
:100F800008F1FF3A80F08880A54240F28580A8F100
:100F900002086444641B9DB2B4FBF9F309FB1344DB
:100FA00045EA044403FB0EFEA64508D91CEB0404E5
:100FB00003F1FF356CD2A6456AD9023B644443EA8B
:100FC0000843A3FB0295A4EB0E04AC42C846AE4610
:100FD00056D353D056B1B0EB080264EB0E0404FABA
:100FE00007F7CA40CC401743C6E9007418460021F1
:100FF000BDE8F087C3F1200102FA03FC20FA01F2F8
:1010000025FA01F19D402A434FEA1C471FFA8CFE46
:10101000B1FBF7F007FB1015110C41EA054100FB8D
:101020000EF58D4204FA03F408D91CEB010100F11E
:10103000FF382FD28D422DD902386144491B92B21C
:10104000B1FBF7F507FB151142EA014205FB0EF172
:10105000914208D91CEB020205F1FF3816D29142E9
:1010600014D9023D6244521A45EA004138E731463C
:10107000304608E73946E6E61046FBE64845A9D281
:10108000B9EB020865EB0C0E013BA3E74546EAE726
:101090002B4694E74046D1E7D0467BE7023D6244C9
:1010A00032E708460AE76444023842E7704700BF67
:1010B000012801D0014870470148704700290708FE
:1010C000F4280708024680B1037813B9002070475E
:1010D000013213783BB1A3F130010929F8D92E2B45
:1010E000F6D00020704701207047002070470000B4
:1010F00010F0030F09D10D4A82FB0032C317C3EB76
:101100006213642202FB130363B9084A82FB0032B4
:10111000C317C3EBE2134FF4C87202FB13031BB9EE
:101120000120704701207047002070471F85EB5158
:1011300010B54A1E054B33F81240022903DDFFF7B4
:10114000D7FF00B10134204610BD00BF903307081F
:101150002DE9F8430646877907F5FA6790F8059078
:1011600090F8048040F2B274002503E040F26D1361
:101170001D440134BC4207DA2046FFF7B9FF0028BE
:10118000F4D04FF4B773F3E749463846FFF7D0FF82
:10119000054408EB0503013B0021DA184941D31847
:1011A00041F10002100140EA13701901C91A60EB05
:1011B0000200020142EA11720B015B1A62EB0002AB
:1011C000D20142EA5362DB01B478E100091B60EB13
:1011D0000000400140EAD1604901091940F10000D6
:1011E000000140EA117009015B1842EB00027078BF
:1011F0000101091A60EB0000800040EA917089004B
:101200005B1842EB000231785B1842F1000250019A
:1012100040EAD3605901C91A60EB0200800040EA3D
:1012200091708900C91842EB0002D200C80042EA5E
:101230005171BDE8F883000000286BD08446002976
:1012400068D02DE9F04188B000240025D01848D29C
:101250002844314EA6FB005727F0030505EB970500
:10126000401B101A63F100074FF0CC3500FB05F569
:1012700006FB0755A0FB06063544400840EAC5704A
:1012800000EB8000A2EB40003030254620356D4455
:10129000013405F8200C15469E460026D01822D2AF
:1012A00030441D4EA6FB007828F0030707EB980793
:1012B000C01B121A63F100004FF0CC3302FB03F3A2
:1012C00006FB0033A2FB06263344520842EAC372EF
:1012D0005B080A2D7EF1000E1AD31F2CB5D900230E
:1012E0000CE00125B4E70126DAE7013C04F1200017
:1012F000684410F8200C0CF80300134614B15A1C73
:101300008A42F2D300220CF8032008B0BDE8F08135
:101310000023F3E7704700BFCDCCCCCC8379183BDA
:10132000DBB2242B14D84379013BDBB20B2B11D851
:101330000379013BDBB21E2B0ED88378172B0DD817
:1013400043783B2B0CD803783B2B0BD800207047FD
:10135000012070470120704701207047012070472D
:10136000012070470120704710F0030F09D10D4A8A
:1013700082FB0032C317C3EB6213642202FB130328
:1013800063B9084A82FB0032C317C3EBE2134FF480
:10139000C87202FB13031BB901207047012070477C
:1013A000002070471F85EB5170B50E46234BA3FB01
:1013B000001252091146C2EB0212A0EB82023270F7
:1013C000A3FB01235B091A46C3EB0313A1EB8303C1
:1013D00073701B4BA3FB02131B091C4603EB430357
:1013E000A2EBC303B37040F2B27505E040F26D1397
:1013F0009C4219D3E41A01352846FFF7B5FF014690
:101400000028F3D04FF4B773F2E7A2420ED8A41A23
:101410000133DBB20B2B09D80A4AD25C012BF4D181
:101420000029F2D01D22F0E70023F3E73035B57133
:10143000013373710134347170BD00BF89888888AD
:10144000ABAAAAAA8433070808B50121034805F00E
:101450003BFE08B9012008BD0020FCE70004024063
:1014600030B583B004460121084805F02DFE05463D
:10147000FFF7EAFFFFF71CFE00902B4622460449C7
:10148000044801F02DF903B030BD00BF0004024054
:1014900010290708300C002008B50146014807F064
:1014A000E1FE08BD6039002008B50020FFF7F4FF19
:1014B000044B984201D0002008BD0120FFF7ECFF4B
:1014C000FAE700BF3150544E00B583B000238DF8C9
:1014D00007300DF10701172010F05AFF9DF80700A3
:1014E000003818BF012003B05DF804FB10B50F4BA6
:1014F0001B785BB90E490F4801F0F2F84FF4FA522D
:101500000D490A4804F0E4FC044628B1FFF7DCFF6B
:10151000044630B1204610BD0849064801F071F973
:10152000F8E70749034801F06CF9F3E7EC04002001
:1015300030290708300C0020E44300204029070828
:1015400054290708F0B58FB004460E46FFF7BAFDE0
:10155000074600282FD00023039304930593069396
:1015600006AB019305AB009304AB03AA20492046C8
:101570005FF050FB042812D1039BFF2B13D8049A71
:10158000FF2A12D8059AFF2A11D8069AFF2A10D8E6
:101590003370049B7370059BB370F27000E00027FA
:1015A00038460FB0F0BD0027FAE70027F8E700271C
:1015B000F6E70027F4E70025089509950A950B95AD
:1015C0000C95CDF8335008A811F0ECFA0949012028
:1015D00013F010FB079507AA21460DF1320013F016
:1015E00025FB0128DCD1079B33600127D8E700BF2A
:1015F000642907083007002070B5A0B006460C46E5
:1016000000231F931FA9FFF79DFF054658B39DF8C0
:101610007D309DF87E209DF87F100291019200930D
:101620009DF87C3032463F493F4801F059F800268A
:1016300013962C22314614A85FF056FC1B238DF81C
:101640004C30334649F64042022108460FF08AFCEE
:10165000022810D03549344801F0D3F802200FF0A9
:10166000B5FD354604E0324631492F4801F0C9F84E
:10167000284620B070BD7B2300931FAB302213A9F6
:10168000022010F09FF90246302808D02949264848
:1016900001F0B7F802200FF099FD0025E8E704F00B
:1016A00053FE064604F050FE801B40F6B7339842C6
:1016B0002FD80023ADF816300DF11603009306ABBA
:1016C000302207A9022010F029FB2F2803DC0A2072
:1016D00004F046FEE6E702200FF078FD9DF8443066
:1016E0009DF84520120442EA03629DF8463042EA22
:1016F00003229DF847301A430F4B9A4203D90F4BF0
:1017000013442360B4E70E49074801F07AF8002536
:10171000AEE70C49044801F074F802200FF056FDC2
:101720000025A5E790290708300C0020A829070804
:1017300074290708C02907087F7EAA838081557C09
:10174000DC290708F029070808B50A4601460248BF
:1017500007F06EFD08BD00BF6039002010B50446DB
:1017600004490020FFF7F0FF21460120FFF7ECFFBE
:1017700010BD00BF3150544E78B138B50C46054607
:1017800069B10846FEF784FD0246214628465FF00F
:10179000C0FBB0FA80F0400938BD0020704700203F
:1017A000FAE7000000285CD070B50D460446C2225E
:1017B000002128465FF098FB5023A5F8C03007228F
:1017C0002C4920465FF0A5FB00284CD1E11D0C46BA
:1017D00000E0013423781BB12F2B01D03A2BF8D134
:1017E000661A731E3E2B01D900203DE03246284682
:1017F0005FF049FD0023AB5523783A2B0BD02378BB
:101800000BB32F2B33D12046FEF742FD431E7E2B18
:101810001FD9002028E00134002306E003EB8303F6
:1018200002EB4302A2F1300301342278A2F130012D
:10183000C9B20929F2D9591E4FF6FE72914214D845
:10184000A5F8C030DBE70C4B1B88A5F84030012021
:101850000AE0421C214605F140005FF014FD012022
:1018600002E000207047002070BD0020FCE700204F
:10187000FAE700BF002A0708082A07082DE9F04107
:10188000ADF54E7D06460C4690461F46D49DC222BD
:1018900068499DA85FF0F7FC9DA93046FFF782FFDD
:1018A000002800F0C08000239C939CA99DA8FFF70E
:1018B00049FE002800F0BA8000234CF2503201218A
:1018C00018460FF04FFB40BBBDF834239CA9002005
:1018D0000FF0EAFC012826D10CB123784BBB01970D
:1018E0009DAB0093ADAB544A4FF4167106A85FF060
:1018F0005DF90646013840F25623984225D8002467
:10190000A64228D9321B92B206AB191900200FF05B
:1019100053FE00282FDD0444F2E700200FF056FCB0
:101920006FF013007BE000200FF050FC6FF014000C
:1019300075E0029701949DAB0093ADAB3F4A4FF425
:10194000167106A85FF032F9D3E700200FF03EFCD5
:101950006FF0150063E0002484B90026B74215D962
:10196000BA1B92B208EB060100200FF025FE0028FA
:101970000ADD0644F2E74FF0FF34EDE700200FF0F8
:1019800025FC6FF016004AE04FF0FF341CB904F05C
:10199000DBFC06460EE000200FF018FC6FF017008D
:1019A0003DE0274927485FF0D9FA03461CE00220B2
:1019B00004F0D6FC04F0C8FC801BA84227D2C4F572
:1019C0003F72033292B21F49214400200FF048FFBA
:1019D0000028ECDD04441B48002303551A495FF03E
:1019E000BDFA03460028DCD0002BE3D0002205928C
:1019F00005AA164918465FF00DF90128DAD1002032
:101A00000FF058FD00200FF0E1FB059807E00020E3
:101A10000FF050FD00200FF0D9FB6FF01D000DF509
:101A20004E7DBDE8F0816FF00900F8E76FF00A0025
:101A3000F5E700BF784206088C2A07080C2A070839
:101A4000002B070830090020F42A07080C2B070890
:101A50002DE9F0410646344900F0F8FE351D4FF4FB
:101A60008053324A3249284601F0DFFF0423314ACD
:101A7000314906F1100003F05BFA06F5077740F2F2
:101A80006442002138465FF02FFA002486F81C4299
:101A90004FF40C784246214606F508705FF024FAB0
:101AA0004246214606F58A605FF01EFA3246294614
:101AB00006F5D06003F0BEF906F28C654FF4417272
:101AC000214628465FF010FA214600E0013101EB83
:101AD000410305EB830300221A6000221A715A7138
:101AE0009A710120D8711872587218209872DA729F
:101AF0003F29EBD1002485F800433A460F4906F50B
:101B0000196002F09DF886F89C494FF40052214676
:101B100006F69D105FF0E8F906F50053C3F8A049FA
:101B20003046BDE8F08100BF0C39002000040240BF
:101B3000583A002000080240103A00206039002086
:101B400008B50121034805F0BFFA012800D00020A4
:101B500008BD00BF0008024008B50122022102486A
:101B600005F0CAFA08BD00BF0008024008B500220F
:101B70000221024805F0C0FA08BD00BF000802407B
:101B8000F8B506460F46154600240DE03046FFF72F
:101B9000E3FF284604F0E4FB3046FFF7E7FF284662
:101BA00004F0DEFB0134E4B2BC42EFD3F8BD000028
:101BB00070B50446284B294A29492A4800F090FD6F
:101BC000204600F049FF201D01F062FF04F5077078
:101BD00002F018FD02F0D0F9234902F0A9FB02F04F
:101BE000CBF902F001FC04F1100003F073FA204677
:101BF000FFF7A6FF84F89C09012823D01B4A194D42
:101C00001B49284600F06CFD1A48FFF729FC02F03A
:101C1000B3F9D0F8386202F0AFF9D0F83C3232466E
:101C20001549284600F05CFD94F89C39012B0BD037
:101C300012490C4800F054FDC82203212046FFF74A
:101C40009FFF70BD0E4ADAE70E49284600F048FDB6
:101C50002046FFF781FFF4E7282B0708342B0708FD
:101C6000402B0708300C0020582B0708202B0708B2
:101C70006C2B0708782B0708802B0708E42B070834
:101C8000182B0708C82B07082DE9F0439DB007461D
:101C90008846164602F070F990F8504254B91EB9C1
:101CA00020461DB0BDE8F08342466E496E4800F004
:101CB00017FDF5E705466D4B93E803001A90ADF864
:101CC0006C10090C8DF86E101AA9384600F00CFE45
:101CD0000446D0B11AA8FFF721FB0446FFF7E4FB46
:101CE00081461AA8FFF734FA4FF47A720023FFF7FF
:101CF0002BF8C4B9B9F1000F17D0A0EB0903D5F840
:101D000094229A4207D85A4E10E042465949564802
:101D100000F077FDC4E7002EC2D042465649524833
:101D200000F0DEFCBCE7554E00E0554E0023129358
:101D300013931493159316931793189319939DF86F
:101D40006D309DF86C209DF86A109DF869009DF833
:101D500068C012ACCDF810C00390029101920093BC
:101D60009DF86E30474A202120465EF01FFFCDF8D7
:101D7000049000943346424643493B4800F0B0FC8F
:101D8000FFF762FB012806D042464049364800F082
:101D900038FD002484E7FFF7A9FB044600284ED055
:101DA0000023119311A905F25120FFF725FC0446E9
:101DB00000284AD02D4B93E803000F90ADF8401057
:101DC000090C8DF842100FAC21461198FFF7ECFA80
:101DD00000230793089309930A930B930C930D9395
:101DE0000E939DF841309DF840209DF83E109DF8DF
:101DF0003D009DF83C5004950390029101920093A0
:101E00009DF842301F4A202107A85EF0CFFE119BAB
:101E1000009307AB42461E49134800F061FC94E86A
:101E20000600384600F0DCFD0446A0B11198FFF72B
:101E300095FC424617490C4800F052FC30E74246F8
:101E40001549094800F0DDFC2AE7424613490648D7
:101E500000F0D7FC24E742461149034800F0D1FCCA
:101E60001EE700BF242C0708300C00203C43060866
:101E7000182C0708382C0708582C0708002C0708CE
:101E80000C2C0708782C0708A02C0708D02C070872
:101E9000302D0708802D0708F42C07081C2D070893
:101EA000582D07082DE9F04385B00746FFF7CCFA17
:101EB00080463CE052B10122039B0093029B6249A1
:101EC000624800F09EFC05B0BDE8F0830022F3E715
:101ED000FFF70CFB00287BD002F04EF85C49813004
:101EE000FFF74AFC002878D002F046F800F181069E
:101EF00002F042F800F241192046FEF7C9F944F613
:101F00002063009383B222464946304600F094FF96
:101F1000044602464F494D4800F0E2FBC82C40F011
:101F200088800399284602F049FD00287CD007F5F7
:101F30000775284602F0ACFB00287FD000230293EF
:101F4000039307F69D1403AB019302AB00934FF488
:101F5000E1634FF400522146284602F081FC02461C
:101F60000028A7D0029B002BA4D0039B002BA1D05C
:101F70002046FEF78DF90246344E3749304600F0D0
:101F80004FFC22463549304600F04AFC2046FEF719
:101F90007FF90090039B029A3149304600F0A0FB84
:101FA000B8F1010F94D001F0E7FF00F1810620465F
:101FB000FEF76EF983B22246314607F1100003F0B6
:101FC00057FA024604462749204800F089FBA5E756
:101FD0002549304600F015FC75E701F0CDFF234997
:101FE0008130FFF7C9FBD0B101F0C6FF00F18106D7
:101FF00001F0C2FF00F241192046FEF749F943F60D
:102000009823009383B2224649463046FFF736FCB8
:102010000446024616490D4800F062FB7EE715496A
:102020000A4800F0EEFB4EE71349084800F0E9FBD0
:1020300049E71249054800F0E4FB44E7104903482A
:1020400000F04EFB3FE700BF702E0708300C002069
:10205000382F0708442F0708A02E0708B42E0708BA
:10206000C42E07088C2F0708F82E0708002A070837
:10207000542F0708642F07089C2F0708B82F07085C
:10208000D82F070838B50546FFF7DEF904460128C2
:102090001DD01C4A1C491D4800F022FB012C18D001
:1020A00005F11004204602F0F9FF204603F0BEF8C7
:1020B000F8B92846FFF7F6FE204603F0F1FA20466D
:1020C00003F008F81249114800F00AFB38BD114A24
:1020D000E0E7FFF70BFA20B90F490C4800F091FB3D
:1020E000F4E72846FFF7DEFE0949084800F0F8FA51
:1020F000ECE70A49054800F084FB204602F0EAFFBD
:10210000E4E700BF1030070814300708300C002047
:10211000743007080C3007084C300708B430070843
:1021200080B5ADF53A7D044601260027DAE0B648D1
:1021300003F072FFDBE035462EB9002F00F08B80F4
:10214000DFF80C9301E0DFF80C93002D40F086805F
:102150002A4649462046FFF797FDAC4B93E803001B
:102160000A90ADF82C10090C8DF82E100AA904F570
:10217000D06002F07FFE10EE106A0AA8FEF7E8FFBA
:1021800002460B4618210CA8FFF756F80DF1480837
:102190000023129313931493159316931793189384
:1021A00019939DF82D309DF82C209DF82A109DF84C
:1021B00029009DF8287004970390029101920093E2
:1021C0009DF82E30924A202140465EF0EFFC3046CA
:1021D000FEF7CAF906460F46CDF8008002460B46C8
:1021E0008C498D4800F01CFB322201212046FFF76C
:1021F000C7FC01F0C1FE01309DF82E309DF82D2066
:102200009DF82C109DF82AC09DF829E09DF82880A3
:10221000CDF82480CDF820E0CDF81CC006910592C1
:102220000493CDE9026700900CAB7C4A4FF4A07197
:102230001AA85EF0BBFC0246431EB3F59F7F20D870
:102240001AA904F5077002F03BFAF0B97449724814
:1022500000F0D7FA19E0DFF8009276E7714F6E4E82
:102260003946304600F03CFA4A466F49304600F0A5
:1022700037FA4846FFF7F4F83946304600F030FAAE
:1022800066E76A49644800F0BCFA002D39D104F5CC
:102290000053D3F8A0590135C3F8A05901F06CFEE2
:1022A000D0F83C329D4280F0138101F065FED0F8F9
:1022B000385294F89C39002B40F01381564E2A4630
:1022C0005B49304600F00CFA2046FFF74FFC2946E8
:1022D00004F5196001F0BCFC5649304600F000FAE4
:1022E00001270026484B1B78002B7FF420AF2046A7
:1022F000FFF726FC84F89C09002E7FF41CAF3D46B6
:102300001AE7FFF7A1F8054601F036FE431C9DF8D9
:102310002E209DF82D109DF82C009DF82AC09DF8C8
:1023200029E09DF82880CDF82480CDF820E0CDF874
:102330001CC0069005910492CDE9026700930CAB96
:102340003D4A4FF4A0716AA85EF030FC431EB3F51D
:102350009F7F00F2B780012D24D004F1100528469C
:1023600002F09CFE284602F061FF002840F0A480A5
:1023700001F002FE00F181066AA8FDF789FF83B231
:102380006AAA3146284603F073F803464A462B49A9
:10239000214800F0A5F9284603F082F9284602F00A
:1023A00099FE74E7FFF7A2F828B94A4624491A486B
:1023B00000F027FA6BE701F0DFFD22498130FFF7DB
:1023C000DBF900284AD0144F6AAA1F49384600F0AA
:1023D00027FA01F0D1FD00F1810501F0CDFD00F2F9
:1023E00041166AA8FDF754FF44F62063009383B2B8
:1023F0006AAA3146284600F01FFD03464A461349A3
:10240000384600F06DF942E7EC0400203C43060832
:10241000782C070880310708300C0020903107081D
:10242000F8310708003107084C3107081032070857
:10243000343307084C330708DC2D0708DC32070863
:102440003C320708382F0708643207088032070833
:10245000F8300708EC300708F430070801F08CFD6D
:1024600026498130FFF788F900B3254F6AAA25492C
:10247000384600F0D5F901F07FFD00F1810501F04B
:102480007BFD00F241166AA8FDF702FF43F6982390
:10249000009383B26AAA31462846FFF7EFF9034654
:1024A0004A461949384600F01BF9F0E64A461749F2
:1024B000134800F0A6F9EAE64A461549104800F02C
:1024C000A0F96BE74A4613490D4800F09AF9DEE699
:1024D00004F500530022C3F8A0292046FFF7D2FDDF
:1024E000E3E62A460C49064800F0FAF84FF47A7001
:1024F00005FB00F003F034FF0027F2E6002A07088E
:10250000300C0020643207089C320708B8320708F4
:10251000F4320708183307086833070810B5044673
:1025200040F8041B4FF4967200215EF0DDFC01239D
:1025300084F83031204610BD012800D0704708B51E
:102540004FF6FF73994200D008BD02490248FFF7D9
:10255000E5FFF9E7C8390020300C0020006800B121
:1025600002B9704708B5C82309F028FC08BD38B582
:1025700090F8303153B105460C4639B10846FDF7A5
:1025800087FE82B221462846FFF7E8FF38BD0000EB
:1025900008B50249FFF7EBFF08BD00BFA8330708E5
:1025A0002DE9F04383B01E4690F8303113B903B0E3
:1025B000BDE8F08307460C46914600F1040803F09D
:1025C000C3FE034601960094154A4FF496714046A7
:1025D0005EF0ECFA054600240BE019F80430114ACD
:1025E000C5F5967108EB05005EF0E0FA054401348C
:1025F000A4B2B44202D2B5F5927FEEDB6B1C7A191D
:102600000D211171AA1C3B440A211971BB1800212C
:10261000197192B241463846FFF7A0FFC7E700BFE5
:10262000F433070814340708032809D8DFE800F05A
:10263000020A04060448704704487047044870477B
:1026400004487047044870471C3407082C340708B6
:10265000343407083C340708243407082DE9F043D4
:1026600083B090F8305115B903B0BDE8F08304464B
:10267000894690461F46061D03F066FE05464846FD
:10268000FFF7D2FF00902B46144A4FF49671304664
:102690005EF08CFA051EE7DB3B464246C5F59471B9
:1026A00070195EF053FB021E16DB2A44B2F5947FCC
:1026B00001DD4FF49472531CA1180D2008710232F1
:1026C00023440A211971A3180021197192B23146CD
:1026D0002046FFF743FFC7E70022E6E74434070838
:1026E0000EB400B582B003AB53F8042B0193002164
:1026F000FFF7B4FF02B05DF804EB03B070470000D1
:1027000038B50446642003F02BFE2046FFF740FF57
:1027100026492046FFF72BFF25492046FFF727FFD4
:1027200024492046FFF723FF23492046FFF71FFFD8
:1027300022492046FFF71BFF21492046FFF717FFDC
:1027400020492046FFF7CCFF06F0EAF91E4DA5FB15
:102750000032920C1D492046FFF7C2FF06F0E6FA50
:10276000A5FB0032920C1A492046FFF7B9FF06F08C
:10277000E9FAA5FB0032920C16492046FFF7B0FF9C
:1027800006F0F4FAA5FB0052920C13492046FFF71D
:10279000A7FF12492046FFF7A3FF11492046FFF784
:1027A0009FFF2046FFF7F4FE38BD00BF54340708F2
:1027B00088340708C83407080C3507084C35070863
:1027C000882A07088C35070883DE1B43AC350708C9
:1027D000C0350708D4350708E8350708FC35070871
:1027E000283607080EB400B582B003AB53F8042BAB
:1027F00001930121FFF732FF02B05DF804EB03B053
:1028000070470EB400B582B003AB53F8042B0193AC
:102810000221FFF723FF02B05DF804EB03B070471D
:102820000EB400B582B003AB53F8042B019303211F
:10283000FFF714FF02B05DF804EB03B0704708B572
:102840004FF6FF710120FFF777FE08BD016070476A
:10285000030903EB830300F00F0000EB4300C0B259
:1028600070470000064BA3FB0023DA081301DBB21C
:1028700002EB8202A0EB4200C0B21843704700BFD7
:10288000CDCCCCCC10B41346022901D8013880B28B
:1028900000EB900292B2114CA4FB0040C0F34F1425
:1028A000121BC0F3CF1010FA82F201390C48415CC0
:1028B00011FA82F213FA82F292B20A4BA3FB0213CC
:1028C000D11A03EB51039B08C3EBC303D01AC0B268
:1028D0000130C0B25DF8044B704700BF1F85EB515B
:1028E000D03607082549922410B586B00C460068FA
:1028F000642302930723019304AB00930123002276
:10290000D02104F06BFE88BB9DF8100000F07F0022
:10291000FFF79EFF20709DF8110000F07F00FFF789
:1029200097FF60709DF8120000F03F00FFF790FFE6
:10293000A0709DF8130000F00700FFF789FFE0701A
:102940009DF8140000F03F00FFF782FF20719DF812
:10295000150000F01F00FFF77BFF60719DF8160067
:10296000FFF776FFA071012006B010BD0020FBE745
:1029700030B587B005460C460878FFF773FF8DF831
:1029800010006078FFF76EFF8DF81100A078FFF758
:1029900069FF8DF81200E078FFF764FF8DF81300EF
:1029A0002079FFF75FFF8DF814006079FFF75AFF79
:1029B0008DF81500A079FFF755FF8DF816006423F8
:1029C00002930723019304AB009301230022D0213B
:1029D000286804F009FDB0FA80F0400907B030BD66
:1029E00030B583B004466D4685E806009DF80600C4
:1029F0009DF804209DF8051000F5FA60FFF742FFEE
:102A00008DF8030029462046FFF7B2FF03B030BD22
:102A100000B587B00068642302930223019305ABDD
:102A2000009301231122D02104F0D8FD9DF9143028
:102A300000EE103AB8EEC00A9DF815309B0907EE7B
:102A4000903AF8EEE77AB5EE007A67EE877A30EEE4
:102A5000270A07B05DF804FB10B586B0044664236E
:102A60000322D021006804F0EBFF30B11C491D485F
:102A7000FFF7C7FE002006B010BD1B4B93E8030014
:102A80000490ADF81410090C8DF8161004A9204616
:102A9000FFF72AFF70B92046FFF7BAFF10EE100AC1
:102AA000FDF762FD02460B4610490E48FFF718FE7F
:102AB0000120E0E79DF814309DF812209DF81110D8
:102AC0009DF8100003900291019200939DF815303B
:102AD0009DF8162006490348FFF702FEDBE700BF1A
:102AE000A8360708300C0020444306088036070843
:102AF00048360708024680B1037813B900207047B2
:102B0000013213783BB1A3F130010929F8D92E2BFA
:102B1000F6D0002070470120704700207047000069
:102B200010B584B002464B788878CC780294019036
:102B300000930B7802490348FFF7D2FD04B010BDA3
:102B4000DC360708300C00200AB90020704770B549
:102B500004460D46164600780EF0B9F8024648B114
:102B6000B04200D3B2B2294620780EF079FE002898
:102B700009DB70BD03F0E8FB6368984201D90348A4
:102B8000F7E70348F5E70348F3E700BF0098FFFFC6
:102B90000097FFFF0094FFFF0AB90020704770B54F
:102BA00004460D46164600780EF046F8024650B12F
:102BB000B04200D3B2B2294620780EF0FDFC0028C6
:102BC00003DB20B170BD0348FCE70348FAE7014886
:102BD000F8E700BF8097FFFF0094FFFF2DE9F04169
:102BE0008EB004460F46FFF785FF064668B3002304
:102BF000039304930593069306AB019305AB0093EF
:102C000004AB03AA2E4920465EF004F8042812D132
:102C1000039BFF2B11D8049AFF2A10D8059AFF2A8C
:102C20000FD8069AFF2A0ED83B70049B7B70059B39
:102C3000BB70FA7038E0002636E0002634E000264B
:102C400032E0002630E000262EE01E49012011F07F
:102C5000D1FF0025089509950A950B950C95CDF89F
:102C6000335008A80FF09EFF9DF834309DF83520B2
:102C7000DFF86080019200939DF833309DF8322098
:102C800011494046FFF72CFD079507AA21460DF193
:102C9000320011F0CBFF0546034622460B49404661
:102CA000FFF71EFD012D03D030460EB0BDE8F081C8
:102CB000079B3B6039460648FFF732FF0126F3E7E2
:102CC00064290708680D0020EC3607080437070858
:102CD0001C370708300C002070B582B00D46840008
:102CE0000134E40004F540700DF04CFE064604F596
:102CF00000700DF047FE00F01F00009033462A469A
:102D000002490348FFF7ECFC02B070BD2C370708FE
:102D1000300C002070B5A2B005460C468026324625
:102D2000002102A85EF0E0F8324602A920462AF00F
:102D3000D3FC9DF808304BB102AB009323462A46E2
:102D400003490448FFF75DFD22B070BD024BF4E774
:102D500054370708300C00204C37070800285ED095
:102D600070B50D460446C222002128465EF0BCF82C
:102D700040F2BB13A5F8C03008222D4920465EF072
:102D8000C8F800284DD104F108010C4600E00134D8
:102D900023781BB12F2B01D03A2BF8D1661A731E62
:102DA0003E2B01D900203DE0324628465EF06BFA0A
:102DB0000023AB5523783A2B0BD023780BB32F2B62
:102DC00033D12046FDF764FA431E7E2B1FD9002025
:102DD00028E00134002306E003EB830302EB430207
:102DE000A2F1300301342278A2F13001C9B20929DD
:102DF000F2D9591E4FF6FE72914214D8A5F8C03090
:102E0000DBE70C4B1B88A5F8403001200AE0421C90
:102E1000214605F140005EF036FA012002E0002074
:102E20007047002070BD0020FCE70020FAE700BFDB
:102E3000382F0708082A07082DE9F043ADF6EC4DB6
:102E40000446884616461D46DDF8087DC22200214C
:102E50000DF624405EF048F80DF624412046FFF7B9
:102E60007DFF002800F033820023CDF8203C0DF5D3
:102E700042610DF62440FFF7B1FE002800F09C806F
:102E8000BDF8E43C0DF62442B449B548FFF728FCF0
:102E90000DF54261B348FFF743FE00234CF2513277
:102EA000012118460EF05EF8002840F08E80AE49F1
:102EB0000020FFF711FFBDF8E42C0DF54261002062
:102EC0000EF0F2F9012840F08A80A8490020FFF7AF
:102ED00003FF0DF6C82049F0B9F90DF51F604AF05F
:102EE000CFF90DF64C0028F007FF0DF20C701FF023
:102EF00017F80B2300939E4B0DF64C029D490DF2E3
:102F00000C701FF014FC0146002877D10DF5AF605E
:102F10005CF074F8984B1C6854B12046FDF7B8F982
:102F2000421C21460DF5AF605AF0F6FB00286EDB1F
:102F300000231A4619460DF51F604AF0EFF90146C5
:102F400000286ED10DF20C728C490DF51F6049F00E
:102F5000B5FB894B1B68002B6CD002210DF51F605F
:102F600049F09DFB00220DF5AF610DF51F6049F0A2
:102F7000E7FB0DF51F610DF6C82049F0CBF90146BE
:102F800000285DD10DF624410DF6C82049F00CFD56
:102F90000024CDF87045CDF8744503F0D5F93844D8
:102FA000CDF874050094764B764A0DF5AE610DF6BA
:102FB000C82049F095FB55E00DF624427249684857
:102FC000FFF71FFC6FF00A0472E170496448FFF7D5
:102FD00018FC00200EF0FAF86FF0130468E10246C6
:102FE0006B495F48FFF70DFC6A490020FFF774FE4C
:102FF00000200EF0EBF86FF0140459E16648FFF77B
:1030000089FE00200EF0E2F86FF01D0450E1014649
:103010006248FFF77FFE00200EF0D8F86FF01E0424
:1030200046E15F48FFF776FE00200EF0CFF86FF024
:103030001F043DE100210DF51F6049F030FB98E7CA
:103040005848FFF767FE00200EF0C0F86FF020042C
:103050002EE103F079F9DDF8743598422DD801207E
:1030600003F07EF90DF6C82049F07EFE044648B113
:1030700010F5D24FEDD010F5D14FEAD001464A48B5
:10308000FFF748FEECB9B8F1000F37D00295CDF844
:1030900004800DF6244300930DF66443434A4FF435
:1030A0001671C6A85DF082FD8146421E40F256238D
:1030B0009A4226D84FF000082FE03D493D48FFF7DF
:1030C00029FE0DF6C8204AF049F80DF51F604AF0B8
:1030D000FFFA0DF5AF605BF09FFF0DF20C701EF074
:1030E0003AFF0DF64C0028F02BFE00200EF0E2F91E
:1030F00000200EF06BF86FF02704D9E0DFF8C080F5
:10310000C4E72D491648FFF77CFB6FF03104CFE090
:10311000804402E0012003F023F9C14516D9A9EB50
:103120000802C6AB03EB08010DF6C82048F0D4F83E
:103130000028EDDC10F5D24FECD010F5D14FE9D0DE
:1031400001461E48FFF7E6FD4FF0FF34002C40F02B
:10315000C1804FF0000838E0804436E0843707082B
:10316000300C00209C370708C037070804380708D0
:10317000183807081BC00208640D00200729020840
:10318000492B0008992B000864370708A83707085F
:10319000D4370708F03707082438070838380708F5
:1031A0004C380708643807088C3807080C2A0708C9
:1031B0000098FFFF743807089C380708B8380708DC
:1031C000403C0708012003F0CBF8454515D9A5EB95
:1031D000080206EB08010DF6C82048F07DF800282B
:1031E000BADC10F5D24FEDD010F5D14FEAD0014640
:1031F0003B48FFF78FFD4FF0FF34002C6DD103F0FB
:10320000A3F8054603F0A0F8431BBB4259D2C4F50E
:103210003F72033206AB19190DF6C82047F04EFE77
:10322000011E1BDD0C4406A8002303552D495DF04B
:1032300095FE034660B1002BE4D00022059205AA5A
:10324000294918465DF0E6FC0128DBD1059C11E018
:10325000264906A85DF082FE0346ECE7A1B311F50E
:10326000D24F2AD011F5D14F27D02148FFF752FD78
:103270004FF0FF340DF6C82048F096F80DF6C82040
:1032800049F06CFF0DF51F604AF022FA0DF5AF60B2
:103290005BF0C2FE0DF20C701EF05DFE0DF64C00F0
:1032A00028F04EFD00200EF005F900200DF08EFFF5
:1032B00020460DF6EC4DBDE8F083022003F050F8F7
:1032C000A0E74FF0FF34D5E74FF0FF34D2E76FF0BF
:1032D0000904EDE76FF03204EAE76FF03304E7E743
:1032E000B8380708F42A07080C2B0708002B070832
:1032F000C43807082DE9F0418AB0002405940694EB
:103300000794089409940094484B1A6B42F0010208
:103310001A631A6B02F001020092009A01941A6B70
:1033200042F002021A631A6B02F002020192019A41
:1033300002941A6B42F004021A631A6B02F0040240
:103340000292029A03941A6B42F008021A631A6BF3
:1033500002F008020392039A04941A6B42F080026E
:103360001A631B6B03F080030493049B304E2246C8
:103370000621304603F0C0FE2E4F22464FF4805106
:10338000384603F0B9FEDFF8B08001224FF48071B7
:10339000404603F0B1FE01220821304603F0ACFEA6
:1033A00006230593012506950794089405A9304640
:1033B00003F0EEFC4FF48053059306950794022327
:1033C000089305A9384603F0E3FC05950694079594
:1033D000089405A9304603F0DBFC05950694079593
:1033E000089405A9384603F0D3FC4FF48073059385
:1033F000069507940327089705A9404603F0C8FCE3
:103400000823059306950794089705A9304603F00D
:10341000BFFC1023059306940794089405A9304631
:1034200003F0B6FC0AB0BDE8F08100BF00380240EE
:10343000000802400004024000000240012800D0C1
:10344000704708B54FF6FF73994200D008BD024897
:10345000FEF7FEFAFAE700BF680F002000B58DB056
:1034600072B60DF1040C114C0FCCACE80F000FCC70
:10347000ACE80F0094E80700ACE80300ACF80020CB
:103480004FF4FA73292201A9094808F097FC022198
:10349000084803F04AFE00230093009A064B9A4224
:1034A000F5D800BF009B01330093F6E7D03807083A
:1034B000C839002000080240DF93040008B50A481C
:1034C0000A4B03604FF4E133436000238360C36021
:1034D00003610C2242618361C36108F01FFC00B9E3
:1034E00008BDFFF7BBFF00BFC83900200010014036
:1034F00008B50A480A4B03600A4B43600023836007
:10350000C3604FF48042026143618361C36103621F
:1035100003F026FE00B908BDFFF7A0FF0C3900201C
:1035200000540040A086010008B50A480A4B036019
:103530004FF41653436000238360C36003610C2281
:1035400042618361C36108F0E9FB00B908BDFFF780
:1035500085FF00BF103A00200044004008B50A482B
:103560000A4B03604FF41653436000238360C3602B
:1035700003610C2242618361C36108F0CFFB00B993
:1035800008BDFFF76BFF00BF583A0020004800401D
:1035900008B50D480D4B0360002343607F22826015
:1035A000FF22C26003614361836105F0F3FB40B910
:1035B00000220221032003F016F8032003F02FF865
:1035C00008BDFFF74BFF00BF603900200028004016
:1035D00008B50C480C4B0360532343600023836001
:1035E00040F2E732C260836108F066F940B9002218
:1035F0000321362002F0F7FF362003F010F808BD53
:10360000FFF72CFF803900200010004000B595B076
:103610003022002108A85DF067FC00230393049387
:103620000593069307930193214A116C41F0805151
:103630001164126C02F080520192019A02931D4BA8
:103640001A6842F480421A601B6803F480430293B4
:10365000029B052308934FF48033099301230A93B7
:1036600002230E934FF480020F9204221092A8229C
:10367000119212930723139308A804F0F3FE98B94C
:103680000F23039302230493002305934FF4A053C5
:1036900006934FF480530793052103A805F05AF9C8
:1036A00020B915B05DF804FBFFF7D8FEFFF7D6FE92
:1036B000003802400070004008B502F0DFFDFFF75F
:1036C000A5FFFFF717FEFFF7F9FE224C2046FFF794
:1036D00017F821492046FFF703F8FFF709FF1F49B4
:1036E0002046FEF7FDFFFFF71FFF1D492046FEF7AE
:1036F000F7FFFFF733FF1B492046FEF7F1FF01F00C
:10370000F1FF01F059FA18492046FEF7E9FF09F0E8
:103710001BFD16492046FEF7E3FFFFF739FF14496A
:103720002046FEF7DDFFFFF753FF12492046FEF764
:10373000D7FF2046FEF72CFF0F492046FEF7D0FFAB
:103740002046FEF725FF0D4C2046FEF731FA2046B5
:10375000FEF7E6FC300C0020FC3807081C3907088F
:103760003C3907085C3907087C3907089C39070889
:10377000BC390708DC390708FC390708680F002046
:1037800008B54FF6FF710120FFF758FE08BD80B461
:1037900083B000AF78607B685B037A6853407B60DE
:1037A0007B685B0C7A6853407B607B685B017A685E
:1037B00053407B607B6818460C37BD465DF8047B40
:1037C0007047000080B483B000AF786039607B68D8
:1037D0009A013B681A447B689B081A44054B1344C2
:1037E0007A6853407B607B6818460C37BD465DF8AD
:1037F000047B7047B979379E80B400AF0F4BDB680C
:1038000003F08073002B05D10C4BDB680B4A43F0AF
:103810008073D3600A4B1B6803F00103002B08D1AF
:10382000074B00225A60064B1B68054A43F0010310
:10383000136000BFBD465DF8047B7047F0ED00E00B
:10384000001000E080B400AF034B5B681846BD4633
:103850005DF8047B704700BF001000E080B582B0C7
:1038600000AF00237B6002F0BFFD03461946786875
:10387000FFF7A8FF786002F0C3FD03461946786899
:10388000FFF7A0FF786002F0C7FD0346194678688D
:10389000FFF798FF786002F057FD034619467868F5
:1038A000FFF790FF78601D4B9B6819467868FFF71B
:1038B00089FF7860FFF7A0FFFFF7C4FF03461946B2
:1038C0007868FFF77FFF786000233B601DE0134BB3
:1038D0009B6819467868FFF775FF786002F034FD41
:1038E000034619467868FFF76DFF7860FFF7AAFF77
:1038F000034619467868FFF765FF78607868FFF738
:1039000046FF78603B6801333B603B683F2BDED964
:103910007B6818460837BD4680BD00BF10E000E058
:1039200090B589B000AFF860B9607A603B60BB6861
:10393000002B02D03B68002B02D16FF03B0360E00C
:103940003B6800221A607B68002B01D1002358E0FD
:1039500000237B617B6907F1140211461846FFF7CB
:1039600031FF03467B617B69BA6811461846FFF751
:1039700029FF03467B610023FB6112E07C69FFF7AE
:103980006DFF034619462046FFF71CFF03467B6187
:103990007B691846FFF7FBFE03467B61FB69013339
:1039A000FB61FB69072BE9DD0023BB6121E07B693B
:1039B0001846FFF7ECFE03467B617969BA68BB697C
:1039C0001344CAB21A707B69104A926811461846AD
:1039D000FFF7F8FE03467B617C69FFF733FF034680
:1039E00019462046FFF7EEFE03467B61BB690133B3
:1039F000BB61BA697B689A42D9D33B687A681A601E
:103A0000002318462437BD4690BD00BF10E000E0FB
:103A1000B0B500AF02F098FC034600221C461546E4
:103A200022462B4610461946B0BD01604260038114
:103A3000704708B501220189406803F05DFB08BDAD
:103A400008B500220189406803F056FB08BD00B5A7
:103A500086464FF0000C4FF6FF7010E0400801332F
:103A6000DBB2072B07D810F0010FF7D04AF20102A2
:103A700082EA5000F3E70CF1010C1FFA8CFC8C4534
:103A800004D21EF80C3058400023EAE75DF804FB2E
:103A900008B5FFF7D5FF02490248FEF721FE08BD31
:103AA000603A0708300C00202DE9F04792B0044638
:103AB0000F469046BDF868601B9D8DF840108DF84C
:103AC00041201A0A8DF842208DF84330330A8DF8D0
:103AD00044308DF84560062110A8FFF7B8FF8DF837
:103AE0004600C0F30F208DF84700082310AA4D4967
:103AF0004D48FEF755FD2046FFF79BFF012002F0E1
:103B00002FFC6423082210A9206808F057F902202E
:103B100002F026FC2046FFF793FF4FEA460A1FFA01
:103B20008AFA0AF105091FFA89F94022002168463C
:103B30005DF0DAF91C9B4A466946206808F0C9F92D
:103B4000032830D00446A8BB4B466A46374936485E
:103B5000FEF726FD9DF80030BB4257D19DF80120AD
:103B60009DF90130002B56DB424556D19DF80230BD
:103B7000B3EB460F53D10AF1030189B26846FFF750
:103B800066FF09F146036B4413F8483C09F147020C
:103B90000DEB020919F8482C43EA0223984210D190
:103BA0004FF0000C29E03A4621491F48FEF729FE54
:103BB00001242CE002461F491B48FEF722FE042484
:103BC00025E002461C491848FEF71BFE02241EE0B1
:103BD0004FEA4C034B336B4413F8482C0CF10203AF
:103BE00012A901EB430313F8483C43EA022325F8EA
:103BF0001C300CF1010C1FFA8CFCB445E8D33B4699
:103C000032460E490848FEF76BFD00E004242046CA
:103C100012B0BDE8F0870324F9E70424F7E7042491
:103C2000F5E700BFA03A0708300C0020EC3A07087F
:103C3000A83A0708D03A0708F43A07081C3B0708D7
:103C40004FF0000C80F800C04160826070470000B7
:103C500038B504460D46806800F0FEFC606805F04B
:103C600061FA606805B1013D0422294605F098F922
:103C7000D0B9322002F074FB02F096FB0E4A1368B2
:103C800043F0040313600121084604F0BBFBFFF777
:103C9000BDFC02F099FB606805F044FAA06800F0F2
:103CA000B1FC0023237038BD04490548FEF7A9FD87
:103CB000FFF7D4FBDDE700BF00700040443B07087E
:103CC000300C002078B138B50C461146054634B1A9
:103CD00032B1013C22465DF02EF900232B5538BD50
:103CE00000230370FBE77047002831D010B58AB07D
:103CF0000C460023049305930693079308930993B6
:103D000009AB039308AB029307AB019306AB009397
:103D100005AB04AA12495CF07DFF06281AD10023E6
:103D2000052B08DC0AAA02EB830252F8182CFF2AA2
:103D300013D80133F4E7002306E00AAA02EB83025A
:103D400052F8182CE2540133052BF6DD012002E075
:103D50000020704700200AB010BD0020FBE700BF24
:103D6000603B070830B310B586B00C4600230593BE
:103D700004930393029302AB019303AB009304AB50
:103D800005AA13495CF046FF042815D1059BFF2BBB
:103D900015D8049AFF2A14D8039AFF2A13D8029A36
:103DA000FF2A12D82370049B6370039BA370E270F8
:103DB000012002E000207047002006B010BD002066
:103DC000FBE70020F9E70020F7E70020F5E700BF58
:103DD000F836070810B5044600E001342CB120780D
:103DE00018B15CF045F90028F7D1204610BD00005D
:103DF00010B594B00446C8B10B46D1B10F4A50215A
:103E000068465CF0D3FE694620465DF0A7F804469C
:103E100060B16846FCF73CFA2044FFF7DBFF03780B
:103E20003A2B08D10130FFF7D5FF0446204614B0E5
:103E300010BD0C46FAE70024F8E700BFA4460708C7
:103E400010B51446FFF7D4FF30B10A2200215CF010
:103E500005F92070012010BD0020FCE710B51446C4
:103E6000FFF7C6FF30B10A2200215CF0F7F820808E
:103E7000012010BD0020FCE738B514461D46FFF7B1
:103E8000B7FFD8B10378222B1AD101304FF0000CC4
:103E9000017851B1222908D00CF1010EAE4504D2AF
:103EA000013004F80C10F446F2E7002304F80C305B
:103EB0000078222814BF0020012038BD0020FCE734
:103EC0000020FAE710B588B0144620236A46FFF7B1
:103ED000D3FF08B908B010BD21466846FFF704FFBC
:103EE000F8E710B588B0144620236A46FFF7C4FFF0
:103EF00008B908B010BD21466846FFF733FFF8E760
:103F000010B51446FFF774FF30B10A2200215CF0AF
:103F1000A5F82060012010BD0020FCE710B5144674
:103F2000FFF766FF30B100215BF0BEFF84ED000AB1
:103F3000012010BD0020FCE738B51446FFF758FFFC
:103F4000A0B1054604220A495CF0E3FF38B105221E
:103F5000084928465CF0DDFF20B1002038BD012073
:103F60002070FBE7002323700120F7E70020F5E72E
:103F7000743B07087C3B070800487047000000209E
:103F800070B50446002500F8015B314A4021FFF777
:103F900099FE304A402104F14100FFF793FE2E4A7A
:103FA000C02104F18100FFF78DFE2C4E32468021A6
:103FB00004F24110FFF786FE84F8C151284B1868BF
:103FC000C4F8C2019B88A4F8C631264B1868C4F80F
:103FD000C801254B1868C4F8CC01244B1868C4F8F4
:103FE000D001C4F8D401224A202104F5EC70FFF777
:103FF00069FE3246202104F5FC70FFF763FE32466D
:10400000202104F50670FFF75DFE0523C4F8383261
:104010000222C4F83C22012384F84032042184F8AF
:104020004112A4F84252A4F844220022C4F84822C3
:10403000104AC4F84C2284F850320F4A402104F24E
:104040005120FFF73FFE0D4BC4F8943270BD00BF06
:10405000843B0708AC3B0708D43B0708403C0708F3
:104060004C430608303C0708383C07083C3C07082E
:10407000143C070800007A44203C070880510100E6
:1040800010B54378002B44D0012490F8813003B957
:104090000024D0F8383213B90123C0F83832D0F8F0
:1040A0003C3213B90123C0F83C3290F8403213B9C6
:1040B000012380F8403290F84132033BDBB2012B00
:1040C00002D9042380F84132B0F8443213B90223F4
:1040D000A0F84432B0F844321E2B02D91E23A0F8B7
:1040E0004432D0ED937AF5EE407AF1EE10FA02D137
:1040F0000C4BC0F84C32D0F89432B3F5616F03D258
:104100004FF46163C0F8943290F851321BB12046ED
:1041100010BD0024B9E7044A402100F25120FFF706
:10412000D1FDF4E700007A44203C0708002900F0A4
:10413000C28030B5ADF52B7D05460C46012A40F214
:10414000BC804FF426725E4904A85DF09CF804A878
:10415000FFF716FF04AA5B492046FFF7EDFE402358
:104160000DF1110258492046FFF786FE40230DF15C
:10417000510256492046FFF77FFEC0230DF1910200
:1041800053492046FFF778FE80230DF25112514922
:104190002046FFF771FE00230093019302930393DF
:1041A00010236A464C492046FFF766FE78B14B491A
:1041B0006846FCF70DF810B901238DF8D131484954
:1041C0006846FCF705F810B900238DF8D1310DF5DC
:1041D000E97244492046FFF775FE76AA4249204617
:1041E000FFF77FFE77AA41492046FFF77AFE78AABB
:1041F0003F492046FFF775FE79AA3E492046FFF762
:1042000070FE20237AAA3C492046FFF735FE202382
:1042100082AA3A492046FFF72FFE20238AAA38496E
:104220002046FFF729FE92AA36492046FFF768FE8E
:1042300093AA35492046FFF763FE94AA33492046E6
:10424000FFF7FEFD0DF2512231492046FFF7F8FD40
:104250000DF252222F492046FFF700FE95AA2E4963
:104260002046FFF7FBFD96AA2C492046FFF756FE95
:1042700097AA2B492046FFF751FE98AA29492046C4
:10428000FFF75AFE40230DF2612227492046FFF72F
:10429000F3FDA9AA25492046FFF732FE04A8FFF73F
:1042A000EFFE4FF4267204A928465CF0ECFF0120D3
:1042B0000DF52B7D30BD002070470020F8E700BFD2
:1042C00054430608443C0708543C0708603C070870
:1042D0006C3C0708783C0708883C0708943C0708B2
:1042E0009C3C0708A43C0708B03C0708B83C0708FA
:1042F000C03C0708C83C0708D03C0708D83C070862
:10430000E43C0708F03C0708043D0708183D07088F
:10431000283D0708343D0708483D0708583D070871
:104320006C3D07087C3D0708883D0708943D070859
:1043300070B5ADF50E7D06460C46FFF721FE012255
:10434000214602A80BF084F9E8B90023019301ABE0
:1043500040F2FF721E4902A80BF038FB054602A886
:104360000BF066FE0DB9019ABAB9019B2A461949AC
:104370001948FEF746FA3046FFF782FE0025284628
:104380000DF50E7D70BD224614491348FEF72AFA3A
:104390003046FFF775FE0025F1E70D4900238B54E9
:1043A0003046FFF7C3FE054630B1019B22460C495B
:1043B0000948FEF795F9E2E70A490748FEF721FAAE
:1043C0003046FFF7DDFD3046FFF75AFED7E700BF66
:1043D000A03A0020C43D0708300C0020A43D070887
:1043E000043E0708E03D07082DE9F04182B004468D
:1043F000421C36493648FEF773F92378002B5ED00D
:104400000122334D04F1410332492846FEF768F991
:1044100004F1810230492846FEF762F994F8C1316F
:10442000012B4ED02D4A2A4D2D492846FEF758F92A
:1044300094F8CA3194F8CB210192009394F8C931D1
:1044400094F8C82127492846FEF74AF9D4F83C32A7
:10445000D4F8382224492846FEF742F9B4F842320B
:10446000B4F844220192009394F8413294F8402227
:104470001E492846FEF734F9D4F84C82D4F8480295
:10448000FCF772F806460F464046FCF76DF8CDE99A
:10449000000132463B4616492846FEF721F994F8BA
:1044A000503283B10122D4F89432009304F25123A4
:1044B00010490748FEF714F902B0BDE8F081002268
:1044C0009FE70D4AAFE70022EDE700BF243E070853
:1044D000300C0020383E0708603E07089C3C070867
:1044E000743E0708883E0708A03E0708C83E070834
:1044F000F03E07080C3F0708943C0708132831D802
:10450000DFE800F00A320C0E10121416181A1C1EE6
:1045100020222426282A2C2E14487047144870473D
:10452000144870471448704714487047144870473F
:10453000144870471448704714487047144870472F
:10454000144870471448704714487047144870471F
:10455000144870471448704714487047144870470F
:10456000144870471448704714487047303F070894
:10457000443F0708503F0708603F07086C3F0708A3
:10458000783F0708883F0708943F0708A03F0708BF
:10459000B43F0708C83F0708DC3F0708EC3F07089F
:1045A00000400708104007081C400708284007087B
:1045B0003C400708544007086C400708383F07088C
:1045C000022A08D9044B1B7803B930230B703A2315
:1045D0004B7000238B7070475844002070B584B036
:1045E0000C4615461E46032203A9FFF7E9FF009675
:1045F00003AB034A294620465CF0D8FA04B070BDEC
:104600007440070830B585B00546032203A9FFF7BB
:10461000D7FF012203A9281D0AF0D4FF48B90124BD
:104620002C7003AA09490A48FEF75AF8204605B03B
:1046300030BD0446FFF762FF0090234603AA0549F8
:104640000348FEF7DEF800202870F0E7A0400708D6
:10465000300C00207C400708037803B9704710B580
:1046600082B00446032201A9FFF7AAFF002201A994
:1046700010460AF0A7FF0023237001AA024903484D
:10468000FEF72EF802B010BDB8400708300C00202D
:104690008446007800B9704700B597B0074B4022B8
:1046A00006A96046FFF79AFF694606A80BF0F3FEDD
:1046B000B0FA80F0400917B05DF804FBD04007085D
:1046C000F0B5ADF5257D07780FB306460C460029F9
:1046D00000F0B0800846FBF7DBFD0546431EEF2BDC
:1046E00009D80023AB4216D2E25C0D2A0AD00A2A6E
:1046F00008D00133F6E702464F495048FEF781F8EB
:10470000002704E04E494D48FEF77BF80027384665
:104710000DF5257DF0BD4B4B402294A93046FFF7A7
:104720005DFF4FF40C72002108A85CF0DDFB122243
:1047300094A908A80AF08CFF064620BB0B9908A88C
:104740000BF0A0FC064648BB0023079307AB2A46A4
:10475000214608A80BF079FA044610B9079BAB4232
:104760002AD02046FFF7CAFE0295079B01930090CE
:10477000234694AA34493148FEF743F808A80BF0C1
:1047800057FC0027C3E7FFF7B9FE0090334694AA11
:104790002E492A48FEF735F80027B8E7FFF7AEFEA6
:1047A0000090334694AA2A492448FEF72AF808A81C
:1047B0000BF03EFC0027AAE7264B1B68ADF818302B
:1047C0001B0C8DF81A300023059305AB022206A9B5
:1047D00008A80BF03AFA044610B9059B022B12D038
:1047E0002046FFF78BFE02230293059B0193009066
:1047F000234694AA18491148FEF703F808A80BF0BD
:1048000017FC002783E708A80BF094FB044618B9AF
:1048100008A80BF00DFC7AE7FFF770FE0090234626
:1048200094AA0E490548FDF7ECFF08A80BF000FC20
:1048300000276CE700276AE7DC400708300C0020FF
:10484000FC400708D0400708704107081C410708D2
:1048500048410708882A0708A0410708D0410708EF
:104860002DE9F04FADF55D7D90469946E69F00231A
:104870003B60E79A136090F800A0BAF1000F00F0D7
:104880008F800E46002900F08680B8F1030F40F2B9
:104890008580C84501D808F1FF39B9F1030F02D866
:1048A0004FF0000A7CE0414B4022CCA9FFF796FE76
:1048B0004FF40C72002140A85CF016FB0122CCA939
:1048C00040A80AF0C5FE044618B95B2333700125E1
:1048D00036E0FFF713FE00902346CCAA3449354852
:1048E000FDF78FFF4FF0000A5AE003AA0021D154D0
:1048F0001C4654B1631E03AAD25C0D2AF5D00A2AC5
:10490000F3D0202AF1D0092AEFD034B33A6842B369
:104910000123234402332B444B4524D8434522D85A
:1049200012B12C2373550135224603A970195CF08E
:10493000AAFC25443B6801333B60E79BC3F800B009
:1049400040AAF42103A80BF083FF60B1DDF818B191
:1049500003A8FBF79DFC0446CBE7E79BC3F800B038
:10496000EEE71346D5E76B1C5D2272550022F25428
:1049700040A80BF05DFB3A6812B1E79B1B687BB95E
:10498000CCAB0093E79B1B680B490A48FDF739FF46
:104990004FF0000A04E04FF0000A01E04FF0000A77
:1049A00050460DF55D7DBDE8F08F00BFD040070893
:1049B000F4410708300C00202042070870B5ADF51F
:1049C000DE6D067816B104460D4619B930460DF570
:1049D000DE6D70BD6E4B40220DF5D661FFF7FEFD1A
:1049E0006C4B40220DF5CE612046FFF7F7FD4FF4EA
:1049F0000C7200210DF588605CF076FA01220DF54D
:104A0000D6610DF588600AF023FE0446D0B9DDF8C2
:104A10004C349D4222D30DF588600BF009FB0DF557
:104A2000D6600BF071FD04460028CFD0FFF766FD7D
:104A3000009023460DF5D66257495848FDF7E1FE30
:104A40000026C3E7FFF75AFD009023460DF5D66216
:104A500053495248FDF7D5FE0026B7E74FF40C72D4
:104A6000002184A85CF040FA0A220DF5CE6184A8EA
:104A70000AF0EEFD0446002855D129460DF5886060
:104A80000BF000FB044600285DD100230393029342
:104A900003AB4FF4007204A90DF588600AF096FF8D
:104AA0000446002865D1039AC2B102AB04A984A8C8
:104AB0000BF0CBF8044618B9029A039B9A42E7D050
:104AC0002046FFF71BFD0346039A0192029A0092CB
:104AD000224634493148FDF794FE01240DF58860E3
:104AE0000BF0A6FA84A80BF0A3FA002C4AD10DF51E
:104AF000D6600BF009FD0DF5D6610DF5CE600BF01B
:104B0000AEFD044600283FF461AFFFF7F7FC034613
:104B1000224625492148FDF774FE0DF5CE600BF0C5
:104B2000F3FC002652E7FFF7E9FC009023460DF561
:104B3000CE621E491948FDF764FE0DF588600BF042
:104B400077FA002642E7FFF7D9FC009023462A4671
:104B500017491248FDF755FE0DF588600BF068FA0D
:104B600084A80BF065FA0DF5CE600BF0CDFC0026A5
:104B70002CE7FFF7C3FC034622460E490748FDF722
:104B800040FEABE70DF5CE600BF0BEFC00261DE746
:104B9000D04007085442070890420708300C002014
:104BA00060420708404307086C430708BC420708F7
:104BB000EC4207081C43070880B500AF114B124AAE
:104BC0001A60104B00225A600E4B00229A600D4B67
:104BD0000022DA600B4B00221A610A4B00225A6154
:104BE000084B02229A61074804F054FB0346002B4D
:104BF00001D0FEF733FC4FF40061024805F0A2FC3F
:104C000000BF80BDA0420020002C014080B58CB0C8
:104C100000AF786007F11C0300221A605A609A60A6
:104C2000DA601A617B681B687A4A934240F0EE8032
:104C30000023BB61784B5B6C774A43F40063536499
:104C4000754B5B6C03F40063BB61BB6900237B6144
:104C5000714B1B6B704A43F4800313636E4B1B6BE9
:104C600003F480037B617B6900233B616A4B1B6B10
:104C7000694A43F004031363674B1B6B03F004039F
:104C80003B613B690023FB60634B1B6B624A43F053
:104C900008031363604B1B6B03F00803FB60FB68A6
:104CA0004FF47063FB6102233B6201237B620323A9
:104CB000BB620C23FB6207F11C031946574802F044
:104CC00067F84FF48053FB6100237B6207F11C03FC
:104CD0001946524802F05CF80423FB6101237B6211
:104CE00007F11C0319464E4802F052F84D4B4E4A4C
:104CF0001A604C4B4FF000625A604A4B00229A6097
:104D0000484B0022DA60474B4FF480621A61454BF2
:104D10004FF480525A61434B4FF480429A61414BA9
:104D20002022DA613F4B4FF440321A623D4B04229D
:104D30005A623C4B03229A623A4B4FF40002DA6209
:104D4000384B4FF400121A63364801F083FC0346D7
:104D5000002B01D0FEF782FB7B68324A1A64314A8D
:104D60007B689363314B324A1A60304B4FF00062DC
:104D70005A602E4B40229A602C4B0022DA602B4B5B
:104D80004FF480621A61294B4FF480525A61274BCD
:104D90004FF480429A61254B2022DA61234B4FF475
:104DA00040321A62214B04225A62204B03229A623B
:104DB0001E4B4FF40002DA621C4B4FF400121A63D0
:104DC0001A4801F047FC0346002B01D0FEF746FBD2
:104DD0007B68164ADA63154A7B68936300220521D3
:104DE0003B2001F000FC3B2001F019FC00220521D2
:104DF000452001F0F8FB452001F011FC00220521BF
:104E0000312001F0F0FB312001F009FC00BF303708
:104E1000BD4680BD002C0140003802400008024021
:104E2000000C0240244300205864024084430020C8
:104E3000A064024001604260014A8260704700BF86
:104E4000003C1CC638B505460C46FFF795F804EB48
:104E5000054407EE904AF8EE677AB2EE047AC7EEA0
:104E6000876A90ED920A90ED937AC6EE877A30EEDB
:104E7000670A38BD70B586B004460D46264B836080
:104E80000023ADF81430ADF816304068FDF72CFD66
:104E900080B3FFF771F890F8401290F84122B0F813
:104EA0004232B0F844024FF47A75029505AD01958F
:104EB00000902068FEF7F8FD024638BBBDF81610DA
:104EC000BDF81400FFF7BEFF10EE100A84ED020AD1
:104ED000BDF81450BDF81660FBF746FBCDE90001A4
:104EE00033462A460D490E48FDF7FAFB94ED020AB7
:104EF00006B070BD0B490A48FDF783FC0A4B1868E1
:104F000028609A889B79AA80AB71C2E70749044858
:104F1000FDF777FCEAE700BF003C1CC6C443070866
:104F2000300C002090430708EC450608E4430708CE
:104F300010B504460160426003814FF40072002105
:104F40000A305BF0D1FF204610BD006808B101B106
:104F500002B9704708B54FF47A7306F02FFF08BD09
:104F60002DE9F04782B0002944D0074615461E4679
:104F70008846012A40D901F0E7F981462A460021F6
:104F800040465BF0B1FF002408E05446002308F8D7
:104F90000430204602B0BDE8F087544601F0D4F951
:104FA000A0EB0900B042F1D26B1E9BB2A342EDD937
:104FB0000A2301220DF10701386806F08AFF002854
:104FC000ECD19DF8073004F1010A1FFA8AFA08F8BB
:104FD0000430BAF1030FE0D9084940465BF0BEFF48
:104FE0000028D2D1064940465BF0B8FF0028CCD15A
:104FF0005446D3E70024CCE70024CAE7FC43070863
:105000002C3407082DE9F04F83B0DDF830A00029DB
:105010003CD00746154698460E46CBB3012A39D9EF
:1050200001F092F981462A46002130465BF05CFF90
:10503000002401F089F9A0EB090CD44520D26B1EA5
:105040009BB2A3421CD90A2301220DF10701386843
:1050500006F03FFF0028ECD19DF8073004F1010B6A
:105060001FFA8BFB3355414630465BF077FF30B972
:10507000094930465BF072FF08B95C46D9E75C46E7
:1050800000233355204603B0BDE8F08F0024F9E734
:105090000024F7E70024F5E72C34070838B5044668
:1050A000094D0A492846FDF71BFB0122218960684A
:1050B00002F022F84FF47A6001F052F904492846D0
:1050C000FDF70EFB38BD00BF300C0020044407087C
:1050D0003044070810B5044606490748FDF700FBB1
:1050E00000222189606802F007F84FF4FA7001F09D
:1050F00037F910BD58440708300C0020002A37D07B
:10510000F0B5C1B005461C4616469BB339B30B46F5
:105110001A4A4FF4807168465BF048FD184F6A46A2
:1051200018493846FDF77CFB6846FBF7B1F882B2B8
:1051300069462846FFF709FF469B22463146284626
:10514000FFF70EFF324610493846FDF769FB0F495D
:1051500030465BF003FF20B1002041B0F0BD0C49A8
:10516000D5E70C4930465BF0F9FE28B90120F4E799
:10517000012070470120F0E70520EEE7844407088E
:10518000300C00208C44070898440708A444070802
:10519000403C07082C34070800B595B04FF4FA637B
:1051A0000093402304AA0B49FFF7A8FF0A4904A86B
:1051B0005BF0D4FE60B100228DF80F200DF10F02DC
:1051C00006495BF027FD9DF80F0015B05DF804FB64
:1051D0006320FAE7A8440708B0440708B844070862
:1051E00010B5A2B004464FF4FA630093802302AADC
:1051F0000A49FFF783FF58B94FF4FA6300938023FD
:1052000002AA07492046FFF779FF012022B010BD0E
:1052100004490548FDF7F5FA0020F7E7C4440708FC
:10522000E0440708CC440708300C0020F0B5E3B098
:105230000546FEF7A1FE064676497748FDF750FA87
:105240000024092C12D84FF4FA6300934FF48073B2
:1052500022AA72492846FFF751FF002844D04FF494
:10526000FA7001F07DF80134E4B2EAE70027002F7C
:105270003CD04FF4FA6300934FF4807322AA68493C
:105280002846FFF73BFF41F2883300934FF48073C9
:1052900022AA64492846FFF731FF634922A85BF040
:1052A0005DFE48B361495C48FDF71AFA00241D2CE5
:1052B00028D84FF4FA6300934FF4807322AA5C4914
:1052C0002846FFF71BFF5B4922A85BF047FED0B9D9
:1052D000594922A85BF042FEA8B94FF47A7001F058
:1052E0003FF80134E4B2E2E70127C0E753494A48F6
:1052F000FDF787FA01245BE051494748FDF781FA41
:10530000022455E00027002F55D02846FFF744FF20
:1053100002464C494048FDF7E3F92846FFF760FF95
:1053200041F2883400944FF4807322AA46492846FB
:10533000FFF7E4FE4FF4FA7001F012F800944FF416
:10534000807322AA41492846FFF7D8FE06F5EC7380
:105350003F4A802102A85BF029FC00944FF480733F
:1053600022AA02A92846FFF7C9FE96F8F83143BBE6
:1053700096F81832002B34D143F6982300934FF45B
:10538000807322AA33492846FFF7B8FE0446002856
:1053900039D141F2883300934FF4807322AA2E4909
:1053A0002846FFF7ABFE22AA2C491B48FDF798F9C7
:1053B000204663B0F0BD2A491748FDF722FA0324BE
:1053C000F6E706F5FC73274A802102A85BF0EEFBA6
:1053D00000944FF4807322AA02A92846FFF78EFE9C
:1053E000C6E706F50673204A802102A85BF0DEFBC3
:1053F00041F2883300934FF4807322AA02A9284611
:10540000FFF77CFEB8E719490348FDF7FAF90424D1
:10541000CEE700BFE4440708300C0020403C0708FA
:10542000284507082C450708344507084C45070858
:1054300058450708AC450708604507080C450708AC
:105440003C45070888450708A4450708B0450708F4
:10545000CC45070814460708304607083C460708AD
:1054600064450708E4450708FC4507082046070887
:105470002DE9F043ADF5477D06460F4690461C46A4
:10548000FEF77AFD002F00F0E3800546B8F1000F2B
:1054900000F0E08024B920460DF5477DBDE8F0839B
:1054A0004FF4FA6300934FF4007346AA6A493046FA
:1054B000FFF724FE4FF4967000F052FF41F288335C
:1054C00000934FF4007346AA64493046FFF716FE76
:1054D000002840F08F8040F6B839CDF800904FF4A6
:1054E000007346AA5E493046FFF708FE3B465D4A18
:1054F0004FF4807106A85BF059FBCDF800904FF493
:10550000007346AA06A93046FFF7F8FDCDF80090D3
:105510004FF4007346AA54493046FFF7EFFD95F863
:105520004131002B6CD12346504A4FF4807106A8BC
:105530005BF03CFB06A8FAF7ABFE82B206A9304648
:10554000FFF703FD4A4D41F2883300932B464FF499
:10555000007246A93046FFF755FD294646A85BF084
:10556000FDFC00285ED0224642494348FDF7B8F8CA
:10557000224641463046FFF7E8FC42F210730093A2
:105580003E4B4FF4007246A93046FFF73BFD112217
:105590003B493046FFF7D9FC3A4C47F23053009371
:1055A00023464FF4007246A93046FFF72BFD2146F3
:1055B00046A85BF0D3FC002844D000230393049357
:1055C00005AD0593009504AB03AA2F495BF022FBC0
:1055D000049A94B2059B2D492748FDF781F840F6BF
:1055E000B83300934FF4007346AA1B493046FFF7C7
:1055F00085FD50E726492048FDF703F900244AE7D6
:1056000005F24113234A4FF4807106A85BF0CEFAED
:10561000CDF800904FF4007346AA06A93046FFF774
:105620006DFD80E71C491448FDF7EBF840F6B833F0
:1056300000934FF4007346AA07493046FFF75EFD1A
:10564000002428E715490C48FDF7DBF80024C6E7DD
:10565000002420E700241EE7544607086046070898
:105660008046070894460708AC4607080447070821
:105670001C47070840470708300C0020A4440708CF
:10568000684707087C4707088C470708A4470708AE
:105690006C460708D446070828470708CC47070880
:1056A00010B592B004464FF4FA630093402302AA67
:1056B0000849FFF723FD41F288330093402302AAF3
:1056C00005492046FFF71AFD04490548FDF708F88B
:1056D00012B010BD54460708A4450708EC47070858
:1056E000300C002080B500AF174B184A1A60164BDB
:1056F0004FF482725A60144B00229A60124B0022BF
:10570000DA60114B00221A610F4B00225A610E4BD6
:105710004FF400729A610C4B2822DA610A4B002286
:105720001A62094B00225A62074B00229A62064B0A
:105730000A22DA62044805F067FC0346002B01D018
:10574000FDF78CFE00BF80BDE44300200030014027
:1057500080B58AB000AF786007F1140300221A60A8
:105760005A609A60DA601A617B681B68194A934232
:105770002BD100233B61184B5B6C174A43F48053D9
:105780005364154B5B6C03F480533B613B6900230E
:10579000FB60114B1B6B104A43F0010313630E4B6C
:1057A0001B6B03F00103FB60FB68E0237B610223BA
:1057B000BB610023FB6103233B6205237B6207F18E
:1057C00014031946054801F0E3FA00BF2837BD4627
:1057D00080BD00BF003001400038024000000240A0
:1057E00080B582B000AF00237B60104B5B6C0F4A2A
:1057F00043F4804353640D4B5B6C03F480437B6044
:105800007B6800233B60094B1B6C084A43F08053C4
:105810001364064B1B6C03F080533B603B68032012
:1058200000F0D6FE00BF0837BD4680BD00380240FC
:1058300080B58EB000AF786007F1240300221A60B3
:105840005A609A60DA601A617B681B684C4A93421E
:105850002DD100233B624B4B5B6C4A4A43F0100353
:105860005364484B5B6C03F010033B623B6A0023BC
:10587000FB61444B1B6B434A43F001031363414BF1
:105880001B6B03F00103FB61FB694FF4C0637B6298
:105890000223BB620123FB6203233B6307237B6379
:1058A00007F124031946384801F072FA63E07B6877
:1058B0001B68364A93422CD10023BB61314B1B6CD1
:1058C000304A43F4003313642E4B1B6C03F4003353
:1058D000BB61BB6900237B612A4B1B6B294A43F0E8
:1058E00001031363274B1B6B03F001037B617B698F
:1058F0000C237B620223BB620123FB6203233B6315
:1059000007237B6307F1240319461F4801F040FA7F
:1059100031E07B681B681E4A93422CD100233B6117
:10592000184B1B6C174A43F480231364154B1B6CF4
:1059300003F480233B613B690023FB60114B1B6B2D
:10594000104A43F0020313630E4B1B6B03F0020378
:10595000FB60FB684FF440637B620223BB62012360
:10596000FB6203233B6307237B6307F12403194690
:10597000084801F00DFA00BF3837BD4680BD00BFB2
:105980000010014000380240000002400044004086
:10599000004800400004024080B58AB000AF786043
:1059A0007B681B681D4A934233D100233B611C4B2B
:1059B0001B6C1B4A43F400131364194B1B6C03F458
:1059C00000133B613B690023FB60154B1B6B144AC2
:1059D00043F002031363124B1B6B03F00203FB60E3
:1059E000FB6807F1140300221A605A609A60DA60BB
:1059F0001A61C0237B611223BB610123FB61032376
:105A00003B6204237B6207F114031946054801F049
:105A1000BFF900BF2837BD4680BD00BF005400401D
:105A2000003802400004024080B582B000AF7860C8
:105A30007B681B68084A93420AD1084B01221A600E
:105A400000220121032000F0CEFD032000F0E7FD3D
:105A500000BF0837BD4680BD002800403C0E4742CD
:105A600080B584B000AF78607B681B680E4A9342B3
:105A700015D10023FB600D4B1B6C0C4A43F0100347
:105A800013640A4B1B6C03F01003FB60FB680022DD
:105A90000221362000F0A7FD362000F0C0FD00BF37
:105AA0001037BD4680BD00BF0010004000380240E6
:105AB00080B400AFFEE780B400AFFEE780B400AF73
:105AC000FEE780B400AFFEE780B400AFFEE780B42D
:105AD00000AF00BFBD465DF8047B704780B400AFE7
