:020000040800F2
:10000000000002203D4E0008E5460008EB460008CF
:10001000F1460008F7460008FD4600080000000011
:10002000000000000000000000000000034700087E
:1000300011470008000000001F4700082D47000876
:100040008D4E00088D4E00088D4E0008394700087F
:100050008D4E00088D4E00088D4E00088D4E000814
:100060008D4E00088D4E00088D4E00088D4E000804
:100070008D4E00088D4E00088D4E00088D4E0008F4
:100080008D4E00088D4E00088D4E00088D4E0008E4
:100090008D4E00088D4E00088D4E00088D4E0008D4
:1000A0008D4E00088D4E00088D4E00088D4E0008C4
:1000B0008D4E00088D4E00088D4E00088D4E0008B4
:1000C0008D4E00088D4E00088D4E00088D4E0008A4
:1000D0008D4E00088D4E00088D4E00088D4E000894
:1000E0008D4E00088D4E00088D4E00088D4E000884
:1000F0008D4E00088D4E00088D4E00088D4E000874
:100100008D4E00084D4700088D4E00088D4E0008AA
:100110008D4E00088D4E0008614700088D4E000886
:100120008D4E00088D4E00088D4E00087547000862
:100130008D4E00088D4E00088D4E00088D4E000833
:100140008D4E00088D4E00088D4E00088D4E000823
:100150008D4E0008894700088D4E00088D4E00081E
:100160008D4E00088D4E00088D4E00088D4E000803
:100170008D4E00088D4E00088D4E000800000000D6
:080180008D4E00088D4E0008B1
:1001900010B5054C237833B9044B13B10448AFF3C1
:1001A00000800123237010BD3802002000000000F1
:1001B0002414060808B5034B1BB103490348AFF3E9
:1001C000008008BD000000003C0200202414060846
:1001D00001F0FF01102A2BDB10F0070F08D010F8F8
:1001E000013B013A8B422DD010F0070F42B3F6D1FC
:1001F000F0B441EA012141EA014122F007047FF015
:1002000000070023F0E80256083C85EA010586EA6B
:10021000010685FA47F5A3FA87F586FA47F6A5FAA7
:1002200087F68EB9EED1F0BC01F0FF0102F00702B3
:1002300032B110F8013B013A83EA010313B1F8D15E
:100240000020704701387047002D06BF354603383F
:10025000073815F0010F07D1013015F4807F02BF78
:10026000013015F4C03F0130F0BC0138704700BFC9
:10027000034613F8012B002AFBD1181A01387047E6
:1002800081F0004102E000BF83F0004330B54FEA47
:1002900041044FEA430594EA050F08BF90EA020FB4
:1002A0001FBF54EA000C55EA020C7FEA645C7FEA47
:1002B000655C00F0E2804FEA5454D4EB5555B8BF6A
:1002C0006D420CDD2C4480EA020281EA030382EADB
:1002D000000083EA010180EA020281EA0303362D6D
:1002E00088BF30BD11F0004F4FEA01314FF4801C40
:1002F0004CEA113102D0404261EB410113F0004F52
:100300004FEA03334CEA133302D0524263EB430308
:1003100094EA050F00F0A780A4F10104D5F1200EA6
:100320000DDB02FA0EFC22FA05F2801841F1000101
:1003300003FA0EF2801843FA05F359410EE0A5F1D5
:1003400020050EF1200E012A03FA0EFC28BF4CF006
:10035000020C43FA05F3C01851EBE37101F00045BC
:1003600007D54FF0000EDCF1000C7EEB00006EEBC9
:100370000101B1F5801F1BD3B1F5001F0CD3490853
:100380005FEA30004FEA3C0C04F101044FEA4452AA
:1003900012F5800F80F09A80BCF1004F08BF5FEA31
:1003A000500C50F1000041EB045141EA050130BD11
:1003B0005FEA4C0C404141EB0101013C28BFB1F523
:1003C000801FE9D291F0000F04BF01460020B1FA6E
:1003D00081F308BF2033A3F10B03B3F120020CDA41
:1003E0000C3208DD02F1140CC2F10C0201FA0CF01F
:1003F00021FA02F10CE002F11402D8BFC2F1200C84
:1004000001FA02F120FA0CFCDCBF41EA0C01904039
:10041000E41AA2BF01EB0451294330BD6FEA040482
:100420001F3C1CDA0C340EDC04F11404C4F120026D
:1004300020FA04F001FA02F340EA030021FA04F37F
:1004400045EA030130BDC4F10C04C4F1200220FAD6
:1004500002F001FA04F340EA0300294630BD21FA14
:1004600004F0294630BD94F0000F83F4801306BFDA
:1004700081F480110134013D4EE77FEA645C18BFCE
:100480007FEA655C29D094EA050F08BF90EA020F65
:1004900005D054EA000C04BF1946104630BD91EA5D
:1004A000030F1EBF0021002030BD5FEA545C05D160
:1004B0004000494128BF41F0004130BD14F580049F
:1004C0003CBF01F5801130BD01F0004545F0FE4113
:1004D00041F470014FF0000030BD7FEA645C1ABF48
:1004E000194610467FEA655C1CBF0B46024650EA7F
:1004F000013406BF52EA033591EA030F41F40021AB
:1005000030BD00BF90F0000F04BF0021704730B530
:100510004FF4806404F132044FF000054FF0000105
:1005200050E700BF90F0000F04BF0021704730B5C6
:100530004FF4806404F1320410F0004548BF40429B
:100540004FF000013EE700BF42004FEAE2014FEAF0
:1005500031014FEA02701FBF12F07F4393F07F4FCB
:1005600081F06051704732F07F4208BF704793F0CE
:100570007F4F04BF41F40021704730B54FF46074E1
:1005800001F0004521F000411CE700BF50EA0102E4
:1005900008BF704730B54FF000050AE050EA01028D
:1005A00008BF704730B511F0004502D5404261EBFD
:1005B00041014FF4806404F132045FEA915C3FF43E
:1005C000D8AE4FF003025FEADC0C18BF03325FEADB
:1005D000DC0C18BF033202EBDC02C2F1200300FA8C
:1005E00003FC20FA02F001FA03FE40EA0E0021FAB1
:1005F00002F11444BDE600BF70B54FF0FF0C4CF49F
:10060000E06C1CEA11541DBF1CEA135594EA0C0F50
:1006100095EA0C0F00F0DEF82C4481EA030621EA8B
:100620004C5123EA4C5350EA013518BF52EA0335C6
:1006300041F4801143F4801338D0A0FB02CE4FF078
:100640000005E1FB02E506F00042E0FB03E54FF0A8
:100650000006E1FB03569CF0000F18BF4EF0010EA0
:10066000A4F1FF04B6F5007F64F5407404D25FEA9C
:100670004E0E6D4146EB060642EAC62141EA55514F
:100680004FEAC52040EA5E504FEACE2EB4F1FD0C91
:1006900088BFBCF5E06F1ED8BEF1004F08BF5FEA0F
:1006A000500E50F1000041EB045170BD06F00046C1
:1006B00046EA010140EA020081EA0301B4EB5C046E
:1006C000C2BFD4EB0C0541EA045170BD41F4801166
:1006D0004FF0000E013C00F3AB8014F1360FDEBF8B
:1006E000002001F0004170BDC4F10004203C35DA67
:1006F0000C341BDC04F11404C4F1200500FA05F3EA
:1007000020FA04F001FA05F240EA020001F000428A
:1007100021F0004110EBD37021FA04F642EB060100
:100720005EEA430E08BF20EAD37070BDC4F10C042A
:10073000C4F1200500FA04F320FA05F001FA04F2EE
:1007400040EA020001F0004110EBD37041F10001DA
:100750005EEA430E08BF20EAD37070BDC4F12005E5
:1007600000FA05F24EEA020E20FA04F301FA05F24D
:1007700043EA020321FA04F001F0004121FA04F2F5
:1007800020EA020000EBD3705EEA430E08BF20EAC5
:10079000D37070BD94F0000F0FD101F000464000FF
:1007A00041EB010111F4801F08BF013CF7D041EA81
:1007B000060195F0000F18BF704703F00046520085
:1007C00043EB030313F4801F08BF013DF7D043EA56
:1007D0000603704794EA0C0F0CEA135518BF95EA0C
:1007E0000C0F0CD050EA410618BF52EA4306D1D193
:1007F00081EA030101F000414FF0000070BD50EAB2
:10080000410606BF1046194652EA430619D094EA3B
:100810000C0F02D150EA013613D195EA0C0F05D125
:1008200052EA03361CBF104619460AD181EA030179
:1008300001F0004141F0FE4141F470014FF0000031
:1008400070BD41F0FE4141F4780170BD70B54FF0CC
:10085000FF0C4CF4E06C1CEA11541DBF1CEA13554C
:1008600094EA0C0F95EA0C0F00F0A7F8A4EB05042E
:1008700081EA030E52EA03354FEA013100F0888025
:100880004FEA03334FF0805545EA131343EA1263EE
:100890004FEA022245EA111545EA10654FEA0026A3
:1008A0000EF000419D4208BF964244F1FD0404F55C
:1008B000407402D25B084FEA3202B61A65EB0305B8
:1008C0005B084FEA32024FF480104FF4002CB6EB75
:1008D000020E75EB030E22BFB61A754640EA0C00F5
:1008E0005B084FEA3202B6EB020E75EB030E22BF35
:1008F000B61A754640EA5C005B084FEA3202B6EB76
:10090000020E75EB030E22BFB61A754640EA9C0034
:100910005B084FEA3202B6EB020E75EB030E22BF04
:10092000B61A754640EADC0055EA060E18D04FEAC2
:10093000051545EA16754FEA06164FEAC30343EA62
:1009400052734FEAC2025FEA1C1CC0D111F4801F2F
:100950000BD141EA00014FF000004FF0004CB6E728
:1009600011F4801F04BF01430020B4F1FD0C88BFC7
:10097000BCF5E06F3FF6AFAEB5EB030C04BFB6EBD2
:10098000020C5FEA500C50F1000041EB045170BDC5
:100990000EF0004E4EEA113114EB5C04C2BFD4EBF2
:1009A0000C0541EA045170BD41F480114FF0000E76
:1009B000013C90E645EA060E8DE60CEA135594EAF2
:1009C0000C0F08BF95EA0C0F3FF43BAF94EA0C0FF5
:1009D0000AD150EA01347FF434AF95EA0C0F7FF46A
:1009E00025AF104619462CE795EA0C0F06D152EABE
:1009F00003353FF4FDAE1046194622E750EA4106A2
:100A000018BF52EA43067FF4C5AE50EA41047FF4B2
:100A10000DAF52EA43057FF4EBAE12E74FF0FF3C17
:100A200006E000BF4FF0010C02E000BF4FF0010CE8
:100A30004DF804CD4FEA410C7FEA6C5C4FEA430C61
:100A400018BF7FEA6C5C1BD001B050EA410C0CBFB0
:100A500052EA430C91EA030F02BF90EA020F002012
:100A6000704710F1000F91EA030F58BF994208BF79
:100A700090422CBFD8176FEAE37040F00100704736
:100A80004FEA410C7FEA6C5C02D150EA013C07D18D
:100A90004FEA430C7FEA6C5CD6D152EA033CD3D0D8
:100AA0005DF8040B704700BF8446104662468C46D2
:100AB0001946634600E000BF01B5FFF7B7FF002805
:100AC00048BF10F1000F01BD4DF808EDFFF7F4FF2E
:100AD0000CBF012000205DF808FB00BF4DF808EDB9
:100AE000FFF7EAFF34BF012000205DF808FB00BFDC
:100AF0004DF808EDFFF7E0FF94BF012000205DF8FE
:100B000008FB00BF4DF808EDFFF7CEFF94BF0120B2
:100B100000205DF808FB00BF4DF808EDFFF7C4FFAB
:100B200034BF012000205DF808FB00BF4FEA410CF4
:100B30007FEA6C5C02D150EA013C0AD14FEA430CD7
:100B40007FEA6C5C02D152EA033C02D14FF0000014
:100B500070474FF0010070474FEA410212F5001252
:100B600015D211D56FF47873B3EB625212D94FEAF4
:100B7000C12343F0004343EA505311F0004F23FADE
:100B800002F018BF404270474FF00000704750EA33
:100B9000013005D111F0004008BF6FF000407047F0
:100BA0004FF00000704700BF7BB972B90029BEBF8B
:100BB00000204FF0004106E008BF00281CBF6FF086
:100BC00000414FF0FF3000F0BBB9ADF1080C6DE90A
:100BD00004CE002909DB002B1ADB00F04DF8DDF80C
:100BE00004E0DDE9022304B07047404261EB4101BB
:100BF000002B1BDB00F040F8DDF804E0DDE9022308
:100C000004B0404261EB4101524263EB4303704741
:100C1000524263EB430300F02FF8DDF804E0DDE916
:100C2000022304B0404261EB41017047524263EB42
:100C3000430300F021F8DDF804E0DDE9022304B00D
:100C4000524263EB4303704753B94AB9002908BFC6
:100C500000281CBF4FF0FF314FF0FF3000F070B99B
:100C6000ADF1080C6DE904CE00F006F8DDF804E003
:100C7000DDE9022304B070472DE9F047089E0D46D8
:100C800004460F46002B4AD18A42944665D9B2FAEF
:100C900082F343B102FA03FCC3F120029F4020FA21
:100CA00002F217439C404FEA1C4E1FFA8CF5B7FB2B
:100CB000FEF1220C0EFB117742EA074201FB05F020
:100CC00090420AD91CEB020201F1FF3780F01C812F
:100CD000904240F2198102396244121AA4B2B2FB66
:100CE000FEF00EFB102244EA024400FB05F5A5428B
:100CF0000AD91CEB040400F1FF3280F00781A54201
:100D000040F204816444023840EA0140641B00213F
:100D10001EB1DC400023C6E90043BDE8F0878B42EA
:100D200008D9002E00F0ED800021C6E90005084634
:100D3000BDE8F087B3FA83F1002949D1AB4202D371
:100D4000824200F2F880841A65EB03020120174604
:100D5000002EE2D0C6E90047DFE702B9FFDEB2FAB3
:100D600082F3002B40F090808A1A4FEA1C471FFA4A
:100D70008CFE0121B2FBF7F507FB1520220C42EA9D
:100D800000420EFB05F0904208D91CEB020205F16F
:100D9000FF3802D2904200F2CB804546121AA4B22C
:100DA000B2FBF7F007FB102244EA02440EFB00FE00
:100DB000A64508D91CEB040400F1FF3202D2A64577
:100DC00000F2BB801046A4EB0E0440EA05409FE70A
:100DD000C1F120078B4022FA07FC4CEA030C05FA0C
:100DE00001F420FA07F3FD404FEA1C492343B5FB09
:100DF000F9F81FFA8CFE09FB18551C0C44EA05444F
:100E000008FB0EF5A54202FA01F200FA01F00BD937
:100E10001CEB040408F1FF3A80F08880A54240F200
:100E20008580A8F102086444641B9DB2B4FBF9F309
:100E300009FB134445EA044403FB0EFEA64508D90A
:100E40001CEB040403F1FF356CD2A6456AD9023BC2
:100E5000644443EA0843A3FB0295A4EB0E04AC42AE
:100E6000C846AE4656D353D056B1B0EB080264EB39
:100E70000E0404FA07F7CA40CC401743C6E90074D1
:100E800018460021BDE8F087C3F1200102FA03FCF7
:100E900020FA01F225FA01F19D402A434FEA1C474E
:100EA0001FFA8CFEB1FBF7F007FB1015110C41EA9D
:100EB000054100FB0EF58D4204FA03F408D91CEB42
:100EC000010100F1FF382FD28D422DD90238614443
:100ED000491B92B2B1FBF7F507FB151142EA01423B
:100EE00005FB0EF1914208D91CEB020205F1FF3817
:100EF00016D2914214D9023D6244521A45EA004189
:100F000038E73146304608E73946E6E61046FBE664
:100F10004845A9D2B9EB020865EB0C0E013BA3E7EB
:100F20004546EAE72B4694E74046D1E7D0467BE7C3
:100F3000023D624432E708460AE76444023842E769
:100F4000704700BF012801D0014870470148704731
:100F500030F8060824F80608024680B1037813B971
:100F600000207047013213783BB1A3F13001092909
:100F7000F8D92E2BF6D000207047012070470020B2
:100F80007047000008B50121034804F0A7FE08B926
:100F9000012008BD0020FCE70004024030B583B00A
:100FA00004460121084804F099FE0546FFF7EAFFD0
:100FB000FFF7C8FF00902B4622460449044800F082
:100FC000A9FE03B030BD00BF0004024040F806088F
:100FD0009809002000B583B000238DF807300DF18B
:100FE000070117200FF0D4FD9DF80700003818BF47
:100FF000012003B05DF804FB10B50F4B1B785BB903
:101000000E490F4800F086FE4FF4FA520D490A4887
:1010100003F074FD044628B1FFF7DCFF044630B14D
:10102000204610BD0849064800F0F6FEF8E70749DB
:10103000034800F0F1FEF3E75402002060F80608D0
:10104000980900204839002070F8060884F806083E
:1010500078B138B50C46054669B10846FFF708F97E
:101060000246214628465DF05AFCB0FA80F040095D
:1010700038BD002070470020FAE7000000285CD04F
:1010800070B50D460446C222002128465DF032FCB0
:101090005023A5F8C03007222C4920465DF03FFCC4
:1010A00000284CD1E11D0C4600E0013423781BB12F
:1010B0002F2B01D03A2BF8D1661A731E3E2B01D983
:1010C00000203DE0324628465DF0E3FD0023AB55AD
:1010D00023783A2B0BD023780BB32F2B33D1204618
:1010E000FFF7C6F8431E7E2B1FD9002028E00134ED
:1010F000002306E003EB830302EB4302A2F130037B
:1011000001342278A2F13001C9B20929F2D9591E5D
:101110004FF6FE72914214D8A5F8C030DBE70C4BB5
:101120001B88A5F8403001200AE0421C214605F149
:1011300040005DF0AEFD012002E00020704700207D
:1011400070BD0020FCE70020FAE700BF94F8060815
:101150009CF80608F0B58FB004460E46FFF7FCFE7B
:10116000074600282FD0002303930493059306938A
:1011700006AB019305AB009304AB03AA20492046BC
:101180005DF04EFA042812D1039BFF2B13D8049A6A
:10119000FF2A12D8059AFF2A11D8069AFF2A10D8DA
:1011A0003370049B7370059BB370F27000E00027EE
:1011B00038460FB0F0BD0027FAE70027F8E7002710
:1011C000F6E70027F4E70025089509950A950B95A1
:1011D0000C95CDF8335008A810F0E4F80949012027
:1011E00012F008F9079507AA21460DF1320012F016
:1011F0001DF90128DCD1079B33600127D8E700BF28
:10120000A0F80608980400202DE9F041ADF54E7DC8
:1012100006460C4690461F46D49DC22268499DA8AA
:101220005DF037FD9DA93046FFF728FF002800F04C
:10123000C08000239C939CA99DA8FFF78BFF0028EA
:1012400000F0BA8000234CF25032012118460EF013
:1012500089FA40BBBDF834239CA900200EF024FC81
:10126000012826D10CB123784BBB01979DAB00938D
:10127000ADAB544A4FF4167106A85DF09DF90646D1
:10128000013840F25623984225D80024A64228D996
:10129000321B92B206AB191900200EF08DFD00280A
:1012A0002FDD0444F2E700200EF090FB6FF01300F6
:1012B0007BE000200EF08AFB6FF0140075E00297CF
:1012C00001949DAB0093ADAB3F4A4FF4167106A855
:1012D0005DF072F9D3E700200EF078FB6FF0150097
:1012E00063E0002484B90026B74215D9BA1B92B234
:1012F00008EB060100200EF05FFD00280ADD064421
:10130000F2E74FF0FF34EDE700200EF05FFB6FF0E7
:1013100016004AE04FF0FF341CB903F01FFE0646EA
:101320000EE000200EF052FB6FF017003DE0274961
:1013300027485DF019FB03461CE0022003F01AFE6B
:1013400003F00CFE801BA84227D2C4F53F72033283
:1013500092B21F49214400200EF082FE0028ECDDED
:1013600004441B48002303551A495DF0FDFA034667
:101370000028DCD0002BE3D00022059205AA1649F4
:1013800018465DF04DF90128DAD100200EF092FCEC
:1013900000200EF01BFB059807E000200EF08AFCF1
:1013A00000200EF013FB6FF01D000DF54E7DBDE823
:1013B000F0816FF00900F8E76FF00A00F5E700BF71
:1013C0004014060830F90608B0F80608A4F9060823
:1013D0009806002098F90608B0F906082DE9F041B2
:1013E0000646324900F03DFD351D4FF48053304A2A
:1013F0003049284601F091FD04232F4A2F4906F178
:10140000100002F0E9FB06F5077740F26442002184
:1014100038465DF06FFA002486F81C424FF40C78D1
:101420004246214606F508705DF064FA42462146C0
:1014300006F58A605DF05EFA3246294606F5D06010
:1014400002F054FB06F28C654FF4417221462846A7
:101450005DF050FA214600E0013101EB410305EB5C
:10146000830300221A6000221A715A719A710120B6
:10147000D8711872587218209872DA723F29EBD11D
:10148000002485F800433A460D4906F5196001F03D
:101490004FFE86F89C494FF40052214606F69D10F7
:1014A0005DF028FA3046BDE8F08100BF70360020BC
:1014B00000040240BC3700200008024074370020BE
:1014C000C436002008B50121034804F007FC0128B8
:1014D00000D0002008BD00BF0008024008B501226E
:1014E0000221024804F012FC08BD00BF00080240BF
:1014F00008B500220221024804F008FC08BD00BF24
:1015000000080240F8B506460F46154600240DE0D7
:101510003046FFF7E3FF284603F02CFD3046FFF787
:10152000E7FF284603F026FD0134E4B2BC42EFD3C6
:10153000F8BD000038B50446234B244A2449254809
:1015400000F0E8FB204600F0FFFC201D01F018FD34
:1015500004F5077001F0B2FE04F1100002F00EFC79
:101560002046FFF7AFFF84F89C0901281BD01A4AD8
:101570001A49184800F0CEFB1948FFF70FFD94F800
:101580009C39012B11D0134D1649284600F0C2FB9F
:1015900005221549284600F0BDFBC822032120463C
:1015A000FFF7B0FF38BD114AE2E70A4D104928465F
:1015B00000F0B0FB05220C49284600F0ABFB2046AA
:1015C000FFF78CFFEEE700BFCCF90608D8F9060854
:1015D000E4F9060898090020C4F90608FCF9060891
:1015E00008FA060844FA06082CFA0608BCF90608A8
:1015F00010FA06082DE9F04385B00646FFF7C2FC55
:10160000074642E053B10122039B0093029B5049DD
:10161000504800F001FC05B0BDE8F0830022F3E77C
:101620004D494C4800F0F8FBF5E72046FEF720FE58
:1016300044F62063009383B222464849484800F0AC
:1016400073FE044602464749424800F063FB14E03B
:101650004549404800F0E0FBDDE72046FEF708FE84
:1016600083B222463E4906F1100002F025FD0246F3
:1016700004463E49374800F04DFBC82C5ED1039923
:10168000284601F0F7FF002853D006F507752846D5
:1016900001F05AFE002856D000230293039306F669
:1016A0009D1403AB019302AB00934FF4E1634FF43D
:1016B00000522146284601F02FFF03460028A1D002
:1016C000DDF80880B8F1000F9CD0DDF80C90B9F17E
:1016D000000F97D02046FEF7CBFD00904B464246C8
:1016E00023491C4800F016FB012FB6D1FFF784FCFC
:1016F000002895D01F491A48FFF7AAFC002894D16A
:101700001D491748FFF7A4FC0028A1D02046FEF78A
:10171000AFFD43F69823009383B222460F49104849
:10172000FFF772FD0446024614490A4800F0F2FA37
:10173000A3E71349074800F06FFB6CE71149054820
:1017400000F06AFB67E71049024800F0E3FA62E73D
:1017500090FB060898090020F4FB0608C81107084A
:1017600028FB060840FC060860FC060888FC060802
:10177000C0FB060834FC060894F8060850FC06086E
:1017800098FC0608B4FC0608D4FC060838B50546E3
:10179000FFF7F8FB044601281DD01C4A1C491D48D0
:1017A00000F0B8FA012C18D005F11004204602F020
:1017B000C9FA204602F08EFBF8B92846FFF71AFF57
:1017C000204602F087FD204602F0D8FA124911485F
:1017D00000F0A0FA38BD114AE0E7FFF70DFC20B990
:1017E0000F490C4800F018FBF4E72846FFF702FF0A
:1017F0000949084800F08EFAECE70A49054800F06C
:101800000BFB204602F0BAFAE4E700BF0CFD060825
:1018100010FD06089809002070FD060808FD06085E
:1018200048FD0608B0FD060880B5ADF5127D0446FA
:1018300001254FF0000888E0AA4803F0F9F989E093
:10184000DFF80493B8F1000F40F09180A64B93E8C5
:1018500003000890ADF82410090C8DF8261008A993
:1018600004F5D06002F062F910EE106A0AAD0023B0
:101870000A930B930C930D930E930F931093119364
:101880009DF825309DF824209DF822109DF8210018
:101890009DF82070049703900291019200939DF8A7
:1018A0002630924A202128465CF086FE3046FEF71C
:1018B0004BFE06460F46009502460B468C498D4866
:1018C00000F0B9FA322201212046FFF71BFE9DF8F5
:1018D00026309DF825209DF824109DF822009DF8C3
:1018E00021509DF820C0CDF81CC0069505900491AC
:1018F00003920293CDE900677F4B804A4FF48071D9
:1019000012A85CF059FE002844DCB8F1000F4DD15C
:101910002046FFF73BFF94F89C39002B40F0D6801F
:10192000744D05227649284600F0F4F92046FFF769
:10193000DFFD052104F5196001F002FC714928461C
:1019400000F0E8F94FF001080025664B1B78002BEA
:101950007FF472AF2046FFF7B5FD84F89C0905B10E
:10196000A846002D3FF46CAFDFF8E0916AE7664EC1
:10197000604D3146284600F0CDF94A466349284675
:1019800000F0C8F94846FFF709FB3146284600F049
:10199000C1F95BE712A904F5077001F0EDFC00281E
:1019A000B3D15B49534800F037FAAEE7FFF7EAFAE4
:1019B00005469DF826309DF825209DF824109DF8B9
:1019C00022009DF821C09DF820E0CDF81CE0CDF864
:1019D00018C00590049103920293CDE90067464B2D
:1019E0004C4A4FF4807152A85CF0E6FD431EFE2B7A
:1019F00066D8012D1FD004F11005284602F0A2F987
:101A0000284602F067FA002854D152A8FEF730FCAD
:101A100083B252AA4049284602F04EFB03464A468A
:101A20003E49344800F076F9284602F053FC284637
:101A300002F0A4F96CE7FFF7DFFAE0B13849364865
:101A4000FFF706FBE8B937493348FFF701FB58B306
:101A500052A8FEF70DFC43F69823009383B252AAD6
:101A600031492D48FFF7D0FB03464A462F4921480C
:101A700000F050F94CE74A462D491E4800F0CCF9D9
:101A800046E752A8FEF7F4FB44F62063009383B2C6
:101A900052AA2549204800F047FC03464A462549FA
:101AA000144800F037F933E74A462349114800F05B
:101AB000B3F92DE74A4621490E4800F0ADF9B6E7E3
:101AC0004A461F490B4800F0A7F921E705221D49A6
:101AD000084800F01FF941F2883003F04BFA4FF04C
:101AE000000831E7540200200415060878FE0608B5
:101AF000A0FE060898090020A8FA0608B0FE06080D
:101B0000F8FF060810000708F8FD060844FE06085E
:101B100004FF0608D0FA060828FB0608A0FF0608FE
:101B200034FC060894F80608C811070860FF060888
:101B30001CFF060844FF06087CFF0608B8FF0608DD
:101B4000DCFF06082C000708F0FD0608E8FD060883
:101B500010B5044640F8041B4FF4967200215CF067
:101B6000C9FE012384F83031204610BD012800D081
:101B7000704708B54FF6FF73994200D008BD02497F
:101B80000248FFF7E5FFF9E72C370020980900200D
:101B9000006800B102B9704708B5C82308F00EFD0F
:101BA00008BD38B590F8303153B105460C4639B10F
:101BB0000846FEF75DFB82B221462846FFF7E8FFA4
:101BC00038BD000008B50249FFF7EBFF08BD00BFB4
:101BD000480007082DE9F04383B01E4690F83031E5
:101BE00013B903B0BDE8F08307460C46914600F1F7
:101BF000040803F0B3F9034601960094154A4FF424
:101C0000967140465CF0D8FC054600240BE019F8BC
:101C10000430114AC5F5967108EB05005CF0CCFC68
:101C200005440134A4B2B44202D2B5F5927FEEDB92
:101C30006B1C7A190D211171AA1C3B440A211971E0
:101C4000BB180021197192B241463846FFF7A0FF38
:101C5000C7E700BF94000708B4000708032809D8A5
:101C6000DFE800F0020A04060448704704487047A1
:101C7000044870470448704704487047BC00070890
:101C8000CC000708D4000708DC000708C4000708D8
:101C90002DE9F04383B090F8305115B903B0BDE899
:101CA000F0830446894690461F46061D03F056F908
:101CB00005464846FFF7D2FF00902B46144A4FF4E2
:101CC000967130465CF078FC051EE7DB3B464246E9
:101CD000C5F5947170195CF03FFD021E16DB2A44B5
:101CE000B2F5947F01DD4FF49472531CA1180D20BE
:101CF0000871023223440A211971A31800211971B5
:101D000092B231462046FFF743FFC7E70022E6E7DD
:101D1000E40007080EB400B582B003AB53F8042BFF
:101D200001930021FFF7B4FF02B05DF804EB03B0AC
:101D30007047000038B50446642003F01BF92046C4
:101D4000FFF740FF26492046FFF72BFF2549204695
:101D5000FFF727FF24492046FFF723FF23492046AA
:101D6000FFF71FFF22492046FFF71BFF21492046AE
:101D7000FFF717FF20492046FFF7CCFF05F002FBD5
:101D80001E4DA5FB0032920C1D492046FFF7C2FFF5
:101D900005F0FEFBA5FB0032920C1A492046FFF726
:101DA000B9FF05F001FCA5FB0032920C1649204654
:101DB000FFF7B0FF05F00CFCA5FB0052920C134995
:101DC0002046FFF7A7FF12492046FFF7A3FF11495E
:101DD0002046FFF79FFF2046FFF7F4FE38BD00BF07
:101DE000F40007082801070868010708AC01070884
:101DF000EC0107082CF906082C02070883DE1B43B8
:101E00004C020708600207087402070888020708E6
:101E10009C020708C80207080EB400B582B003ABE5
:101E200053F8042B01930221FFF732FF02B05DF853
:101E300004EB03B070470EB400B582B003AB53F8A7
:101E4000042B01930321FFF723FF02B05DF804EB9D
:101E500003B0704708B54FF6FF710120FFF786FE0B
:101E600008BD01607047030903EB830300F00F0016
:101E700000EB4300C0B2704710B586B00C46006856
:101E8000642302930723019304AB009301230022F0
:101E9000D02104F0B3F888BB9DF8100000F07F005B
:101EA000FFF7E1FF20709DF8110000F07F00FFF7C1
:101EB000DAFF60709DF8120000F03F00FFF7D3FFDB
:101EC000A0709DF8130000F00700FFF7CCFFE07052
:101ED0009DF8140000F03F00FFF7C5FF20719DF84A
:101EE000150000F01F00FFF7BEFF60719DF816009F
:101EF000FFF7B9FFA071012006B010BD0020FBE77D
:101F000000B587B00068642302930223019305ABF8
:101F1000009301231122D02104F070F89DF91430B0
:101F200000EE103AB8EEC00A9DF815309B0907EE96
:101F3000903AF8EEE77AB5EE007A67EE877A30EEFF
:101F4000270A07B05DF804FB10B586B00446642389
:101F50000322D021006804F083FA30B11C491D48E7
:101F6000FFF75AFF002006B010BD1B4B93E803009B
:101F70000490ADF81410090C8DF8161004A9204631
:101F8000FFF77AFF70B92046FFF7BAFF10EE100A8C
:101F9000FEF7DAFA02460B4610490E48FFF7BAFE82
:101FA0000120E0E79DF814309DF812209DF81110F3
:101FB0009DF8100003900291019200939DF8153056
:101FC0009DF8162006490348FFF7A4FEDBE700BF93
:101FD00048030708980900200C1506082003070885
:101FE000E8020708024680B1037813B90020704761
:101FF000013213783BB1A3F130010929F8D92E2B16
:10200000F6D0002070470120704700207047000084
:1020100010B584B002464B788878CC780294019051
:1020200000930B7802490348FFF774FE04B010BD1B
:1020300070030708980900200AB90020704770B59E
:1020400004460D46164600780DF041FA024648B1A6
:10205000B04200D3B2B2294620780EF001F8002831
:1020600009DB70BD02F07AFF6368984201D903482A
:10207000F7E70348F5E70348F3E700BF0098FFFFE1
:102080000097FFFF0094FFFF0AB90020704770B56A
:1020900004460D46164600780DF0CEF9024650B1C2
:1020A000B04200D3B2B2294620780DF085FE002858
:1020B00003DB20B170BD0348FCE70348FAE70148A1
:1020C000F8E700BF8097FFFF0094FFFF2DE9F04184
:1020D0008EB004460F46FFF785FF064668B300231F
:1020E000039304930593069306AB019305AB00930A
:1020F00004AB03AA2E4920465CF092FA042812D1C0
:10210000039BFF2B11D8049AFF2A10D8059AFF2AA7
:102110000FD8069AFF2A0ED83B70049B7B70059B54
:10212000BB70FA7038E0002636E0002634E0002666
:1021300032E0002630E000262EE01E49012011F09A
:1021400059F90025089509950A950B950C95CDF838
:10215000335008A80FF026F99DF834309DF835204B
:10216000DFF86080019200939DF833309DF83220B3
:1021700011494046FFF7CEFD079507AA21460DF10C
:10218000320011F053F90546034622460B494046FA
:10219000FFF7C0FD012D03D030460EB0BDE8F08141
:1021A000079B3B6039460648FFF732FF0126F3E7FD
:1021B000A0F80608D00A0020800307089803070843
:1021C000B00307089809002070B582B00D4684005E
:1021D0000134E40004F540700CF0D4FF064604F529
:1021E00000700CF0CFFF00F01F00009033462A462D
:1021F00002490348FFF78EFD02B070BDC003070817
:102200009809002070B5A2B005460C4680263246DB
:10221000002102A85CF06EFB324602A9204629F09C
:102220005BFE9DF808304BB102AB009323462A4673
:1022300003490448FFF7F0FD22B070BD024BF4E7FC
:10224000E803070898090020E003070800285ED08B
:1022500070B50D460446C222002128465CF04AFBB8
:1022600040F2BB13A5F8C03008222D4920465CF08F
:1022700056FB00284DD104F108010C4600E0013462
:1022800023781BB12F2B01D03A2BF8D1661A731E7D
:102290003E2B01D900203DE0324628465CF0F9FC97
:1022A0000023AB5523783A2B0BD023780BB32F2B7D
:1022B00033D12046FDF7DCFF431E7E2B1FD90020C3
:1022C00028E00134002306E003EB830302EB430222
:1022D000A2F1300301342278A2F13001C9B20929F8
:1022E000F2D9591E4FF6FE72914214D8A5F8C030AB
:1022F000DBE70C4B1B88A5F8403001200AE0421CAC
:10230000214605F140005CF0C4FC012002E0002001
:102310007047002070BD0020FCE70020FAE700BFF6
:1023200034FC06089CF806082DE9F043ADF6EC4DA8
:102330000446884616461D46DDF8087DC222002167
:102340000DF624405CF0D6FA0DF624412046FFF746
:102350007DFF002800F033820023CDF8203C0DF5EE
:1023600042610DF62440FFF7B1FE002800F09C808A
:10237000BDF8E43C0DF62442B449B548FFF7CAFC69
:102380000DF54261B348FFF743FE00234CF2513292
:10239000012118460DF0E6F9002840F08E80AE4984
:1023A0000020FFF711FFBDF8E42C0DF5426100207D
:1023B0000DF07AFB012840F08A80A8490020FFF741
:1023C00003FF0DF6C82048F041FB0DF51F6049F0F2
:1023D00057FB0DF64C0028F08FF80DF20C701EF034
:1023E0009FF90B2300939E4B0DF64C029D490DF275
:1023F0000C701EF09CFD0146002877D10DF5AF60F2
:102400005BF0FCF9984B1C6854B12046FDF730FF97
:10241000421C21460DF5AF6059F07EFD00286EDBB1
:1024200000231A4619460DF51F6049F077FB014657
:1024300000286ED10DF20C728C490DF51F6048F02A
:102440003DFD894B1B68002B6CD002210DF51F60F0
:1024500048F025FD00220DF5AF610DF51F6048F035
:102460006FFD0DF51F610DF6C82048F053FB0146C6
:1024700000285DD10DF624410DF6C82048F094FEE9
:102480000024CDF87045CDF8744502F067FD38445E
:10249000CDF874050094764B764A0DF5AE610DF6D5
:1024A000C82048F01DFD55E00DF6244272496848E9
:1024B000FFF7B2FC6FF00A0472E170496448FFF75D
:1024C000ABFC00200DF082FA6FF0130468E10246C5
:1024D0006B495F48FFF7A0FC6A490020FFF774FED4
:1024E00000200DF073FA6FF0140459E16648FFF70D
:1024F00089FE00200DF06AFA6FF01D0450E10146DC
:102500006248FFF77FFE00200DF060FA6FF01E04B6
:1025100046E15F48FFF776FE00200DF057FA6FF0B6
:102520001F043DE100210DF51F6048F0B8FC98E75D
:102530005848FFF767FE00200DF048FA6FF02004BE
:102540002EE102F00BFDDDF8743598422DD8012004
:1025500002F010FD0DF6C82049F006F8044648B117
:1025600010F5D24FEDD010F5D14FEAD001464A48D0
:10257000FFF748FEECB9B8F1000F37D00295CDF85F
:1025800004800DF6244300930DF66443434A4FF450
:102590001671C6A85CF010F88146421E40F2562320
:1025A0009A4226D84FF000082FE03D493D48FFF7FA
:1025B00029FE0DF6C82049F0D1F90DF51F6049F04C
:1025C00087FC0DF5AF605BF027F90DF20C701EF083
:1025D000C2F80DF64C0027F0B3FF00200DF06AFBA7
:1025E00000200DF0F3F96FF02704D9E0DFF8C08088
:1025F000C4E72D491648FFF70FFC6FF03104CFE018
:10260000804402E0012002F0B5FCC14516D9A9EBD7
:102610000802C6AB03EB08010DF6C82047F05CFAD0
:102620000028EDDC10F5D24FECD010F5D14FE9D0F9
:1026300001461E48FFF7E6FD4FF0FF34002C40F046
:10264000C1804FF0000838E0804436E018040708E5
:102650009809002030040708540407089804070864
:10266000AC0407081BA80208CC0A002007110208C6
:102670003920000889200008F80307083C040708EF
:102680006804070884040708B8040708CC0407088E
:10269000E0040708F804070820050708B0F8060852
:1026A0000098FFFF08050708300507084C050708D4
:1026B000C8110708012002F05DFC454515D9A5EBBE
:1026C000080206EB08010DF6C82047F005FA0028BD
:1026D000BADC10F5D24FEDD010F5D14FEAD001465B
:1026E0003B48FFF78FFD4FF0FF34002C6DD102F017
:1026F00035FC054602F032FC431BBB4259D2C4F5FF
:102700003F72033206AB19190DF6C82046F0D6FF0A
:10271000011E1BDD0C4406A8002303552D495CF067
:1027200023F9034660B1002BE4D00022059205AAEC
:10273000294918465BF074FF0128DBD1059C11E0A4
:10274000264906A85CF010F90346ECE7A1B311F5A1
:10275000D24F2AD011F5D14F27D02148FFF752FD93
:102760004FF0FF340DF6C82047F01EFA0DF6C820D2
:1027700049F0F4F80DF51F6049F0AAFB0DF5AF60C4
:102780005BF04AF80DF20C701DF0E5FF0DF64C0001
:1027900027F0D6FE00200DF08DFA00200DF016F97E
:1027A00020460DF6EC4DBDE8F083022002F0E2FB7E
:1027B000A0E74FF0FF34D5E74FF0FF34D2E76FF0DA
:1027C0000904EDE76FF03204EAE76FF03304E7E75E
:1027D0004C05070898F90608B0F90608A4F9060898
:1027E000580507082DE9F0418AB0002405940694A5
:1027F0000794089409940094484B1A6B42F0010224
:102800001A631A6B02F001020092009A01941A6B8B
:1028100042F002021A631A6B02F002020192019A5C
:1028200002941A6B42F004021A631A6B02F004025B
:102830000292029A03941A6B42F008021A631A6B0E
:1028400002F008020392039A04941A6B42F0800289
:102850001A631B6B03F080030493049B304E2246E3
:102860000621304603F052FA2E4F22464FF4805193
:10287000384603F04BFADFF8B08001224FF4807144
:10288000404603F043FA01220821304603F03EFAA5
:1028900006230593012506950794089405A930465B
:1028A00003F080F84FF480530593069507940223B4
:1028B000089305A9384603F075F805950694079521
:1028C000089405A9304603F06DF805950694079520
:1028D000089405A9384603F065F84FF48073059312
:1028E000069507940327089705A9404603F05AF870
:1028F0000823059306950794089705A9304603F029
:1029000051F81023059306940794089405A93046BE
:1029100003F048F80AB0BDE8F08100BF003802407B
:10292000000802400004024000000240012800D0DC
:10293000704708B54FF6FF73994200D008BD0248B2
:10294000FEF74CFDFAE700BFD00C002000B58DB0BB
:1029500072B60DF1040C114C0FCCACE80F000FCC8B
:10296000ACE80F0094E80700ACE80300ACF80020E6
:102970004FF4FA73292201A9094807F01FFE02212A
:10298000084803F0DCF900230093009A064B9A42B2
:10299000F5D800BF009B01330093F6E764050708F4
:1029A0002C37002000080240DF93040008B50A48D5
:1029B0000A4B03604FF4E133436000238360C3603C
:1029C00003610C2242618361C36107F0A7FD00B976
:1029D00008BDFFF7BBFF00BF2C37002000100140EF
:1029E00008B50A480A4B03600A4B43600023836022
:1029F000C3604FF48042026143618361C36103623B
:102A000003F0B8F900B908BDFFF7A0FF7036002049
:102A100000540040A086010008B50A480A4B036034
:102A20004FF41653436000238360C36003610C229C
:102A300042618361C36107F071FD00B908BDFFF712
:102A400085FF00BF743700200044004008B50A48E5
:102A50000A4B03604FF41653436000238360C36046
:102A600003610C2242618361C36107F057FD00B925
:102A700008BDFFF76BFF00BFBC37002000480040D7
:102A800008B50D480D4B0360002343607F22826030
:102A9000FF22C26003614361836104F0ADFD40B970
:102AA00000220221032002F0A8FB032002F0C1FB58
:102AB00008BDFFF74BFF00BFC436002000280040D0
:102AC00008B50C480C4B036053234360002383601C
:102AD00040F2E732C260836107F0EEFA40B90022AB
:102AE0000321362002F089FB362002F0A2FB08BD4C
:102AF000FFF72CFFE43600200010004000B595B031
:102B00003022002108A85BF0F5FE00230393049314
:102B10000593069307930193214A116C41F080516C
:102B20001164126C02F080520192019A02931D4BC3
:102B30001A6842F480421A601B6803F480430293CF
:102B4000029B052308934FF48033099301230A93D2
:102B500002230E934FF480020F9204221092A822B7
:102B6000119212930723139308A804F0ADF898B9B3
:102B70000F23039302230493002305934FF4A053E0
:102B800006934FF480530793052103A804F014FB28
:102B900020B915B05DF804FBFFF7D8FEFFF7D6FEAD
:102BA000003802400070004008B502F071F9FFF7EC
:102BB000A5FFFFF717FEFFF7F9FE224C2046FFF7AF
:102BC000B9F821492046FFF7A5F8FFF709FF1F498B
:102BD0002046FFF79FF8FFF71FFF1D492046FFF72C
:102BE00099F8FFF733FF1B492046FFF793F801F0F0
:102BF00093FB00F03DFE18492046FFF78BF808F0E4
:102C0000A3FE16492046FFF785F8FFF739FF144960
:102C10002046FFF77FF8FFF753FF12492046FFF7E2
:102C200079F82046FEF7CEFF0F492046FFF772F8ED
:102C30002046FEF7C7FF0D4C2046FEF77BFC2046E2
:102C4000FEF7F2FD9809002090050708B005070877
:102C5000D0050708F0050708100607083006070822
:102C6000500607087006070890060708D00C0020D9
:102C700008B54FF6FF710120FFF758FE08BD80B47C
:102C800083B000AF78607B685B037A6853407B60F9
:102C90007B685B0C7A6853407B607B685B017A6879
:102CA00053407B607B6818460C37BD465DF8047B5B
:102CB0007047000080B483B000AF786039607B68F3
:102CC0009A013B681A447B689B081A44054B1344DD
:102CD0007A6853407B607B6818460C37BD465DF8C8
:102CE000047B7047B979379E80B400AF0F4BDB6827
:102CF00003F08073002B05D10C4BDB680B4A43F0CB
:102D00008073D3600A4B1B6803F00103002B08D1CA
:102D1000074B00225A60064B1B68054A43F001032B
:102D2000136000BFBD465DF8047B7047F0ED00E026
:102D3000001000E080B400AF034B5B681846BD464E
:102D40005DF8047B704700BF001000E080B582B0E2
:102D500000AF00237B6002F051F903461946786802
:102D6000FFF7A8FF786002F055F903461946786826
:102D7000FFF7A0FF786002F059F90346194678681A
:102D8000FFF798FF786002F0E9F803461946786883
:102D9000FFF790FF78601D4B9B6819467868FFF736
:102DA00089FF7860FFF7A0FFFFF7C4FF03461946CD
:102DB0007868FFF77FFF786000233B601DE0134BCE
:102DC0009B6819467868FFF775FF786002F0C6F8CF
:102DD000034619467868FFF76DFF7860FFF7AAFF92
:102DE000034619467868FFF765FF78607868FFF753
:102DF00046FF78603B6801333B603B683F2BDED980
:102E00007B6818460837BD4680BD00BF10E000E073
:102E100090B589B000AFF860B9607A603B60BB687C
:102E2000002B02D03B68002B02D16FF03B0360E027
:102E30003B6800221A607B68002B01D1002358E018
:102E400000237B617B6907F1140211461846FFF7E6
:102E500031FF03467B617B69BA6811461846FFF76C
:102E600029FF03467B610023FB6112E07C69FFF7C9
:102E70006DFF034619462046FFF71CFF03467B61A2
:102E80007B691846FFF7FBFE03467B61FB69013354
:102E9000FB61FB69072BE9DD0023BB6121E07B6956
:102EA0001846FFF7ECFE03467B617969BA68BB6997
:102EB0001344CAB21A707B69104A926811461846C8
:102EC000FFF7F8FE03467B617C69FFF733FF03469B
:102ED00019462046FFF7EEFE03467B61BB690133CE
:102EE000BB61BA697B689A42D9D33B687A681A6039
:102EF000002318462437BD4690BD00BF10E000E017
:102F0000B0B500AF02F02AF8034600221C46154671
:102F100022462B4610461946B0BD0160426003812F
:102F2000704708B501220189406802F0EFFE08BD34
:102F300008B500220189406802F0E8FE08BD00B52E
:102F400086464FF0000C4FF6FF7010E0400801334A
:102F5000DBB2072B07D810F0010FF7D04AF20102BD
:102F600082EA5000F3E70CF1010C1FFA8CFC8C454F
:102F700004D21EF80C3058400023EAE75DF804FB49
:102F800008B5FFF7D5FF02490248FEF7C3FE08BDAA
:102F9000F4060708980900202DE9F04792B004468E
:102FA0000F469046BDF868601B9D8DF840108DF867
:102FB00041201A0A8DF842208DF84330330A8DF8EB
:102FC00044308DF84560062110A8FFF7B8FF8DF852
:102FD0004600C0F30F208DF84700082310AA4D4982
:102FE0004D48FEF7F7FD2046FFF79BFF012001F05B
:102FF000C1FF6423082210A9206807F0DFFA02202D
:1030000001F0B8FF2046FFF793FF4FEA460A1FFA88
:103010008AFA0AF105091FFA89F940220021684657
:103020005BF068FC1C9B4A466946206807F051FB30
:10303000032830D00446A8BB4B466A463749364879
:10304000FEF7C8FD9DF80030BB4257D19DF8012026
:103050009DF90130002B56DB424556D19DF80230D8
:10306000B3EB460F53D10AF1030189B26846FFF76B
:1030700066FF09F146036B4413F8483C09F1470227
:103080000DEB020919F8482C43EA0223984210D1AB
:103090004FF0000C29E03A4621491F48FEF7BCFEDC
:1030A00001242CE002461F491B48FEF7B5FE04240C
:1030B00025E002461C491848FEF7AEFE02241EE039
:1030C0004FEA4C034B336B4413F8482C0CF10203CA
:1030D00012A901EB430313F8483C43EA022325F805
:1030E0001C300CF1010C1FFA8CFCB445E8D33B46B4
:1030F00032460E490848FEF70DFE00E00424204643
:1031000012B0BDE8F0870324F9E70424F7E70424AC
:10311000F5E700BF34070708980900208007070873
:103120003C0707086407070888070708B00707086F
:103130004FF0000C80F800C04160826070470000D2
:1031400038B504460D46806800F0E2F8606804F087
:103150001BFC606805B1013D0422294604F052FBC6
:10316000D0B9322001F006FF01F028FF0E4A1368A3
:1031700043F0040313600121084603F075FDFFF7D7
:10318000BDFC01F02BFF606804F0FEFBA06800F0BE
:1031900095F80023237038BD04490548FEF73CFE2E
:1031A000FFF7D4FBDDE700BF00700040D807070839
:1031B00098090020132831D8DFE800F00A320C0EFD
:1031C00010121416181A1C1E20222426282A2C2E0F
:1031D00014487047144870471448704714487047A3
:1031E0001448704714487047144870471448704793
:1031F0001448704714487047144870471448704783
:103200001448704714487047144870471448704772
:103210001448704714487047144870471448704762
:1032200014487047F4070708080807081408070837
:1032300024080708300807083C0807084C08070856
:103240005808070864080708780807088C08070862
:10325000A0080708B0080708C4080708D40807082A
:10326000E0080708EC08070800090708180907081C
:1032700030090708FC070708022A08D9044B1B7805
:1032800003B930230B703A234B7000238B707047C7
:10329000BC39002070B584B00C4615461E4603228A
:1032A00003A9FFF7E9FF009603AB034A294620462E
:1032B0005BF082F904B070BD3809070830B585B0FD
:1032C0000546032203A9FFF7D7FF012203A9281D02
:1032D0000AF078FD48B901242C7003AA09490A486C
:1032E000FEF718FD204605B030BD0446FFF762FF2B
:1032F0000090234603AA05490348FEF78DFD0020F0
:103300002870F0E7640907089809002040090708B9
:10331000037803B9704710B582B00446032201A9AF
:10332000FFF7AAFF002201A910460AF04BFD002377
:10333000237001AA02490348FEF7ECFC02B010BD5D
:103340007C090708980900208446007800B9704776
:1033500000B597B0074B402206A96046FFF79AFFD9
:10336000694606A80BF097FCB0FA80F0400917B048
:103370005DF804FB94090708F0B5ADF5257D0778E5
:103380000FB306460C46002900F0B0800846FCF753
:103390006FFF0546431EEF2B09D80023AB4216D220
:1033A000E25C0D2A0AD00A2A08D00133F6E7024669
:1033B0004F495048FEF730FD002704E04E494D4884
:1033C000FEF72AFD002738460DF5257DF0BD4B4B55
:1033D000402294A93046FFF75DFF4FF40C720021A4
:1033E00008A85BF087FA122294A908A80AF030FD19
:1033F000064620BB0B9908A80BF044FA064648BBCA
:103400000023079307AB2A46214608A80BF01DF8B6
:10341000044610B9079BAB422AD02046FFF7CAFEEC
:103420000295079B01930090234694AA34493148A2
:10343000FEF7F2FC08A80BF0FBF90027C3E7FFF743
:10344000B9FE0090334694AA2E492A48FEF7E4FCC0
:103450000027B8E7FFF7AEFE0090334694AA2A494A
:103460002448FEF7D9FC08A80BF0E2F90027AAE7E8
:10347000264B1B68ADF818301B0C8DF81A30002352
:10348000059305AB022206A908A80AF0DEFF044650
:1034900010B9059B022B12D02046FFF78BFE0223AA
:1034A0000293059B01930090234694AA1849114862
:1034B000FEF7B2FC08A80BF0BBF9002783E708A8C9
:1034C0000BF038F9044618B908A80BF0B1F97AE7FF
:1034D000FFF770FE0090234694AA0E490548FEF7B8
:1034E0009BFC08A80BF0A4F900276CE700276AE70B
:1034F000A009070898090020C009070894090708CF
:10350000340A0708E00907080C0A07082CF906081E
:10351000640A0708940A07082DE9F04FADF55D7DB0
:1035200090469946E69F00233B60E79A136090F827
:1035300000A0BAF1000F00F08F800E46002900F0C5
:103540008680B8F1030F40F28580C84501D808F1A4
:10355000FF39B9F1030F02D84FF0000A7CE0414B6C
:103560004022CCA9FFF796FE4FF40C72002140A830
:103570005BF0C0F90122CCA940A80AF069FC04461E
:1035800018B95B233370012536E0FFF713FE009076
:103590002346CCAA34493548FEF73EFC4FF0000ADA
:1035A0005AE003AA0021D1541C4654B1631E03AA59
:1035B000D25C0D2AF5D00A2AF3D0202AF1D0092AAC
:1035C000EFD034B33A6842B30123234402332B448F
:1035D0004B4524D8434522D812B12C2373550135CD
:1035E000224603A970195BF054FB25443B68013364
:1035F0003B60E79BC3F800B040AAF42103A80BF09E
:1036000027FD60B1DDF818B103A8FCF731FE0446D0
:10361000CBE7E79BC3F800B0EEE71346D5E76B1C9A
:103620005D2272550022F25440A80BF001F93A686D
:1036300012B1E79B1B687BB9CCAB0093E79B1B687F
:103640000B490A48FEF7E8FB4FF0000A04E04FF090
:10365000000A01E04FF0000A50460DF55D7DBDE81F
:10366000F08F00BF94090708B80A070898090020DE
:10367000E40A070870B5ADF5DE6D067816B10446AC
:103680000D4619B930460DF5DE6D70BD6E4B40220A
:103690000DF5D661FFF7FEFD6C4B40220DF5CE61B6
:1036A0002046FFF7F7FD4FF40C7200210DF58860FE
:1036B0005BF020F901220DF5D6610DF588600AF066
:1036C000C7FB0446D0B9DDF84C349D4222D30DF53A
:1036D00088600BF0ADF80DF5D6600BF015FB0446D5
:1036E0000028CFD0FFF766FD009023460DF5D66287
:1036F00057495848FEF790FB0026C3E7FFF75AFDED
:10370000009023460DF5D66253495248FEF784FBDC
:103710000026B7E74FF40C72002184A85BF0EAF8AA
:103720000A220DF5CE6184A80AF092FB0446002817
:1037300055D129460DF588600BF0A4F80446002801
:103740005DD100230393029303AB4FF4007204A9ED
:103750000DF588600AF03AFD0446002865D1039A09
:10376000C2B102AB04A984A80AF06FFE044618B9DE
:10377000029A039B9A42E7D02046FFF71BFD0346BF
:10378000039A0192029A0092224634493148FEF788
:1037900043FB01240DF588600BF04AF884A80BF078
:1037A00047F8002C4AD10DF5D6600BF0ADFA0DF5B7
:1037B000D6610DF5CE600BF052FB044600283FF4B5
:1037C00061AFFFF7F7FC0346224625492148FEF783
:1037D00023FB0DF5CE600BF097FA002652E7FFF7BA
:1037E000E9FC009023460DF5CE621E491948FEF70C
:1037F00013FB0DF588600BF01BF8002642E7FFF77E
:10380000D9FC009023462A4617491248FEF704FBCC
:103810000DF588600BF00CF884A80BF009F80DF595
:10382000CE600BF071FA00262CE7FFF7C3FC0346CD
:1038300022460E490748FEF7EFFAABE70DF5CE60DA
:103840000BF062FA00261DE794090708180B070819
:10385000540B070898090020240B0708040C0708DC
:10386000300C0708800B0708B00B0708E00B0708AF
:1038700080B500AF114B124A1A60104B00225A60FB
:103880000E4B00229A600D4B0022DA600B4B002297
:103890001A610A4B00225A61084B02229A610748BA
:1038A00004F0F8F80346002B01D0FFF74FF84FF46F
:1038B0000061024805F046FA00BF80BD04380020D0
:1038C000002C014080B58CB000AF786007F11C037C
:1038D00000221A605A609A60DA601A617B681B687D
:1038E0007A4A934240F0EE800023BB61784B5B6CD8
:1038F000774A43F400635364754B5B6C03F40063D5
:10390000BB61BB6900237B61714B1B6B704A43F445
:10391000800313636E4B1B6B03F480037B617B6935
:1039200000233B616A4B1B6B694A43F0040313633A
:10393000674B1B6B03F004033B613B690023FB6097
:10394000634B1B6B624A43F008031363604B1B6BB2
:1039500003F00803FB60FB684FF47063FB61022314
:103960003B6201237B620323BB620C23FB6207F1F2
:103970001C031946574802F015F84FF48053FB61B9
:1039800000237B6207F11C031946524802F00AF833
:103990000423FB6101237B6207F11C0319464E4897
:1039A00002F000F84D4B4E4A1A604C4B4FF000624B
:1039B0005A604A4B00229A60484B0022DA60474B1B
:1039C0004FF480621A61454B4FF480525A61434B69
:1039D0004FF480429A61414B2022DA613F4B4FF411
:1039E00040321A623D4B04225A623C4B03229A62D7
:1039F0003A4B4FF40002DA62384B4FF400121A636C
:103A0000364801F031FC0346002B01D0FEF79EFF43
:103A10007B68324A1A64314A7B689363314B324A7D
:103A20001A60304B4FF000625A602E4B40229A6071
:103A30002C4B0022DA602B4B4FF480621A61294B29
:103A40004FF480525A61274B4FF480429A61254BC4
:103A50002022DA61234B4FF440321A62214B0422B8
:103A60005A62204B03229A621E4B4FF40002DA6224
:103A70001C4B4FF400121A631A4801F0F5FB034681
:103A8000002B01D0FEF762FF7B68164ADA63154A05
:103A90007B689363002205213B2001F0AEFB3B20B5
:103AA00001F0C7FB00220521452001F0A6FB4520BF
:103AB00001F0BFFB00220521312001F09EFB3120E7
:103AC00001F0B7FB00BF3037BD4680BD002C014080
:103AD0000038024000080240000C024088380020F4
:103AE00058640240E8380020A0640240016042604F
:103AF000014A8260704700BF003C1CC601EB0041D8
:103B000007EE901AF8EE677AB2EE047AC7EE876A8B
:103B10009FED047AC6EE877A9FED030A30EE670ABE
:103B2000704700BF00007A440000000070B586B006
:103B300004460D46224B83600023ADF81430ADF8E7
:103B400016304068FEF798F940B34FF47A73029349
:103B500005AB019302230093002304220121206876
:103B6000FFF71AFA024628BBBDF81450BDF81660DC
:103B700031462846FFF7C2FF10EE100A84ED020A14
:103B8000FCF7E2FCCDE9000133462A460D490E4818
:103B9000FEF7C0F894ED020A06B070BD0B490A4862
:103BA000FEF73AF90A4B186828609A889B79AA8030
:103BB000AB71CAE707490448FEF72EF9EAE700BFF0
:103BC000003C1CC6880C070898090020540C070804
:103BD00014150608A80C070810B5044601604260D9
:103BE00003814FF4007200210A305AF083FE204610
:103BF00010BD006808B101B102B9704708B54FF4B3
:103C00007A7306F0DBFC08BD2DE9F04782B000298D
:103C100044D0074615461E468846012A40D901F081
:103C20009DF981462A46002140465AF063FE002451
:103C300008E05446002308F80430204602B0BDE8EE
:103C4000F087544601F08AF9A0EB0900B042F1D2A6
:103C50006B1E9BB2A342EDD90A2301220DF107018D
:103C6000386806F036FD0028ECD19DF8073004F1E5
:103C7000010A1FFA8AFA08F80430BAF1030FE0D9F2
:103C8000084940465AF070FE0028D2D10649404605
:103C90005AF06AFE0028CCD15446D3E70024CCE782
:103CA0000024CAE7C00C0708CC0007082DE9F04F34
:103CB00083B0DDF830A000293CD007461546984671
:103CC0000E46CBB3012A39D901F048F981462A467C
:103CD000002130465AF00EFE002401F03FF9A0EB1F
:103CE000090CD44520D26B1E9BB2A3421CD90A23D7
:103CF00001220DF10701386806F0EBFC0028ECD139
:103D00009DF8073004F1010B1FFA8BFB3355414638
:103D100030465AF029FE30B9094930465AF024FE9F
:103D200008B95C46D9E75C4600233355204603B00A
:103D3000BDE8F08F0024F9E70024F7E70024F5E759
:103D4000CC00070838B50446094D0A492846FDF756
:103D5000E1FF01222189606801F0D8FF4FF47A6009
:103D600001F008F904492846FDF7D4FF38BD00BF2B
:103D700098090020C80C0708F40C070810B5044681
:103D800006490748FDF7C6FF00222189606801F057
:103D9000BDFF4FF4FA7001F0EDF810BD1C0D0708DF
:103DA00098090020002A37D0F0B5C1B005461C465E
:103DB00016469BB339B30B461A4A4FF480716846D6
:103DC0005AF0FAFB184F6A4618493846FEF733F89E
:103DD0006846FCF74DFA82B269462846FFF709FFAC
:103DE000469B224631462846FFF70EFF32461049D1
:103DF0003846FEF720F80F4930465AF0B5FD20B19D
:103E0000002041B0F0BD0C49D5E70C4930465AF0CE
:103E1000ABFD28B90120F4E7012070470120F0E74D
:103E20000520EEE7480D070898090020500D070807
:103E30005C0D0708680D0708C8110708CC000708C3
:103E400000B595B04FF4FA630093402304AA0B49E0
:103E5000FFF7A8FF0A4904A85AF086FD60B10022C6
:103E60008DF80F200DF10F0206495AF0D9FB9DF88D
:103E70000F0015B05DF804FB6320FAE76C0D07082E
:103E8000740D07087C0D070810B5A2B004464FF466
:103E9000FA630093802302AA0A49FFF783FF58B907
:103EA0004FF4FA630093802302AA07492046FFF7E4
:103EB00079FF012022B010BD04490548FDF7ACFF91
:103EC0000020F7E7880D0708A40D0708900D0708E4
:103ED0009809002070B5E2B0054661496148FDF7D8
:103EE00019FF0024092C12D84FF4FA6300934FF401
:103EF000807322AA5C492846FFF754FF002844D06B
:103F00004FF4FA7001F036F80134E4B2EAE7002623
:103F1000002E3CD04FF4FA6300934FF4807322AA32
:103F200052492846FFF73EFF41F2883300934FF491
:103F3000807322AA4E492846FFF734FF4D4922A834
:103F40005AF012FD48B34C494648FDF7E3FE002401
:103F50001D2C28D84FF4FA6300934FF4807322AAE3
:103F600046492846FFF71EFF454922A85AF0FCFCA7
:103F7000D0B9444922A85AF0F7FCA8B94FF47A7096
:103F800000F0F8FF0134E4B2E2E70126C0E73E4961
:103F90003448FDF741FF012452E03C493148FDF728
:103FA0003BFF02244CE00026002E4CD02846FFF7B1
:103FB00047FF024636492B48FDF7ACFE2846FFF77F
:103FC00063FF41F2883400944FF4807322AA314990
:103FD0002846FFF7E7FE4FF4FA7000F0CBFF00949D
:103FE0004FF4807322AA2C492846FFF7DBFE2B4BA7
:103FF0002B4A802102A85AF0DFFA00944FF4807314
:1040000022AA02A92846FFF7CDFE43F69823009383
:104010004FF4807322AA23492846FFF7C3FE0446C3
:10402000B8B941F2883300934FF4807322AA1E4935
:104030002846FFF7B7FE22AA1C490A48FDF76AFE88
:10404000204662B070BD1A490648FDF7E5FE03241C
:10405000F6E718490348FDF7DFFE0424F0E700BF48
:10406000A80D070898090020C8110708EC0D0708DB
:10407000F00D0708F80D0708100E07081C0E0708BA
:10408000700E0708240E0708D00D0708000E070859
:104090004C0E0708680E0708740E0708900E0708F4
:1040A0009C0E0708B40E0708D00E0708DC0E0708A0
:1040B000280E0708C00E07082DE9F041ADF5467D32
:1040C000002900F0DD80054616461C460F46002AF2
:1040D00000F0D88023B920460DF5467DBDE8F0817B
:1040E0004FF4FA6300934FF4007346AA6649FFF752
:1040F00059FE4FF4967000F03DFF41F28833009373
:104100004FF4007346AA61492846FFF74BFE00288A
:1041100040F09B8040F6B838CDF800804FF4007333
:1041200046AA5B492846FFF73DFE3B46594A4FF4F5
:10413000807106A85AF040FACDF800804FF4007361
:1041400046AA06A92846FFF72DFECDF800804FF4B9
:10415000007346AA50492846FFF724FE4F4B504AA9
:104160004FF4807106A85AF027FACDF800804FF47A
:10417000007346AA06A92846FFF714FE2346494ABB
:104180004FF4807106A85AF017FA06A8FCF770F8E9
:1041900082B206A92846FFF72CFD434F41F288332F
:1041A00000933B464FF4007246A92846FFF77EFD78
:1041B000394646A85AF0D8FB00284CD022463B4945
:1041C0003B48FDF7A7FD224631462846FFF711FD83
:1041D00042F210730093374B4FF4007246A9284601
:1041E000FFF764FD112234492846FFF702FD334CE6
:1041F00047F23053009323464FF4007246A92846F5
:10420000FFF754FD214646A85AF0AEFB002831D0F6
:1042100000230393049305AE0593009604AB03AA11
:1042200027495AF0FDF9049A94B2059B2549204884
:10423000FDF770FD40F6B83300934FF4007346AAC3
:1042400011492846FFF7AEFD45E71F491848FDF71D
:10425000E3FD00243FE71D491548FDF7DDFDCDF8DE
:1042600000804FF4007346AA07492846FFF79AFDDD
:10427000002430E716490E48FDF7CEFD0024D9E7AB
:10428000002428E7002426E7F40E0708000F07089B
:10429000200F0708340F07084C0F0708C81107083C
:1042A000740F0708A40F0708BC0F0708E00F0708E2
:1042B00098090020680D0708081007081C10070857
:1042C0002C100708441007080C0F0708C80F070830
:1042D0006C10070810B592B004464FF4FA630093CF
:1042E000402302AA0849FFF75DFD41F2883300939D
:1042F000402302AA05492046FFF754FD044905481A
:10430000FDF708FD12B010BDF40E0708680E07088F
:104310008C1007089809002080B500AF174B184A89
:104320001A60164B4FF482725A60144B00229A6046
:10433000124B0022DA60114B00221A610F4B00224F
:104340005A610E4B4FF400729A610C4B2822DA61CD
:104350000A4B00221A62094B00225A62074B0022C4
:104360009A62064B0A22DA62044805F04DFA0346C7
:10437000002B01D0FEF7EAFA00BF80BD48390020CB
:104380000030014080B58AB000AF786007F11403B7
:1043900000221A605A609A60DA601A617B681B68B2
:1043A000194A93422BD100233B61184B5B6C174A8F
:1043B00043F480535364154B5B6C03F480533B61AF
:1043C0003B690023FB60114B1B6B104A43F0010358
:1043D00013630E4B1B6B03F00103FB60FB68E023D0
:1043E0007B610223BB610023FB6103233B62052346
:1043F0007B6207F114031946054801F0D3FA00BFA8
:104400002837BD4680BD00BF003001400038024063
:104410000000024080B582B000AF00237B60104BEB
:104420005B6C0F4A43F4804353640D4B5B6C03F4A5
:1044300080437B607B6800233B60094B1B6C084A10
:1044400043F080531364064B1B6C03F080533B60B6
:104450003B68032000F0C6FE00BF0837BD4680BDA4
:104460000038024080B58EB000AF786007F12403B9
:1044700000221A605A609A60DA601A617B681B68D1
:104480004C4A93422DD100233B624B4B5B6C4A4A12
:1044900043F010035364484B5B6C03F010033B6222
:1044A0003B6A0023FB61444B1B6B434A43F001030F
:1044B0001363414B1B6B03F00103FB61FB694FF47A
:1044C000C0637B620223BB620123FB6203233B6365
:1044D00007237B6307F124031946384801F062FA89
:1044E00063E07B681B68364A93422CD10023BB6192
:1044F000314B1B6C304A43F4003313642E4B1B6C5E
:1045000003F40033BB61BB6900237B612A4B1B6B47
:10451000294A43F001031363274B1B6B03F001038C
:104520007B617B690C237B620223BB620123FB62FC
:1045300003233B6307237B6307F1240319461F48CA
:1045400001F030FA31E07B681B681E4A93422CD19F
:1045500000233B61184B1B6C174A43F48023136400
:10456000154B1B6C03F480233B613B690023FB600C
:10457000114B1B6B104A43F0020313630E4B1B6B72
:1045800003F00203FB60FB684FF440637B6202238D
:10459000BB620123FB6203233B6307237B6307F1B9
:1045A00024031946084801F0FDF900BF3837BD461D
:1045B00080BD00BF001001400038024000000240F2
:1045C00000440040004800400004024080B58AB02A
:1045D00000AF78607B681B681D4A934233D100238B
:1045E0003B611C4B1B6C1B4A43F400131364194BB7
:1045F0001B6C03F400133B613B690023FB60154B0C
:104600001B6B144A43F002031363124B1B6B03F042
:104610000203FB60FB6807F1140300221A605A6072
:104620009A60DA601A61C0237B611223BB610123A7
:10463000FB6103233B6204237B6207F114031946E9
:10464000054801F0AFF900BF2837BD4680BD00BF67
:1046500000540040003802400004024080B582B09F
:1046600000AF78607B681B68084A93420AD1084B08
:1046700001221A6000220121032000F0BEFD032068
:1046800000F0D7FD00BF0837BD4680BD00280040C0
:104690003C0E474280B584B000AF78607B681B68F1
:1046A0000E4A934215D10023FB600D4B1B6C0C4A44
:1046B00043F0100313640A4B1B6C03F01003FB6000
:1046C000FB6800220221362000F097FD362000F022
:1046D000B0FD00BF1037BD4680BD00BF00100040D8
:1046E0000038024080B400AFFEE780B400AFFEE7C0
:1046F00080B400AFFEE780B400AFFEE780B400AF47
:10470000FEE780B400AF00BFBD465DF8047B704794
:1047100080B400AF00BFBD465DF8047B704780B435
:1047200000AF00BFBD465DF8047B704780B500AFA9
:1047300000F000FC00BF80BD80B500AF024803F070
:104740007BF900BF80BD00BFC436002080B500AF3C
:10475000024803F08BFF00BF80BD00BF043800207B
:1047600080B500AF024805F0F6FC00BF80BD00BF79
:10477000E436002080B500AF024800F09DFE00BF87
:1047800080BD00BF8838002080B500AF024800F02F
:1047900093FE00BF80BD00BFE838002080B586B022
:1047A00000AF7860144A154BD31A7B617B693B617B
:1047B000134B1B68002B02D1114B124A1A60104B8D
:1047C0001A687B6813443A699A4207D25AF02CFA65
:1047D00003460C221A604FF0FF3309E0084B1B68B8
:1047E000FB60074B1A687B681344054A1360FB683B
:1047F00018461837BD4680BD0000022000040000A6
:10480000A0390020A064002080B400AF164BD3F87C
:104810008830154A43F47003C2F88830134B1B6884
:10482000124A43F001031360104B00229A600F4BB1
:104830001B680E4A23F0847323F4803313600B4B00
:104840000B4A5A60094B1B68084A23F48023136003
:10485000064B0022DA60044B4FF000629A6000BF02
:10486000BD465DF8047B704700ED00E00038024073
:1048700010300024014B01221A707047A439002027
:10488000014B01221A707047A539002038B5002469
:10489000254608E04FF464500AF074FC05460220F7
:1048A00000F068FB0134042CF4DD2A46084909486D
:1048B000FDF730FA042D05D007490648FDF7ACFA9C
:1048C000002038BD05490348FDF724FA0120F8E728
:1048D000BC10070898090020D41007080411070825
:1048E00010B584B08378C278017944790394029139
:1048F000019200934378027802490348FDF70AFACF
:1049000004B010BD1C11070898090020F0B589B04B
:1049100004460E460020464B1870464B187004F1B2
:1049200008010EF077F84448444A01460CF0C0FDF7
:1049300000F014FB606000F011FB054611E00DF083
:10494000A1FEC31EDBB2012B1ED9394B1B7803F02D
:10495000FF07CBB9374B1B78002B5AD1012000F051
:1049600009FB00F0FBFA401BB04259D200F0F6FA06
:104970006368C01AB0F57A7FE1D30EF0F5F863688A
:1049800003F57A736360DAE70023029303930493D9
:1049900005930693CDF81B30294B93E80300029052
:1049A000ADF80C100DF10E000EF0ECF80DF1160044
:1049B0000EF008F90DF112000EF024F90DF11A00B5
:1049C0000EF040F902238DF81E3002A80CF0AAFC6C
:1049D00004F50B7402AD0FCD0FC495E8030044F845
:1049E000040B24F8021B090C21709DF810309DF86F
:1049F0001120019200939DF80F309DF80E2011496F
:104A00001148FDF787F90DF057FF0127384609B027
:104A1000F0BD0E490C48FDF7FFF90DF04DFFF5E72D
:104A20000B490948FDF7F8F90DF046FF0027EDE7BF
:104A3000A4390020A53900207548000881480008E5
:104A40001C1506084811070898090020641107087A
:104A50007C11070870B588B00546002402940394C1
:104A6000049405940694CDF81B401E4B93E8030074
:104A70000290ADF80C101C4B1868CDF80E001B4BC3
:104A80001868CDF812001A4B1868CDF81600CDF84A
:104A90001A0001268DF81E6002A80CF043FC05F5F3
:104AA0000B7E0DF1080CBCE80F00AEE80F009CE88F
:104AB00003004EF8040B2EF8021B090C8EF80010B0
:104AC0006C702E709DF810309DF8112001920093AB
:104AD0009DF80F309DF80E2006490748FDF71AF99A
:104AE00008B070BD1C150608B8110708C0110708EA
:104AF000C41107089C11070898090020F0B58DB073
:104B0000044615460023037043703D4A13703D4A26
:104B10001370084600F0F0F800F07AF93A493B4883
:104B20000BF0B8FF3A493B480BF0DAFF3A493B48F3
:104B30000CF002F83A4B0AAA93E8030082E803005B
:104B40000DF1200C8CE80300614610460CF05EF974
:104B5000002849D1FFF79AFE00284AD00027029783
:104B60000397049705970697CDF81B702D4B93E894
:104B700003000290ADF80C1002238DF81E3002A83D
:104B80000CF0D0FB04F50B7C02AE0FCEACE80F00AE
:104B900096E803004CF8040B2CF8021B090C8CF867
:104BA000001002A8FFF79CFE8DF8077000F0D6F900
:104BB00006460DF1070117200BF0EAFF9DF80730BC
:104BC0004BB9322000F0D6F900F0C8F9831B40F64B
:104BD000B73C6345EDD929462046FFF797FE50B113
:104BE00001236370237004E00F491048FDF714F9A6
:104BF00000200DB0F0BD2046FFF72CFF2078F8E72D
:104C0000A4390020A5390020314D0008194D0008B5
:104C1000794D0008494D0008E94D00089D4D0008F8
:104C2000E81107081C150608CC1107089809002090
:104C30004378012B00D0704710B588B0044600F0CF
:104C40008DF96368C01AB0F57A7F05D20DF01AFDB0
:104C5000032808D008B010BD0DF086FF636803F587
:104C60007A736360F2E7002302930393049305933E
:104C70000693CDF81B301D4B93E803000290ADF86E
:104C80000C100DF10E000DF07DFF0DF116000DF072
:104C900099FF0DF112000DF0B5FF0DF11A000DF0A6
:104CA000D1FF02238DF81E3002A80CF03BFB04F567
:104CB0000B740DF1080CBCE80F000FC49CE8030056
:104CC00044F8040B24F8021B090C21709DF81030E5
:104CD0009DF81120019200939DF80F309DF80E2051
:104CE00003490448FDF716F8B4E700BF1C15060891
:104CF000F41107089809002080B483B000AF7860F1
:104D0000044A7B68136000BF0C37BD465DF8047B26
:104D1000704700BFA839002080B500AF00224FF4D3
:104D20008071024800F0F2FF00BF80BD0000024029
:104D300080B500AF01224FF48071024800F0E6FF19
:104D400000BF80BD0000024080B584B002AFFF23E9
:104D5000FB710023BB71074B1868BA1DF91D642352
:104D60000093012304F01CFFBB7918460837BD46A9
:104D700080BD00BFA839002080B582B000AF0346D7
:104D8000FB71054B1868F91D6423012204F0C5FD71
:104D900000BF0837BD4680BDA839002080B586B069
:104DA00002AF78600B467B80FF237B730023FB817F
:104DB0000EE00C4B1868FB897A681A4407F10D0164
:104DC000C8230093012304F0EBFEFB890133FB8130
:104DD000FA897B889A42ECD300BF00BF1037BD46EA
:104DE00080BD00BFA839002080B582B000AF7860D8
:104DF0000B467B80054B18687A88C823796804F0D5
:104E00008CFD00BF0837BD4680BD00BFA83900201B
:104E100080B500AF00220821074800F077FF02208C
:104E200000F0A8F801220821034800F06FFF962047
:104E300000F0A0F800BF80BD00080240DFF834D0C9
:104E4000FFF7E2FC0C480D490D4A002302E0D4585C
:104E5000C4500433C4188C42F9D30A4A0A4C0023C4
:104E600001E013600432A242FBD359F0E3FEFDF7E8
:104E70009BFE704700000220000000203802002046
:104E80006CC00708380200209C640020FEE7000088
:104E900080B500AF0E4B1B680D4A43F400731360DE
:104EA0000B4B1B680A4A43F480631360084B1B6872
:104EB000074A43F480731360032000F093F90F2036
:104EC00000F008F8FFF7A6FA0023184680BD00BFDF
:104ED000003C024080B582B000AF7860124B1A6887
:104EE000124B1B7819464FF47A73B3FBF1F3B2FB04
:104EF000F3F3184600F0ABF90346002B01D0012371
:104F00000EE07B680F2B0AD8002279684FF0FF3043
:104F100000F073F9064A7B681360002300E0012368
:104F200018460837BD4680BD00000020080000205C
:104F30000400002080B400AF064B1B781A46064BD5
:104F40001B681344044A136000BFBD465DF8047B30
:104F5000704700BF08000020AC39002080B400AFCB
:104F6000034B1B681846BD465DF8047B704700BFC5
:104F7000AC39002080B584B000AF7860FFF7EEFF59
:104F8000B8607B68FB60FB68B3F1FF3F05D00A4B5C
:104F90001B781A46FB681344FB6000BFFFF7DEFF77
:104FA0000246BB68D31AFA689A42F7D800BF00BF1E
:104FB0001037BD4680BD00BF0800002080B400AFA0
:104FC000054B1B68044A23F00203136000BFBD4673
:104FD0005DF8047B704700BF10E000E080B400AFD4
:104FE000054B1B68044A43F00203136000BFBD4633
:104FF0005DF8047B704700BF10E000E080B400AFB4
:10500000034B1B681846BD465DF8047B704700BF24
:10501000107AFF1F80B400AF034B1B681846BD46D3
:105020005DF8047B704700BF147AFF1F80B400AFA7
:10503000034B1B681846BD465DF8047B704700BFF4
:10504000187AFF1F80B485B000AF78607B6803F0EA
:105050000703FB600C4BDB68BB60BA684FF6FF03CD
:105060001340BB60FB681A02BB68134343F0BF6385
:1050700043F40033BB60044ABB68D36000BF1437FD
:10508000BD465DF8047B704700ED00E080B400AFE2
:10509000044BDB681B0A03F007031846BD465DF8A6
:1050A000047B704700ED00E080B483B000AF03469E
:1050B000FB7197F90730002B0BDBFB7903F01F0224
:1050C000074997F907305B09012000FA02F241F81D
:1050D000232000BF0C37BD465DF8047B704700BF3E
:1050E00000E100E080B483B000AF03463960FB719B
:1050F00097F90730002B0ADB3B68DAB20C4997F9C5
:1051000007301201D2B20B4483F800230AE03B6857
:10511000DAB20849FB7903F00F03043B1201D2B263
:105120000B441A7600BF0C37BD465DF8047B704710
:1051300000E100E000ED00E080B489B000AFF8606D
:10514000B9607A60FB6803F00703FB61FB69C3F198
:105150000703042B28BF0423BB61FB690433062B20
:1051600002D9FB69033B00E000237B614FF0FF3273
:10517000BB6902FA03F3DA43BB681A407B699A40C1
:105180004FF0FF317B6901FA03F3D9437B680B4091
:10519000134318462437BD465DF8047B7047000072
:1051A00080B582B000AF78607B68013BB3F1807F4F
:1051B00001D301230FE00A4A7B68013B53600F21B2
:1051C0004FF0FF30FFF78EFF054B00229A60044B33
:1051D00007221A60002318460837BD4680BD00BF6D
:1051E00010E000E080B582B000AF78607868FFF72B
:1051F00029FF00BF0837BD4680BD80B586B000AF2F
:105200000346B9607A60FB7300237B61FFF73EFFC2
:1052100078617A68B9687869FFF78EFF024697F976
:105220000F3011461846FFF75DFF00BF1837BD4627
:1052300080BD80B582B000AF0346FB7197F907309F
:105240001846FFF731FF00BF0837BD4680BD80B567
:1052500082B000AF78607868FFF7A2FF0346184677
:105260000837BD4680BD000080B586B000AF7860CD
:1052700000237B61FFF772FE38617B68002B01D150
:10528000012399E07B68022283F835207B680022A5
:1052900083F834207B681B681A687B681B6822F0DF
:1052A00001021A600FE0FFF759FE02463B69D31A6C
:1052B000052B08D97B6820225A657B68032283F876
:1052C0003520032378E07B681B681B6803F001032B
:1052D000002BE8D17B681B681B687B617A69384BBF
:1052E00013407B617B685A687B689B681A437B68C4
:1052F000DB681A437B681B691A437B685B691A4346
:105300007B689B691A437B68DB691A437B681B6A6D
:1053100013437A6913437B617B685B6A042B07D173
:105320007B68DA6A7B681B6B13437A6913437B6182
:105330007B681B687A691A607B681B685B697B61A4
:105340007B6923F007037B617B685B6A7A6913439F
:105350007B617B685B6A042B17D17B689B6A7A69E7
:1053600013437B617B68DB6A002B0ED0786800F00A
:105370009DFA0346002B08D07B6840225A657B6863
:10538000012283F83520012316E07B681B687A69C7
:105390005A61786800F054FA0346FB607B68DB6D65
:1053A0003F229A40FB689A607B6800225A657B68BE
:1053B000012283F83520002318461837BD4680BDEA
:1053C0003F8010F080B586B000AFF860B9607A60B9
:1053D0003B600023FB75FB689B6D3B61FB6893F8AA
:1053E0003430012B01D1022340E0FB68012283F815
:1053F0003420FB6893F83530DBB2012B2FD1FB68EA
:10540000022283F83520FB6800225A653B687A68DF
:10541000B968F86800F0E6F9FB68DB6D3F229A4056
:105420003B699A60FB681B681A68FB681B6842F05E
:1054300016021A60FB681B6C002B07D0FB681B6808
:105440001A68FB681B6842F008021A60FB681B6858
:105450001A68FB681B6842F001021A6005E0FB68ED
:10546000002283F834200223FB75FB7D1846183791
:10547000BD4680BD80B483B000AF78607B6893F890
:105480003530DBB2022B04D07B6880225A650123C1
:105490000CE07B68052283F835207B681B681A685E
:1054A0007B681B6822F001021A60002318460C3743
:1054B000BD465DF8047B704780B586B000AF78606C
:1054C0000023BB608E4B1B688E4AA2FB03239B0A02
:1054D0007B617B689B6D3B613B691B68FB607B6804
:1054E000DB6D08229A40FB681340002B1AD07B68C2
:1054F0001B681B6803F00403002B13D07B681B6838
:105500001A687B681B6822F004021A607B68DB6DF6
:1055100008229A403B699A607B685B6D43F0010208
:105520007B685A657B68DB6D01229A40FB681340FB
:10553000002B12D07B681B685B6903F08003002B93
:105540000BD07B68DB6D01229A403B699A607B68D7
:105550005B6D43F002027B685A657B68DB6D042259
:105560009A40FB681340002B12D07B681B681B68B5
:1055700003F00203002B0BD07B68DB6D04229A4002
:105580003B699A607B685B6D43F004027B685A65F7
:105590007B68DB6D10229A40FB681340002B43D0E0
:1055A0007B681B681B6803F00803002B3CD07B68FA
:1055B000DB6D10229A403B699A607B681B681B6810
:1055C00003F48023002B18D07B681B681B6803F44E
:1055D0000023002B08D17B681B6C002B24D07B6838
:1055E0001B6C786898471FE07B689B6C002B1BD076
:1055F0007B689B6C7868984716E07B681B681B6823
:1056000003F48073002B07D17B681B681A687B68E2
:105610001B6822F008021A607B681B6C002B03D009
:105620007B681B6C786898477B68DB6D20229A400A
:10563000FB681340002B00F08F807B681B681B68A1
:1056400003F01003002B00F087807B68DB6D2022C5
:105650009A403B699A607B6893F83530DBB2052B42
:1056600036D17B681B681A687B681B6822F01602BB
:105670001A607B681B685A697B681B6822F080028D
:105680005A617B681B6C002B03D17B689B6C002BE1
:1056900007D07B681B681A687B681B6822F00802C9
:1056A0001A607B68DB6D3F229A403B699A607B6899
:1056B000012283F835207B68002283F834207B6840
:1056C0001B6D002B7ED07B681B6D7868984779E056
:1056D0007B681B681B6803F48023002B1DD07B684C
:1056E0001B681B6803F40023002B0DD17B685B6CE7
:1056F000002B31D07B685B6C786898472CE000BF4A
:1057000000000020B5814E1B7B68DB6B002B23D093
:105710007B68DB6B786898471EE07B681B681B68BA
:1057200003F48073002B0FD17B681B681A687B68B9
:105730001B6822F010021A607B68012283F8352072
:105740007B68002283F834207B68DB6B002B03D05E
:105750007B68DB6B786898477B685B6D002B32D089
:105760007B685B6D03F00103002B22D07B68052270
:1057700083F835207B681B681A687B681B6822F0F9
:1057800001021A60BB680133BB607A699A4207D391
:105790007B681B681B6803F00103002BF2D100E05B
:1057A00000BF7B68012283F835207B68002283F8E4
:1057B00034207B68DB6C002B05D07B68DB6C786861
:1057C000984700E000BF1837BD4680BD80B483B065
:1057D00000AF78607B685B6D18460C37BD465DF89E
:1057E000047B704780B485B000AFF860B9607A6020
:1057F0003B60FB681B681A68FB681B6822F4802208
:105800001A60FB681B683A685A60FB689B68402B0B
:1058100008D1FB681B687A689A60FB681B68BA68E5
:10582000DA6007E0FB681B68BA689A60FB681B686F
:105830007A68DA6000BF1437BD465DF8047B7047B4
:1058400080B485B000AF78607B681B68DBB2103B2A
:10585000144AA2FB03231B09FB60134AFB68134491
:105860001B781A467B68DA65FB68032B09D97B68CD
:105870001B6823F47F7323F003031A1D7B689A656A
:1058800007E07B681B6823F47F7323F003037A68C7
:1058900093657B689B6D18461437BD465DF8047BA5
:1058A000704700BFABAAAAAA1412070880B485B03B
:1058B00000AF78600023FB737B689B6ABB607B68EA
:1058C0009B69002B1FD1BB68032B56D801A252F84D
:1058D00023F000BFE5580008F7580008E558000815
:1058E0007B5900087B68DB6A03F08073002B46D08D
:1058F0000123FB7343E07B68DB6AB3F1C07F40D1D7
:105900000123FB733DE07B689B69B3F5005F21D108
:10591000BB68032B37D801A252F823F02D59000899
:10592000335900082D590008455900080123FB731D
:1059300030E07B68DB6A03F08073002B25D0012305
:10594000FB7322E07B68DB6AB3F1C07F1FD10123C8
:10595000FB731CE0BB68022B03D9BB68032B03D08D
:1059600018E00123FB7315E07B68DB6A03F08073AA
:10597000002B0ED00123FB730BE000BF0AE000BF39
:1059800008E000BF06E000BF04E000BF02E000BF87
:1059900000E000BFFB7B18461437BD465DF8047B72
:1059A000704700BF80B489B000AF786039600023D1
:1059B0007B6100233B610023BB610023FB616BE142
:1059C0000122FB6902FA03F37B613B681B687A6979
:1059D00013403B613A697B699A4240F05A813B68C7
:1059E0005B6803F00303012B05D03B685B6803F0A1
:1059F0000303022B30D17B689B68BB61FB695B00B2
:105A0000032202FA03F3DB43BA691340BB613B682C
:105A1000DA68FB695B0002FA03F3BA691343BB61FE
:105A20007B68BA699A607B685B68BB610122FB692D
:105A300002FA03F3DB43BA691340BB613B685B685E
:105A40001B0903F00102FB6902FA03F3BA6913436D
:105A5000BB617B68BA695A603B685B6803F003030B
:105A6000032B17D07B68DB68BB61FB695B000322FB
:105A700002FA03F3DB43BA691340BB613B689A68DF
:105A8000FB695B0002FA03F3BA691343BB617B68ED
:105A9000BA69DA603B685B6803F00303022B23D129
:105AA000FB69DA087B68083253F82230BB61FB6976
:105AB00003F007039B000F2202FA03F3DB43BA69EA
:105AC0001340BB613B681A69FB6903F007039B0045
:105AD00002FA03F3BA691343BB61FB69DA087B6816
