:020000040800F2
:1000000000000220F1410008713B0008773B000826
:100010007D3B0008833B0008893B0008000000008E
:100020000000000000000000000000008F3B0008FE
:100030009D3B000800000000AB3B0008B93B0008F6
:10004000414200084142000841420008C53B000807
:100050004142000841420008414200084142000874
:100060004142000841420008414200084142000864
:100070004142000841420008414200084142000854
:100080004142000841420008414200084142000844
:100090004142000841420008414200084142000834
:1000A0004142000841420008414200084142000824
:1000B0004142000841420008414200084142000814
:1000C0004142000841420008414200084142000804
:1000D00041420008414200084142000841420008F4
:1000E00041420008414200084142000841420008E4
:1000F00041420008414200084142000841420008D4
:1001000041420008D93B0008414200084142000832
:100110004142000841420008ED3B0008414200080E
:10012000414200084142000841420008013C0008E9
:100130004142000841420008414200084142000893
:100140004142000841420008414200084142000883
:1001500041420008153C00084142000841420008A5
:100160004142000841420008414200084142000863
:1001700041420008414200084142000800000000DE
:08018000414200084142000861
:1001900010B5054C237833B9044B13B10448AFF3C1
:1001A00000800123237010BD3802002000000000F1
:1001B0009CE7050808B5034B1BB103490348AFF39F
:1001C000008008BD000000003C0200209CE70508FC
:1001D00001F0FF01102A2BDB10F0070F08D010F8F8
:1001E000013B013A8B422DD010F0070F42B3F6D1FC
:1001F000F0B441EA012141EA014122F007047FF015
:1002000000070023F0E80256083C85EA010586EA6B
:10021000010685FA47F5A3FA87F586FA47F6A5FAA7
:1002200087F68EB9EED1F0BC01F0FF0102F00702B3
:1002300032B110F8013B013A83EA010313B1F8D15E
:100240000020704701387047002D06BF354603383F
:10025000073815F0010F07D1013015F4807F02BF78
:10026000013015F4C03F0130F0BC0138704700BFC9
:10027000034613F8012B002AFBD1181A01387047E6
:1002800081F0004102E000BF83F0004330B54FEA47
:1002900041044FEA430594EA050F08BF90EA020FB4
:1002A0001FBF54EA000C55EA020C7FEA645C7FEA47
:1002B000655C00F0E2804FEA5454D4EB5555B8BF6A
:1002C0006D420CDD2C4480EA020281EA030382EADB
:1002D000000083EA010180EA020281EA0303362D6D
:1002E00088BF30BD11F0004F4FEA01314FF4801C40
:1002F0004CEA113102D0404261EB410113F0004F52
:100300004FEA03334CEA133302D0524263EB430308
:1003100094EA050F00F0A780A4F10104D5F1200EA6
:100320000DDB02FA0EFC22FA05F2801841F1000101
:1003300003FA0EF2801843FA05F359410EE0A5F1D5
:1003400020050EF1200E012A03FA0EFC28BF4CF006
:10035000020C43FA05F3C01851EBE37101F00045BC
:1003600007D54FF0000EDCF1000C7EEB00006EEBC9
:100370000101B1F5801F1BD3B1F5001F0CD3490853
:100380005FEA30004FEA3C0C04F101044FEA4452AA
:1003900012F5800F80F09A80BCF1004F08BF5FEA31
:1003A000500C50F1000041EB045141EA050130BD11
:1003B0005FEA4C0C404141EB0101013C28BFB1F523
:1003C000801FE9D291F0000F04BF01460020B1FA6E
:1003D00081F308BF2033A3F10B03B3F120020CDA41
:1003E0000C3208DD02F1140CC2F10C0201FA0CF01F
:1003F00021FA02F10CE002F11402D8BFC2F1200C84
:1004000001FA02F120FA0CFCDCBF41EA0C01904039
:10041000E41AA2BF01EB0451294330BD6FEA040482
:100420001F3C1CDA0C340EDC04F11404C4F120026D
:1004300020FA04F001FA02F340EA030021FA04F37F
:1004400045EA030130BDC4F10C04C4F1200220FAD6
:1004500002F001FA04F340EA0300294630BD21FA14
:1004600004F0294630BD94F0000F83F4801306BFDA
:1004700081F480110134013D4EE77FEA645C18BFCE
:100480007FEA655C29D094EA050F08BF90EA020F65
:1004900005D054EA000C04BF1946104630BD91EA5D
:1004A000030F1EBF0021002030BD5FEA545C05D160
:1004B0004000494128BF41F0004130BD14F580049F
:1004C0003CBF01F5801130BD01F0004545F0FE4113
:1004D00041F470014FF0000030BD7FEA645C1ABF48
:1004E000194610467FEA655C1CBF0B46024650EA7F
:1004F000013406BF52EA033591EA030F41F40021AB
:1005000030BD00BF90F0000F04BF0021704730B530
:100510004FF4806404F132044FF000054FF0000105
:1005200050E700BF90F0000F04BF0021704730B5C6
:100530004FF4806404F1320410F0004548BF40429B
:100540004FF000013EE700BF42004FEAE2014FEAF0
:1005500031014FEA02701FBF12F07F4393F07F4FCB
:1005600081F06051704732F07F4208BF704793F0CE
:100570007F4F04BF41F40021704730B54FF46074E1
:1005800001F0004521F000411CE700BF50EA0102E4
:1005900008BF704730B54FF000050AE050EA01028D
:1005A00008BF704730B511F0004502D5404261EBFD
:1005B00041014FF4806404F132045FEA915C3FF43E
:1005C000D8AE4FF003025FEADC0C18BF03325FEADB
:1005D000DC0C18BF033202EBDC02C2F1200300FA8C
:1005E00003FC20FA02F001FA03FE40EA0E0021FAB1
:1005F00002F11444BDE600BF70B54FF0FF0C4CF49F
:10060000E06C1CEA11541DBF1CEA135594EA0C0F50
:1006100095EA0C0F00F0DEF82C4481EA030621EA8B
:100620004C5123EA4C5350EA013518BF52EA0335C6
:1006300041F4801143F4801338D0A0FB02CE4FF078
:100640000005E1FB02E506F00042E0FB03E54FF0A8
:100650000006E1FB03569CF0000F18BF4EF0010EA0
:10066000A4F1FF04B6F5007F64F5407404D25FEA9C
:100670004E0E6D4146EB060642EAC62141EA55514F
:100680004FEAC52040EA5E504FEACE2EB4F1FD0C91
:1006900088BFBCF5E06F1ED8BEF1004F08BF5FEA0F
:1006A000500E50F1000041EB045170BD06F00046C1
:1006B00046EA010140EA020081EA0301B4EB5C046E
:1006C000C2BFD4EB0C0541EA045170BD41F4801166
:1006D0004FF0000E013C00F3AB8014F1360FDEBF8B
:1006E000002001F0004170BDC4F10004203C35DA67
:1006F0000C341BDC04F11404C4F1200500FA05F3EA
:1007000020FA04F001FA05F240EA020001F000428A
:1007100021F0004110EBD37021FA04F642EB060100
:100720005EEA430E08BF20EAD37070BDC4F10C042A
:10073000C4F1200500FA04F320FA05F001FA04F2EE
:1007400040EA020001F0004110EBD37041F10001DA
:100750005EEA430E08BF20EAD37070BDC4F12005E5
:1007600000FA05F24EEA020E20FA04F301FA05F24D
:1007700043EA020321FA04F001F0004121FA04F2F5
:1007800020EA020000EBD3705EEA430E08BF20EAC5
:10079000D37070BD94F0000F0FD101F000464000FF
:1007A00041EB010111F4801F08BF013CF7D041EA81
:1007B000060195F0000F18BF704703F00046520085
:1007C00043EB030313F4801F08BF013DF7D043EA56
:1007D0000603704794EA0C0F0CEA135518BF95EA0C
:1007E0000C0F0CD050EA410618BF52EA4306D1D193
:1007F00081EA030101F000414FF0000070BD50EAB2
:10080000410606BF1046194652EA430619D094EA3B
:100810000C0F02D150EA013613D195EA0C0F05D125
:1008200052EA03361CBF104619460AD181EA030179
:1008300001F0004141F0FE4141F470014FF0000031
:1008400070BD41F0FE4141F4780170BD70B54FF0CC
:10085000FF0C4CF4E06C1CEA11541DBF1CEA13554C
:1008600094EA0C0F95EA0C0F00F0A7F8A4EB05042E
:1008700081EA030E52EA03354FEA013100F0888025
:100880004FEA03334FF0805545EA131343EA1263EE
:100890004FEA022245EA111545EA10654FEA0026A3
:1008A0000EF000419D4208BF964244F1FD0404F55C
:1008B000407402D25B084FEA3202B61A65EB0305B8
:1008C0005B084FEA32024FF480104FF4002CB6EB75
:1008D000020E75EB030E22BFB61A754640EA0C00F5
:1008E0005B084FEA3202B6EB020E75EB030E22BF35
:1008F000B61A754640EA5C005B084FEA3202B6EB76
:10090000020E75EB030E22BFB61A754640EA9C0034
:100910005B084FEA3202B6EB020E75EB030E22BF04
:10092000B61A754640EADC0055EA060E18D04FEAC2
:10093000051545EA16754FEA06164FEAC30343EA62
:1009400052734FEAC2025FEA1C1CC0D111F4801F2F
:100950000BD141EA00014FF000004FF0004CB6E728
:1009600011F4801F04BF01430020B4F1FD0C88BFC7
:10097000BCF5E06F3FF6AFAEB5EB030C04BFB6EBD2
:10098000020C5FEA500C50F1000041EB045170BDC5
:100990000EF0004E4EEA113114EB5C04C2BFD4EBF2
:1009A0000C0541EA045170BD41F480114FF0000E76
:1009B000013C90E645EA060E8DE60CEA135594EAF2
:1009C0000C0F08BF95EA0C0F3FF43BAF94EA0C0FF5
:1009D0000AD150EA01347FF434AF95EA0C0F7FF46A
:1009E00025AF104619462CE795EA0C0F06D152EABE
:1009F00003353FF4FDAE1046194622E750EA4106A2
:100A000018BF52EA43067FF4C5AE50EA41047FF4B2
:100A10000DAF52EA43057FF4EBAE12E74FF0FF3C17
:100A200006E000BF4FF0010C02E000BF4FF0010CE8
:100A30004DF804CD4FEA410C7FEA6C5C4FEA430C61
:100A400018BF7FEA6C5C1BD001B050EA410C0CBFB0
:100A500052EA430C91EA030F02BF90EA020F002012
:100A6000704710F1000F91EA030F58BF994208BF79
:100A700090422CBFD8176FEAE37040F00100704736
:100A80004FEA410C7FEA6C5C02D150EA013C07D18D
:100A90004FEA430C7FEA6C5CD6D152EA033CD3D0D8
:100AA0005DF8040B704700BF8446104662468C46D2
:100AB0001946634600E000BF01B5FFF7B7FF002805
:100AC00048BF10F1000F01BD4DF808EDFFF7F4FF2E
:100AD0000CBF012000205DF808FB00BF4DF808EDB9
:100AE000FFF7EAFF34BF012000205DF808FB00BFDC
:100AF0004DF808EDFFF7E0FF94BF012000205DF8FE
:100B000008FB00BF4DF808EDFFF7CEFF94BF0120B2
:100B100000205DF808FB00BF4DF808EDFFF7C4FFAB
:100B200034BF012000205DF808FB00BF4FEA410CF4
:100B30007FEA6C5C02D150EA013C0AD14FEA430CD7
:100B40007FEA6C5C02D152EA033C02D14FF0000014
:100B500070474FF0010070474FEA410212F5001252
:100B600015D211D56FF47873B3EB625212D94FEAF4
:100B7000C12343F0004343EA505311F0004F23FADE
:100B800002F018BF404270474FF00000704750EA33
:100B9000013005D111F0004008BF6FF000407047F0
:100BA0004FF00000704700BF7BB972B90029BEBF8B
:100BB00000204FF0004106E008BF00281CBF6FF086
:100BC00000414FF0FF3000F0BBB9ADF1080C6DE90A
:100BD00004CE002909DB002B1ADB00F04DF8DDF80C
:100BE00004E0DDE9022304B07047404261EB4101BB
:100BF000002B1BDB00F040F8DDF804E0DDE9022308
:100C000004B0404261EB4101524263EB4303704741
:100C1000524263EB430300F02FF8DDF804E0DDE916
:100C2000022304B0404261EB41017047524263EB42
:100C3000430300F021F8DDF804E0DDE9022304B00D
:100C4000524263EB4303704753B94AB9002908BFC6
:100C500000281CBF4FF0FF314FF0FF3000F070B99B
:100C6000ADF1080C6DE904CE00F006F8DDF804E003
:100C7000DDE9022304B070472DE9F047089E0D46D8
:100C800004460F46002B4AD18A42944665D9B2FAEF
:100C900082F343B102FA03FCC3F120029F4020FA21
:100CA00002F217439C404FEA1C4E1FFA8CF5B7FB2B
:100CB000FEF1220C0EFB117742EA074201FB05F020
:100CC00090420AD91CEB020201F1FF3780F01C812F
:100CD000904240F2198102396244121AA4B2B2FB66
:100CE000FEF00EFB102244EA024400FB05F5A5428B
:100CF0000AD91CEB040400F1FF3280F00781A54201
:100D000040F204816444023840EA0140641B00213F
:100D10001EB1DC400023C6E90043BDE8F0878B42EA
:100D200008D9002E00F0ED800021C6E90005084634
:100D3000BDE8F087B3FA83F1002949D1AB4202D371
:100D4000824200F2F880841A65EB03020120174604
:100D5000002EE2D0C6E90047DFE702B9FFDEB2FAB3
:100D600082F3002B40F090808A1A4FEA1C471FFA4A
:100D70008CFE0121B2FBF7F507FB1520220C42EA9D
:100D800000420EFB05F0904208D91CEB020205F16F
:100D9000FF3802D2904200F2CB804546121AA4B22C
:100DA000B2FBF7F007FB102244EA02440EFB00FE00
:100DB000A64508D91CEB040400F1FF3202D2A64577
:100DC00000F2BB801046A4EB0E0440EA05409FE70A
:100DD000C1F120078B4022FA07FC4CEA030C05FA0C
:100DE00001F420FA07F3FD404FEA1C492343B5FB09
:100DF000F9F81FFA8CFE09FB18551C0C44EA05444F
:100E000008FB0EF5A54202FA01F200FA01F00BD937
:100E10001CEB040408F1FF3A80F08880A54240F200
:100E20008580A8F102086444641B9DB2B4FBF9F309
:100E300009FB134445EA044403FB0EFEA64508D90A
:100E40001CEB040403F1FF356CD2A6456AD9023BC2
:100E5000644443EA0843A3FB0295A4EB0E04AC42AE
:100E6000C846AE4656D353D056B1B0EB080264EB39
:100E70000E0404FA07F7CA40CC401743C6E90074D1
:100E800018460021BDE8F087C3F1200102FA03FCF7
:100E900020FA01F225FA01F19D402A434FEA1C474E
:100EA0001FFA8CFEB1FBF7F007FB1015110C41EA9D
:100EB000054100FB0EF58D4204FA03F408D91CEB42
:100EC000010100F1FF382FD28D422DD90238614443
:100ED000491B92B2B1FBF7F507FB151142EA01423B
:100EE00005FB0EF1914208D91CEB020205F1FF3817
:100EF00016D2914214D9023D6244521A45EA004189
:100F000038E73146304608E73946E6E61046FBE664
:100F10004845A9D2B9EB020865EB0C0E013BA3E7EB
:100F20004546EAE72B4694E74046D1E7D0467BE7C3
:100F3000023D624432E708460AE76444023842E769
:100F4000704700BF024680B1037813B90020704794
:100F5000013213783BB1A3F130010929F8D92E2BC6
:100F6000F6D0002070470120704700207047000035
:100F700008B50121034803F0D5FF08B9012008BDD9
:100F80000020FCE70004024008B50EF036FD012801
:100F900014BF0020012008BD78B138B50C460546C5
:100FA00069B10846FFF764F90246214628465AF01F
:100FB00072FEB0FA80F0400938BD00207047002072
:100FC000FAE7000000285CD070B50D460446C22246
:100FD000002128465AF04AFE5023A5F8C0300722C7
:100FE0002C4920465AF057FE00284CD1E11D0C46F2
:100FF00000E0013423781BB12F2B01D03A2BF8D11C
:10100000661A731E3E2B01D900203DE03246284669
:101010005AF0FBFF0023AB5523783A2B0BD02378F3
:101020000BB32F2B33D12046FFF722F9431E7E2B23
:101030001FD9002028E00134002306E003EB8303DE
:1010400002EB4302A2F1300301342278A2F1300115
:10105000C9B20929F2D9591E4FF6FE72914214D82D
:10106000A5F8C030DBE70C4B1B88A5F84030012009
:101070000AE0421C214605F140005AF0C6FF01205B
:1010800002E000207047002070BD0020FCE7002037
:10109000FAE700BF7898060880980608F0B58FB088
:1010A00004460E46FFF74EFF074600282FD00023C8
:1010B000039304930593069306AB019305AB00934A
:1010C00004AB03AA204920465AF066FC042812D13A
:1010D000039BFF2B13D8049AFF2A12D8059AFF2AE4
:1010E00011D8069AFF2A10D83370049B7370059BA1
:1010F000B370F27000E0002738460FB0F0BD002753
:10110000FAE70027F8E70027F6E70027F4E70025CD
:10111000089509950A950B950C95CDF8335008A8BC
:101120000EF016FE0949012010F02AFE079507AAC5
:1011300021460DF1320010F03FFE0128DCD1079B63
:1011400033600127D8E700BF849806089804002080
:101150002DE9F041ADF54E7D06460C4690461F4602
:10116000D49DC22268499DA85AF04FFF9DA93046E0
:10117000FFF728FF002800F0C08000239C939CA963
:101180009DA8FFF78BFF002800F0BA8000234CF2E7
:101190005032012118460CF0BBFF40BBBDF8342390
:1011A0009CA900200DF056F9012826D10CB1237816
:1011B0004BBB01979DAB0093ADAB544A4FF41671F6
:1011C00006A85AF0B5FB0646013840F2562398426D
:1011D00025D80024A64228D9321B92B206AB191991
:1011E00000200DF0BFFA00282FDD0444F2E70020B4
:1011F0000DF0C2F86FF013007BE000200DF0BCF89A
:101200006FF0140075E0029701949DAB0093ADABB5
:101210003F4A4FF4167106A85AF08AFBD3E7002024
:101220000DF0AAF86FF0150063E0002484B90026E1
:10123000B74215D9BA1B92B208EB060100200DF097
:1012400091FA00280ADD0644F2E74FF0FF34EDE79B
:1012500000200DF091F86FF016004AE04FF0FF34D7
:101260001CB903F055F806460EE000200DF084F896
:101270006FF017003DE0274927485AF031FD03463B
:101280001CE0022003F050F803F042F8801BA84253
:1012900027D2C4F53F72033292B21F492144002085
:1012A0000DF0B4FB0028ECDD04441B48002303557B
:1012B0001A495AF015FD03460028DCD0002BE3D074
:1012C0000022059205AA164918465AF065FB012826
:1012D000DAD100200DF0C4F900200DF04DF805988A
:1012E00007E000200DF0BCF900200DF045F86FF08C
:1012F0001D000DF54E7DBDE8F0816FF00900F8E7A7
:101300006FF00A00F5E700BFB8E705081499060872
:101310009498060888990608980600207C99060883
:10132000949906082DE9F0410646324900F06FFC19
:10133000351D4FF48053304A3049284601F0A2FA57
:1013400004232F4A2F4906F1100001F0CBFF06F5C8
:10135000077740F26442002138465AF087FC0024A7
:1013600086F81C424FF40C784246214606F5087078
:101370005AF07CFC4246214606F58A605AF076FC1B
:101380003246294606F5D06001F036FF06F28C653C
:101390004FF44172214628465AF068FC214600E08D
:1013A000013101EB410305EB830300221A600022A7
:1013B0001A715A719A710120D871187258721820D6
:1013C0009872DA723F29EBD1002485F800433A463F
:1013D0000D4906F5196001F061FB86F89C494FF450
:1013E0000052214606F69D105AF040FC3046BDE8FA
:1013F000F08100BF7036002000040240BC3700209E
:101400000008024074370020C436002008B50121CE
:10141000034803F087FD012800D0002008BD00BF6D
:101420000008024008B501220221024803F092FDA3
:1014300008BD00BF0008024008B500220221024892
:1014400003F088FD08BD00BF00080240F8B506465D
:101450000F46154600240DE03046FFF7E3FF28460F
:1014600002F062FF3046FFF7E7FF284602F05CFF1C
:101470000134E4B2BC42EFD3F8BD000038B50446F5
:1014800000F038FC201D01F031FA04F5077001F07E
:1014900069FB04F1100001F0F7FF4FF4FA521F4905
:1014A0001F4802F02FFD2046FFF7B0FF84F89C098B
:1014B000012821D01B4A1C491C4800F001FBFFF702
:1014C00057FD01281AD01A4A1A49184800F0F8FAAC
:1014D00094F89C39012B13D0144D1749284600F07D
:1014E000EFFA3C221549284600F0EAFAC822032107
:1014F0002046FFF7ABFF38BD114ADCE7114AE3E7AE
:101500000A4D1149284600F0DBFA3C220F492846D3
:1015100000F0D6FA2046FFF785FFECE748390020B7
:1015200054020020A8990608CC99060898090020C2
:10153000BC990608D8990608349A0608509A0608F5
:10154000A0990608B0990608E4990608009A0608CA
:101550002DE9F04385B00646FFF70AFD074642E055
:1015600053B10122039B0093029B5249524800F061
:1015700029FB05B0BDE8F0830022F3E74F494E4850
:1015800000F020FBF5E72046FEF772FE44F62063EC
:10159000009383B222464A494A4800F021FD04469E
:1015A00002464949444800F08BFA14E04749424852
:1015B00000F008FBDDE72046FEF75AFE83B2224624
:1015C000404906F1100002F0FDF802460446404989
:1015D000394800F075FAC82C62D10399284601F009
:1015E0002BFC002857D006F50775284601F0ECFAC9
:1015F00000285AD000230293039306F69D1403ABF0
:10160000019302AB00934FF4E1634FF40052214683
:10161000284601F075FB03460028A1D0DDF80880BC
:10162000B8F1000F9CD0DDF80C90B9F1000F97D005
:101630002046FEF71DFE00904B46424625491E48B7
:1016400000F03EFA012FB6D1FFF79EFC002895D09E
:10165000214B1B78002B91D020491A48FFF79CFCA6
:10166000002890D11E491748FFF796FC00289DD00E
:101670002046FEF7FDFD43F69823009383B22246F1
:101680000F491048FFF764FD0446024615490A4811
:1016900000F016FA9FE71449074800F093FA68E74C
:1016A0001249054800F08EFA63E71149024800F03C
:1016B00007FA5EE7E89B0608980900204C9C06089C
:1016C00078AA0608809B0608909C0608B09C06082D
:1016D000D89C0608189C060854020020849C060822
:1016E00078980608A09C0608E89C0608049D060851
:1016F000249D060838B50546FFF73AFC0446012844
:101700001DD0244A2449254800F0DAF9012C18D0CC
:1017100005F11004204601F09BFE204601F060FF19
:1017200080BB2846FFF714FF204602F059F92046F7
:1017300001F0AAFE1A49194800F0C2F938BD194A49
:10174000E0E7FFF721FC98B1174B1B7843B9164C23
:101750004FF4FA521549204602F0D4FB237863B1C6
:101760002846FFF7F5FE0E490C4800F0A9F9E5E719
:101770000F490A4800F026FAE0E70E49074800F052
:1017800021FADBE70C49054800F01CFA204601F07D
:101790007BFED3E75C9D0608609D06089809002043
:1017A000009E0608589D0608540200204839002073
:1017B000989D0608CC9D0608409E060880B5D2B0CC
:1017C000044618E02046FFF795FF94F89C39002B5B
:1017D00075D1404D3C224049284600F071F9204621
:1017E000FFF72AFE3C2104F5196001F05FF93B493F
:1017F000284600F065F93A4802F0F4FB2046FFF76E
:1018000005FE84F89C09374B93E803000890ADF877
:101810002410090C8DF8261008A904F5D06001F0F9
:101820000BFD10EE106A9DF825309DF824209DF8E0
:1018300022109DF821009DF820700AAD04970390B6
:101840000291019200939DF82630274A20212846D4
:101850005AF06EF83046FEF777FE06460F460095C2
:1018600002460B4621491B4800F0BBF932220121F8
:101870002046FFF7EBFD9DF826309DF825209DF8CA
:1018800024109DF822009DF821509DF820C0CDF82D
:101890001CC006950590049103920293CDE9006760
:1018A000134B144A4FF4807112A85AF041F80028E3
:1018B00088DD12A904F5077001F09EF982E73C2249
:1018C0000D49044800F0FCF84EF6602002F02CFDB3
:1018D00091E700BF98090020049F06081C9F060896
:1018E000540200207CE80508789E0608A09E0608A1
:1018F000009B0608B09E0608389F060810B50446EF
:1019000040F8041B4FF4967200215AF0AFF90123FE
:1019100084F83031204610BD012800D0704708B54A
:101920004FF6FF73994200D008BD02490248FFF705
:10193000E5FFF9E72C37002098090020006800B186
:1019400002B9704708B5C82307F010FD08BD38B5C7
:1019500090F8303153B105460C4639B10846FEF7D0
:1019600087FC82B221462846FFF7E8FF38BD000019
:1019700008B50249FFF7EBFF08BD00BF549F0608FA
:101980002DE9F04383B01E4690F8303113B903B00F
:10199000BDE8F08307460C46914600F1040802F0CA
:1019A000B7FC034601960094154A4FF496714046E1
:1019B00059F0BEFF054600240BE019F80430114A27
:1019C000C5F5967108EB050059F0B2FF05440134E6
:1019D000A4B2B44202D2B5F5927FEEDB6B1C7A1949
:1019E0000D211171AA1C3B440A211971BB18002159
:1019F000197192B241463846FFF7A0FFC7E700BF12
:101A0000A09F0608C09F0608032809D8DFE800F059
:101A1000020A0406044870470448704704487047A7
:101A20000448704704487047C89F0608D89F0608B6
:101A3000E09F0608E89F0608D09F06082DE9F043BE
:101A400083B090F8305115B903B0BDE8F083044677
:101A5000894690461F46061D02F05AFC0546484638
:101A6000FFF7D2FF00902B46144A4FF49671304690
:101A700059F05EFF051EE7DB3B464246C5F5947113
:101A800070195AF025F8021E16DB2A44B2F5947F2D
:101A900001DD4FF49472531CA1180D20087102321D
:101AA00023440A211971A3180021197192B23146F9
:101AB0002046FFF743FFC7E70022E6E7F09F06084E
:101AC0000EB400B582B003AB53F8042B0193002190
:101AD000FFF7B4FF02B05DF804EB03B070470000FD
:101AE00038B50446642002F01FFC2046FFF740FF93
:101AF00026492046FFF72BFF25492046FFF727FF01
:101B000024492046FFF723FF23492046FFF71FFF04
:101B100022492046FFF71BFF21492046FFF717FF08
:101B200020492046FFF7CCFF04F05AFD1E4DA5FBCF
:101B30000032920C1D492046FFF7C2FF04F056FE0A
:101B4000A5FB0032920C1A492046FFF7B9FF04F0BA
:101B500059FEA5FB0032920C16492046FFF7B0FF54
:101B600004F064FEA5FB0052920C13492046FFF7D7
:101B7000A7FF12492046FFF7A3FF11492046FFF7B0
:101B80009FFF2046FFF7F4FE38BD00BF00A0060807
:101B900034A0060874A00608B8A00608F8A0060835
:101BA0001099060838A1060883DE1B4358A10608D1
:101BB0006CA1060880A1060894A10608A8A1060841
:101BC000D4A106080EB400B582B003AB53F8042BC1
:101BD00001930221FFF732FF02B05DF804EB03B07E
:101BE00070470EB400B582B003AB53F8042B0193D9
:101BF0000321FFF723FF02B05DF804EB03B0704749
:101C000008B54FF6FF710120FFF786FE08BD0160A1
:101C10007047030903EB830300F00F0000EB430060
:101C2000C0B2704710B586B00C46006864230293BA
:101C30000723019304AB009301230022D02103F07A
:101C40000BFB88BB9DF8100000F07F00FFF7E1FF61
:101C500020709DF8110000F07F00FFF7DAFF607040
:101C60009DF8120000F03F00FFF7D3FFA0709DF831
:101C7000130000F00700FFF7CCFFE0709DF81400A0
:101C800000F03F00FFF7C5FF20719DF8150000F040
:101C90001F00FFF7BEFF60719DF81600FFF7B9FF48
:101CA000A071012006B010BD0020FBE700B587B091
:101CB0000068642302930223019305AB0093012380
:101CC0001122D02103F0C8FA9DF9143000EE103A29
:101CD000B8EEC00A9DF815309B0907EE903AF8EE71
:101CE000E77AB5EE007A67EE877A30EE270A07B01A
:101CF0005DF804FB10B586B0044664230322D021AE
:101D0000006803F0DBFC30B11C491D48FFF75AFFA7
:101D1000002006B010BD1B4B93E803000490ADF803
:101D20001410090C8DF8161004A92046FFF77AFF4D
:101D300070B92046FFF7BAFF10EE100AFEF704FC58
:101D400002460B4610490E48FFF7BAFE0120E0E7B5
:101D50009DF814309DF812209DF811109DF8100088
:101D600003900291019200939DF815309DF8162082
:101D700006490348FFF7A4FEDBE700BF54A20608AC
:101D80009809002084E805082CA20608F4A106089A
:101D9000024680B1037813B90020704701321378EE
:101DA0003BB1A3F130010929F8D92E2BF6D0002040
:101DB0007047012070470020704700000AB90020DA
:101DC000704770B504460D46164600780CF055F87D
:101DD000024648B1B04200D3B2B2294620780CF096
:101DE00015FE002809DB70BD02F092FA6368984284
:101DF00001D90348F7E70348F5E70348F3E700BFD5
:101E00000098FFFF0097FFFF0094FFFF0AB9002032
:101E1000704770B504460D46164600780BF0E2FF99
:101E2000024650B1B04200D3B2B2294620780CF03D
:101E300099FC002803DB20B170BD0348FCE7034890
:101E4000FAE70148F8E700BF8097FFFF0094FFFF23
:101E5000F0B58FB004460E46FFF79AFF07460028FC
:101E60002FD00023039304930593069306AB0193AD
:101E700005AB009304AB03AA2049204659F08CFD22
:101E8000042812D1039BFF2B13D8049AFF2A12D8DF
:101E9000059AFF2A11D8069AFF2A10D83370049B9E
:101EA0007370059BB370F27000E0002738460FB0E6
:101EB000F0BD0027FAE70027F8E70027F6E700273C
:101EC000F4E70F4901200FF05BFF00250895099505
:101ED0000A950B950C95CDF8335008A80DF038FFF6
:101EE000079507AA21460DF132000FF065FF012882
:101EF000DCD1079B33600127D8E700BF8498060830
:101F0000D00A002000285ED070B50D460446C222DB
:101F10000021284659F0AAFE40F2BB13A5F8C030B4
:101F200008222D49204659F0B6FE00284DD104F173
:101F300008010C4600E0013423781BB12F2B01D09F
:101F40003A2BF8D1661A731E3E2B01D900203DE0D2
:101F5000324628465AF059F80023AB5523783A2BDD
:101F60000BD023780BB32F2B33D12046FEF780F90B
:101F7000431E7E2B1FD9002028E00134002306E0F9
:101F800003EB830302EB4302A2F130030134227816
:101F9000A2F13001C9B20929F2D9591E4FF6FE72D9
:101FA000914214D8A5F8C030DBE70C4B1B88A5F88C
:101FB000403001200AE0421C214605F140005AF061
:101FC00024F8012002E000207047002070BD0020AE
:101FD000FCE70020FAE700BF849C0608809806080A
:101FE0002DE9F043ADF6EC4D0446884616461D46F5
:101FF000DDF8087DC22200210DF6244059F036FE9E
:102000000DF624412046FFF77DFF002800F0A8814F
:102010000023CDF8203C0DF542610DF62440FFF77A
:1020200017FF002800F09F8100234CF2513201215C
:1020300018460CF06DF8002878D1BDF8E42C0DF5A9
:10204000426100200CF006FA012875D10DF6C82077
:1020500045F0B8FE0DF51F6046F0CEFE0DF64C00C3
:1020600026F010FF0DF20C701DF020F80B230093EA
:10207000C34B0DF64C02C3490DF20C701DF01DFC54
:1020800000285FD10DF5AF6058F074FDBE4B1C68A1
:1020900054B12046FEF7ECF8421C21460DF5AF6026
:1020A00057F0F6F8002853DB00231A4619460DF5C1
:1020B0001F6046F0EFFE002850D10DF20C72B349BC
:1020C0000DF51F6046F0B6F8AF4B1B68002B4BD0E8
:1020D00002210DF51F6046F09EF800220DF5AF615C
:1020E0000DF51F6046F0E8F80DF51F610DF6C820EC
:1020F00045F0CCFE00283DD10DF624410DF6C82058
:1021000046F00EFA0024CDF87045CDF8744502F083
:10211000FFF83844CDF8740500949D4B9D4A0DF5A9
:10212000AE610DF6C82046F097F832E000200CF0C2
:1021300023F96FF0130454E000200CF01DF96FF048
:1021400014044EE000200CF017F96FF01D0448E075
:1021500000200CF011F96FF01E0442E000200CF09A
:102160000BF96FF01F043CE000210DF51F6046F0F5
:1021700052F8B9E700200CF0FFF86FF0200430E0CF
:1021800002F0C6F8DDF8743598420ED8012002F04E
:10219000CBF80DF6C82046F0A3FB044630B310F58B
:1021A000D24FEDD010F5D14FEAD00DF6C82046F051
:1021B00091FD0DF51F6047F047F80DF5AF6058F041
:1021C000E7FC0DF20C701CF08CFF0DF64C0026F0B5
:1021D0007DFE00200CF044FA00200CF0CDF86FF0EA
:1021E000270420460DF6EC4DBDE8F083B8F1000F52
:1021F00017D00295CDF804800DF6244300930DF618
:102200006443654A4FF41671C6A859F091FB8146A4
:10221000421E40F256239A4200F2A8804FF0000876
:1022200007E0DFF88481E4E7804402E0012002F067
:102230007BF8C14512D9A9EB0802C6AB03EB080134
:102240000DF6C82044F004FE0028EDDC10F5D24F56
:10225000ECD010F5D14FE9D04FF0FF34002C40F016
:1022600088804FF0000804E0804402E0012002F082
:102270005BF8454511D9A5EB080206EB08010DF600
:10228000C82044F0E5FD0028EEDC10F5D24FEDD07B
:1022900010F5D14FEAD04FF0FF34002C6CD102F092
:1022A00037F8054602F034F8431BBB4252D2C4F55E
:1022B0003F72033206AB19190DF6C82044F0BAFB81
:1022C00000281BDD044406A800230355334959F0B8
:1022D00007FD034660B1002BE4D00022059205AA59
:1022E0002F49184659F058FB0128DBD1059C0EE018
:1022F0002C4906A859F0F4FC0346ECE768B310F546
:10230000D24F23D010F5D14F20D04FF0FF340DF62F
:10231000C82044F005FE0DF6C82046F0DBFC0DF5A4
:102320001F6046F091FF0DF5AF6058F031FC0DF2E3
:102330000C701CF0D6FE0DF64C0026F0C7FD0020F8
:102340000CF08EF900200CF017F84AE7022001F09B
:10235000EBFFA7E74FF0FF34D9E74FF0FF34D6E7A4
:102360006FF009043DE76FF00A043AE76FF03104BB
:1023700037E76FF0320434E76FF0330431E700BF22
:102380007CA20608A7910208CC0A002093FA010853
:10239000BD1D00080D1E0008949806087C990608CB
:1023A000949906088899060878AA06082DE9F0414C
:1023B0008AB0002405940694079408940994009424
:1023C000484B1A6B42F001021A631A6B02F00102C9
:1023D0000092009A01941A6B42F002021A631A6B7F
:1023E00002F002020192019A02941A6B42F0040276
:1023F0001A631A6B02F004020292029A03941A6B97
:1024000042F008021A631A6B02F008020392039A60
:1024100004941A6B42F080021A631B6B03F0800372
:102420000493049B304E22460621304602F092FD72
:102430002E4F22464FF48051384602F08BFDDFF8D4
:10244000B08001224FF48071404602F083FD0122EA
:102450000821304602F07EFD0623059301250695EE
:102460000794089405A9304602F0C0FB4FF480534E
:102470000593069507940223089305A9384602F0B0
:10248000B5FB059506940795089405A9304602F01A
:10249000ADFB059506940795089405A9384602F00A
:1024A000A5FB4FF4807305930695079403270897BF
:1024B00005A9404602F09AFB082305930695079468
:1024C000089705A9304602F091FB10230593069466
:1024D0000794089405A9304602F088FB0AB0BDE8CD
:1024E000F08100BF003802400008024000040240B2
:1024F00000000240012800D0704708B54FF6FF7376
:10250000994200D008BD0248FEF70CFFFAE700BF71
:10251000D00C002000B58DB072B60DF1040C114C3A
:102520000FCCACE80F000FCCACE80F0094E807002C
:10253000ACE80300ACF800204FF4FA73292201A99B
:10254000094806F013FF0221084802F01CFD002391
:102550000093009A064B9A42F5D800BF009B0133C6
:102560000093F6E788A206082C37002000080240F6
:10257000DF93040008B50A480A4B03604FF4E133C7
:10258000436000238360C36003610C224261836166
:10259000C36106F091FE00B908BDFFF7BBFF00BFA5
:1025A0002C3700200010014008B50A480A4B036090
:1025B0000A4B436000238360C3604FF48042026192
:1025C00043618361C361036202F0F8FC00B908BD96
:1025D000FFF7A0FF7036002000540040A0860100E5
:1025E00008B50A480A4B03604FF4165343600023B2
:1025F0008360C36003610C2242618361C36106F0A2
:102600005BFE00B908BDFFF785FF00BF74370020EF
:102610000044004008B50A480A4B03604FF41653C3
:10262000436000238360C36003610C2242618361C5
:10263000C36106F041FE00B908BDFFF76BFF00BFA4
:10264000BC3700200048004008B50D480D4B036022
:10265000002343607F228260FF22C26003614361E6
:10266000836104F0F7F840B900220221032001F051
:102670007AFF032001F093FF08BDFFF74BFF00BF77
:10268000C43600200028004008B50C480C4B0360FD
:10269000532343600023836040F2E732C2608361CA
:1026A00006F0CEFB40B900220321362001F05BFF8B
:1026B000362001F074FF08BDFFF72CFFE436002040
:1026C0000010004000B595B03022002108A859F054
:1026D000CDFA002303930493059306930793019384
:1026E000214A116C41F080511164126C02F0805249
:1026F0000192019A02931D4B1A6842F480421A60BB
:102700001B6803F480430293029B052308934FF454
:102710008033099301230A9302230E934FF480021E
:102720000F9204221092A82211921293072313935E
:1027300008A803F0F7FB98B90F230393022304932F
:10274000002305934FF4A05306934FF4805307934F
:10275000052103A803F05EFE20B915B05DF804FB67
:10276000FFF7D8FEFFF7D6FE0038024000700040A9
:1027700008B501F067FDFFF7A5FFFFF717FEFFF7AC
:10278000F9FE224C2046FFF7ABF921492046FFF71E
:1027900097F9FFF709FF1F492046FFF791F9FFF767
:1027A0001FFF1D492046FFF78BF9FFF733FF1B4939
:1027B0002046FFF785F901F035F900F0DFFB1849F5
:1027C0002046FFF77DF907F097FF16492046FFF7EF
:1027D00077F9FFF739FF14492046FFF771F9FFF742
:1027E00053FF12492046FFF76BF92046FFF7C0F868
:1027F0000F492046FFF764F92046FFF7B9F80D4C62
:102800002046FEF73BFE2046FEF7D8FF9809002041
:10281000B4A20608D4A20608F4A2060814A3060867
:1028200034A3060854A3060874A3060894A3060854
:10283000B4A30608D00C002008B54FF6FF710120A4
:10284000FFF758FE08BD80B485B000AFF860B960EE
:102850007A603B603B6800221A606FF03B031846C9
:102860001437BD465DF8047B7047B0B500AF01F08A
:102870004FFD034600221C46154622462B461046B5
:102880001946B0BD016042600381704708B501225E
:102890000189406802F05EFB08BD08B5002201898D
:1028A000406802F057FB08BD00B586464FF0000CAB
:1028B0004FF6FF7010E040080133DBB2072B07D85A
:1028C00010F0010FF7D04AF2010282EA5000F3E75C
:1028D0000CF1010C1FFA8CFC8C4504D21EF80C3054
:1028E00058400023EAE75DF804FB000008B5FFF755
:1028F000D4FF02490248FFF7E3F808BD18A4060810
:10290000980900202DE9F04792B004460F46904602
:10291000BDF868601B9D8DF840108DF841201A0AA3
:102920008DF842208DF84330330A8DF844308DF80D
:102930004560062110A8FFF7B7FF8DF84600C0F3E9
:102940000F208DF84700082310AA4D494D48FFF786
:1029500017F82046FFF79AFF012001F0E5FC6423F9
:10296000082210A9206806F001FD022001F0DCFC1D
:102970002046FFF792FF4FEA460A1FFA8AFA0AF149
:1029800005091FFA89F940220021684659F06EF9BD
:102990001C9B4A466946206806F073FD032830D028
:1029A0000446A8BB4B466A4637493648FEF7E8FF5F
:1029B0009DF80030BB4257D19DF801209DF90130B0
:1029C000002B56DB424556D19DF80230B3EB460F43
:1029D00053D10AF1030189B26846FFF765FF09F197
:1029E00046036B4413F8483C09F147020DEB02091A
:1029F00019F8482C43EA0223984210D14FF0000CFA
:102A000029E03A4621491F48FFF7DCF801242CE071
:102A100002461F491B48FFF7D5F8042425E002466B
:102A20001C491848FFF7CEF802241EE04FEA4C0379
:102A30004B336B4413F8482C0CF1020312A901EB41
:102A4000430313F8483C43EA022325F81C300CF1F9
:102A5000010C1FFA8CFCB445E8D33B4632460E49C4
:102A60000848FFF72DF800E00424204612B0BDE826
:102A7000F0870324F9E70424F7E70424F5E700BF0F
:102A800058A4060898090020A4A4060860A4060813
:102A900088A40608ACA40608D4A406084FF0000CCD
:102AA00080F800C0416082607047000038B504467D
:102AB0000D46806800F074F8606804F09DF8606866
:102AC00005B1013D0422294603F0D4FFD0B93220DC
:102AD00001F02AFC01F04CFC0E4A136843F0040399
:102AE00013600121084603F0EDF9FFF7EBFD01F05B
:102AF0004FFC606804F080F8A06800F033F8002311
:102B0000237038BD04490548FFF75CF8FFF702FD64
:102B1000DDE700BF00700040FCA406089809002013
:102B2000022A08D9044B1B7803B930230B703A23CF
:102B30004B7000238B707047BC39002070B584B097
:102B40000C4615461E46032203A9FFF7E9FF00962F
:102B500003AB034A2946204658F0EAFE04B070BD94
:102B600018A5060810B582B00446032201A9FFF794
:102B7000D7FF012201A9201D09F0FAFD18B9012093
:102B8000207002B010BD024603490448FFF71AF84E
:102B900000202070F5E700BF20A506089809002056
:102BA000037803B9704710B582B00446032201A927
:102BB000FFF7B6FF002201A9104609F0D9FD002356
:102BC000237002B010BD00008446007800B9704741
:102BD00000B597B0074B402206A96046FFF7AEFF4D
:102BE000694606A80AF02DFDB0FA80F0400917B03A
:102BF0005DF804FB38A5060870B5ADF5207D0646E6
:102C00000078F8B10C4600296ED00846FDF730FB7D
:102C10000546431EEF2B09D80023AB4215D2E25CD8
:102C20000D2A0AD00A2A08D00133F6E702462F49B6
:102C30002F48FEF7C7FF002004E02E492C48FEF77E
:102C4000C1FF00200DF5207D70BD2B4B402290A9C7
:102C50003046FFF773FF4FF40C72002104A859F0BF
:102C600005F8122290A904A809F0C8FD08B10020B7
:102C7000E8E7079904A80AF0DBFA80B90023039378
:102C800003AB2A46214604A80AF0B5F810B9039B05
:102C9000AB4209D004A80AF0A1FA0020D2E704A8A8
:102CA0000AF09CFA0020CDE7144B1B68ADF8083001
:102CB0001B0C8DF80A300023019301AB022202A9FC
:102CC00004A80AF098F850B904A80AF009FA0446D2
:102CD00004A80AF083FAB4FA84F04009B2E704A821
:102CE0000AF07CFA0020ADE70020ABE744A5060817
:102CF0009809002064A5060838A50608109906085A
:102D00002DE9F04FADF55B7D17469846DDF89093C1
:102D10000023C9F80030E59A136090F800A0BAF1DA
:102D2000000F7BD00D46002973D0032F74D947457F
:102D300001D807F1FF38B8F1030F02D84FF0000AAD
:102D40006CE03C4B4022CAA9FFF7F8FE4FF40C722E
:102D500000213EA858F08AFF0122CAA93EA809F026
:102D60004DFD00285FD15B232B7001262DE001AAC9
:102D70000021D1541C4654B1631E01AAD25C0D2A15
:102D8000F5D00A2AF3D0202AF1D0092AEFD04CB38B
:102D9000D9F8002052B3012323440233334443457E
:102DA00026D8BB4224D812B12C23AB55013622467B
:102DB00001A9A81959F029F92644D9F8003001339E
:102DC000C9F80030E59BC3F800B03EAAF42101A881
:102DD0000AF014FE60B1DDF810B101A8FDF748FA61
:102DE0000446C8E7E59BC3F800B0EEE71346D3E717
:102DF000731C5D22AA550022EA543EA80AF0EEF99F
:102E0000D9F8003093B1E59B1B683BB94FF0000A3D
:102E100004E04FF0000A01E04FF0000A50460DF5C3
:102E20005B7DBDE8F08F4FF0000AF7E74FF0000A36
:102E3000F4E700BF38A5060870B5ADF5DD6D06787E
:102E400016B104460D4619B930460DF5DD6D70BD5D
:102E5000484B40220DF5D561FFF770FE464B4022EE
:102E60000DF5CD612046FFF769FE4FF40C7200218D
:102E70000DF5876058F0FAFE01220DF5D5610DF5CC
:102E8000876009F0BBFC002872D1DDF844349D4214
:102E90000BD30DF587600AF0A1F90DF5D5600AF0A6
:102EA00009FCB0FA80F67609CEE74FF40C720021E7
:102EB00082A858F0DBFE0A220DF5CD6182A809F048
:102EC0009DFC00BB29460DF587600AF0B1F900BBF7
:102ED00000230193009301AB4FF4007202A90DF59A
:102EE000876009F049FE044608BB019AFAB16B46B7
:102EF00002A982A809F07FFFC0B9009A019B9A42FB
:102F0000E9D0012413E00DF587600AF067F9002687
:102F10009AE70DF587600AF061F982A80AF05EF978
:102F20000DF5CD600AF0C6FB00268DE701240DF5F6
:102F300087600AF053F982A80AF050F994B90DF5A8
:102F4000D5600AF0B7FB0DF5D5610DF5CD600AF03F
:102F50005CFC00283FF478AF0DF5CD600AF0AAFBC9
:102F6000002671E70DF5CD600AF0A4FB00266BE7A3
:102F7000002669E738A5060884A5060880B500AFD5
:102F8000114B124A1A60104B00225A600E4B00225D
:102F90009A600D4B0022DA600B4B00221A610A4B3B
:102FA00000225A61084B02229A61074803F0AAFEE8
:102FB0000346002B01D0FFF7ADFA4FF40061024841
:102FC00004F024FE00BF80BD04380020002C014026
:102FD00080B58CB000AF786007F11C0300221A6046
:102FE0005A609A60DA601A617B681B687A4A934279
:102FF00040F0EE800023BB61784B5B6C774A43F472
:1030000000635364754B5B6C03F40063BB61BB6985
:1030100000237B61714B1B6B704A43F48003136385
:103020006E4B1B6B03F480037B617B6900233B6168
:103030006A4B1B6B694A43F004031363674B1B6BBA
:1030400003F004033B613B690023FB60634B1B6B94
:10305000624A43F008031363604B1B6B03F00803E1
:10306000FB60FB684FF47063FB6102233B6201234A
:103070007B620323BB620C23FB6207F11C0319462E
:10308000574801F0B3FD4FF48053FB6100237B628E
:1030900007F11C031946524801F0A8FD0423FB6107
:1030A00001237B6207F11C0319464E4801F09EFD87
:1030B0004D4B4E4A1A604C4B4FF000625A604A4BDF
:1030C00000229A60484B0022DA60474B4FF480623E
:1030D0001A61454B4FF480525A61434B4FF4804282
:1030E0009A61414B2022DA613F4B4FF440321A6221
:1030F0003D4B04225A623C4B03229A623A4B4FF4F6
:103100000002DA62384B4FF400121A63364801F0BD
:1031100061FA0346002B01D0FFF7FCF97B68324AC5
:103120001A64314A7B689363314B324A1A60304BE0
:103130004FF000625A602E4B40229A602C4B0022C6
:10314000DA602B4B4FF480621A61294B4FF48052A6
:103150005A61274B4FF480429A61254B2022DA6155
:10316000234B4FF440321A62214B04225A62204B07
:1031700003229A621E4B4FF40002DA621C4B4FF49A
:1031800000121A631A4801F025FA0346002B01D0F9
:10319000FFF7C0F97B68164ADA63154A7B689363C8
:1031A000002205213B2001F0DEF93B2001F0F7F978
:1031B00000220521452001F0D6F9452001F0EFF964
:1031C00000220521312001F0CEF9312001F0E7F98C
:1031D00000BF3037BD4680BD002C014000380240A2
:1031E00000080240000C0240883800205864024069
:1031F000E8380020A064024001604260014A826019
:10320000704700BF003C1CC601EB004107EE901A5E
:10321000F8EE677AB2EE047AC7EE876A9FED047A19
:10322000C6EE877A9FED030A30EE670A704700BF4B
:1032300000007A440000000070B586B004460D46D8
:10324000224B83600023ADF81430ADF8163040688F
:10325000FEF7E8FC40B34FF47A73029305AB019399
:10326000022300930023042201212068FFF74AFB78
:10327000024628BBBDF81450BDF8166031462846FA
:10328000FFF7C2FF10EE100A84ED020AFDF75CF9A9
:10329000CDE9000133462A460D490E48FEF710FCE1
:1032A00094ED020A06B070BD0B490A48FEF78AFC8D
:1032B0000A4B186828609A889B79AA80AB71CAE784
:1032C00007490448FEF77EFCEAE700BF003C1CC645
:1032D000C4A506089809002090A506088CE80508F2
:1032E000E4A5060810B504460160426003814FF46E
:1032F000007200210A3058F0B9FC204610BD006869
:1033000008B101B102B9704708B54FF47A7306F0FD
:103310002DF808BD2DE9F04782B0002944D00746BA
:1033200015461E468846012A40D900F0F1FF814625
:103330002A460021404658F099FC002408E05446F3
:10334000002308F80430204602B0BDE8F087544658
:1033500000F0DEFFA0EB0900B042F1D26B1E9BB281
:10336000A342EDD90A2301220DF10701386806F0C6
:1033700088F80028ECD19DF8073004F1010A1FFA03
:103380008AFA08F80430BAF1030FE0D90849404638
:1033900058F0A6FC0028D2D10649404658F0A0FCBF
:1033A0000028CCD15446D3E70024CCE70024CAE758
:1033B000FCA50608D89F06082DE9F04F83B0DDF87C
:1033C00030A000293CD00746154698460E46CBB3A0
:1033D000012A39D900F09CFF81462A460021304657
:1033E00058F044FC002400F093FFA0EB090CD445F6
:1033F00020D26B1E9BB2A3421CD90A2301220DF1DD
:103400000701386806F03DF80028ECD19DF8073038
:1034100004F1010B1FFA8BFB33554146304658F03F
:103420005FFC30B90949304658F05AFC08B95C468F
:10343000D9E75C4600233355204603B0BDE8F08F42
:103440000024F9E70024F7E70024F5E7D89F0608F1
:1034500038B50446094D0A492846FEF731FB0122DA
:103460002189606801F076FD4FF47A6000F05CFF1E
:1034700004492846FEF724FB38BD00BF9809002008
:1034800004A6060830A6060810B5044606490748F3
:10349000FEF716FB00222189606801F05BFD4FF406
:1034A000FA7000F041FF10BD58A6060898090020E8
:1034B000002A37D0F0B5C1B005461C4616469BB36E
:1034C00039B30B461A4A4FF48071684658F030FA07
:1034D000184F6A4618493846FEF783FB6846FCF7E2
:1034E000C7FE82B269462846FFF709FF469B22467F
:1034F00031462846FFF70EFF324610493846FEF7A0
:1035000070FB0F49304658F0EBFB20B1002041B072
:10351000F0BD0C49D5E70C49304658F0E1FB28B91D
:103520000120F4E7012070470120F0E70520EEE7D5
:1035300084A60608980900208CA6060898A6060806
:10354000A4A6060878AA0608D89F060800B595B074
:103550004FF4FA630093402304AA0B49FFF7A8FF36
:103560000A4904A858F0BCFB60B100228DF80F2076
:103570000DF10F02064958F00FFA9DF80F0015B033
:103580005DF804FB6320FAE7A8A60608B0A60608C3
:10359000B8A6060810B5A2B004464FF4FA6300932B
:1035A000802302AA0A49FFF783FF58B94FF4FA6350
:1035B0000093802302AA07492046FFF779FF0120E4
:1035C00022B010BD04490548FEF7FCFA0020F7E7D9
:1035D000C4A60608E0A60608CCA60608980900209E
:1035E00070B5E2B0054661496148FEF769FA00240A
:1035F000092C12D84FF4FA6300934FF4807322AA77
:103600005C492846FFF754FF002844D04FF4FA7075
:1036100000F08AFE0134E4B2EAE70026002E3CD036
:103620004FF4FA6300934FF4807322AA524928465C
:10363000FFF73EFF41F2883300934FF4807322AAD4
:103640004E492846FFF734FF4D4922A858F048FB61
:1036500048B34C494648FEF733FA00241D2C28D8BD
:103660004FF4FA6300934FF4807322AA4649284628
:10367000FFF71EFF454922A858F032FBD0B9444954
:1036800022A858F02DFBA8B94FF47A7000F04CFE38
:103690000134E4B2E2E70126C0E73E493448FEF7D0
:1036A00091FA012452E03C493148FEF78BFA02249A
:1036B0004CE00026002E4CD02846FFF747FF02467C
:1036C00036492B48FEF7FCF92846FFF763FF41F225
:1036D000883400944FF4807322AA31492846FFF7BA
:1036E000E7FE4FF4FA7000F01FFE00944FF4807371
:1036F00022AA2C492846FFF7DBFE2B4B2B4A8021C0
:1037000002A858F015F900944FF4807322AA02A978
:103710002846FFF7CDFE43F6982300934FF48073BD
:1037200022AA23492846FFF7C3FE0446B8B941F24E
:10373000883300934FF4807322AA1E492846FFF76E
:10374000B7FE22AA1C490A48FEF7BAF9204662B021
:1037500070BD1A490648FEF735FA0324F6E7184902
:103760000348FEF72FFA0424F0E700BFE4A606089A
:103770009809002078AA060828A706082CA706089A
:1037800034A706084CA7060858A70608ACA70608E1
:1037900060A706080CA706083CA7060888A7060825
:1037A000A4A70608B0A70608CCA70608D8A706084D
:1037B000F0A706080CA8060818A8060864A70608BB
:1037C000FCA706082DE9F041ADF5467D002900F083
:1037D000DD80054616461C460F46002A00F0D880BC
:1037E00023B920460DF5467DBDE8F0814FF4FA631C
:1037F00000934FF4007346AA6649FFF759FE4FF451
:10380000967000F091FD41F2883300934FF40073FD
:1038100046AA61492846FFF74BFE002840F09B80EE
:1038200040F6B838CDF800804FF4007346AA5B49E3
:103830002846FFF73DFE3B46594A4FF4807106A8E3
:1038400058F076F8CDF800804FF4007346AA06A928
:103850002846FFF72DFECDF800804FF4007346AAEE
:1038600050492846FFF724FE4F4B504A4FF48071D1
:1038700006A858F05DF8CDF800804FF4007346AA12
:1038800006A92846FFF714FE2346494A4FF48071E3
:1038900006A858F04DF806A8FCF7EAFC82B206A983
:1038A0002846FFF72CFD434F41F2883300933B46F7
:1038B0004FF4007246A92846FFF77EFD394646A818
:1038C00058F00EFA00284CD022463B493B48FEF700
:1038D000F7F8224631462846FFF711FD42F21073F1
:1038E0000093374B4FF4007246A92846FFF764FD5A
:1038F000112234492846FFF702FD334C47F230537A
:10390000009323464FF4007246A92846FFF754FD62
:10391000214646A858F0E4F9002831D0002303934B
:10392000049305AE0593009604AB03AA274958F00B
:1039300033F8049A94B2059B25492048FEF7C0F855
:1039400040F6B83300934FF4007346AA1149284655
:10395000FFF7AEFD45E71F491848FEF733F900248D
:103960003FE71D491548FEF72DF9CDF800804FF4CB
:10397000007346AA07492846FFF79AFD002430E75E
:1039800016490E48FEF71EF90024D9E7002428E75F
:10399000002426E730A806083CA806085CA806080C
:1039A00070A8060888A8060878AA0608B0A806081D
:1039B000E0A80608F8A806081CA90608980900202F
:1039C000A4A6060844A9060858A9060868A9060876
:1039D00080A9060848A8060804A90608A8A9060898
:1039E00010B592B004464FF4FA630093402302AA44
:1039F0000849FFF75DFD41F288330093402302AA96
:103A000005492046FFF754FD04490548FEF758F8DC
:103A100012B010BD30A80608A4A70608C8A9060859
:103A20009809002080B500AF174B184A1A60164B52
:103A30004FF482725A60144B00229A60124B00229B
:103A4000DA60114B00221A610F4B00225A610E4BB3
:103A50004FF400729A610C4B2822DA610A4B002263
:103A60001A62094B00225A62074B00229A62064BE7
:103A70000A22DA62044804F08BFD0346002B01D0D1
:103A8000FEF748FD00BF80BD4839002000300140EE
:103A900080B58AB000AF786007F1140300221A6085
:103AA0005A609A60DA601A617B681B68194A93420F
:103AB0002BD100233B61184B5B6C174A43F48053B6
:103AC0005364154B5B6C03F480533B613B690023EB
:103AD000FB60114B1B6B104A43F0010313630E4B49
:103AE0001B6B03F00103FB60FB68E0237B61022397
:103AF000BB610023FB6103233B6205237B6207F16B
:103B000014031946054801F071F800BF2837BD4677
:103B100080BD00BF0030014000380240000002407C
:103B200080B483B000AF00237B60104B5B6C0F4A06
:103B300043F4804353640D4B5B6C03F480437B6020
:103B40007B6800233B60094B1B6C084A43F08053A1
:103B50001364064B1B6C03F080533B603B6800BF53
:103B60000C37BD465DF8047B704700BF003802404B
:103B700080B400AFFEE780B400AFFEE780B400AFD2
:103B8000FEE780B400AFFEE780B400AFFEE780B48C
:103B900000AF00BFBD465DF8047B704780B400AF46
:103BA00000BFBD465DF8047B704780B400AF00BF26
:103BB000BD465DF8047B704780B500AF00F094FB14
:103BC00000BF80BD80B500AF024803F06DF800BFB4
:103BD00080BD00BFC436002080B500AF024803F0AE
:103BE000B5FC00BF80BD00BF0438002080B500AF29
:103BF000024805F07EF900BF80BD00BFE43600201A
:103C000080B500AF024800F0B5FD00BF80BD00BF29
:103C10008838002080B500AF024800F0ABFD00BF3F
:103C200080BD00BFE838002080B586B000AF786066
:103C3000144A154BD31A7B617B693B61134B1B689C
:103C4000002B02D1114B124A1A60104B1A687B6884
:103C500013443A699A4207D258F0A2F903460C225B
:103C60001A604FF0FF3309E0084B1B68FB60074BFD
:103C70001A687B681344054A1360FB6818461837B6
:103C8000BD4680BD0000022000040000A0390020D5
:103C9000A060002080B400AF164BD3F88830154ADE
:103CA00043F47003C2F88830134B1B68124A43F088
:103CB00001031360104B00229A600F4B1B680E4AE1
:103CC00023F0847323F4803313600B4B0B4A5A6048
:103CD000094B1B68084A23F480231360064B00221B
:103CE000DA60044B4FF000629A6000BFBD465DF899
:103CF000047B704700ED00E00038024010300024E3
:103D0000014B01221A707047A4390020014B012297
:103D10001A707047A5390020F0B589B004460E46E8
:103D20000020434B1870434B187004F108010DF04C
:103D300037FB4148414A01460CF090F800F0E8FAA0
:103D4000606000F0E5FA054611E00DF071F9C31E60
:103D5000DBB2012B1ED9364B1B7803F0FF07CBB922
:103D6000344B1B78002B58D1012000F0DDFA00F015
:103D7000CFFA401BB04255D200F0CAFA6368C01AAD
:103D8000B0F57A7FE1D30DF0B5FB636803F57A7384
:103D90006360DAE700230293039304930593069389
:103DA000CDF81B30264B93E803000290ADF80C10C1
:103DB0000DF10E000DF0ACFB0DF116000DF0C8FB7F
:103DC0000DF112000DF0E4FB0DF11A000DF000FCF6
:103DD00002238DF81E3002A80BF07AFF04F50B7455
:103DE00002AD0FCD0FC495E8030044F8040B24F88E
:103DF000021B090C21709DF810309DF811200192D2
:103E000000939DF80F309DF80E200E490E48FDF7E7
:103E100057FE0127384609B0F0BD0C490A48FDF7A6
:103E2000D1FEF7E70A490848FDF7CCFE0027F1E785
:103E3000A4390020A5390020013D00080D3D0008EF
:103E400094E80508F8A906089809002014AA0608AD
:103E50002CAA060870B588B0054600240294039485
:103E6000049405940694CDF81B401F4B93E803007F
:103E70000290ADF80C101D4B1868CDF80E001C4BCD
:103E80001868CDF812001B4B1868CDF816001A4BB5
:103E90001868CDF81A0001268DF81E6002A80BF0F4
:103EA00017FF05F50B7E0DF1080CBCE80F00AEE81E
:103EB0000F009CE803004EF8040B2EF8021B090CBF
:103EC0008EF800106C702E709DF810309DF8112047
:103ED000019200939DF80F309DF80E200749084885
:103EE000FDF7EEFD08B070BD94E8050868AA060865
:103EF00070AA060874AA06087CAA06084CAA060836
:103F00009809002070B586B0054616460023037058
:103F10004370294A1370294A1370084600F0C6F806
:103F200000F050F9264927480BF08AFA264927481D
:103F30000BF0ACFA264927480BF0D4FA264B04AA1A
:103F400093E8030082E8030002AC84E80300214602
:103F500010460BF031FC00BB00238DF8073000F059
:103F6000D7F904460DF1070117200BF0E7FA9DF889
:103F700007304BB9322000F0D7F900F0C9F9031B24
:103F800040F6B73C6345EDD931462846FFF7C4FEFD
:103F900068B101236B702B7007E010491048FDF7E2
:103FA00011FE2846FFF756FF287806B070BD284658
:103FB000FFF750FF2878F8E7A4390020A539002042
:103FC000E5400008CD4000082D410008FD400008F4
:103FD0009D41000851410008A0AA060884AA0608CD
:103FE000980900204378012B00D0704710B588B0A5
:103FF000044600F08DF96368C01AB0F57A7F05D2E7
:104000000DF016F8032808D008B010BD0DF072FAB4
:10401000636803F57A736360F2E700230293039306
:10402000049305930693CDF81B301D4B93E80300D2
:104030000290ADF80C100DF10E000DF069FA0DF1C3
:1040400016000DF085FA0DF112000DF0A1FA0DF138
:104050001A000DF0BDFA02238DF81E3002A80BF0F5
:1040600037FE04F50B740DF1080CBCE80F000FC40B
:104070009CE8030044F8040B24F8021B090C21708F
:104080009DF810309DF81120019200939DF80F309B
:104090009DF80E2003490448FDF712FDB4E700BF68
:1040A00094E80508ACAA06089809002080B483B0FB
:1040B00000AF7860044A7B68136000BF0C37BD46D0
:1040C0005DF8047B704700BFA839002080B500AFC1
:1040D00000224FF48071024800F03CFF00BF80BD19
:1040E0000000024080B500AF01224FF48071024809
:1040F00000F030FF00BF80BD0000024080B584B0FA
:1041000002AFFF23FB710023BB71074B1868BA1D78
:10411000F91D64230093012304F006FCBB791846C3
:104120000837BD4680BD00BFA839002080B582B0E9
:1041300000AF0346FB71054B1868F91D642301228B
:1041400004F0AFFA00BF0837BD4680BDA839002093
:1041500080B586B002AF78600B467B80FF237B730F
:104160000023FB810EE00C4B1868FB897A681A4427
:1041700007F10D01C8230093012304F0D5FBFB894F
:104180000133FB81FA897B889A42ECD300BF00BFE0
:104190001037BD4680BD00BFA839002080B582B071
:1041A00000AF78600B467B80054B18687A88C8237F
:1041B000796804F076FA00BF0837BD4680BD00BFBD
:1041C000A839002080B500AF00220821074800F080
:1041D000C1FE022000F0A8F801220821034800F0E7
:1041E000B9FE962000F0A0F800BF80BD0008024094
:1041F000DFF834D0FFF74EFD0C480D490D4A00237F
:1042000002E0D458C4500433C4188C42F9D30A4A8B
:104210000A4C002301E013600432A242FBD357F0A2
:10422000C5FEFEF7A5FA704700000220000000203E
:104230003802002024590708380200209C60002022
:10424000FEE7000080B500AF0E4B1B680D4A43F43B
:10425000007313600B4B1B680A4A43F480631360BE
:10426000084B1B68074A43F480731360032000F077
:104270006FF90F2000F008F8FFF752FC00231846F2
:1042800080BD00BF003C024080B582B000AF7860C6
:10429000124B1A68124B1B7819464FF47A73B3FB12
:1042A000F1F3B2FBF3F3184600F087F90346002B55
:1042B00001D001230EE07B680F2B0AD80022796819
:1042C0004FF0FF3000F04FF9064A7B68136000237F
:1042D00000E0012318460837BD4680BD00000020DD
:1042E000080000200400002080B400AF064B1B78BB
:1042F0001A46064B1B681344044A136000BFBD46B0
:104300005DF8047B704700BF08000020AC39002036
:1043100080B400AF034B1B681846BD465DF8047BB4
:10432000704700BFAC39002080B584B000AF786022
:10433000FFF7EEFFB8607B68FB60FB68B3F1FF3FFF
:1043400005D00A4B1B781A46FB681344FB6000BF7C
:10435000FFF7DEFF0246BB68D31AFA689A42F7D825
:1043600000BF00BF1037BD4680BD00BF0800002061
:1043700080B400AF054B1B68044A23F002031360AE
:1043800000BFBD465DF8047B704700BF10E000E051
:1043900080B400AF054B1B68044A43F0020313606E
:1043A00000BFBD465DF8047B704700BF10E000E031
:1043B00080B485B000AF78607B6803F00703FB60D2
:1043C0000C4BDB68BB60BA684FF6FF031340BB6061
:1043D000FB681A02BB68134343F0BF6343F4003326
:1043E000BB60044ABB68D36000BF1437BD465DF8AC
:1043F000047B704700ED00E080B400AF044BDB6845
:104400001B0A03F007031846BD465DF8047B70479E
:1044100000ED00E080B483B000AF0346FB7197F974
:104420000730002B0BDBFB7903F01F02074997F9DC
:1044300007305B09012000FA02F241F8232000BF97
:104440000C37BD465DF8047B704700BF00E100E01B
:1044500080B483B000AF03463960FB7197F9073031
:10446000002B0ADB3B68DAB20C4997F907301201DE
:10447000D2B20B4483F800230AE03B68DAB2084961
:10448000FB7903F00F03043B1201D2B20B441A76FE
:1044900000BF0C37BD465DF8047B704700E100E0CB
:1044A00000ED00E080B489B000AFF860B9607A60D8
:1044B000FB6803F00703FB61FB69C3F10703042BEF
:1044C00028BF0423BB61FB690433062B02D9FB69B7
:1044D000033B00E000237B614FF0FF32BB6902FA2F
:1044E00003F3DA43BB681A407B699A404FF0FF310F
:1044F0007B6901FA03F3D9437B680B4013431846E9
:104500002437BD465DF8047B7047000080B582B05B
:1045100000AF78607B68013BB3F1807F01D301235A
:104520000FE00A4A7B68013B53600F214FF0FF30D8
:10453000FFF78EFF054B00229A60044B07221A609A
:10454000002318460837BD4680BD00BF10E000E0DC
:1045500080B582B000AF78607868FFF729FF00BFB0
:104560000837BD4680BD80B586B000AF0346B96050
:104570007A60FB7300237B61FFF73EFF78617A6806
:10458000B9687869FFF78EFF024697F90F30114638
:104590001846FFF75DFF00BF1837BD4680BD80B5E8
:1045A00082B000AF0346FB7197F907301846FFF75A
:1045B00031FF00BF0837BD4680BD80B582B000AF77
:1045C00078607868FFF7A2FF034618460837BD46B3
:1045D00080BD000080B586B000AF786000237B61AD
:1045E000FFF796FE38617B68002B01D1012399E02B
:1045F0007B68022283F835207B68002283F8342010
:104600007B681B681A687B681B6822F001021A60CD
:104610000FE0FFF77DFE02463B69D31A052B08D950
:104620007B6820225A657B68032283F835200323A8
:1046300078E07B681B681B6803F00103002BE8D15E
:104640007B681B681B687B617A69384B13407B6110
:104650007B685A687B689B681A437B68DB681A43EF
:104660007B681B691A437B685B691A437B689B699B
:104670001A437B68DB691A437B681B6A13437A69B8
:1046800013437B617B685B6A042B07D17B68DA6A22
:104690007B681B6B13437A6913437B617B681B68E0
:1046A0007A691A607B681B685B697B617B6923F0B0
:1046B00007037B617B685B6A7A6913437B617B6874
:1046C0005B6A042B17D17B689B6A7A6913437B6111
:1046D0007B68DB6A002B0ED0786800F00BFA03468B
:1046E000002B08D07B6840225A657B68012283F842
:1046F0003520012316E07B681B687A695A61786867
:1047000000F0C2F90346FB607B68DB6D3F229A40F4
:10471000FB689A607B6800225A657B68012283F8F7
:104720003520002318461837BD4680BD3F8010F065
:1047300080B483B000AF78607B6893F83530DBB22B
:10474000022B04D07B6880225A6501230CE07B6831
:10475000052283F835207B681B681A687B681B6814
:1047600022F001021A60002318460C37BD465DF89E
:10477000047B704780B586B000AF78600023BB60D3
:104780008E4B1B688E4AA2FB03239B0A7B617B68CE
:104790009B6D3B613B691B68FB607B68DB6D08229E
:1047A0009A40FB681340002B1AD07B681B681B687B
:1047B00003F00403002B13D07B681B681A687B6826
:1047C0001B6822F004021A607B68DB6D08229A40A5
:1047D0003B699A607B685B6D43F001027B685A65B8
:1047E0007B68DB6D01229A40FB681340002B12D0DE
:1047F0007B681B685B6903F08003002B0BD07B6830
:10480000DB6D01229A403B699A607B685B6D43F0E7
:1048100002027B685A657B68DB6D04229A40FB6864
:104820001340002B12D07B681B681B6803F0020347
:10483000002B0BD07B68DB6D04229A403B699A60A9
:104840007B685B6D43F004027B685A657B68DB6DB7
:1048500010229A40FB681340002B43D07B681B68F2
:104860001B6803F00803002B3CD07B68DB6D102233
:104870009A403B699A607B681B681B6803F480233D
:10488000002B18D07B681B681B6803F40023002BE7
:1048900008D17B681B6C002B24D07B681B6C78686C
:1048A00098471FE07B689B6C002B1BD07B689B6C40
:1048B0007868984716E07B681B681B6803F4807370
:1048C000002B07D17B681B681A687B681B6822F085
:1048D00008021A607B681B6C002B03D07B681B6C82
:1048E000786898477B68DB6D20229A40FB6813400C
:1048F000002B00F08F807B681B681B6803F010039F
:10490000002B00F087807B68DB6D20229A403B699A
:104910009A607B6893F83530DBB2052B36D17B6823
:104920001B681A687B681B6822F016021A607B6895
:104930001B685A697B681B6822F080025A617B6899
:104940001B6C002B03D17B689B6C002B07D07B6812
:104950001B681A687B681B6822F008021A607B6873
:10496000DB6D3F229A403B699A607B68012283F8A5
:1049700035207B68002283F834207B681B6D002B78
:104980007ED07B681B6D7868984779E07B681B68F0
:104990001B6803F48023002B1DD07B681B681B68F9
:1049A00003F40023002B0DD17B685B6C002B31D00E
:1049B0007B685B6C786898472CE000BF00000020A3
:1049C000B5814E1B7B68DB6B002B23D07B68DB6BD8
:1049D000786898471EE07B681B681B6803F4807347
:1049E000002B0FD17B681B681A687B681B6822F05C
:1049F00010021A607B68012283F835207B68002250
:104A000083F834207B68DB6B002B03D07B68DB6B87
:104A1000786898477B685B6D002B32D07B685B6D54
:104A200003F00103002B22D07B68052283F8352098
:104A30007B681B681A687B681B6822F001021A6099
:104A4000BB680133BB607A699A4207D37B681B68F5
:104A50001B6803F00103002BF2D100E000BF7B686C
:104A6000012283F835207B68002283F834207B689C
:104A7000DB6C002B05D07B68DB6C7868984700E026
:104A800000BF1837BD4680BD80B485B000AF7860E8
:104A90007B681B68DBB2103B144AA2FB03231B0993
:104AA000FB60134AFB6813441B781A467B68DA657F
:104AB000FB68032B09D97B681B6823F47F7323F001
:104AC00003031A1D7B689A6507E07B681B6823F463
:104AD0007F7323F003037A6893657B689B6D1846A8
:104AE0001437BD465DF8047B704700BFABAAAAAA85
:104AF000CCAA060880B485B000AF78600023FB73B1
:104B00007B689B6ABB607B689B69002B1FD1BB687D
:104B1000032B56D801A252F823F000BF2D4B0008FA
:104B20003F4B00082D4B0008C34B00087B68DB6A35
:104B300003F08073002B46D00123FB7343E07B68B6
:104B4000DB6AB3F1C07F40D10123FB733DE07B689A
:104B50009B69B3F5005F21D1BB68032B37D801A255
:104B600052F823F0754B00087B4B0008754B00088A
:104B70008D4B00080123FB7330E07B68DB6A03F098
:104B80008073002B25D00123FB7322E07B68DB6A56
:104B9000B3F1C07F1FD10123FB731CE0BB68022B64
:104BA00003D9BB68032B03D018E00123FB7315E086
:104BB0007B68DB6A03F08073002B0ED00123FB734C
:104BC0000BE000BF0AE000BF08E000BF06E000BF46
:104BD00004E000BF02E000BF00E000BFFB7B18461E
:104BE0001437BD465DF8047B704700BF80B489B0C0
:104BF00000AF7860396000237B6100233B610023B4
:104C0000BB610023FB616BE10122FB6902FA03F344
:104C10007B613B681B687A6913403B613A697B6939
:104C20009A4240F05A813B685B6803F00303012B12
:104C300005D03B685B6803F00303022B30D17B682F
:104C40009B68BB61FB695B00032202FA03F3DB4351
:104C5000BA691340BB613B68DA68FB695B0002FA22
:104C600003F3BA691343BB617B68BA699A607B68D6
:104C70005B68BB610122FB6902FA03F3DB43BA699B
:104C80001340BB613B685B681B0903F00102FB69D1
:104C900002FA03F3BA691343BB617B68BA695A60CD
:104CA0003B685B6803F00303032B17D07B68DB686A
:104CB000BB61FB695B00032202FA03F3DB43BA69C1
:104CC0001340BB613B689A68FB695B0002FA03F31F
:104CD000BA691343BB617B68BA69DA603B685B6899
:104CE00003F00303022B23D1FB69DA087B68083247
:104CF00053F82230BB61FB6903F007039B000F22CE
:104D000002FA03F3DB43BA691340BB613B681A69DB
:104D1000FB6903F007039B0002FA03F3BA6913432C
:104D2000BB61FB69DA087B680832B96943F8221075
:104D30007B681B68BB61FB695B00032202FA03F31B
:104D4000DB43BA691340BB613B685B6803F0030255
:104D5000FB695B0002FA03F3BA691343BB617B682A
:104D6000BA691A603B685B6803F44033002B00F0BB
:104D7000B4800023FB60604B5B6C5F4A43F480436C
:104D800053645D4B5B6C03F48043FB60FB685B4AE0
:104D9000FB699B08023352F82330BB61FB6903F0C7
:104DA00003039B000F2202FA03F3DB43BA691340AB
:104DB000BB617B68524A93422BD07B68514A934235
:104DC00025D07B68504A93421FD07B684F4A93425C
:104DD00019D07B684E4A934213D07B684D4A934268
:104DE0000DD07B684C4A934207D07B684B4A934274
:104DF00001D107230EE008230CE006230AE0052377
:104E000008E0042306E0032304E0022302E0012378
:104E100000E00023FA6902F0030292009340BA69AD
:104E20001343BB613549FB699B080233BA6941F8FA
:104E300023203B4B9B68BB613B69DB43BA69134052
:104E4000BB613B685B6803F48013002B03D0BA6935
:104E50003B691343BB61324ABB699360304BDB68EB
:104E6000BB613B69DB43BA691340BB613B685B686C
:104E700003F40013002B03D0BA693B691343BB61F1
:104E8000274ABB69D360264B5B68BB613B69DB4348
:104E9000BA691340BB613B685B6803F40033002BC5
:104EA00003D0BA693B691343BB611D4ABB695360B8
:104EB0001B4B1B68BB613B69DB43BA691340BB6199
:104EC0003B685B6803F48033002B03D0BA693B690D
:104ED0001343BB61124ABB691360FB690133FB6179
:104EE000FB690F2B7FF690AE00BF00BF2437BD4695
:104EF0005DF8047B704700BF003802400038014075
:104F0000000002400004024000080240000C024081
:104F1000001002400014024000180240001C024031
:104F2000003C014080B485B000AF78600B467B80C8
:104F30007B681A697B881340002B02D00123FB7326
:104F400001E00023FB73FB7B18461437BD465DF878
:104F5000047B704780B483B000AF78600B467B80E1
:104F600013467B707B78002B03D07A887B689A612C
:104F700003E07B881A047B689A6100BF0C37BD464A
:104F80005DF8047B704780B485B000AF78600B4655
:104F90007B807B685B69FB607A88FB6813401A043E
:104FA000FB68D9437B880B401A437B689A6100BF3A
:104FB0001437BD465DF8047B7047000080B584B0AF
:104FC00000AF78607B68002B01D101232BE17B6867
:104FD00093F83D30DBB2002B06D17B68002283F8CA
:104FE0003C20786800F02EF97B68242283F83D206D
:104FF0007B681B681A687B681B6822F001021A60D4
:105000007B681B681A687B681B6842F400421A6060
:105010007B681B681A687B681B6822F400421A6070
:1050200001F0F0FBF8607B685B68814A934207D827
:10503000FB68804A934294BF01230023DBB206E061
:10504000FB687D4A934294BF01230023DBB2002B0F
:1050500001D00123E7E0FB68784AA2FB03239B0C05
:10506000BB607B681B685B6823F03F017B681B6843
:10507000BA680A435A607B681B681B6A23F03F01C9
:105080007B685B686A4A934202D8BB68013309E0D7
:10509000BB684FF4967202FB03F3694AA2FB032339
:1050A0009B0901337A6812680B4313627B681B68A3
:1050B000DB6923F44F4222F0FF027B685B685C49A6
:1050C0008B4219D8FB68591E7B685B685B00B1FB9B
:1050D000F3F3591C40F6FC730B40002B0AD0FB681D
:1050E000591E7B685B685B00B1FBF3F30133C3F3CC
:1050F0000B0351E004234FE07B689B68002B11D128
:10510000FB68581E7B6859680B465B000B44B0FB7C
:10511000F3F30133C3F30B03002B0CBF0123002374
:10512000DBB212E0FB68581E7B6859680B469B0097
:105130000B4499000B44B0FBF3F30133C3F30B03AF
:10514000002B0CBF01230023DBB2002B01D0012375
:1051500022E07B689B68002B0ED1FB68581E7B68A1
:1051600059680B465B000B44B0FBF3F30133C3F308
:105170000B0343F400430FE0FB68581E7B6859683B
:105180000B469B000B4499000B44B0FBF3F3013337
:10519000C3F30B0343F44043796809681343CB61BD
:1051A0007B681B681B6823F0C0017B68DA697B6839
:1051B0001B6A1A437B681B680A431A607B681B687A
:1051C0009B6823F4034323F0FF037A6811697A682C
:1051D000D26811437A6812680B4393607B681B683E
:1051E000DB6823F0FF017B685A697B689B691A437F
:1051F0007B681B680A43DA607B681B681A687B68F7
:105200001B6842F001021A607B6800221A647B6806
:10521000202283F83D207B6800221A637B680022ED
:1052200083F83E20002318461037BD4680BD00BFDE
:10523000A08601007F841E00FF083D0083DE1B4323
:10524000D34D621080B483B000AF786000BF0C37DC
:10525000BD465DF8047B704780B58CB002AFF86046
:10526000084611461A4603467B810B463B8113468E
:10527000FB80FFF74DF87862FB6893F83D30DBB2B6
:10528000202B40F014827B6A0093192301227B4972
:10529000F86800F029FC0346002B01D0022307E246
:1052A000FB6893F83C30012B01D1022300E2FB683C
:1052B000012283F83C20FB681B681B6803F0010394
:1052C000012B07D0FB681B681A68FB681B6842F05B
:1052D00001021A60FB681B681A68FB681B6822F4ED
:1052E00000621A60FB68222283F83D20FB6840229E
:1052F00083F83E20FB6800221A64FB683A6B5A620E
:10530000FB68BA8E5A85FB685B8D9AB2FB681A857A
:10531000FB685B4ADA62F8883A8979897B6A01938B
:10532000BB6B00930346F86800F0F6FA0346002BC7
:1053300001D00123BCE1FB681B8D002B13D100239E
:105340003B62FB681B685B693B62FB681B689B698F
:105350003B623B6AFB681B681A68FB681B6842F487
:1053600000721A6090E1FB681B8D012B1BD1FB685A
:105370001B681A68FB681B6822F480621A600023AD
:10538000FB61FB681B685B69FB61FB681B689B69D1
:10539000FB61FB69FB681B681A68FB681B6842F4C9
:1053A00000721A6070E1FB681B8D022B1BD1FB6839
:1053B0001B681A68FB681B6822F480621A60FB682D
:1053C0001B681A68FB681B6842F400621A600023BD
:1053D000BB61FB681B685B69BB61FB681B689B6901
:1053E000BB61BB6950E100237B61FB681B685B69A3
:1053F0007B61FB681B689B697B617B6944E1FB689F
:105400001B8D032B00F2F180FB681B8D012B23D138
:105410007A6AB96BF86800F0C9FC0346002B01D02A
:10542000012345E1FB681B681A69FB685B6AD2B21D
:105430001A70FB685B6A5A1CFB685A62FB681B8D1A
:10544000013B9AB2FB681A85FB685B8D9BB2013BFE
:105450009AB2FB685A8517E1FB681B8D022B4ED16F
:105460007B6A0093BB6B00220649F86800F03CFBA6
:105470000346002B08D001231AE100BF02001000F0
:105480000000FFFF04000100FB681B681A68FB684E
:105490001B6842F400721A60FB681B681A69FB689B
:1054A0005B6AD2B21A70FB685B6A5A1CFB685A626C
:1054B000FB681B8D013B9AB2FB681A85FB685B8D0C
:1054C0009BB2013B9AB2FB685A85FB681B681A695C
:1054D000FB685B6AD2B21A70FB685B6A5A1CFB6895
:1054E0005A62FB681B8D013B9AB2FB681A85FB6808
:1054F0005B8D9BB2013B9AB2FB685A85C4E07B6A24
:105500000093BB6B00226C49F86800F0EDFA03468B
:10551000002B01D00123CBE0FB681B681A68FB68F5
:105520001B6822F480621A60FB681B681A69FB68BA
:105530005B6AD2B21A70FB685B6A5A1CFB685A62DB
:10554000FB681B8D013B9AB2FB681A85FB685B8D7B
:105550009BB2013B9AB2FB685A857B6A0093BB6B96
:1055600000225549F86800F0BFFA0346002B01D02D
:1055700001239DE0FB681B681A68FB681B6842F406
:1055800000721A60FB681B681A69FB685B6AD2B21A
:105590001A70FB685B6A5A1CFB685A62FB681B8DB9
:1055A000013B9AB2FB681A85FB685B8D9BB2013B9D
:1055B0009AB2FB685A85FB681B681A69FB685B6ACC
:1055C000D2B21A70FB685B6A5A1CFB685A62FB68AD
:1055D0001B8D013B9AB2FB681A85FB685B8D9BB201
:1055E000013B9AB2FB685A854EE07A6AB96BF8685B
:1055F00000F0DCFB0346002B01D0012358E0FB68E0
:105600001B681A69FB685B6AD2B21A70FB685B6A36
:105610005A1CFB685A62FB681B8D013B9AB2FB68FF
:105620001A85FB685B8D9BB2013B9AB2FB685A8579
:10563000FB681B685B6903F00403042B24D1FB683F
:105640001B8D032B07D1FB681B681A68FB681B685E
:1056500022F480621A60FB681B681A69FB685B6A47
:10566000D2B21A70FB685B6A5A1CFB685A62FB680C
:105670001B8D013B9AB2FB681A85FB685B8D9BB260
:10568000013B9AB2FB685A85FB681B8D002B7FF4A7
:10569000B6AEFB68202283F83D20FB68002283F829
:1056A0003E20FB68002283F83C20002300E0022318
:1056B00018462837BD4680BD0400010080B58AB079
:1056C00002AFF8607A603B600B467B81FEF720FEFC
:1056D000F8610023BB61FB6893F83D30DBB2202BFF
:1056E00040F01181FB690093192301228849F86871
:1056F00000F0FAF90346002B01D0022304E1FB6815
:1057000093F83C30012B01D10223FDE0FB6801221C
:1057100083F83C20FB681B681B6803F00103012B26
:1057200007D0FB681B681A68FB681B6842F001021F
:105730001A60FB681B681A68FB681B6822F4006229
:105740001A60FB68242283F83D20FB6800221A645B
:10575000FB68704ADA62FB681B681A68FB681B68A2
:1057600042F480721A60FB6900933B6800224FF09C
:105770000111F86800F0B8F90346002B0DD0FB6862
:105780001B681B6803F48073B3F5807F03D1FB684B
:105790004FF400721A640323B6E07B89DBB21A4629
:1057A000FB681B6802F0FE021A61FEF7B1FDF861AA
:1057B000FB681B685B6903F00203022B0CBF01232B
:1057C0000023DBB2FB75FB681B685B6903F4806335
:1057D000B3F5806F0CBF01230023DBB2BB7525E05E
:1057E000FEF796FD0246FB69D31A3A689A4202D345
:1057F0003B68002B03D1FB68A02283F83D20FB68A7
:105800001B685B6903F00203022B0CBF012300231A
:10581000DBB2FB75FB681B685B6903F48063B3F55F
:10582000806F0CBF01230023DBB2BB75FB6893F8CC
:105830003D30DBB2A02B05D0FB7D002B02D1BB7D20
:10584000002BCDD0FB68202283F83D20FB681B682D
:105850005B6903F00203022B29D1FB681B681A68FD
:10586000FB681B6842F400721A6000233B61FB680E
:105870001B685B693B61FB681B689B693B613B691B
:10588000FB690093192301222149F86800F02CF9E3
:105890000346002B01D0012336E0FB68202283F869
:1058A0003D20FB68002283F83C2000232CE0FB68AD
:1058B0001B681A68FB681B6842F400721A60FB6878
:1058C0001B686FF480625A61FB69009319230122FF
:1058D0000F49F86800F008F90346002B01D00123B6
:1058E00012E0BB690133BB61BA697B689A42FFF47D
:1058F00032AFFB68202283F83D20FB68002283F84A
:105900003C20012300E0022318462037BD4680BD1D
:10591000020010000000FFFF80B588B002AFF86001
:10592000084611461A4603467B810B463B811346C7
:10593000FB80FB681B681A68FB681B6842F4806286
:105940001A60FB681B681A68FB681B6842F4807267
:105950001A607B6A00933B6A00224FF00111F868DD
:1059600000F0C2F80346002B0DD0FB681B681B68D3
:1059700003F48073B3F5807F03D1FB684FF40072AA
:105980001A640323AAE07B89DBB21A46FB681B6812
:1059900002F0FE021A617B6A3A6A5249F86800F026
:1059A0001DF90346002B01D0012397E000237B6102
:1059B000FB681B685B697B61FB681B689B697B619B
:1059C0007B697A6A396AF86800F0A8F90346002B07
:1059D0000DD0FB681B6C042B07D1FB681B681A6891
:1059E000FB681B6842F400721A60012376E0FB88B2
:1059F000012B05D13B89DAB2FB681B681A6121E0F3
:105A00003B891B0A9BB2DAB2FB681B681A617A6A8F
:105A1000396AF86800F082F90346002B0DD0FB6864
:105A20001B6C042B07D1FB681B681A68FB681B689A
:105A300042F400721A60012350E03B89DAB2FB683D
:105A40001B681A617A6A396AF86800F067F90346D8
:105A5000002B0DD0FB681B6C042B07D1FB681B6867
:105A60001A68FB681B6842F400721A60012335E073
:105A7000FB681B681A68FB681B6842F480721A6036
:105A80007B6A00933B6A00224FF00111F86800F036
:105A90002BF80346002B0DD0FB681B681B6803F432
:105AA0008073B3F5807F03D1FB684FF400721A64F2
:105AB000032313E07B89DBB243F00103DAB2FB6816
:105AC0001B681A617B6A3A6A0649F86800F086F832
:105AD0000346002B01D0012300E0002318461837AD
